:100000000C946F010C9420160C9447160C946E16E9
:100010000C9495160C9497010C9497010C94BC16B3
:100020000C9497010C9497010C948D1E0C94141D44
:100030000C9497010C9497010C9497010C949701E0
:100040000C9497010C9497010C9497010C949701D0
:100050000C9497010C9497010C9497010C94E3165F
:100060000C9497010C9497010C9497010C949701B0
:100070000C9497010C9497010C9497010C949701A0
:100080000C9497010C9497010C9497010C94970190
:100090000C94A2140C9497010C9497010C94970162
:1000A0000C9497010C9497010C9497013E184118F9
:1000B000301834183A18621862186218451849182E
:1000C0004D185318571862185D18070605040100EB
:1000D000080A0B0C0D090000000200090F000003C4
:1000E0000401000C000000000000000000000000FF
:1000F0000000000000040802011040804010204071
:10010000804080080204018040201002011080100D
:1001100020404020040404040403040502020202F7
:100120000403020202020606060606060404020290
:10013000020404000000002300260029002C002FE8
:100140000000000000250028002B002E00310000D8
:10015000000000240027002A002D003000120100BA
:1001600002EF0201409A230C8000010102030112F8
:10017000010002000000409A230C800001010203EC
:1001800001416461667275697400466561746865F1
:100190007220333275340004030904080B00020294
:1001A0000201000904000001020200000524001001
:1001B00001052401010104240206052406000107AB
:1001C00005810310004009040100020A0000000735
:1001D0000502024000000705830240000000407A4B
:1001E00010F35A00A0724E18090010A5D4E80000C0
:1001F000E87648170000E40B54020000CA9A3B005E
:100200000000E1F505000080969800000040420FD4
:10021000000000A08601000000102700000000E898
:1002200003000000006400000000000A000000005D
:10023000000100000000002C76D888DC674F0823FE
:10024000DFC1DFAE59E1B1B796E5E3E453C63AE664
:1002500051997696E8E6C28426EB898C9B62ED4044
:100260007C6FFCEFBC9C9F40F2BAA56FA5F4900593
:100270005A2AF75C936B6CF9676DC11BFCE0E40DC7
:1002800047FEF520E6B500D0ED902E0300943577BB
:10029000050080841E080000204E0A000000C80CE3
:1002A000333333330F986E12831141EF8D2114894C
:1002B0003BE65516CFFEE6DB18D1844B381BF77CA6
:1002C0001D901DA4BBE424203284725E228100C9EB
:1002D000F124ECA1E53D27006905C0139321112409
:1002E0001FBECFEFDAE0DEBFCDBF12E0A0E0B1E08D
:1002F000E2E8F3E502C005900D92A83AB107D9F7FC
:1003000024E0A8EAB2E001C01D92AD32B207E1F7E5
:1003100012E0CEEDD2E004C02297FE010E94A2249A
:10032000C83DD107C9F70E94FC180C94BF290C9452
:10033000000080E00E94D21821E0892B09F420E01F
:100340002093C50281E00E94D21821E0892B09F494
:1003500020E02093C4028091C302882321F0809181
:10036000C202811109C08091C302811112C0809123
:10037000C202811163C00DC08091C502811104C009
:100380008091C402811150C08091C502882319F167
:100390001DC08091C302811105C08091C2028823D3
:1003A00009F459C08091C3028823A9F08091C20248
:1003B000811111C08091C502882321F08091C4026F
:1003C00081116EC08091C502811105C08091C40267
:1003D000882309F46FC08091BE029091BF020497F8
:1003E00034F08091C0029091C10201960CC08091BE
:1003F000BE029091BF028D3F9F4F6CF48091C0026E
:100400009091C10201979093C1028093C002109213
:10041000BF021092BE028091C5028093C3028091F8
:10042000C4028093C20208958091BE029091BF02DF
:1004300001969093BF028093BE02A6CF8091C50221
:10044000811104C08091C4028823B1F08091C5025B
:10045000882309F20CC08091C502882321F0809185
:10046000C402882399F08091C5028111B4CF809194
:10047000C40281111FC0AFCF8091BE029091BF0214
:1004800001969093BF028093BE02E0CF8091BE029E
:100490009091BF0201969093BF028093BE02E3CF7A
:1004A0008091BE029091BF0201969093BF0280930B
:1004B000BE0288CF8091BE029091BF0201979093B7
:1004C000BF028093BE0287CF80E00E94D21821E055
:1004D000892B09F420E02093C50281E00E94D21804
:1004E00021E0892B09F420E02093C4028091C3020B
:1004F000882321F08091C202811109C08091C3023A
:10050000811112C08091C202811163C00DC080911F
:10051000C502811104C08091C402811150C0809134
:10052000C502882319F11DC08091C302811105C045
:100530008091C202882309F459C08091C3028823A4
:10054000A9F08091C202811111C08091C502882357
:1005500021F08091C40281116EC08091C502811189
:1005600005C08091C402882309F46FC08091BE0247
:100570009091BF02049734F08091C0029091C10223
:1005800001960CC08091BE029091BF028D3F9F4F9B
:100590006CF48091C0029091C10201979093C102C6
:1005A0008093C0021092BF021092BE028091C502D9
:1005B0008093C3028091C4028093C2020895809107
:1005C000BE029091BF0201969093BF028093BE023B
:1005D000A6CF8091C502811104C08091C4028823F6
:1005E000B1F08091C502882309F20CC08091C50248
:1005F000882321F08091C402882399F08091C5025C
:100600008111B4CF8091C40281111FC0AFCF8091FE
:10061000BE029091BF0201969093BF028093BE02EA
:10062000E0CF8091BE029091BF0201969093BF02ED
:100630008093BE02E3CF8091BE029091BF020196EB
:100640009093BF028093BE0288CF8091BE029091AA
:10065000BF0201979093BF028093BE0287CF00979D
:1006600029F48BED92E00E94A51206C00197C1F417
:100670008BED92E00E94CA12BC01882777FD80951D
:10068000982F0E944F2320E030E040E853E40E947E
:10069000032420E03EEF4FEF56E40E94B422089579
:1006A00060E070E0CB010895CF93FC0180819181DF
:1006B0000E942F03C1E02AE037ED43E25CE30E9491
:1006C000FF2318160CF0C0E08C2FCF910895CF9225
:1006D000DF92EF92FF920F931F93CF93DF93EC0182
:1006E000E880F9808E81811135C0EE0CFF1CEE0C84
:1006F000FF1C6E0187E0C80ED11C87010C5F1F4FE5
:10070000C7010E940C27F60181936F01FFEFEF1ADA
:10071000FF0AE016F106A1F781E08E83CF80D8842E
:10072000E984FA8422E538EB4EEC5FE3C701B601B9
:100730000E94B02287FD0AC020E030E048E250E489
:10074000C701B6010E94FF23181624F41F821886E1
:1007500019861A866F81788589859A85DF91CF9170
:100760001F910F91FF90EF90DF90CF900895CF935E
:100770000E946703C1E020E030E0A9010E94FF234E
:1007800018160CF0C0E08C2FCF910895CF93DF9313
:10079000EC010E94B703882339F0CE010E94540374
:1007A000882311F081E001C080E0DF91CF910895AE
:1007B000CF92DF92EF92FF92CF93DF93EC010E94F2
:1007C000B703882301F1CE010E9454038823D9F096
:1007D000888199810E942F0320E030E0A9010E94C6
:1007E000FF23181684F4888199810E942F036B01DE
:1007F0007C01CE010E9467039B01AC01C701B601D9
:100800000E94032403C060E070E0CB01DF91CF9130
:10081000FF90EF90DF90CF9008958F929F92AF92CC
:10082000BF92CF92DF92EF92FF92CF93DF93EC01D2
:100830000E94B703882309F468C0CE010E945403C4
:10084000882309F462C0CE010E94D8036B017C01A9
:100850006A817B81882777FD8095982F0E944F239E
:1008600020E030E040E251E40E94B4224B015C0100
:100870006C817D81882777FD8095982F0E944F237A
:1008800020E030E040E251E40E94B4229B01AC0140
:10089000C501B4010E944C229B01AC01C701B60105
:1008A0000E94FF2318169CF1CE010E94D8036B0111
:1008B0007C016A817B81882777FD8095982F0E9433
:1008C0004F2320E030E040E251E40E94B4224B018B
:1008D0005C016C817D81882777FD8095982F0E942F
:1008E0004F2320E030E040E251E40E94B4229B011B
:1008F000AC01C501B4010E944B229B01AC01C701B0
:10090000B6010E94B02287FD02C081E001C080E0F4
:10091000DF91CF91FF90EF90DF90CF90BF90AF909D
:100920009F908F900895AF92BF92CF92DF92EF92F7
:10093000FF920F931F93CF93DF9300D000D01F92AD
:10094000CDB7DEB76C0149835A836B837C83FC018E
:1009500000811181000F111F000F111FCE010196A0
:100960007C015E0195E0A90EB11CF70161917F0148
:10097000C8016D830E940C276D81681719F0C801AA
:100980000E9414270F5F1F4FEA14FB0471F7F60152
:1009900016820F900F900F900F900F90DF91CF91D4
:1009A0001F910F91FF90EF90DF90CF90BF90AF908D
:1009B00008950F931F930E94D2189093DA028093A8
:1009C000D902209136013091370182179307A1F0A7
:1009D000892B91F40E942D176093CD027093CE0263
:1009E0008093CF029093D0028091D9029091DA0245
:1009F00090933701809336010E942D170091CD020C
:100A00001091CE022091CF023091D002601B710B69
:100A1000820B930B00912E0110912F012091300138
:100A200030913101061717072807390758F48091CC
:100A3000D9029091DA022091360130913701821764
:100A4000930711F480E00FC0909337018093360133
:100A50000E942D176093CD027093CE028093CF0237
:100A60009093D00281E01F910F9108958BE10E9435
:100A7000F517BC01882777FD8095982F0E944F239A
:100A80009B01AC010E944C2223E333E343E550E495
:100A90000E94032420E030E040E85AE30E9403244F
:100AA000089540E067E080EE92E00E942A1166E53A
:100AB00071E080EE92E00E945B1941E067E080EE19
:100AC00092E00E942A1166E571E080EE92E00C94BB
:100AD0005B19CF92EF920F9325E0C22E36E0E32E02
:100AE0000AE02BE04CE06DE080EE92E00E94E21123
:100AF00068E48BED92E00E9442120E942D176093F1
:100B0000D5027093D6028093D7029093D8020E94A8
:100B10002D176093D1027093D2028093D3029093E9
:100B2000D40221ED30E03093B6022093B5028FE07D
:100B300090E09093B8028093B7021092B90210929D
:100B4000BA021092BB021092BC021092BD02109227
:100B5000B4021092B3023093AB022093AA02909396
:100B6000AD028093AC021092AE021092AF021092CE
:100B7000B0021092B1021092B20281E090E0909324
:100B8000A9028093A8020F91EF90CF900895FF9251
:100B90000F931F93CF93DF93CDB7DEB72C970FB68C
:100BA000F894DEBF0FBECDBFF42E122F21E0AB01B3
:100BB000BC01CE0107960E942C20402F612F80EEB1
:100BC00092E00E942A11FF2029F062E080EE92E07C
:100BD0000E943C128B859C850597B0F023E030E0A5
:100BE00040E050E0BE01695F7F4FCE0101960E9458
:100BF0005C20BE016F5F7F4FCE0107960E94DC1F15
:100C0000CE0101960E94221F8B859C85049731F0AE
:100C10006EE571E080EE92E00E945B19BE01695FB3
:100C20007F4F80EE92E00E944D19FF2061F065E059
:100C3000610F402F80EE92E00E942A1163E080EE67
:100C400092E00E943C12CE0107960E94221F2C9631
:100C50000FB6F894DEBF0FBECDBFDF91CF911F91CD
:100C60000F91FF9008950F931F930E942D170091ED
:100C7000D5021091D6022091D7023091D802601B84
:100C8000710B820B930B0091320110913301209173
:100C9000340130913501061717072807390708F086
:100CA0007CC083EB92E00E94D8032DEC3CEC4CEC32
:100CB0005DE30E94FF23181674F483EB92E00E9418
:100CC000D80300E010E020E030E040E00E94C705DB
:100CD00060E671E015C08091CB029091CC0240E0BB
:100CE00060E0019739F480EE92E00E942A1162E6FA
:100CF00071E006C080EE92E00E942A116AE571E080
:100D000080EE92E00E945B1988EA92E00E94D8038C
:100D10002DEC3CEC4CEC5DE30E94FF23181674F4C0
:100D200088EA92E00E94D80301E010E020E030E081
:100D300040E00E94C70560E671E008C041E060E065
:100D400080EE92E00E942A116AE571E080EE92E066
:100D50000E945B1940E066E080EE92E00E942A115A
:100D600060E080EE92E00E943C1241E066E080EE9E
:100D700092E00E942A1160E080EE92E00E943C1214
:100D80000E942D176093D5027093D6028093D702EC
:100D90009093D80281E08093CA021F910F91089529
:100DA000CF92DF92EF92FF920F931F93CF93DF9337
:100DB00080EE92E00E94231140E064E080EE92E039
:100DC0000E942A1168E671E080EE92E00E945B19B1
:100DD00041E060E080EE92E00E942A1161E771E05C
:100DE00080EE92E00E945B1966ED76E080E090E094
:100DF0000E945C1780EE92E00E94231185E10E9420
:100E0000D218892BD9F36AEF70E080E090E00E945D
:100E10005C1762E871E080EE92E00E945B1981ED60
:100E200090E09093C1028093C002C8EED3E085E1C8
:100E300090E00E94D904811136C08091C002909147
:100E4000C102893E93402CF0D093C102C093C002EE
:100E50000AC08091C0029091C10297FF04C0109215
:100E6000C1021092C0026091C0027091C102882735
:100E700077FD8095982F0E944F2320E030E040E2DC
:100E800051E40E94B4226B017C0101E010E020E0FB
:100E900030E041E00E94C70563E971E080EE92E036
:100EA0000E945B19C4CF80EE92E00E94231140E0C3
:100EB00067E080EE92E00E942A1160E080EE92E00E
:100EC0000E943C126CE971E080EE92E00E945B1996
:100ED00041E067E080EE92E00E942A1160E080EE3F
:100EE00092E00E943C1265EA71E080EE92E00E947E
:100EF0005B198091B3029091B4020E942F0320E00D
:100F000030E0A9010E94B02218166CF040E060E0C9
:100F100080EE92E00E942A116BE571E080EE92E093
:100F20000E945B190DC08091B3029091B4020E949F
:100F30002F0300E010E020E030E040E00E94C70511
:100F40006CE572E080EE92E00E945B198091A8024D
:100F50009091A9020E942F0320E030E0A9010E9495
:100F6000B02218166CF041E060E080EE92E00E9442
:100F70002A116BE571E080EE92E00E945B190DC0D2
:100F80008091A8029091A9020E942F0301E010E035
:100F900020E030E040E00E94C7056CE572E080EEA2
:100FA00092E00E945B1985E190E00E94D9048823B9
:100FB00009F49FCF83EB92E00E945403882309F445
:100FC0007AC08091B3029091B4020E942F039B01DA
:100FD000AC01C701B6010E94B42222E538EB4EEC09
:100FE0005FE30E94FF2318160CF065C08091B302E6
:100FF0009091B4020E942F039B01AC01C701B6017E
:101000000E94B42220E030E048E250E40E94B02286
:1010100087FF51C08091B3029091B4020E942F03C8
:101020009B01AC01C701B6010E94B422AB01BC0117
:1010300083EB92E00E94930488EA92E00E945403BA
:10104000882309F461C08091A8029091A9020E94AE
:101050002F039B01AC01C701B6010E94B42222E517
:1010600038EB4EEC5FE30E94FF2318160CF04CC0E7
:101070008091A8029091A9020E942F039B01AC01CC
:10108000C701B6010E94B42220E030E048E250E4FB
:101090000E94B02287FF38C08091A8029091A902D7
:1010A0000E942F039B01AC01C701B6010E94B4222C
:1010B000AB01BC0132C083EB92E00E94540381116A
:1010C00004C040E050E0BA01B3CF80EE92E00E944D
:1010D00023116DEA71E080EE92E00E945B1941E01D
:1010E00060E080EE92E00E942A116DEB71E080EEEC
:1010F00092E00E945B1968EB7BE080E090E00E9448
:101100005C170E94D00698CF88EA92E00E945403B0
:1011100081113CC040E050E0BA0188EA92E00E94B0
:10112000930483EB92E00E945403811107C088EA84
:1011300092E00E945403882309F447C080EE92E0B5
:101140000E94231161EB71E080EE92E00E945B1936
:1011500041E060E080EE92E00E942A1162EC71E0D2
:1011600080EE92E00E945B196CED75E080E090E00B
:101170000E945C1780EE92E0DF91CF911F910F915A
:10118000FF90EF90DF90CF900C94231180EE92E0CF
:101190000E9423116DEA71E080EE92E00E945B19DB
:1011A00041E060E080EE92E00E942A116DEB71E078
:1011B00080EE92E00E945B1968EB7BE080E090E0BB
:1011C0000E945C170E94D006ACCF80EE92E00E9495
:1011D00023116DEA71E080EE92E00E945B1941E01C
:1011E00060E080EE92E00E942A116DEB71E080EEEB
:1011F00092E00E945B1968EB7BE080E090E00E9447
:101200005C170E94D0069ACF62E085E10E946318C5
:1012100062E080E00E94631862E081E00E9463184F
:1012200061E087E10E94631861E086E10E94631833
:1012300041E050E069E971E082E00E94D01541E0B0
:1012400050E064E672E083E00E94D01520E042E0C6
:1012500060E180EE92E00E94441146E251E060E0DD
:1012600080EE92E00E9402124EE151E061E080EED9
:1012700092E00E94021246E151E062E080EE92E0CC
:101280000E9402124EE051E063E080EE92E00E9484
:10129000021246E051E064E080EE92E00E94021209
:1012A0008BED92E00E944A1260E07AE08BED92E0D2
:1012B0000E944E1240E063E080EE92E00E942A110C
:1012C00068EC71E080EE92E00E945B1941E060E022
:1012D00080EE92E00E942A110E943605AB01BC010B
:1012E00022E030E080EE92E00E94E81A63ED71E0C7
:1012F00080EE92E00E945B1941E06BE080EE92E0AC
:101300000E942A1165ED71E080EE92E00E945B1967
:1013100060ED77E080E090E00E945C1780EE92E064
:101320000E94231185E10E94D218892BD1F183EB11
:1013300092E00E945403811107C088EA92E00E9463
:101340005403882371F007C083EB92E00E94B70337
:101350008111F3CF0AC088EA92E00E94B703882384
:1013600021F080EE92E00C94231180EE92E00E9436
:1013700023116BED71E080EE92E00E945B1941E079
:1013800060E080EE92E00E942A1162EE71E080EE51
:1013900092E00E945B1960ED77E080E090E00E94AF
:1013A0005C170E94D006DDCF0F931F93CF93DF937E
:1013B00083EB92E00E94C603882309F45DC040E0FD
:1013C00067E080EE92E00E942A116EEE71E080EEFE
:1013D00092E00E945B198091B5029091B6029093C1
:1013E000C1028093C002C8EED3E085E190E00E9484
:1013F000D90481113FC00E9433068091C0029091B0
:10140000C102893E93402CF0D093C102C093C00228
:101410000AC08091C0029091C10297FF04C010924F
:10142000C1021092C0026091C0027091C10270931B
:10143000B6026093B502882777FD8095982F0E94A9
:101440004F2320E030E040E251E40E94B42201E06A
:1014500010E027E030E041E00E94C70568EF71E04E
:1014600080EE92E00E945B1964E080EE92E00E94C0
:101470003C12BBCF0E94510588EA92E00E94C6034D
:10148000882309F45DC040E067E080EE92E00E94AE
:101490002A116BEF71E080EE92E00E945B1980915F
:1014A000AA029091AB029093C1028093C002C8EE51
:1014B000D3E085E190E00E94D90481113FC00E94F1
:1014C00033068091C0029091C102893E93402CF076
:1014D000D093C102C093C0020AC08091C002909113
:1014E000C10297FF04C01092C1021092C002609125
:1014F000C0027091C1027093AB026093AA02882768
:1015000077FD8095982F0E944F2320E030E040E245
:1015100051E40E94B42201E010E027E030E041E015
:101520000E94C70568EF71E080EE92E00E945B19AF
:1015300064E080EE92E00E943C12BBCF0E94510515
:1015400040E067E080EE92E00E942A1165E072E0E0
:1015500080EE92E00E945B198091B7029091B802F0
:101560009093C1028093C002C8EED3E085E190E081
:101570000E94D904811142C00E9433068091C002AA
:101580009091C102893E93402CF0D093C102C09348
:10159000C0020AC08091C0029091C10297FF04C0AE
:1015A0001092C1021092C0026091C0027091C102FB
:1015B0007093B8026093B7028091C0029091C1020B
:1015C0009093AD028093AC02882777FD8095982F89
:1015D0000E944F2320E030E040E251E40E94B42218
:1015E00001E010E028E030E041E00E94C70560E63D
:1015F00071E080EE92E00E945B19B8CF82E090E04B
:101600009093CC028093CB020E945105DF91CF9141
:101610001F910F910895FF920F931F93CF93DF9324
:1016200000D000D000D0CDB7DEB7F62E042F122F99
:101630004AE0BC01CE0101960E940020412F602F9C
:1016400080EE92E00E942A11FF2029F062E080EEF5
:1016500092E00E943C128D819E81029731F06FE0F2
:1016600072E080EE92E00E945B19BE016F5F7F4FD7
:1016700080EE92E00E944D19FF2061F063E0600F60
:10168000412F80EE92E00E942A1163E080EE92E00A
:101690000E943C12CE0101960E94221F26960FB690
:1016A000F894DEBF0FBECDBFDF91CF911F910F9198
:1016B000FF900895AF92BF92CF92DF92EF92FF9288
:1016C0000F931F93CF93DF935B01EA01790120977A
:1016D00041F443E0E40EF11C690142E0C40ED11C68
:1016E0000AC045E0E40EF11C690144E0C40ED11CBF
:1016F000C130D10521F0A9014F5F5F4F01C0A901A1
:1017000061E0C130D10509F060E098010E940B0B47
:10171000402F6C2D80EE92E00E942A1161E172E070
:1017200080EE92E00E945B19A701C230D10511F052
:101730004F5F5F4F61E0229709F060E09801C501BB
:10174000DF91CF911F910F91FF90EF90DF90CF909D
:10175000BF90AF900C940B0B8F929F92AF92BF9261
:10176000CF92DF92EF92FF920F931F93CF93DF936D
:1017700040E067E080EE92E00E942A1163E172E0AF
:1017800080EE92E00E945B198091AA029091AB02D8
:10179000813D910529F06AE070E00E946A2402C050
:1017A00065E170E07093C1026093C002C3E6D0E0CF
:1017B0006AE0F62E85E190E00E94D904811136C0DE
:1017C0000E9433068091C0029091C1028436910537
:1017D0002CF0D093C102C093C0020AC08091C00215
:1017E0009091C10297FF04C01092C1021092C002F2
:1017F0002091C0023091C102F29EC001F39E900D73
:1018000011249093AB028093AA028091C002909120
:10181000C1026091C8027091C90201E010E027E0A6
:1018200030E041E050E00E945A0BC4CF41E067E055
:1018300080EE92E00E942A1167E571E080EE92E06E
:101840000E945B198091C8029091C9029093C102D5
:101850008093C0024AE0E42EF12C56EFC52EDD2421
:10186000DA9485E190E00E94D904811173C00E944E
:101870003306E091C002F091C1022091AA0230919A
:10188000AB02C901B7010E946A24EB01E60FF71F02
:10189000E436F1055CF0C901B6010E946A246C5976
:1018A0007F4F7093C1026093C0020AC08091C00252
:1018B0009091C10297FF04C01092C1021092C00221
:1018C0000091C0021091C102B901882777FD80956F
:1018D000982F0E944F2320E030E040E251E40E9424
:1018E000B4224B015C01B801882777FD8095982FC1
:1018F0000E944F239B01AC0160E070E088EC92E411
:101900000E944B229B01AC01C501B4010E94B4228C
:1019100020E030E04AE754E40E9403240E941C23A4
:101920007093B6026093B5028091C0029091C1029B
:101930009093C9028093C8026091C0027091C10265
:1019400001E010E027E030E042E050E0CE010E94EC
:101950005A0B87CF0E94510540E067E080EE92E08D
:101960000E942A1165E072E080EE92E00E945B190D
:101970008091B7029091B8029093C1028093C00207
:10198000C8EED3E085E190E00E94D904811142C005
:101990000E9433068091C0029091C102893E93401B
:1019A0002CF0D093C102C093C0020AC08091C00243
:1019B0009091C10297FF04C01092C1021092C00220
:1019C0006091C0027091C1027093B8026093B70237
:1019D0008091C0029091C1029093AD028093AC02BD
:1019E000882777FD8095982F0E944F2320E030E0D4
:1019F00040E251E40E94B42201E010E028E030E02F
:101A000041E00E94C70560E671E080EE92E00E942E
:101A10005B19B8CF0E94510581E090E09093CC0211
:101A20008093CB02DF91CF911F910F91FF90EF90A8
:101A3000DF90CF90BF90AF909F908F9008950F93BD
:101A40001F93CF93DF930E942D176093D102709361
:101A5000D2028093D3029093D4021092C1021092CA
:101A6000C002C091C002D091C1020E94510540E065
:101A700068E080EE92E00E942A116DE172E080EE53
:101A800092E00E945B1941E06AE080EE92E00E94E1
:101A90002A1165E272E080EE92E00E945B190E94DA
:101AA0002D170091D1021091D2022091D3023091D2
:101AB000D402601B710B820B930B663D764081054F
:101AC000910538F48091C0029091C102892B09F4EC
:101AD000F2C00E9451051092C1021092C00204E0AF
:101AE00010E00E9433068091C0029091C1020597D8
:101AF00024F01092C1021092C0028091C002909115
:101B0000C10297FF04C01093C1020093C0028091EC
:101B1000C0029091C1028C179D0731F00E945105BF
:101B2000C091C002D091C1028091C0029091C102C7
:101B30008230910509F45CC02CF4009759F00197AC
:101B400081F1CFCF8330910509F483C0049709F464
:101B500099C0C7CF40E067E080EE92E00E942A1172
:101B60006AE272E080EE92E00E945B1941E067E079
:101B700080EE92E00E942A1161EF71E080EE92E027
:101B80000E945B1985E190E00E94D904882309F442
:101B9000A8CF0E945105DF91CF911F910F910C9416
:101BA000AC0B40E067E080EE92E00E942A1162E315
:101BB00072E080EE92E00E945B1941E067E080EE07
:101BC00092E00E942A116CE372E080EE92E00E94A3
:101BD0005B1985E190E00E94D904882309F481CF44
:101BE0000E945105DF91CF911F910F910C94D40960
:101BF00040E067E080EE92E00E942A1164E472E027
:101C000080EE92E00E945B1941E067E080EE92E096
:101C10000E942A116CE372E080EE92E00E945B1950
:101C200085E190E00E94D904882309F45ACF0E94EC
:101C300051051092CC021092CB0260E087E10E9425
:101C40009C1860E086E1DF91CF911F910F910C9479
:101C50009C1840E067E080EE92E00E942A116CE45C
:101C600072E080EE92E00E945B1985E190E00E94B4
:101C7000D904882309F435CFDF91CF911F910F91BB
:101C80000C94D00640E067E080EE92E00E942A11BA
:101C900066E572E080EE92E00E945B1985E190E0DB
:101CA0000E94D904882309F41CCFDF91CF911F91A2
:101CB0000F910C9451050E943306F1CECF92DF9222
:101CC000EF92FF920F931F938091CA02882309F429
:101CD00012C28091CB029091CC02892B09F056C0A0
:101CE00083EB92E00E94C60340E067E0811107C0E9
:101CF00080EE92E00E942A1166E571E018C080EE45
:101D000092E00E942A1162E080EE92E00E943C1272
:101D10008091B3029091B4020E942F0300E010E082
:101D200028E030E040E00E94C7056BE572E080EEFD
:101D300092E00E945B1988EA92E00E94C60341E0AB
:101D400067E0811107C080EE92E00E942A1166E5EB
:101D500071E018C080EE92E00E942A1162E080EEED
:101D600092E00E943C128091A8029091A9020E94E8
:101D70002F0301E010E028E030E040E00E94C705BA
:101D80006BE572E080EE92E00E945B198091CB02DD
:101D90009091CC02019709F026C188EA92E00E9456
:101DA000C603811122C040E068E080EE92E00E940C
:101DB0002A116FE572E080EE92E00E945B1941E02B
:101DC00067E080EE92E00E942A1166E571E080EE05
:101DD00092E00E945B1961E087E10E949C1861E03B
:101DE00086E10E949C180E94330688EA92E00E94D5
:101DF000C603882309F4F7C040E067E080EE92E074
:101E00000E942A1183EB92E00E94C6038823B1F05E
:101E100062E080EE92E00E943C128091B5029091C7
:101E2000B6026AE070E00E946A24CB0120E030E054
:101E300048E050E060E00E940B0B06C06CE571E0EA
:101E400080EE92E00E945B1940E06AE080EE92E052
:101E50000E942A1168E672E080EE92E00E945B190F
:101E600041E067E080EE92E00E942A1188EA92E069
:101E70000E94C6038823B1F062E080EE92E00E94E7
:101E80003C128091AA029091AB026AE070E00E943D
:101E90006A24CB0121E030E048E050E060E00E949D
:101EA0000B0B06C06CE571E080EE92E00E945B19BE
:101EB00088EA92E00E94D80320E030E040E05FE34F
:101EC0000E944C220E941C23DC01CB0121E030E067
:101ED0004BE050E060E00E940B0B61E172E080EEAD
:101EE00092E00E945B1983EB92E00E94C603882374
:101EF000D9F083EB92E00E94D8036B017C0188EA61
:101F000092E00E94D8039B01AC01C701B6010E9478
:101F10004B226B017C0183EB92E00E94D8039B0172
:101F2000AC01C701B60110C088EA92E00E94D80354
:101F30009B01AC0163E373E387EA91E40E944B22C7
:101F400023E333E347EA51E40E94B42220E030E087
:101F500048EC52E40E94032420E030E040E05FE3DC
:101F60000E944C220E941C237093C7026093C602F9
:101F70008091C6029091C70297FF04C01092C702D9
:101F80001092C60221E030E04EE050E060E0809127
:101F9000C6029091C7020E940B0B88EA92E00E9451
:101FA0000D048823C1F08091C6029091C702409130
:101FB000C8025091C9022091AC023091AD02BA0121
:101FC000620F731F6817790734F0421B530B841795
:101FD00095070CF084C061E087E10E949C1861E0E5
:101FE00086E10E949C188091CB029091CC020297CE
:101FF00009F072C040E067E080EE92E00E942A1192
:1020000083EB92E00E94C6038823E9F062E080EE51
:1020100092E00E943C126091B5027091B60288274E
:1020200077FD8095982F0E944F2320E030E040E21A
:1020300051E40E94B42200E010E028E030E040E0EB
:102040000E94C70506C066E571E080EE92E00E943E
:102050005B1941E067E080EE92E00E942A1188EA75
:1020600092E00E94C6038823E9F062E080EE92E0ED
:102070000E943C126091AA027091AB02882777FD02
:102080008095982F0E944F2320E030E040E251E4F9
:102090000E94B42201E010E028E030E040E00E941D
:1020A000C70506C066E571E080EE92E00E945B190C
:1020B00083EB92E00E940D04882331F088EA92E0DD
:1020C0000E940D04811111C061E087E10E949C18FB
:1020D00061E086E10E949C181092CA020CC060E088
:1020E00087E10E949C1860E07BCF60E087E10E945E
:1020F0009C1860E0EECF1F910F91FF90EF90DF9062
:10210000CF9008950E9433060E945E0E85E190E014
:102110000E94D90481110C941F0D0895CF93DF9371
:10212000EC0160E08E810E949C1881E090E00E94AA
:10213000961761E08E810E949C1881E090E00E94D9
:10214000961760E08E810E949C1884E690E0DF91F3
:10215000CF910C949617EF92FF920F931F93CF930A
:10216000DF938C01C0E0D0E0E62EF12CB7010C2EFD
:1021700002C0759567950A94E2F76170F801EC0F5B
:10218000FD1F87810E949C182196C430D10571F7EC
:10219000C801DF91CF911F910F91FF90EF900C94A8
:1021A0008E10EF92FF920F931F93CF93DF938C01CA
:1021B000C0E0D0E0E62EF12CB7010C2E02C07595E0
:1021C00067950A94E2F76170F801EC0FFD1F8781B3
:1021D0000E949C182196C830D10571F7C801DF9183
:1021E000CF911F910F91FF90EF900C948E101F9341
:1021F000CF93DF93EC01162F642F8C810E949C18E3
:102200008D818F3F19F060E00E949C188F85612FAF
:1022100084FF06C0CE01DF91CF911F910C94D110A5
:1022200070E084E0759567958A95E1F7CE010E948C
:10223000AB10612FCE01DF91CF911F910C94AB10A9
:1022400040E00C94F71061E00E94201180ED97E0CF
:102250000C949617443008F043E0FC0123894217A0
:1022600010F04FEF420FFC01E40FF11D2489260FFF
:102270002068622F0C942011FC016089262F2460B5
:10228000208B6C600C9420110F931F93CF93DF93DE
:10229000EC01423018F08F8588608F874B8B1C8A49
:1022A00080E48D8B6E8B70E0605C7F4F6F8B2223A0
:1022B00029F0413019F48F8584608F8761E08C812B
:1022C0000E9463188D818F3F19F061E00E946318AE
:1022D00061E08E810E94631800E010E08F8584FF2A
:1022E00003C088E090E002C084E090E0081719077E
:1022F00054F4FE01E00FF11F61E087810E94631832
:102300000F5F1F4FEBCF80E593EC0E94961760E0C4
:102310008C810E949C1860E08E810E949C188D81A7
:102320008F3F19F060E00E949C186F8564FD1DC00E
:1023300063E0CE010E94AB1084E991E10E94961700
:1023400063E0CE010E94AB1084E991E10E949617F0
:1023500063E0CE010E94AB1086E990E00E949617E0
:1023600062E0CE010E94AB1016C06062CE010E94F6
:10237000201184E991E10E9496176F856062CE0179
:102380000E94201186E990E00E9496176F85606296
:10239000CE010E9420116F856062CE010E94201143
:1023A00084E0888BCE010E943C11CE010E94231153
:1023B00082E0898B66E0CE01DF91CF911F910F9172
:1023C0000C942011CF92EF920F93FC011382128292
:1023D00083E792E09183808364838FEF85834683D4
:1023E00027830087E186C2861386148615861686A3
:1023F000178620E041E060E1CF010F91EF90CF9090
:102400000C944411CF92DF92EF92FF920F931F939F
:10241000CF93DF9300D0CDB7DEB78C01677088E033
:10242000689FB00111246064C80149835A830E94E7
:1024300020114981C42E5A81D52EE12CF12CD601D0
:102440006D916D01D801ED91FC910190F081E02D2D
:10245000C8010995BFEFEB1AFB0AE8E0EE16F1049C
:1024600071F70F900F90DF91CF911F910F91FF9017
:10247000EF90DF90CF90089541E00E94F71081E047
:1024800090E00895FC0114821382608388E08183C8
:102490001282089588EF92E00C948613FC017483F5
:1024A000638308951F93CF93DF9300D0CDB7DEB73A
:1024B000162F682F88EF92E04A8359830E94A01359
:1024C000612F88EF92E00E9447135981652F88EFB2
:1024D00092E00E9447134A81642F88EF92E00E94A5
:1024E000471388EF92E00F900F90DF91CF911F91EB
:1024F0000C94BD131F93CF93DF93182F682F88EF91
:1025000092E00E94A01360E088EF92E00E944713DF
:1025100088EF92E00E94BD1342E0612F88EF92E0C5
:102520000E949D1388EF92E00E94F712182F88EF07
:1025300092E00E94F712D12F20E0C22F9E01282B9B
:10254000C901DF91CF911F910895CF93DF93EC01E3
:102550004B815C814368516861E088810E9452121E
:10256000698170E080E090E00E945C1788810E94A1
:102570007A122A81022E02C0969587950A94E2F774
:10258000222329F0811528E0920708F0906FDF914F
:10259000CF910895CF93DF93EC014B815C81436829
:1025A000516B61E088810E945212698170E080E085
:1025B00090E00E945C1788810E947A122A81022E84
:1025C00002C0969587950A94E2F7222329F0811597
:1025D00028E0920708F0906FDF91CF9108958091E5
:1025E000280390E020912903821B910908952091EE
:1025F000290380912803281750F4E22FF0E0E65DCC
:10260000FC4F808190E02F5F2093290308958FEF86
:102610009FEF0895E091290380912803E81730F493
:10262000F0E0E65DFC4F808190E008958FEF9FEF32
:1026300008950895CF92DF92EF92FF920F931F9328
:10264000CF93DF937C01CB018A01209104032223E5
:1026500089F0EB016B01C40ED51ECC15DD0569F0C8
:102660006991D701ED91FC910190F081E02DC701B6
:102670000995F3CF642F0E947914C801DF91CF919F
:102680001F910F91FF90EF90DF90CF900895CF931F
:10269000DF931F92CDB7DEB7698320910403222315
:1026A000D1F020910503203240F021E030E0FC0120
:1026B0003383228380E090E015C080910603E82FE9
:1026C000F0E0E95FFC4F998190838F5F8093060370
:1026D0008093050305C061E0CE0101960E94791444
:1026E00081E090E00F90DF91CF910895FC0113827B
:1026F000128248EE53E060E070E0448355836683C5
:1027000077838BE792E09183808308951092290369
:102710001092280310920603109205030C94C41320
:10272000862F413208F040E26AE273E00E94E21331
:102730001092290380932803089521E00C949013AC
:1027400081E08093040360932703109206031092A4
:10275000050308950F93062F21E04091050367E0DC
:1027600073E0809127030E942614109206031092B2
:102770000503109204030F91089561E00C94AA13CD
:1027800088EF92E00C9476131092B70381E0809367
:10279000B5031092B40361E082E00E949C1861E0EE
:1027A00083E00E949C18E9EBF0E080818E7F8083BB
:1027B00080818D7F808380E28093B80085E4809360
:1027C000BC000895413208F03FC09091B7039111C9
:1027D000FCCF91E09093B7032093B5032FEF2093A4
:1027E0004A0310928F03240F20938E039093B60315
:1027F0009091B603880F892B8093B6038091B40320
:10280000813041F41092B4038091B6038093BB00F1
:1028100085EC01C085EE8093BC008091B7038130C8
:10282000E1F380918F03841710F440918F0320E926
:1028300033E0FB01D9018A2F821B841718F48D9194
:102840008193F9CF842F089580E008950F9341324A
:1028500008F046C09091B7039111FCCF92E090939D
:10286000B7030093B5039FEF90934A0310928F0331
:1028700040938E03FB0160E973E0DB019A2F961B06
:10288000941718F491919D93F9CF1092B6039091FB
:10289000B603880F892B8093B6038091B4038130EF
:1028A00041F41092B4038091B6038093BB0085EC91
:1028B00001C085EE8093BC00222321F08091B703F4
:1028C0008230E1F380914A038F3F61F080914A03A7
:1028D000803251F080914A03803341F483E007C095
:1028E00081E005C080E003C082E001C084E00F9178
:1028F0000895613298F42091B703243089F46093ED
:102900006C03FC018EE693E0DC012A2F281B2617BE
:1029100018F421912D93F9CF80E0089581E0089576
:1029200082E0089585ED8093BC008091BC0084FD19
:10293000FCCF1092B703089585EC8093BC001092F1
:10294000B70308951F920F920FB60F9211242F9381
:102950003F934F935F936F937F938F939F93AF9327
:10296000BF93EF93FF938091B900887F803609F47D
:102970009CC068F5883209F45BC090F4803109F49A
:1029800054C038F4882309F4F5C0883009F44DC0E8
:10299000F5C0883109F44CC0803209F45DC0EEC046
:1029A000803409F468C048F4803309F455C0883392
:1029B00009F0E4C080934A03A8C0803509F44FC0F1
:1029C000883509F45DC0883409F0D8C0D5C088398D
:1029D00009F4C6C0A8F4883709F467C038F488360B
:1029E00009F463C0803709F460C0C8C0883809F4AE
:1029F000B7C0803909F45FC0803809F0BFC05BC040
:102A0000803B09F485C038F4803A09F466C0883AFE
:102A100009F47EC0B3C0803C09F4A6C0883C09F428
:102A2000A3C0883B09F489C0A9C08091B60310C037
:102A300090918F0380918E03981770F5E0918F032A
:102A400081E08E0F80938F03F0E0E057FC4F808190
:102A50008093BB0085EC85C080934A038DC0E091D4
:102A60008F0381E08E0F80938F038091BB00F0E095
:102A7000E057FC4F808390918F0380918E036DC04F
:102A8000E0918F0381E08E0F80938F038091BB00D4
:102A9000F0E0E057FC4F80838091B50381116CC05A
:102AA00081E08093B40384EA60C083E08093B7033D
:102AB00010924B03CFCF80914B03803208F050C06F
:102AC000E0914B0381E08E0F80934B038091BB001C
:102AD000F0E0E45BFC4F8083BDCF80914B038032FC
:102AE00030F4E0914B03F0E0E45BFC4F10820E9475
:102AF000921460914B0370E0E091B003F091B10348
:102B00008CE493E0099510924B030E949C1436C00C
:102B100084E08093B70310926D0310926C03E091F0
:102B2000B203F091B303099580916C03811105C044
:102B300081E080936C0310926E03E0916D0381E05D
:102B40008E0F80936D03F0E0E259FC4F80818093FB
:102B5000BB0090916D0380916C03981708F47ACFB5
:102B600085E88093BC000AC085EC8093BC0010927D
:102B7000B70304C010924A030E949214FF91EF9190
:102B8000BF91AF919F918F917F916F915F914F9185
:102B90003F912F910F900FBE0F901F9018950895A1
:102BA000853008F04CC0E82FF0E0EE0FFF1FE85C26
:102BB000FE4F718360838230E1F018F4813069F058
:102BC00004C0833019F1843071F1809169008C7FE9
:102BD000842B80936900E89A089580916900440FDE
:102BE000551F440F551F837F842B80936900E99AFA
:102BF00008958091690034E0440F551F3A95E1F73C
:102C00008F7C842B80936900EA9A089580916900F3
:102C100026E0440F551F2A95E1F78F73842B80938C
:102C20006900EB9A089580916A0094E0440F551F63
:102C30009A95E1F78F7C842B80936A00EE9A089531
:102C40001F920F920FB60F9211242F933F934F9321
:102C50005F936F937F938F939F93AF93BF93EF9304
:102C6000FF93E0913801F09139010995FF91EF91BF
:102C7000BF91AF919F918F917F916F915F914F9194
:102C80003F912F910F900FBE0F901F9018951F929C
:102C90000F920FB60F9211242F933F934F935F9390
:102CA0006F937F938F939F93AF93BF93EF93FF9314
:102CB000E0913A01F0913B010995FF91EF91BF91AD
:102CC000AF919F918F917F916F915F914F913F91C4
:102CD0002F910F900FBE0F901F9018951F920F927B
:102CE0000FB60F9211242F933F934F935F936F93DF
:102CF0007F938F939F93AF93BF93EF93FF93E09155
:102D00003C01F0913D010995FF91EF91BF91AF9189
:102D10009F918F917F916F915F914F913F912F91F3
:102D20000F900FBE0F901F9018951F920F920FB625
:102D30000F9211242F933F934F935F936F937F9341
:102D40008F939F93AF93BF93EF93FF93E0913E01D7
:102D5000F0913F010995FF91EF91BF91AF919F9144
:102D60008F917F916F915F914F913F912F910F9034
:102D70000FBE0F901F9018951F920F920FB60F92D3
:102D800011242F933F934F935F936F937F938F9370
:102D90009F93AF93BF93EF93FF93E0914001F09126
:102DA00041010995FF91EF91BF91AF919F918F9153
:102DB0007F916F915F914F913F912F910F900FBE37
:102DC0000F901F9018951F920F920FB60F9211241B
:102DD0002F933F938F939F93AF93BF938091B903AA
:102DE0009091BA03A091BB03B091BC033091B8039A
:102DF00026E0230F2D3720F40296A11DB11D05C03A
:102E000029E8230F0396A11DB11D2093B8038093D9
:102E1000B9039093BA03A093BB03B093BC03809112
:102E2000BD039091BE03A091BF03B091C003019672
:102E3000A11DB11D8093BD039093BE03A093BF035A
:102E4000B093C003BF91AF919F918F913F912F910C
:102E50000F900FBE0F901F9018952FB7F8946091A8
:102E6000B9037091BA038091BB039091BC032FBF4B
:102E700008953FB7F8948091BD039091BE03A0914F
:102E8000BF03B091C00326B5A89B05C02F3F19F022
:102E90000196A11DB11D3FBF6627782F892F9A2F5C
:102EA000620F711D811D911D43E0660F771F881F02
:102EB000991F4A95D1F708958F929F92AF92BF9232
:102EC000CF92DF92EF92FF926B017C010E94391743
:102ED0004B015C01C114D104E104F104F1F00E9442
:102EE000A1200E943917681979098A099B09683E4F
:102EF00073408105910570F321E0C21AD108E10801
:102F0000F10888EE880E83E0981EA11CB11CC11444
:102F1000D104E104F10429F7DDCFFF90EF90DF90B9
:102F2000CF90BF90AF909F908F9008958330910580
:102F300028F0880F991F04970197F1F70895789466
:102F400084B5826084BD84B5816084BD85B58260AE
:102F500085BD85B5816085BDEEE6F0E0808181604C
:102F60008083E1E8F0E0108280818260808380814C
:102F700081608083E0E8F0E0808181608083E1E926
:102F8000F0E0808182608083808181608083E0E9DD
:102F9000F0E0808181608083E1ECF0E080818460FA
:102FA0008083808182608083808181608083E3EC84
:102FB000F0E0808181608083E0ECF0E080818260DD
:102FC0008083E2ECF0E0808181608083EAE7F0E0DA
:102FD00080818460808380818260808380818E7F15
:102FE00080838081806880830895823108F08251D7
:102FF000E82FF0E0E653FF4FE49180917B00E3FB84
:10300000222720F930E095E0220F331F9A95E1F74F
:103010008F7D822B80937B00E7708091420120E4BA
:10302000829FC0011124E82BE0937C0080917A00FC
:10303000806480937A0080917A0086FDFCCF809135
:1030400078002091790090E0922B089590E0FC01A7
:103050003197EF30F105B0F5EA5AFF4F0C94A024F8
:10306000809180008F7703C0809180008F7D809356
:103070008000089580918000877FF9CF84B58F7795
:1030800002C084B58F7D84BD0895809190008F77B4
:1030900007C0809190008F7D03C080919000877F52
:1030A0008093900008958091C0008F7703C0809135
:1030B000C0008F7D8093C00008958091C200877FFB
:1030C0008093C2000895CF93DF9390E0FC01EB5012
:1030D000FF4F2491FC01EC5EFE4F8491882349F15F
:1030E00090E0880F991FFC01E15BFE4FA591B49120
:1030F0008F5B9E4FFC01C591D4919FB7611108C0B1
:10310000F8948C91209582238C93888182230AC025
:10311000623051F4F8948C91322F309583238C9344
:103120008881822B888304C0F8948C91822B8C93A5
:103130009FBFDF91CF9108950F931F93CF93DF939C
:103140001F92CDB7DEB7282F30E0F901EA52FF4FCA
:103150008491F901EB50FF4F1491F901EC5EFE4FA1
:1031600004910023C9F0882321F069830E94261866
:103170006981E02FF0E0EE0FFF1FEF5BFE4FA5919E
:10318000B4919FB7F8948C91611103C0109581237D
:1031900001C0812B8C939FBF0F90DF91CF911F9126
:1031A0000F910895CF93DF93282F30E0F901EA5271
:1031B000FF4F8491F901EB50FF4FD491F901EC5E80
:1031C000FE4FC491CC2391F081110E942618EC2F60
:1031D000F0E0EE0FFF1FED5CFE4FA591B4912C9136
:1031E0002D2381E090E021F480E002C080E090E0B7
:1031F000DF91CF91089508950E949F170E94FB18B8
:1032000081EC93E00E94071F0E940409C0E0D0E017
:103210000E9482102097E1F30E940000F9CFCF9224
:10322000DF92EF92FF920F931F93CF93DF937C0176
:103230006A01EB0100E010E00C151D0571F06991C9
:10324000D701ED91FC910190F081E02DC701099526
:10325000892B19F00F5F1F4FEFCFC801DF91CF917E
:103260001F910F91FF90EF90DF90CF90089561151F
:10327000710581F0DB010D900020E9F7AD014150AF
:103280005109461B570BDC01ED91FC910280F38143
:10329000E02D099480E090E00895DC01ED91FC912F
:1032A000DB0114964D915C9115976D917C91028094
:1032B000F381E02D09940C943719DC01ED91FC9118
:1032C0000190F081E02D09948F929F92AF92BF926E
:1032D000DF92EF92FF920F931F93CF93DF93CDB7BF
:1032E000DEB7A1970FB6F894DEBF0FBECDBF7C014D
:1032F000F42FD52ECB0119A2223008F42AE08E013A
:103300000F5D1F4F822E912CA12CB12C6F2F7D2D84
:10331000A50194010E947E24F22FD32ECA010150F0
:1033200011096A3014F4E0E301C0E7E3E60FD801C5
:10333000EC93232B242B252B49F7B801C7010E94BE
:103340003719A1960FB6F894DEBF0FBECDBFDF913F
:10335000CF911F910F91FF90EF90DF90BF90AF90B2
:103360009F908F900895CF92DF92EF92FF920F93EC
:103370001F93CF93DF93EC016A017B012115310587
:1033800079F4E881F9810190F081E02D642FDF91DB
:10339000CF911F910F91FF90EF90DF90CF90099404
:1033A0002A303105E9F477FF1AC06DE20E945D19F9
:1033B0008C0144275527BA014C195D096E097F0914
:1033C0002AE0CE010E946419800F911FDF91CF91F6
:1033D0001F910F91FF90EF90DF90CF9008952AE01A
:1033E000B701A601CE01DF91CF911F910F91FF9000
:1033F000EF90DF90CF900C9464194F925F926F9290
:103400007F928F929F92AF92BF92CF92DF92EF9274
:10341000FF920F931F93CF93DF93EC016A017B011F
:10342000B22E9A01AB01C701B6010E94662488231F
:1034300019F06AE872E027C026013701E89477F8AE
:103440002FEF3FEF4FE75FE7C301B2010E94662411
:1034500081110DC02FEF3FEF4FE75FE7C301B201CE
:103460000E94B02218161CF46EE872E00CC02FEF18
:103470003FEF4FE75FE4C701B6010E94FF23181634
:10348000ACF462E972E0CE01DF91CF911F910F9110
:10349000FF90EF90DF90CF90BF90AF909F908F9074
:1034A0007F906F905F904F900C9437192FEF3FEF04
:1034B0004FE75FECC701B6010E94B02287FDE1CF64
:1034C00020E030E0A901C701B6010E94B02287FFC9
:1034D0000AC06DE2CE010E945D198C01F7FAF094EA
:1034E000F7F8F09402C000E010E0A12C60E070E07A
:1034F00080E09FE3AB1441F020E030E040E251E493
:103500000E94B422A394F6CF9B01AC01C701B6017F
:103510000E944C226B017C010E9421232B013C0163
:103520000E944D239B01AC01C701B6010E944B22B2
:103530006B017C012AE0B301A201CE010E94641953
:10354000080F191FBB2039F066E972E0CE010E9416
:103550003719080F191F7B2C772041F120E030E04C
:1035600040E251E4C701B6010E9403246B017C01D3
:103570000E941C234B01AA2497FCA094BA2C2AE099
:1035800030E0B501A401CE010E94B319080F191F44
:10359000C501B4010E944F239B01AC01C701B601D4
:1035A0000E944B226B017C017A94D6CFC801DF9137
:1035B000CF911F910F91FF90EF90DF90CF90BF9030
:1035C000AF909F908F907F906F905F904F900895F5
:1035D0000C94FD194091C5035091C6032091C3037B
:1035E0003091C40342175307B4F49091E8009570EA
:1035F000E1F39091E80092FD19C08093F100809171
:10360000C5039091C60301968F739927892B19F4EE
:103610008EEF8093E8008091C5039091C6030196D8
:103620009093C6038093C50381E0089580E00895D8
:10363000CF92DF92EF92FF920F931F93CF93DF937E
:103640001F92CDB7DEB7082F162FF42E862F880FC6
:103650008E5F99830E94EA1A83E00E94EA1AE02EA4
:10366000C02E9981D92E8C2D8E19811798F4F601D0
:10367000F7FE02C0849101C080810E94EA1A082FDF
:1036800080E00E94EA1A8023FFEFCF1ADF0A81113F
:10369000EACF01C081E00F90DF91CF911F910F9190
:1036A000FF90EF90DF90CF9008958091D7008160D8
:1036B0008093D70080EA8093D80089B58F7E89BD3A
:1036C00089B5826089BD09B400FEFDCF61E070E07C
:1036D00080E090E00E945C178091D8008F7C806130
:1036E0008093D8008091E000807F8093E00008956F
:1036F000CF93DF931F92CDB7DEB71982CE0101962B
:103700000E94FF200E943722BE016F5F7F4F0E9400
:10371000B02189810F90DF91CF9108952FB7FC01DF
:103720002083F89467706093E9000895CF93DF9346
:103730001F92CDB7DEB7682FCE0101960E948E1B77
:103740008091F20099819FBF0F90DF91CF910895F2
:10375000FF920F931F93CF93DF9300D0CDB7DEB7C7
:10376000F62E8A019091C903992311F057FF03C0E7
:103770008FEF9FEF2AC0682FCE0101967A830E94B7
:103780008E1B8091F20090E0A8017A81801791074A
:103790000CF4AC01EF2DF72FF40E84E6FE1631F099
:1037A0008093CA039091F1009193F8CF4115510590
:1037B00021F08091F200882321F089818FBFCA0116
:1037C00004C08BE68093E800F8CF0F900F90DF9154
:1037D000CF911F910F91FF900895CF93DF931F9288
:1037E000CDB7DEB741E050E0BE016F5F7F4F0E9472
:1037F000A81B019719F4898190E002C08FEF9FEF19
:103800000F90DF91CF910895CF93DF931F92CDB7A3
:10381000DEB7682FCE0101960E948E1B9091E800C2
:10382000892F807295FF04C09091F20080E4891B7B
:1038300099819FBF0F90DF91CF9108956F927F92F2
:103840008F929F92AF92BF92CF92DF92EF92FF92B0
:103850000F931F93CF93DF931F92CDB7DEB7782ED0
:103860007B01C42EB52E8091C903882369F0042FF3
:10387000152F8AEFD82E872D8072982E9AE3A92EC5
:10388000872D8074882E11C08FEF9FEF56C0872D33
:103890000E94041C682E81110CC0DA94A9F361E027
:1038A00070E080E090E00E945C170115110579F747
:1038B0003BC0282F30E0021713070CF4602E672D51
:1038C000CE0101960E948E1B8091E80085FF29C0E1
:1038D000262D30E0021B130B992039F06A948FEFEC
:1038E0006816B1F01092F100F9CFF701862D77FE3E
:1038F00007C0815058F094919093F1003196F9CF20
:10390000815020F091919093F100FACFE20EF31ED6
:103910008091E80085FF0EC00115110511F481109A
:1039200009C089818FBFC1CF84E68093CB038C2DE2
:103930009B2D03C0A092E800F4CF0F90DF91CF91B0
:103940001F910F91FF90EF90DF90CF90BF90AF90BD
:103950009F908F907F906F9008951092E900109241
:10396000C6031092C5039093C4038093C3030895C4
:10397000CF92DF92FF920F931F93CF93DF9300D0EC
:10398000CDB7DEB7F82E8A016B0101151105B1F034
:10399000F601F7FE02C0849101C0808149835A83F9
:1039A0000E94EA1A01501109FFEFCF1ADF0A49817C
:1039B0005A818111EACF8FEF9FEF01C0CA010F90AA
:1039C0000F90DF91CF911F910F91FF90DF90CF90DB
:1039D0000895CF93DF939B01A4E6BBEF211531053A
:1039E000F9F0A9012134310514F040E450E0E091F0
:1039F000E800E2FFFCCFFB01E21BF30BE80FF91F2D
:103A0000CE2FC40FCE1729F0D091F100D08331967C
:103A1000F9CFA093CA03B093E800241B350BDECF87
:103A2000CB01DF91CF9108951F920F920FB60F92A5
:103A30001124DF92EF92FF920F931F932F933F93E6
:103A40004F935F936F937F938F939F93AF93BF93A6
:103A5000EF93FF93CF93DF93CDB7DEB76C97DEBFC5
:103A6000CDBF1092E9008091E80083FF2EC1FE01D6
:103A700075968F01AE01435E5F4F9F012F5F3F4FF1
:103A80008091F10080832417350711F0F901F5CFFB
:103A900084E68093CA0382EF8093E8005D8957FF34
:103AA00005C08091E80080FFFCCF03C08EEF8093BB
:103AB000E800852F807609F0EFC04E898F89D88C79
:103AC00041110CC0503829F48091C8038093F10053
:103AD00002C01092F1001092F100F0C0282F30E0E7
:103AE0003D29413051F45111E9C02130310509F02F
:103AF000E5C08091C8038D7F0BC0433061F4511144
:103B0000DDC02130310509F0D9C08091C803826041
:103B10008093C803D3C0453041F49091E80090FFF2
:103B2000FCCF80688093E300C9C0463009F08BC0A9
:103B3000EB8CFC8C22E0D2122CC080E090E00E9442
:103B4000AD1C0E94781B99E08E010F5F1F4FF8019A
:103B5000292F11922A95E9F79983DA8291E09E83C1
:103B600090EA98879AEF99872091C5033091C60310
:103B7000275F3F4F3C832B838D83C7010E94AD1C81
:103B800049E050E0B80180E00E94B81C0E94781B18
:103B900095C0C7010E94AD1C0E943722B8010E9447
:103BA000D921009719F00CF089C08CC081E0D8129F
:103BB0000EC08B8D9C8D089719F481E08093C20311
:103BC0008091C20381112FC06FE671E031C0E3E044
:103BD000DE1278C08F89882349F1823029F440E8C9
:103BE0006CE08AE891E01CC0813029F440E868E08C
:103BF00081E891E015C0833009F064C00E9437224B
:103C00008E010F5F1F4FB8010E94F821F80101904B
:103C10000020E9F73197E01BF10B40E06E2FC8015F
:103C20000E94181B49C06DE571E002C067E971E0B0
:103C30006115710509F446C0FB01449150E080E82C
:103C40000E94B81C3BC04730E9F1483021F481E0C4
:103C50008093F10033C0493089F5537099F5E4E45D
:103C6000F1E081E021E036E39081992361F08093D7
:103C7000E9002093EB0091919093EC003093ED00DC
:103C80008F5F873089F78EE78093EA001092EA0011
:103C90008F898093C90312C08B8D9C8D0E94AD1CAF
:103CA000898D811104C0C8010E940A2105C00E94AB
:103CB0003722B8010E941722882321F08EEF8093CB
:103CC000E80003C081E28093EB006C960FB6F89495
:103CD000DEBF0FBECDBFDF91CF91FF91EF91BF91BE
:103CE000AF919F918F917F916F915F914F913F9194
:103CF0002F911F910F91FF90EF90DF900F900FBECB
:103D00000F901F9018958093E9008091F20088230E
:103D100019F08AE38093E80008951F920F920FB67E
:103D20000F9211242F933F934F935F936F937F9341
:103D30008F939F93AF93BF93CF93EF93FF93C091D4
:103D4000E1008091E100837F8093E1008093E100B6
:103D5000C3FF0FC01092E90081E08093EB00109246
:103D6000EC0082E38093ED001092C90388E0809319
:103D7000F000C2FF15C083E00E94831E8091CB0338
:103D8000882329F08091CB0381508093CB038091CD
:103D9000CA03882329F08091CA0381508093CA0303
:103DA000C4FF10C08091E2008E7E81608093E200AB
:103DB0008091E1008F7E8093E1008091C7038E7E29
:103DC000806111C0C0FF11C08091E2008E7E8061D1
:103DD0008093E2008091E1008E7E8093E1008091EB
:103DE000C7038E7E81608093C703FF91EF91CF91CF
:103DF000BF91AF919F918F917F916F915F914F9103
:103E00003F912F910F900FBE0F901F901895109219
:103E1000C9031092C8031092C7030E94551B8091DA
:103E2000E1008E7E8093E1008DE08093E200EEEF72
:103E3000FFE7859194918B3F9C4D19F481E080932D
:103E40001C040895FC01808191810C947325CF930B
:103E5000DF93EC0188819981009711F00E9473250E
:103E6000198218821D821C821B821A82DF91CF91D7
:103E700008950F931F93CF93DF93EC018B016F5F36
:103E80007F4F888199810E940226009731F09983A3
:103E900088831B830A8381E001C080E0DF91CF919A
:103EA0001F910F910895CF93DF93EC018881998141
:103EB000892B29F08A819B818617970760F4CE01B0
:103EC0000E94391F882341F08C819D81892B19F430
:103ED000E881F981108281E0DF91CF910895EF921E
:103EE000FF920F931F93CF93DF93EC017B018A0125
:103EF000BA010E94531F811104C0CE010E94271FE6
:103F000007C01D830C83B701888199810E94D52643
:103F1000CE01DF91CF911F910F91FF90EF90089507
:103F2000FC011182108213821282158214826115A3
:103F3000710559F0FB0101900020E9F7AF014150F4
:103F40005109461B570B0C946F1F08950F931F9335
:103F5000CF93DF938C01EB01FC018081918100976D
:103F600099F0428153812C813D814217530750F0D3
:103F7000688179810E94D5268C819D81F801958385
:103F8000848313C00E94732588819981F8019183ED
:103F900080838A819B81938382838C819D81958399
:103FA0008483198218821B821A821D821C82DF91EF
:103FB000CF911F910F910895CF93DF93EC01861756
:103FC000970711F00E94A61FCE01DF91CF910895AF
:103FD000CF93DF93EC016115710561F0FB01019056
:103FE0000020E9F7AF0141505109461B570B0E94D1
:103FF0006F1F02C00E94271FCE01DF91CF9108954D
:104000000F931F93CF93DF93CDB7DEB762970FB6B1
:10401000F894DEBF0FBECDBF8C01CB01F801118239
:104020001082138212821582148250E0BE016F5FEB
:104030007F4F0E94DC26BE016F5F7F4FC8010E9448
:10404000E81F62960FB6F894DEBF0FBECDBFDF91BA
:10405000CF911F910F910895EF92FF920F931F93AD
:10406000CF93DF93CDB7DEB7A1970FB6F894DEBF3D
:104070000FBECDBF7C01CB01BA01F70111821082C6
:10408000138212821582148242E0420F8E010F5F6A
:104090001F4F0E94BA24BC01C7010E94E81FA196CD
:1040A0000FB6F894DEBF0FBECDBFDF91CF911F9149
:1040B0000F91FF90EF900895BF92CF92DF92EF9211
:1040C000FF920F931F93CF93DF936C017B01EA0163
:1040D00089012417350720F48D2FE901042F182FAB
:1040E00069E872E0C6010E94901FD70114968D9175
:1040F0009C911597C817D907C8F48017910708F441
:104100008C01D701ED91FC911197E00FF11FB08068
:1041100010826D917C916C0F7D1FC6010E94E81F7B
:10412000D701ED91FC91E00FF11FB082C601DF9144
:10413000CF911F910F91FF90EF90DF90CF90BF90A4
:1041400008950895CF93DF931F92CDB7DEB76983AB
:10415000DC01ED91FC910280F381E02D41E050E023
:10416000BE016F5F7F4F09950F90DF91CF9108954A
:10417000CF93DF93EC018C859D8597FF05C082E08E
:104180000E94ED1B9D878C878C859D85DF91CF914B
:10419000089583E00C94831EFC018485958597FD2A
:1041A00006C082E00E94961B90E00196089582E08E
:1041B0000E94961B90E00895FC018485958597FDEB
:1041C00005C02FEF3FEF35872487089582E00C94D8
:1041D000ED1BCF93DF93EC0180915501882331F0E3
:1041E00083E00E941E1C1816190634F081E090E04E
:1041F0009B838A8380E090E0DF91CF910895FC015A
:1042000020812E5F208342E450E06BE971E080E87A
:104210000C94B81CFC0121818081813A59F421322F
:1042200009F04BC047E050E06EE471E080E00E948E
:10423000B81C5EC0813209F040C0233289F483810A
:1042400090E0982F88273281832BA0E0B0E0809304
:104250004A0190934B01A0934C01B0934D010FC0C4
:10426000203239F467E070E08EE491E00E94E91CAE
:1042700009C0223221F482818093550103C02D7F31
:104280002032B1F580911C04811103C0E0E0F8E018
:1042900002C0EEEFFAE080914E0190914F01A091A3
:1042A0005001B0915101803B9440A105B10511F539
:1042B0008091550180FF03C01DC080E00895EE3F4E
:1042C0002AE0F20731F0808191819093FF0A809378
:1042D000FE0A87E797E7918380832BE088E190E0EF
:1042E0000FB6F894A895809360000FBE20936000ED
:1042F00081E0089588E10FB6F894809360001092F1
:1043000060000FBEA895EE3F8AE0F80739F0809173
:10431000FE0A9091FF0A91838083EACF1092FF0AF0
:104320001092FE0AE5CF1092CF031092CE0388EED2
:1043300093E0A0E0B0E08093D0039093D103A093EA
:10434000D203B093D3038CE992E09093CD03809392
:10435000CC038FEF9FEF9093D9038093D8030895F8
:10436000EF92FF920F931F93CF93DF937B01FC019A
:10437000C281D38100E010E0209781F0E881F981CB
:104380000280F381E02DB701CE01099597FD08C0A9
:10439000080F191F0884D985C02DEECFC80102C0AF
:1043A0008FEF9FEFDF91CF911F910F91FF90EF90D3
:1043B00008950F931F93CF93DF938B01FC01C2816C
:1043C000D381209771F0E881F9810480F581E02D97
:1043D000B801CE010995009731F40884D985C02D24
:1043E000F0CF80E090E0DF91CF911F910F91089581
:1043F0000F931F93CF93DF938B01FC01C281D38175
:10440000209771F0E881F9810680F781E02DB801ED
:10441000CE010995080F111D0884D985C02DF0CF54
:10442000F8011082DF91CF911F910F9108950F93A2
:104430001F93CF93DF938B01FC01C281D38120971F
:1044400071F0E881F9810190F081E02DB801CE0191
:104450000995811106C00884D985C02DF0CF80E070
:1044600001C081E0DF91CF911F910F91089580915C
:10447000210481110DC082E080931D0484E08093AB
:104480001E041092200410921F0481E080932104E6
:104490008DE194E008955058BB27AA270ED075C12E
:1044A00066D130F06BD120F031F49F3F11F41EF44F
:1044B0005BC10EF4E095E7FB51C1E92F77D180F3A2
:1044C000BA17620773078407950718F071F49EF511
:1044D0008FC10EF4E0950B2EBA2FA02D0B01B90160
:1044E00090010C01CA01A0011124FF27591B99F06A
:1044F000593F50F4503E68F11A16F040A22F232F76
:10450000342F4427585FF3CF469537952795A795C5
:10451000F0405395C9F77EF41F16BA0B620B730B6C
:10452000840BBAF09150A1F0FF0FBB1F661F771FDD
:10453000881FC2F70EC0BA0F621F731F841F48F492
:10454000879577956795B795F7959E3F08F0B3CF18
:104550009395880F08F09927EE0F97958795089502
:10456000D9D008F481E008950CD00FC107D140F0F4
:10457000FED030F021F45F3F19F0F0C0511139C185
:10458000F3C014D198F39923C9F35523B1F3951BC4
:10459000550BBB27AA2762177307840738F09F5F64
:1045A0005F4F220F331F441FAA1FA9F333D00E2ED3
:1045B0003AF0E0E830D091505040E695001CCAF740
:1045C00029D0FE2F27D0660F771F881FBB1F261705
:1045D00037074807AB07B0E809F0BB0B802DBF01D8
:1045E000FF2793585F4F2AF09E3F510568F0B6C0F1
:1045F00000C15F3FECF3983EDCF3869577956795B5
:10460000B795F7959F5FC9F7880F911D9695879588
:1046100097F90895E1E0660F771F881FBB1F6217A7
:1046200073078407BA0720F0621B730B840BBA0B65
:10463000EE1F88F7E095089504D06894B111D9C0B1
:104640000895BCD088F09F5790F0B92F9927B751A3
:10465000A0F0D1F0660F771F881F991F1AF0BA9546
:10466000C9F712C0B13081F0C3D0B1E00895C0C025
:10467000672F782F8827B85F39F0B93FCCF386953C
:1046800077956795B395D9F73EF490958095709599
:1046900061957F4F8F4F9F4F0895E89409C097FB16
:1046A0003EF490958095709561957F4F8F4F9F4F09
:1046B0009923A9F0F92F96E9BB279395F69587954D
:1046C00077956795B795F111F8CFFAF4BB0F11F410
:1046D00060FF1BC06F5F7F4F8F4F9F4F16C08823B7
:1046E00011F096E911C0772321F09EE8872F762FED
:1046F00005C0662371F096E8862F70E060E02AF02E
:104700009A95660F771F881FDAF7880F9695879519
:1047100097F90895990F0008550FAA0BE0E8FEEFEE
:1047200016161706E807F907C0F012161306E40775
:10473000F50798F0621B730B840B950B39F40A266E
:1047400061F0232B242B252B21F408950A2609F44C
:10475000A140A6958FEF811D811D089597F99F6750
:1047600080E870E060E008959FEF80EC08950024F9
:104770000A941616170618060906089500240A94C6
:1047800012161306140605060895092E0394000C4C
:1047900011F4882352F0BB0F40F4BF2B11F460FFDB
:1047A00004C06F5F7F4F8F4F9F4F089557FD905804
:1047B000440F551F59F05F3F71F04795880F97FBE5
:1047C000991F61F09F3F79F087950895121613069F
:1047D0001406551FF2CF4695F1DF08C016161706CE
:1047E0001806991FF1CF8695710561050894089503
:1047F000E894BB2766277727CB0197F908958ADFCE
:1048000008F48FEF08950BD0C0CFB1DF28F0B6DFEA
:1048100018F0952309F0A2CFA7CF1124EACFC6DF65
:10482000A0F3959FD1F3950F50E0551F629FF001C3
:10483000729FBB27F00DB11D639FAA27F00DB11D1C
:10484000AA1F649F6627B00DA11D661F829F2227A5
:10485000B00DA11D621F739FB00DA11D621F839F2C
:10486000A00D611D221F749F3327A00D611D231F02
:10487000849F600D211D822F762F6A2F11249F5750
:1048800050408AF0E1F088234AF0EE0FFF1FBB1F73
:10489000661F771F881F91505040A9F79E3F510512
:1048A00070F05CCFA6CF5F3FECF3983EDCF38695CB
:1048B00077956795B795F795E7959F5FC1F7FE2BBD
:1048C000880F911D9695879597F9089523DF880B9A
:1048D000990B089597FB072E16F4009407D077FDE7
:1048E00009D00E94A62407FC05D03EF4909581953E
:1048F0009F4F0895709561957F4F0895A1E21A2EFC
:10490000AA1BBB1BFD010DC0AA1FBB1FEE1FFF1F73
:10491000A217B307E407F50720F0A21BB30BE40BC3
:10492000F50B661F771F881F991F1A9469F760950A
:104930007095809590959B01AC01BD01CF010895C4
:10494000EE0FFF1F0590F491E02D0994AA1BBB1BED
:1049500051E107C0AA1FBB1FA617B70710F0A61B7F
:10496000B70B881F991F5A95A9F780959095BC01A0
:10497000CD010895EF920F931F93CF93DF93E8013A
:1049800047FF02C034E101C034E0E42FFF27E7FD18
:10499000F095F7FF03C0F195E195F109E32E022FA1
:1049A0002E2FAE010E942227CE01DF91CF911F91C1
:1049B0000F91EF900895CF93DF938230910510F41B
:1049C00082E090E0E0912B04F0912C0420E030E0B4
:1049D000A0E0B0E0309739F1408151814817590784
:1049E000B8F04817590771F482819381109729F024
:1049F00013969C938E9312972CC090932C048093C3
:104A00002B0427C02115310531F04217530718F048
:104A1000A901DB0101C0EF019A01BD01DF010280A4
:104A2000F381E02DD7CF21153105F9F0281B390B83
:104A30002430310580F48A819B816115710521F054
:104A4000FB019383828304C090932C0480932B04F6
:104A5000FE01329644C0FE01E20FF31F8193919351
:104A600022503109398328833AC02091290430919A
:104A70002A04232B41F42091020130910301309349
:104A80002A0420932904209100013091010121156D
:104A9000310541F42DB73EB7409104015091050115
:104AA000241B350BE0912904F0912A04E217F30747
:104AB000A0F42E1B3F0B2817390778F0AC014E5F8E
:104AC0005F4F2417350748F04E0F5F1F50932A049D
:104AD000409329048193919302C0E0E0F0E0CF017C
:104AE000DF91CF910895CF93DF93009709F487C0AA
:104AF000FC01329713821282C0912B04D0912C04B6
:104B0000209781F420813181280F391F8091290459
:104B100090912A048217930779F5F0932A04E09381
:104B200029046DC0DE0120E030E0AE17BF0750F46D
:104B300012964D915C9113979D014115510509F114
:104B4000DA01F3CFB383A28340815181840F951F93
:104B50008A179B0771F48D919C911197840F951F73
:104B600002969183808312968D919C9113979383E3
:104B700082832115310529F4F0932C04E0932B0452
:104B80003EC0D9011396FC93EE9312974D915D911F
:104B9000A40FB51FEA17FB0779F480819181840F78
:104BA000951F0296D90111969C938E9382819381D1
:104BB00013969C938E931297E0E0F0E08A819B819C
:104BC000009719F0FE01EC01F9CFCE010296288181
:104BD0003981820F931F2091290430912A042817CC
:104BE000390769F4309729F410922C0410922B04A1
:104BF00002C013821282D0932A04C0932904DF9149
:104C0000CF910895A0E0B0E0E8E0F6E20C948C29A2
:104C1000EC01CB01209719F40E94DB24B8C0FE01FF
:104C2000E60FF71F9E0122503109E217F30708F43F
:104C3000ACC0D9010D911C91119706171707B8F058
:104C40000530110508F49FC0A801445051094617CA
:104C5000570708F498C002501109061B170B01935F
:104C600011936D937C93CF010E9473258CC05B01DF
:104C7000A01AB10A4E01800E911EA0912B04B09192
:104C80002C04612C712C60E070E0109709F449C08D
:104C9000A815B905C9F5ED90FC901197670142E0A0
:104CA000C40ED11CCA14DB0478F147018A189B0892
:104CB000640142E0C40ED11C1296BC901297139668
:104CC000AC91B5E0CB16D10440F0B282A3839182BF
:104CD0008082D9018D939C9309C00E5F1F4F0E0DEA
:104CE0001F1DF90111830083EB2DFA2F611571054A
:104CF00031F0DB011396FC93EE93129744C0F093CE
:104D00002C04E0932B043FC06D917C9111976616A3
:104D1000770608F43B01BD0112960D90BC91A02DC1
:104D2000B4CF6091290470912A0468157905E9F4DB
:104D300068167906D0F440910001509101014115A7
:104D4000510541F44DB75EB76091040170910501C2
:104D5000461B570BE417F507C0F4F0932A04E093C1
:104D60002904F901918380830EC00E94DB247C0119
:104D7000009759F0A801BE010E94CC26CE010E94E6
:104D80007325C70104C0CE0102C080E090E0CDB71A
:104D9000DEB7EEE00C94A829FB01DC0102C0019013
:104DA0000D9241505040D8F70895FB01DC0101906D
:104DB0000D920020E1F708954532510520F442306C
:104DC00010F00C94E726FB011082CB010895BB275D
:104DD0004A3031F4992322F4BDE2909581959F4F9A
:104DE0000C94F326BB27FB015527AA27880F991F90
:104DF000AA1FA41710F0A41B83955051B9F7A05D0A
:104E0000AA3308F0A95DA193009779F7B111B19386
:104E10001192CB010C947829F999FECF92BD81BDF6
:104E2000F89A992780B50895262FF999FECF1FBAD1
:104E300092BD81BD20BD0FB6F894FA9AF99A0FBEC3
:104E4000019608956F927F929F92AF92BF92CF92F8
:104E5000DF92EF92FF920F931F93CF93DF93CDB723
:104E6000DEB729970FB6F894DEBF0FBECDBF6A013B
:104E7000B22E102F0C3320F4FF24F394F00E02C056
:104E80004CE3F42E0F2D27E0AE014F5F5F4F0E94E1
:104E9000A0287981272F2970213031F0E1FC06C04C
:104EA000E0FC06C060E005C06DE203C06BE201C03B
:104EB00060E2AE2DA07173FF36C0662311F084E06E
:104EC00001C083E08B1510F4B81A01C0B12CA111F8
:104ED0000BC0F6018B2D90E2882319F0919381503D
:104EE000FBCFCB0CD11CB12C662331F0F6016083D3
:104EF00096012F5F3F4F6901C6010396E2FE05C090
:104F00002EE4F601208331E404C02EE6F60120836E
:104F100031E631832283FC012B2D30E22223F1F193
:104F200031932150FBCF72FF40C0662311F084E023
:104F300001C083E08B1510F4B81A01C0B12CA11187
:104F40000BC0F6018B2D90E2882319F091938150CC
:104F5000FBCFCB0CD11CB12C662331F0F601608362
:104F600096012F5F3F4F6901C6010396E2FE07C01D
:104F700029E4F60120832EE4218326E406C029E6F5
:104F8000F60120832EE6218326E62283FC012B2DC9
:104F900030E2222319F031932150FBCFFC01EB0DBD
:104FA000F11D10828EEF9FEFB7C0B1E0611101C01B
:104FB000B0E04B2F50E01816190624F49C012F5F27
:104FC0003F4F02C021E030E0240F351F112329F0AC
:104FD000412F50E04F5F5F4F02C040E050E0420F72
:104FE000531F2B2D30E04217530714F4B41A01C09D
:104FF000B12C2E2D287159F4F6012B2D30E22223ED
:1050000019F031932150FBCFCB0CD11CB12CBB2319
:1050100031F0F601608396012F5F3F4F6901A111C6
:105020000BC0F6012B2D30E3222319F031932150D0
:10503000FBCFCB0CD11CB12CF80E0A81372F30716D
:10504000A32E74FF03C0013309F4FA941F142CF447
:105050002F2D293018F028E001C021E0682F392FCA
:1050600097FF02C060E030E0462F532F612C712C77
:105070003EE2932EBC01621B71099B01DC01A41B63
:10508000B50BE1E0F0E0EC0FFD1FAE0FBF1FE12E0E
:10509000F12CF194E194F1084F3FFFEF5F0731F4F9
:1050A000F6019082B6016F5F7F4F6B018417950701
:1050B0004CF02417350734F4BD01660D771DFB0154
:1050C000118101C010E341505109FFEF6F1A7F0AAF
:1050D000B6016F5F7F4F4E155F0524F0F601108318
:1050E0006B01DACF4817590739F4063320F405333A
:1050F00019F4A11001C011E3F6011083FB018B2DFF
:1051000090E2882319F091938150FBCFFB01EB0DC6
:10511000F11D108280E090E029960FB6F894DEBF72
:105120000FBECDBFDF91CF911F910F91FF90EF90F8
:10513000DF90CF90BF90AF909F907F906F90089539
:10514000283008F027E03327DA01990F311D87FD59
:10515000916000966105710539F432602E5F3D93D0
:1051600030E32A95E1F708959F3F30F080387105CC
:10517000610509F03C5F3C5F3D93913008F0806829
:10518000911DDF93CF931F930F93FF92EF92192FEF
:10519000987F9695E92F96959695E90FFF27E95CFC
:1051A000FD4F99273327EE24FF24A701E70105903F
:1051B0000894079428F4360FE71EF81E491F511D66
:1051C000660F771F881F991F0694A1F70590079413
:1051D00028F4E70EF81E491F561FC11D770F881FC0
:1051E000991F661F0694A1F70590079428F4F80EFE
:1051F000491F561FC71FD11D880F991F661F771F94
:105200000694A1F70590079420F4490F561FC71F75
:10521000D81F990F661F771F881F0694A9F78491DE
:105220001095177041F0D695C79557954795F79407
:10523000E7941A95C1F7EDEDF1E06894159015919A
:1052400035916591959105907FE27395E118F10A8A
:10525000430B560BC90BD009C0F7E10CF11E431FDD
:10526000561FC91FD01D7EF4703311F48A95E6CF06
:10527000E894015030F0080F0AF40027021708F4F0
:10528000202F2395022F7A3328F079E37D932A95F6
:10529000E9F710C07D932A9589F60694979567954E
:1052A000379517951794E118F10A430B560BC90B64
:1052B000D00998F023957E9173957A3308F070E3C6
:1052C0007C932013B8F77E9170617D9330F08395C5
:1052D00071E37D9370E32A95E1F71124EF90FF903D
:1052E0000F911F91CF91DF91992787FD9095089598
:1052F000DC01FC01672F71917723E1F7329704C03D
:105300007C916D9370836291AE17BF07C8F30895C7
:105310002F923F924F925F926F927F928F929F92C5
:10532000AF92BF92CF92DF92EF92FF920F931F93B3
:10533000CF93DF93CDB7DEB7CA1BDB0B0FB6F89464
:10534000DEBF0FBECDBF09942A88398848885F84A4
:105350006E847D848C849B84AA84B984C884DF8015
:10536000EE80FD800C811B81AA81B981CE0FD11DF9
:105370000FB6F894DEBF0FBECDBFED010895F894CF
:02538000FFCF5D
:1053820000002D04800003011E1714141C000002EB
:10539200060E0602000000080C0E0C0800000400B5
:1053A2000400040004000A040A040A040A00320089
:1053B2000000900100000100CF15CF15CF15CF15C9
:1053C200CF150100C18081000000FFFFFFFF00E157
:1053D20000000000000020202020202020202000AB
:1053E20025002D4149522D00456E746572696E6724
:1053F2000043616C6962726174696F6E204D6F6403
:10540200650043616C6962726174696F6E20464F18
:10541200323A0025204F787967656E00436C6963E4
:105422006B20746F00636F6E6669726D0042616417
:105432002043616C6962726174696F6E00446174C9
:1054420061005361766564004D69784D6F6E6974D1
:105452006F720076007620302E3200506C656173D8
:105462006500526563616C696272617465005331F3
:105472002054617267657400252000533220546104
:105482007267657400546F6C6572616E636500309B
:10549200002F005467742E204D69783A004F7074C3
:1054A200696F6E73004D656E7500536574204D69AA
:1054B20078004F322053656E736F720054617267C9
:1054C2006574730044697361626C650043616C6961
:1054D2006272617465004578697400206D560053EC
:1054E20032204552524F520020204D697820000050
:1054F2000000003C120F190000000047131A13EFBE
:1055020012F7120A1319130D0A006E616E00696E0A
:1055120066006F7666002E0000000000A220E920DF
:08552200CC20DC20B820C920D8
:00000001FF
