:100000000C946F010C9495160C94BC160C94E3168A
:100010000C940A170C9497010C9497010C943117C7
:100020000C9497010C9497010C94021F0C94891D59
:100030000C9497010C9497010C9497010C949701E0
:100040000C9497010C9497010C9497010C949701D0
:100050000C9497010C9497010C9497010C945817E9
:100060000C9497010C9497010C9497010C949701B0
:100070000C9497010C9497010C9497010C949701A0
:100080000C9497010C9497010C9497010C94970190
:100090000C94E9120C9497010C9497010C9497011D
:1000A0000C9497010C9497010C949701B318B6180F
:1000B000A518A918AF18D718D718D718BA18BE1886
:1000C000C218C818CC18D718D218070605040100A2
:1000D000080A0B0C0D090000000200090F000003C4
:1000E0000401000C000000000000000000000000FF
:1000F0000000000000040802011040804010204071
:10010000804080080204018040201002011080100D
:1001100020404020040404040403040502020202F7
:100120000403020202020606060606060404020290
:10013000020404000000002300260029002C002FE8
:100140000000000000250028002B002E00310000D8
:10015000000000240027002A002D003000120100BA
:1001600002EF0201409A230C8000010102030112F8
:10017000010002000000409A230C800001010203EC
:1001800001416461667275697400466561746865F1
:100190007220333275340004030904080B00020294
:1001A0000201000904000001020200000524001001
:1001B00001052401010104240206052406000107AB
:1001C00005810310004009040100020A0000000735
:1001D0000502024000000705830240000000407A4B
:1001E00010F35A00A0724E18090010A5D4E80000C0
:1001F000E87648170000E40B54020000CA9A3B005E
:100200000000E1F505000080969800000040420FD4
:10021000000000A08601000000102700000000E898
:1002200003000000006400000000000A000000005D
:10023000000100000000002C76D888DC674F0823FE
:10024000DFC1DFAE59E1B1B796E5E3E453C63AE664
:1002500051997696E8E6C28426EB898C9B62ED4044
:100260007C6FFCEFBC9C9F40F2BAA56FA5F4900593
:100270005A2AF75C936B6CF9676DC11BFCE0E40DC7
:1002800047FEF520E6B500D0ED902E0300943577BB
:10029000050080841E080000204E0A000000C80CE3
:1002A000333333330F986E12831141EF8D2114894C
:1002B0003BE65516CFFEE6DB18D1844B381BF77CA6
:1002C0001D901DA4BBE424203284725E228100C9EB
:1002D000F124ECA1E53D27003B040712082211247C
:1002E0001FBECFEFDAE0DEBFCDBF12E0A0E0B1E08D
:1002F000ECE6F4E502C005900D92AA3AB107D9F7F1
:1003000024E0AAEAB2E001C01D92AE34B207E1F7E0
:1003100012E0CEEDD2E004C02297FE010E94172524
:10032000C83DD107C9F70E9471190C94342A0C9466
:10033000000080E00E94471921E0892B09F420E0A9
:100340002093ED0281E00E94471921E0892B09F4F6
:1003500020E02093EC028091EB02882321F0809131
:10036000EA02811109C08091EB02811112C08091D3
:10037000EA02811163C00DC08091ED02811104C0B9
:100380008091EC02811150C08091ED02882319F117
:100390001DC08091EB02811105C08091EA02882383
:1003A00009F459C08091EB028823A9F08091EA02F8
:1003B000811111C08091ED02882321F08091EC021F
:1003C00081116EC08091ED02811105C08091EC0217
:1003D000882309F46FC08091E6029091E7020497A8
:1003E00034F08091E8029091E90201960CC080916E
:1003F000E6029091E7028D3F9F4F6CF48091E802F6
:100400009091E90201979093E9028093E80210929B
:10041000E7021092E6028091ED028093EB02809158
:10042000EC028093EA0208958091E6029091E7023F
:1004300001969093E7028093E602A6CF8091ED02A9
:10044000811104C08091EC028823B1F08091ED020B
:10045000882309F20CC08091ED02882321F080915D
:10046000EC02882399F08091ED028111B4CF809144
:10047000EC0281111FC0AFCF8091E6029091E7029C
:1004800001969093E7028093E602E0CF8091E60226
:100490009091E70201969093E7028093E602E3CF02
:1004A0008091E6029091E70201969093E702809393
:1004B000E60288CF8091E6029091E702019790933F
:1004C000E7028093E60287CF80E00E94471921E08F
:1004D000892B09F420E02093ED0281E00E94471966
:1004E00021E0892B09F420E02093EC028091EB02BB
:1004F000882321F08091EA02811109C08091EB02EA
:10050000811112C08091EA02811163C00DC08091F7
:10051000ED02811104C08091EC02811150C08091E4
:10052000ED02882319F11DC08091EB02811105C0F5
:100530008091EA02882309F459C08091EB02882354
:10054000A9F08091EA02811111C08091ED02882307
:1005500021F08091EC0281116EC08091ED02811139
:1005600005C08091EC02882309F46FC08091E602F7
:100570009091E702049734F08091E8029091E902AB
:1005800001960CC08091E6029091E7028D3F9F4F4B
:100590006CF48091E8029091E90201979093E9024E
:1005A0008093E8021092E7021092E6028091ED0239
:1005B0008093EB028091EC028093EA02089580918F
:1005C000E6029091E70201969093E7028093E6029B
:1005D000A6CF8091ED02811104C08091EC028823A6
:1005E000B1F08091ED02882309F20CC08091ED02F8
:1005F000882321F08091EC02882399F08091ED020C
:100600008111B4CF8091EC0281111FC0AFCF8091D6
:10061000E6029091E70201969093E7028093E6024A
:10062000E0CF8091E6029091E70201969093E70275
:100630008093E602E3CF8091E6029091E702019673
:100640009093E7028093E60288CF8091E602909132
:10065000E70201979093E7028093E60287CF0F931A
:100660001F930E944719909300038093FF022091EB
:1006700036013091370182179307A1F0892B91F44D
:100680000E94A2176093F3027093F4028093F50224
:100690009093F6028091FF029091000390933701AE
:1006A000809336010E94A2170091F3021091F40288
:1006B0002091F5023091F602601B710B820B930BB7
:1006C00000912E0110912F012091300130913101C4
:1006D000061717072807390758F48091FF029091F1
:1006E000000320913601309137018217930711F4EE
:1006F00080E00FC090933701809336010E94A217CB
:100700006093F3027093F4028093F5029093F602E3
:1007100081E01F910F9108958BE10E946A18BC013E
:10072000882777FD8095982F0E94C4239B01AC01F8
:100730000E94C12223E333E343E550E40E9478247E
:1007400020E030E040E85AE30E9478240895CF92F8
:10075000DF92EF92FF92CF93DF9300D000D0CDB71E
:10076000DEB76B017C0188EC92E029833A834B83EE
:100770005C830E943D1529813A814B815C818823ED
:1007800039F0C701B6010E94C022A70196010AC034
:1007900063E373E387EA91E40E94C02223E333E337
:1007A00047EA51E40E94292320E030E048EC52E47B
:1007B0000E94782420E030E040E05FE30E94C12204
:1007C0000E949123272F862F922F97FF02C080E04F
:1007D00090E00F900F900F900F90DF91CF91FF90CE
:1007E000EF90DF90CF900895FF920F931F93CF93D8
:1007F000DF93EC018AEA92E00E947D15F82E8823AF
:10080000D1F00091EE021091EF028AEA92E00E948C
:100810004016800F911F8C179D076CF00091EE021F
:100820001091EF028AEA92E00E944016081B190B11
:10083000C017D1070CF4F12C8F2DDF91CF911F91B0
:100840000F91FF90089540E067E081E093E00E94FF
:10085000710F66E571E081E093E00E94D01941E0FC
:1008600067E081E093E00E94710F66E571E081E04E
:1008700093E00C94D019CF92DF92EF92FF920F93F6
:100880001F9385E0C82E96E0E92E0AE02BE04CE0AD
:100890006DE081E093E00E9429100E94A21760930E
:1008A000FB027093FC028093FD029093FE020E9473
:1008B000A2176093F7027093F8028093F902909365
:1008C000FA02C12CD12C28E2E22E20E4F22E02E51D
:1008D00018EB2EEC3FE340E05AE060E070E088EC7B
:1008E00092E00E94161402E518EB2EEC3FE340E084
:1008F0005AE061E070E08AEA92E00E9416141F91CB
:100900000F91FF90EF90DF90CF900895FF920F939B
:100910001F93CF93DF93CDB7DEB72C970FB6F89424
:10092000DEBF0FBECDBFF42E122F21E0AB01BC0104
:10093000CE0107960E94A120402F612F81E093E015
:100940000E94710FFF2029F062E081E093E00E9495
:1009500083108B859C850597B0F023E030E040E064
:1009600050E0BE01695F7F4FCE0101960E94D12009
:10097000BE016F5F7F4FCE0107960E945120CE01CE
:1009800001960E94971F8B859C85049731F06EE538
:1009900071E081E093E00E94D019BE01695F7F4F52
:1009A00081E093E00E94C219FF2061F065E0610FD1
:1009B000402F81E093E00E94710F63E081E093E0BB
:1009C0000E948310CE0107960E94971F2C960FB6A7
:1009D000F894DEBF0FBECDBFDF91CF911F910F9175
:1009E000FF9008950F931F930E94A2170091FB029E
:1009F0001091FC022091FD023091FE02601B710BF0
:100A0000820B930B0091320110913301209134013C
:100A100030913501061717072807390708F07CC001
:100A200088EC92E00E944F152DEC3CEC4CEC5DE321
:100A30000E947424181674F488EC92E00E944F15FA
:100A400000E010E020E030E040E00E94860460E634
:100A500071E015C08091F1029091F20240E060E0F7
:100A6000019739F481E093E00E94710F62E671E032
:100A700006C081E093E00E94710F6AE571E081E0B9
:100A800093E00E94D0198AEA92E00E944F152DEC63
:100A90003CEC4CEC5DE30E947424181674F48AEA72
:100AA00092E00E944F1501E010E020E030E040E0CD
:100AB0000E94860460E671E008C041E060E081E0E9
:100AC00093E00E94710F6AE571E081E093E00E947B
:100AD000D01940E066E081E093E00E94710F60E091
:100AE00081E093E00E94831041E066E081E093E0C2
:100AF0000E94710F60E081E093E00E9483100E94E9
:100B0000A2176093FB027093FC028093FD02909306
:100B1000FE0281E08093F0021F910F910895CF9221
:100B2000DF92EF92FF920F931F93CF93DF9381E0B9
:100B300093E00E946A0F40E064E081E093E00E944D
:100B4000710F68E671E081E093E00E94D01941E006
:100B500060E081E093E00E94710F61E771E081E065
:100B600093E00E94D01966ED76E080E090E00E946C
:100B7000D11781E093E00E946A0F85E10E94471936
:100B8000892BD9F36AEF70E080E090E00E94D117E2
:100B900062E871E081E093E00E94D01981ED90E07D
:100BA0009093E9028093E802C8EED3E085E190E0FB
:100BB0000E942F03811136C08091E8029091E902D2
:100BC000893E93402CF0D093E902C093E8020AC01A
:100BD0008091E8029091E90297FF04C01092E90227
:100BE0001092E8026091E8027091E902882777FD8F
:100BF0008095982F0E94C42320E030E040E251E429
:100C00000E9429236B017C0101E010E020E030E02C
:100C100041E00E94860463E971E081E093E00E9474
:100C2000D019C4CF81E093E00E946A0F40E067E0F2
:100C300081E093E00E94710F60E081E093E00E9408
:100C400083106CE971E081E093E00E94D01941E0EB
:100C500067E081E093E00E94710F60E081E093E043
:100C60000E94831065EA71E081E093E00E94D01950
:100C700088EC92E00E94F71420E030E0A9010E9485
:100C8000252318166CF040E060E081E093E00E94BC
:100C9000710F6BE571E081E093E00E94D0190BC009
:100CA00088EC92E00E94F71400E010E020E030E0D1
:100CB00040E00E9486046EE572E081E093E00E94CD
:100CC000D0198AEA92E00E94F71420E030E0A901EE
:100CD0000E94252318166CF041E060E081E093E06B
:100CE0000E94710F6BE571E081E093E00E94D019E2
:100CF0000BC08AEA92E00E94F71401E010E020E0C5
:100D000030E040E00E9486046EE572E081E093E00E
:100D10000E94D01985E190E00E942F03882309F4F6
:100D2000A7CF88EC92E00E942D15882309F46EC0AD
:100D300088EC92E00E94F7149B01AC01C701B60158
:100D40000E94292322E538EB4EEC5FE30E947424D5
:100D500018160CF05BC088EC92E00E94F7149B011F
:100D6000AC01C701B6010E94292320E030E048E22F
:100D700050E40E94252387FF49C088EC92E00E943E
:100D8000F7149B01AC01C701B6010E942923AB01F6
:100D9000BC0188EC92E00E94EE158AEA92E00E9483
:100DA0002D15882309F45BC08AEA92E00E94F714AB
:100DB0009B01AC01C701B6010E94292322E538EB53
:100DC0004EEC5FE30E94742418160CF048C08AEAC7
:100DD00092E00E94F7149B01AC01C701B6010E948A
:100DE000292320E030E048E250E40E94252387FFD9
:100DF00036C08AEA92E00E94F7149B01AC01C70159
:100E0000B6010E942923AB01BC0132C088EC92E0FC
:100E10000E942D15811104C040E050E0BA01B9CF05
:100E200081E093E00E946A0F6DEA71E081E093E057
:100E30000E94D01941E060E081E093E00E94710FD0
:100E40006DEB71E081E093E00E94D01968EB7BE0EC
:100E500080E090E00E94D1170E948F059ECF8AEA21
:100E600092E00E942D1581113CC040E050E0BA0193
:100E70008AEA92E00E94EE1588EC92E00E942D151D
:100E8000811107C08AEA92E00E942D15882309F497
:100E900047C081E093E00E946A0F61EB71E081E05E
:100EA00093E00E94D01941E060E081E093E00E946D
:100EB000710F62EC71E081E093E00E94D0196CED5B
:100EC00075E080E090E00E94D11781E093E0DF912F
:100ED000CF911F910F91FF90EF90DF90CF900C94E6
:100EE0006A0F81E093E00E946A0F6DEA71E081E091
:100EF00093E00E94D01941E060E081E093E00E941D
:100F0000710F6DEB71E081E093E00E94D01968EB06
:100F10007BE080E090E00E94D1170E948F05ACCF6B
:100F200081E093E00E946A0F6DEA71E081E093E056
:100F30000E94D01941E060E081E093E00E94710FCF
:100F40006DEB71E081E093E00E94D01968EB7BE0EB
:100F500080E090E00E94D1170E948F059ACF62E056
:100F600085E10E94D81862E080E00E94D81862E013
:100F700081E00E94D81861E087E10E94D81861E002
:100F800086E10E94D81841E050E069E971E082E012
:100F90000E94451641E050E064E672E083E00E9462
:100FA000451620E042E060E181E093E00E948B0F73
:100FB00046E251E060E081E093E00E9449104EE19A
:100FC00051E061E081E093E00E94491046E151E088
:100FD00062E081E093E00E9449104EE051E063E05E
:100FE00081E093E00E94491046E051E064E081E036
:100FF00093E00E94491040E063E081E093E00E94AA
:10100000710F68EC71E081E093E00E94D01941E03B
:1010100060E081E093E00E94710F0E948C03AB01BD
:10102000BC0122E030E081E093E00E945D1B63EDB3
:1010300071E081E093E00E94D01941E06BE081E033
:1010400093E00E94710F65ED71E081E093E00E94F2
:10105000D01968ED71E081E093E00E94D01960ED55
:1010600077E080E090E00E94D11781E093E00E9459
:101070006A0F85E10E944719892BD1F188EC92E033
:101080000E942D15811107C08AEA92E00E942D1559
:10109000882371F007C088EC92E00E94E814811167
:1010A000F3CF0AC08AEA92E00E94E814882321F074
:1010B00081E093E00C946A0F81E093E00E946A0F54
:1010C0006CED71E081E093E00E94D01941E060E0B6
:1010D00081E093E00E94710F63EE71E081E093E0A4
:1010E0000E94D01960ED77E080E090E00E94D11777
:1010F0000E948F05DDCF0F931F93CF93DF9388EC72
:1011000092E00E943D15882309F462C040E067E048
:1011100081E093E00E94710F6FEE71E081E093E057
:101120000E94D01988EC92E00E9438169093E90250
:101130008093E802C8EED3E085E190E00E942F039F
:10114000811144C00E94F2048091E8029091E9026A
:10115000893E93402CF0D093E902C093E8020AC084
:101160008091E8029091E90297FF04C01092E90291
:101170001092E8026091E8027091E90288EC92E036
:101180000E94341688EC92E00E943816BC01882731
:1011900077FD8095982F0E94C42320E030E040E244
:1011A00051E40E94292301E010E027E030E041E013
:1011B0000E94860469EF71E081E093E00E94D019FB
:1011C00064E081E093E00E948310B6CF0E94230484
:1011D0008AEA92E00E943D15882309F462C040E04B
:1011E00067E081E093E00E94710F6CEF71E081E0B5
:1011F00093E00E94D0198AEA92E00E9438169093F8
:10120000E9028093E802C8EED3E085E190E00E9415
:101210002F03811144C00E94F2048091E802909152
:10122000E902893E93402CF0D093E902C093E80292
:101230000AC08091E8029091E90297FF04C01092E1
:10124000E9021092E8026091E8027091E9028AEAEC
:1012500092E00E9434168AEA92E00E943816BC019D
:10126000882777FD8095982F0E94C42320E030E0E6
:1012700040E251E40E94292301E010E027E030E041
:1012800041E00E94860469EF71E081E093E00E94F2
:10129000D01964E081E093E00E948310B6CF0E94F1
:1012A000230440E067E081E093E00E94710F66E074
:1012B00072E081E093E00E94D01988EC92E00E94F5
:1012C00040169093E9028093E802C8EED3E085E1EE
:1012D00090E00E942F03811147C00E94F204809188
:1012E000E8029091E902893E93402CF0D093E90204
:1012F000C093E8020AC08091E8029091E90297FF4A
:1013000004C01092E9021092E8026091E802709124
:10131000E90288EC92E00E943C166091E80270912C
:10132000E9028AEA92E00E943C1688EC92E00E9470
:101330004016BC01882777FD8095982F0E94C42312
:1013400020E030E040E251E40E94292301E010E077
:1013500028E030E041E00E94860460E671E081E030
:1013600093E00E94D019B3CF82E090E09093F20214
:101370008093F1020E942304DF91CF911F910F917E
:101380000895FF920F931F93CF93DF9300D000D067
:1013900000D0CDB7DEB7F62E042F122F4AE0BC01E5
:1013A000CE0101960E947520412F602F81E093E0CD
:1013B0000E94710FFF2029F062E081E093E00E941B
:1013C00083108D819E81029731F060E172E081E0AF
:1013D00093E00E94D019BE016F5F7F4F81E093E0E0
:1013E0000E94C219FF2061F063E0600F412F81E08D
:1013F00093E00E94710F63E081E093E00E9483100C
:10140000CE0101960E94971F26960FB6F894DEBF74
:101410000FBECDBFDF91CF911F910F91FF90089527
:10142000AF92BF92CF92DF92EF92FF920F931F93F2
:10143000CF93DF9340E067E081E093E00E94710F7B
:1014400062E172E081E093E00E94D0198AEA92E0C2
:101450000E943816813D910549F08AEA92E00E9487
:1014600038166AE070E00E94DF2402C065E170E097
:101470007093E9026093E802C3E6D0E03AE0F32E0D
:101480000AE010E085E190E00E942F03811146C040
:101490000E94F2048091E8029091E902843691055D
:1014A0002CF0D093E902C093E8020AC08091E802D0
:1014B0009091E90297FF04C01092E9021092E802AD
:1014C0008091E8029091E902F89EB001F99E700DBA
:1014D00011248AEA92E00E9434168AEA92E00E947D
:1014E0003816B8010E94DF24CB0121E030E047E04C
:1014F00050E061E00E94C1096DE172E081E093E09B
:101500000E94D01921E030E04DE050E060E0809191
:10151000EE029091EF020E94C109B4CF41E067E072
:1015200081E093E00E94710F67E571E081E093E054
:101530000E94D0198091EE029091EF029093E902FF
:101540008093E802CAE0D0E006EF1FEF85E190E06B
:101550000E942F0381118BC00E94F204E090E802E8
:10156000F090E9028AEA92E00E943816BE010E94D9
:10157000DF246E0D7F1D6436710574F08AEA92E0F7
:101580000E943816B8010E94DF246C597F4F709377
:10159000E9026093E8020AC08091E8029091E902B2
:1015A00097FF04C01092E9021092E8028AEA92E0E2
:1015B0000E943816A090E802B090E902BC0188278A
:1015C00077FD8095982F0E94C42320E030E040E210
:1015D00051E40E9429236B017C01B501882777FD26
:1015E0008095982F0E94C4239B01AC0160E070E0BD
:1015F00088EC92E40E94C0229B01AC01C701B601B5
:101600000E94292320E030E04AE754E40E94782435
:101610000E94912388EC92E00E9434168091E802A7
:101620009091E9029093EF028093EE028AEA92E0B1
:101630000E943816BE010E94DF24CB0121E030E079
:1016400048E050E060E00E94C1096CE172E081E096
:1016500093E00E94D01921E030E04CE050E061E0DE
:101660008091EE029091EF020E94C1096FCF0E941B
:10167000230440E067E081E093E00E94710F66E0A0
:1016800072E081E093E00E94D01988EC92E00E9421
:1016900040169093E9028093E802C8EED3E085E11A
:1016A00090E00E942F03811147C00E94F2048091B4
:1016B000E8029091E902893E93402CF0D093E90230
:1016C000C093E8020AC08091E8029091E90297FF76
:1016D00004C01092E9021092E8026091E802709151
:1016E000E90288EC92E00E943C166091E802709159
:1016F000E9028AEA92E00E943C1688EC92E00E949D
:101700004016BC01882777FD8095982F0E94C4233E
:1017100020E030E040E251E40E94292301E010E0A3
:1017200028E030E041E00E94860460E671E081E05C
:1017300093E00E94D019B3CF0E94230481E090E08F
:101740009093F2028093F102DF91CF911F910F915C
:10175000FF90EF90DF90CF90BF90AF9008950F93E0
:101760001F93CF93DF930E94A2176093F7027093A9
:10177000F8028093F9029093FA021092E902109213
:10178000E802C091E802D091E9020E94230440E0FF
:1017900068E081E093E00E94710F6FE172E081E008
:1017A00093E00E94D01941E06AE081E093E00E945A
:1017B000710F67E272E081E093E00E94D0190E940D
:1017C000A2170091F7021091F8022091F9023091CE
:1017D000FA02601B710B820B930B683E734081050C
:1017E000910538F48091E8029091E902892B09F47F
:1017F000F3C00E9423041092E9021092E80204E070
:1018000010E00E94F2048091E8029091E9020597AD
:101810002CF01092E9021092E8020AC08091E802CE
:101820009091E90297FF04C01093E9020093E80247
:101830008091E8029091E9028C179D0731F00E9497
:101840002304C091E802D091E9028091E8029091CE
:10185000E9028230910509F45CC02CF4009759F03C
:10186000019781F1CECF8330910509F483C00497AD
:1018700009F499C0C6CF40E067E081E093E00E94A0
:10188000710F6CE272E081E093E00E94D01941E0B8
:1018900067E081E093E00E94710F62EF71E081E008
:1018A00093E00E94D01985E190E00E942F038823E5
:1018B00009F4A7CF0E942304DF91CF911F910F91CC
:1018C0000C94100A40E067E081E093E00E94710F01
:1018D00064E372E081E093E00E94D01941E067E0A8
:1018E00081E093E00E94710F6EE372E081E093E08B
:1018F0000E94D01985E190E00E942F03882309F40B
:1019000080CF0E942304DF91CF911F910F910C94FF
:101910007B0840E067E081E093E00E94710F66E49D
:1019200072E081E093E00E94D01941E067E081E03D
:1019300093E00E94710F6EE372E081E093E00E94F9
:10194000D01985E190E00E942F03882309F459CF34
:101950000E9423041092F2021092F10260E087E1EB
:101960000E94111960E086E1DF91CF911F910F91E4
:101970000C94111940E067E081E093E00E94710F40
:101980006EE472E081E093E00E94D01985E190E07E
:101990000E942F03882309F434CFDF91CF911F9148
:1019A0000F910C948F0540E067E081E093E00E9486
:1019B000710F68E572E081E093E00E94D01985E143
:1019C00090E00E942F03882309F41BCFDF91CF9171
:1019D0001F910F910C9423040E94F204F0CE0F93F8
:1019E0001F93CF93DF9300D000D0CDB7DEB78091A7
:1019F000F002882309F4C4C18091F1029091F202AF
:101A0000892B09F052C088EC92E00E943D1540E01D
:101A100067E0811107C081E093E00E94710F66E5E5
:101A200071E016C081E093E00E94710F62E081E0F6
:101A300093E00E94831088EC92E00E94F71400E08B
:101A400010E028E030E040E00E9486046DE572E09E
:101A500081E093E00E94D0198AEA92E00E943D154D
:101A600041E067E0811107C081E093E00E94710FBF
:101A700066E571E016C081E093E00E94710F62E0BC
:101A800081E093E00E9483108AEA92E00E94F714BA
:101A900001E010E028E030E040E00E9486046DE5BF
:101AA00072E081E093E00E94D0198091F102909160
:101AB000F202019709F0E0C08AEA92E00E943D1527
:101AC000811122C040E068E081E093E00E94710F44
:101AD00061E672E081E093E00E94D01941E067E0A6
:101AE00081E093E00E94710F66E571E081E093E090
:101AF0000E94D01961E087E10E94111961E086E13E
:101B00000E9411190E94F2048AEA92E00E943D1597
:101B1000882309F4B1C040E067E081E093E00E94CF
:101B2000710F88EC92E00E943D158823B1F062E0CD
:101B300081E093E00E94831088EC92E00E943816C6
:101B40006AE070E00E94DF24CB0120E030E048E052
:101B500050E060E00E94C10906C06CE571E081E0E0
:101B600093E00E94D01941E067E081E093E00E9499
:101B7000710F62E081E093E00E9483108AEA92E0B4
:101B80000E9438166AE070E00E94DF24CB0121E059
:101B900030E048E050E060E00E94C10940E06AE0C7
:101BA00081E093E00E94710F6AE672E081E093E0C9
:101BB0000E94D0198AEA92E00E944F1520E030E09E
:101BC00040E05FE30E94C1220E949123DC01CB012F
:101BD00021E030E04BE050E060E00E94C1096DE19F
:101BE00072E081E093E00E94D0198AEA92E00E94BC
:101BF0004F159B01AC0188EC92E029833A834B831B
:101C00005C830E944F1529813A814B815C810E943F
:101C1000A70321E030E04EE050E060E00E94C109FF
:101C200088EC92E00E9440168C018AEA92E00E94C1
:101C30004F159B01AC0188EC92E029833A834B83DA
:101C40005C830E944F1529813A814B815C810E94FF
:101C5000A703B8010E94F403811106C061E087E187
:101C60000E94111961E005C060E087E10E9411192E
:101C700060E086E10E9411198091F1029091F202D8
:101C8000029709F074C040E067E081E093E00E94B1
:101C9000710F88EC92E00E943D158823F1F062E01C
:101CA00081E093E00E94831088EC92E00E94381655
:101CB000BC01882777FD8095982F0E94C42320E0DF
:101CC00030E040E251E40E94292300E010E028E0E7
:101CD00030E040E00E94860406C066E571E081E0E5
:101CE00093E00E94D01941E067E081E093E00E9418
:101CF000710F8AEA92E00E943D158823F1F062E0BC
:101D000081E093E00E9483108AEA92E00E943816F4
:101D1000BC01882777FD8095982F0E94C42320E07E
:101D200030E040E251E40E94292301E010E028E085
:101D300030E040E00E94860406C066E571E081E084
:101D400093E00E94D01988EC92E00E947D158823D0
:101D500031F08AEA92E00E947D1581110BC061E0AA
:101D600087E10E94111961E086E10E941119109229
:101D7000F00206C060E087E10E94111960E0F4CF34
:101D80000F900F900F900F90DF91CF911F910F91B7
:101D900008950E94F2040E94EF0C85E190E00E94F9
:101DA0002F0381110C94AF0B0895CF93DF93EC01B7
:101DB00060E08E810E94111981E090E00E940B1872
:101DC00061E08E810E94111981E090E00E940B1861
:101DD00060E08E810E94111984E690E0DF91CF913E
:101DE0000C940B18EF92FF920F931F93CF93DF93F6
:101DF0008C01C0E0D0E0E62EF12CB7010C2E02C021
:101E0000759567950A94E2F76170F801EC0FFD1F74
:101E100087810E9411192196C430D10571F7C8013C
:101E2000DF91CF911F910F91FF90EF900C94D50E01
:101E3000EF92FF920F931F93CF93DF938C01C0E03B
:101E4000D0E0E62EF12CB7010C2E02C075956795F7
:101E50000A94E2F76170F801EC0FFD1F87810E9480
:101E600011192196C830D10571F7C801DF91CF91C2
:101E70001F910F91FF90EF900C94D50E1F93CF936D
:101E8000DF93EC01162F642F8C810E9411198D8134
:101E90008F3F19F060E00E9411198F85612F84FF38
:101EA00006C0CE01DF91CF911F910C94180F70E006
:101EB00084E0759567958A95E1F7CE010E94F20E50
:101EC000612FCE01DF91CF911F910C94F20E40E073
:101ED0000C943E0F61E00E94670F80ED97E00C9438
:101EE0000B18443008F043E0FC012389421710F03E
:101EF0004FEF420FFC01E40FF11D2489260F2068EB
:101F0000622F0C94670FFC016089262F2460208BC0
:101F10006C600C94670F0F931F93CF93DF93EC01CA
:101F2000423018F08F8588608F874B8B1C8A80E445
:101F30008D8B6E8B70E0605C7F4F6F8B222329F05E
:101F4000413019F48F8584608F8761E08C810E9415
:101F5000D8188D818F3F19F061E00E94D81861E098
:101F60008E810E94D81800E010E08F8584FF03C0A6
:101F700088E090E002C084E090E00817190754F46C
:101F8000FE01E00FF11F61E087810E94D8180F5F0A
:101F90001F4FEBCF80E593EC0E940B1860E08C8123
:101FA0000E94111960E08E810E9411198D818F3F6E
:101FB00019F060E00E9411196F8564FD1DC063E097
:101FC000CE010E94F20E84E991E10E940B1863E0B9
:101FD000CE010E94F20E84E991E10E940B1863E0A9
:101FE000CE010E94F20E86E990E00E940B1862E09A
:101FF000CE010E94F20E16C06062CE010E94670FF1
:1020000084E991E10E940B186F856062CE010E9405
:10201000670F86E990E00E940B186F856062CE0121
:102020000E94670F6F856062CE010E94670F84E097
:10203000888BCE010E94830FCE010E946A0F82E03E
:10204000898B66E0CE01DF91CF911F910F910C94A7
:10205000670FCF92EF920F93FC011382128285E7F4
:1020600092E09183808364838FEF85834683278307
:102070000087E186C2861386148615861686178623
:1020800020E041E060E1CF010F91EF90CF900C9400
:102090008B0FCF92DF92EF92FF920F931F93CF930C
:1020A000DF9300D0CDB7DEB78C01677088E0689F02
:1020B000B00111246064C80149835A830E94670FEC
:1020C0004981C42E5A81D52EE12CF12CD6016D9177
:1020D0006D01D801ED91FC910190F081E02DC801D6
:1020E0000995BFEFEB1AFB0AE8E0EE16F10471F771
:1020F0000F900F90DF91CF911F910F91FF90EF9074
:10210000DF90CF90089541E00E943E0F81E090E083
:102110000895FC0114821382608388E08183128217
:10212000089589E193E00C94CD11FC0174836383DD
:1021300008951F93CF93DF9300D0CDB7DEB7162F4E
:10214000682F89E193E04A8359830E94E711612F48
:1021500089E193E00E948E115981652F89E193E016
:102160000E948E114A81642F89E193E00E948E11B2
:1021700089E193E00F900F90DF91CF911F910C9424
:1021800004121F93CF93DF93182F682F89E193E0F8
:102190000E94E71160E089E193E00E948E1189E1DD
:1021A00093E00E94041242E0612F89E193E00E94D3
:1021B000E41189E193E00E943E11182F89E193E038
:1021C0000E943E11D12F20E0C22F9E01282BC90171
:1021D000DF91CF911F910895CF93DF93EC014B8155
:1021E0005C814368516861E088810E94991069812F
:1021F00070E080E090E00E94D11788810E94C110B9
:102200002A81022E02C0969587950A94E2F722232E
:1022100029F0811528E0920708F0906FDF91CF91A7
:102220000895CF93DF93EC014B815C814368516B40
:1022300061E088810E949910698170E080E090E0FF
:102240000E94D11788810E94C1102A81022E02C0EB
:10225000969587950A94E2F7222329F0811528E0C4
:10226000920708F0906FDF91CF9108958091490314
:1022700090E020914A03821B9109089520914A031E
:1022800080914903281750F4E22FF0E0E55BFC4F02
:10229000808190E02F5F20934A0308958FEF9FEF96
:1022A0000895E0914A0380914903E81730F4F0E083
:1022B000E55BFC4F808190E008958FEF9FEF0895DC
:1022C0000895CF92DF92EF92FF920F931F93CF93D7
:1022D000DF937C01CB018A0120912503222389F021
:1022E000EB016B01C40ED51ECC15DD0569F06991BB
:1022F000D701ED91FC910190F081E02DC701099586
:10230000F3CF642F0E94C012C801DF91CF911F91BB
:102310000F91FF90EF90DF90CF900895CF93DF93D0
:102320001F92CDB7DEB76983209125032223D1F018
:1023300020912603203240F021E030E0FC0133837D
:10234000228380E090E015C080912703E82FF0E021
:10235000E85DFC4F998190838F5F80932703809382
:10236000260305C061E0CE0101960E94C01281E003
:1023700090E00F90DF91CF910895FC0113821282BB
:1023800048EE53E060E070E04483558366837783D2
:102390008DE792E091838083089510924A03109212
:1023A000490310922703109226030C940B12862FD8
:1023B000413208F040E26BE473E00E94291210926F
:1023C0004A0380934903089521E00C94D71181E0DA
:1023D00080932503609348031092270310922603ED
:1023E00008950F93062F21E04091260368E273E0E1
:1023F000809148030E946D121092270310922603C9
:10240000109225030F91089561E00C94F11189E178
:1024100093E00C94BD111092D80381E08093D60311
:102420001092D50361E082E00E94111961E083E01F
:102430000E941119E9EBF0E080818E7F808380811A
:102440008D7F808380E28093B80085E48093BC0018
:102450000895413208F03FC09091D8039111FCCF0C
:1024600091E09093D8032093D6032FEF20936B0332
:102470001092B003240F2093AF039093D703909151
:10248000D703880F892B8093D7038091D5038130A0
:1024900041F41092D5038091D7038093BB0085EC63
:1024A00001C085EE8093BC008091D8038130E1F3B8
:1024B0008091B003841710F44091B00321EB33E016
:1024C000FB01D9018A2F821B841718F48D91819307
:1024D000F9CF842F089580E008950F93413208F0DA
:1024E00046C09091D8039111FCCF92E09093D8030D
:1024F0000093D6039FEF90936B031092B003409329
:10250000AF03FB0161EB73E0DB019A2F961B94177D
:1025100018F491919D93F9CF1092D7039091D7031E
:10252000880F892B8093D7038091D503813041F4A4
:102530001092D5038091D7038093BB0085EC01C036
:1025400085EE8093BC00222321F08091D803823055
:10255000E1F380916B038F3F61F080916B038032D8
:1025600051F080916B03803341F483E007C081E038
:1025700005C080E003C082E001C084E00F910895AF
:10258000613298F42091D803243089F460938D034C
:10259000FC018FE893E0DC012A2F281B261718F492
:1025A00021912D93F9CF80E0089581E0089582E094
:1025B000089585ED8093BC008091BC0084FDFCCF24
:1025C0001092D803089585EC8093BC001092D80334
:1025D00008951F920F920FB60F9211242F933F93DD
:1025E0004F935F936F937F938F939F93AF93BF931B
:1025F000EF93FF938091B900887F803609F49CC0E7
:1026000068F5883209F45BC090F4803109F454C055
:1026100038F4882309F4F5C0883009F44DC0F5C0BA
:10262000883109F44CC0803209F45DC0EEC08034BA
:1026300009F468C048F4803309F455C0883309F0C0
:10264000E4C080936B03A8C0803509F44FC088357F
:1026500009F45DC0883409F0D8C0D5C0883909F4C0
:10266000C6C0A8F4883709F467C038F4883609F47E
:1026700063C0803709F460C0C8C0883809F4B7C0A7
:10268000803909F45FC0803809F0BFC05BC0803B6F
:1026900009F485C038F4803A09F466C0883A09F430
:1026A0007EC0B3C0803C09F4A6C0883C09F4A3C036
:1026B000883B09F489C0A9C08091D70310C09091CC
:1026C000B0038091AF03981770F5E091B00381E0FB
:1026D0008E0F8093B003F0E0EF54FC4F8081809325
:1026E000BB0085EC85C080936B038DC0E091B00387
:1026F00081E08E0F8093B0038091BB00F0E0EF5437
:10270000FC4F80839091B0038091AF036DC0E09146
:10271000B00381E08E0F8093B0038091BB00F0E0A6
:10272000EF54FC4F80838091D60381116CC081E00F
:102730008093D50384EA60C083E08093D80310922D
:102740006C03CFCF80916C03803208F050C0E091D1
:102750006C0381E08E0F80936C038091BB00F0E0EE
:10276000E359FC4F8083BDCF80916C03803230F4FD
:10277000E0916C03F0E0E359FC4F10820E94D91203
:1027800060916C0370E0E091D103F091D2038DE68B
:1027900093E0099510926C030E94E31236C084E026
:1027A0008093D80310928E0310928D03E091D3038F
:1027B000F091D403099580918D03811105C081E0CA
:1027C00080938D0310928F03E0918E0381E08E0F32
:1027D00080938E03F0E0E157FC4F80818093BB0033
:1027E00090918E0380918D03981708F47ACF85E835
:1027F0008093BC000AC085EC8093BC001092D80383
:1028000004C010926B030E94D912FF91EF91BF9107
:10281000AF919F918F917F916F915F914F913F9178
:102820002F910F900FBE0F901F9018954F925F92AF
:102830006F927F928F929F92AF92BF92CF92DF92D0
:10284000EF92FF920F931F93CF93DF93EC014B0115
:102850005A012801390181ED90E09D878C878FE036
:1028600090E09F878E87188A198A1A8A1B8A1C8A89
:102870008E01075E1F4F68E4C8010E94891099828B
:102880008882BB82AA824C825D826E827F82C886E9
:10289000D986EA86FB86C8010E949110A11484E0C3
:1028A000B80619F164F4A114B104D1F0A11482E0C6
:1028B000B80669F580E090E0A0E8B5E424C0A11472
:1028C00088E0B806B9F0A1148AE0B806C1F0A114F6
:1028D00086E0B806E1F480E090E0A0E8B4E413C03C
:1028E00080E090E0A0ECB5E40EC080E090E0A0E0D5
:1028F000B5E409C080E090E0A0E0B4E404C080E06A
:1029000090E0A0E8B3E48D8B9E8BAF8BB88FDF9106
:10291000CF911F910F91FF90EF90DF90CF90BF90DC
:10292000AF909F908F907F906F905F904F900895A1
:10293000CF92DF92EF92FF920F931F93CF93DF938B
:10294000EC01E880F9808889811135C0EE0CFF1C0C
:10295000EE0CFF1C6E0181E1C80ED11C87010C5FDB
:102960001F4FC7010E948127F60181936F01FFEF7E
:10297000EF1AFF0AE016F106A1F781E0888BC988FB
:10298000DA88EB88FC882C813D814E815F81C7010C
:10299000B6010E94252387FD0AC0288539854A850E
:1029A0005B85C701B6010E947424181624F4198AA5
:1029B0001A8A1B8A1C8A69897A898B899C89DF918A
:1029C000CF911F910F91FF90EF90DF90CF900895DE
:1029D000CF930E949814C1E020E030E0A9010E944A
:1029E000742418160CF0C0E08C2FCF9108950F932B
:1029F0001F93CF93DF93EC018C01075E1F4F6A8119
:102A00007B81C8010E94951088819981009721F4EB
:102A1000C8010E94EC1005C00197B9F4C8010E94DA
:102A20001111BC01882777FD8095982F0E94C4233F
:102A30002D893E894F89588D0E94782420E03EEFF1
:102A40004FEF56E40E94292303C060E070E0CB0101
:102A5000DF91CF911F910F910895CF930E94F714AA
:102A6000C1E02AE037ED43E25CE30E9474241816CB
:102A70000CF0C0E08C2FCF910895CF93DF93EC0141
:102A80000E94E814882339F0CE010E942D15882376
:102A900011F081E001C080E0DF91CF910895CF92E5
:102AA000DF92EF92FF92CF93DF93EC010E943D15EE
:102AB000882351F0CE010E94F71420E030E0A901F4
:102AC0000E947424181624F060E070E0CB010EC060
:102AD000CE010E94F7146B017C01CE010E94981474
:102AE0009B01AC01C701B6010E947824DF91CF9110
:102AF000FF90EF90DF90CF9008954F925F926F928A
:102B00007F928F929F92AF92BF92CF92DF92EF927D
:102B1000FF920F931F93CF93DF93EC010C851D85DC
:102B2000AE84BF840E943D15811102C081E045C082
:102B3000B801882777FD8095982F0E94C42320E054
:102B400030E040E251E40E9429236B017C01B50191
:102B5000882777FD8095982F0E94C42320E030E0DD
:102B600040E251E40E9429234B015C01CE010E9406
:102B70004F152B013C01A5019401C701B6010E942C
:102B8000C1229B01AC01C301B2010E94742418163A
:102B90009CF0CE010E944F152B013C01A501940130
:102BA000C701B6010E94C0229B01AC01C301B20162
:102BB0000E94252387FFBACF80E0DF91CF911F913C
:102BC0000F91FF90EF90DF90CF90BF90AF909F90CC
:102BD0008F907F906F905F904F900895AF92BF92CB
:102BE000CF92DF92EF92FF920F931F93CF93DF93D9
:102BF00000D000D01F92CDB7DEB76C0149835A8355
:102C00006B837C83FC0100811181000F111F000F79
:102C1000111FCE0101967C015E0195E0A90EB11C49
:102C2000F70161917F01C8016D830E9481276D8149
:102C3000681719F0C8010E9489270F5F1F4FEA1417
:102C4000FB0471F7F601108A0F900F900F900F9010
:102C50000F90DF91CF911F910F91FF90EF90DF9038
:102C6000CF90BF90AF900895FC0175876487089559
:102C7000FC01848595850895FC0177876687089512
:102C8000FC018685978508950895853008F04CC02D
:102C9000E82FF0E0EE0FFF1FE85CFE4F71836083CA
:102CA0008230E1F018F4813069F004C0833019F10A
:102CB000843071F1809169008C7F842B809369004E
:102CC000E89A089580916900440F551F440F551FDD
:102CD000837F842B80936900E99A0895809169002D
:102CE00034E0440F551F3A95E1F78F7C842B809395
:102CF0006900EA9A08958091690026E0440F551F03
:102D00002A95E1F78F73842B80936900EB9A0895DD
:102D100080916A0094E0440F551F9A95E1F78F7CEB
:102D2000842B80936A00EE9A08951F920F920FB63B
:102D30000F9211242F933F934F935F936F937F9341
:102D40008F939F93AF93BF93EF93FF93E0913801DD
:102D5000F09139010995FF91EF91BF91AF919F914A
:102D60008F917F916F915F914F913F912F910F9034
:102D70000FBE0F901F9018951F920F920FB60F92D3
:102D800011242F933F934F935F936F937F938F9370
:102D90009F93AF93BF93EF93FF93E0913A01F0912C
:102DA0003B010995FF91EF91BF91AF919F918F9159
:102DB0007F916F915F914F913F912F910F900FBE37
:102DC0000F901F9018951F920F920FB60F9211241B
:102DD0002F933F934F935F936F937F938F939F9323
:102DE000AF93BF93EF93FF93E0913C01F0913D01CE
:102DF0000995FF91EF91BF91AF919F918F917F9135
:102E00006F915F914F913F912F910F900FBE0F9057
:102E10001F9018951F920F920FB60F9211242F93A7
:102E20003F934F935F936F937F938F939F93AF9352
:102E3000BF93EF93FF93E0913E01F0913F0109951D
:102E4000FF91EF91BF91AF919F918F917F916F9182
:102E50005F914F913F912F910F900FBE0F901F9058
:102E600018951F920F920FB60F9211242F933F9334
:102E70004F935F936F937F938F939F93AF93BF9382
:102E8000EF93FF93E0914001F09141010995FF918B
:102E9000EF91BF91AF919F918F917F916F915F91D2
:102EA0004F913F912F910F900FBE0F901F9018954B
:102EB0001F920F920FB60F9211242F933F938F936F
:102EC0009F93AF93BF938091DA039091DB03A0911E
:102ED000DC03B091DD033091D90326E0230F2D37B9
:102EE00020F40296A11DB11D05C029E8230F039609
:102EF000A11DB11D2093D9038093DA039093DB03C6
:102F0000A093DC03B093DD038091DE039091DF0397
:102F1000A091E003B091E1030196A11DB11D809342
:102F2000DE039093DF03A093E003B093E103BF912E
:102F3000AF919F918F913F912F910F900FBE0F9066
:102F40001F9018952FB7F8946091DA037091DB0306
:102F50008091DC039091DD032FBF08953FB7F89473
:102F60008091DE039091DF03A091E003B091E10333
:102F700026B5A89B05C02F3F19F00196A11DB11DD4
:102F80003FBF6627782F892F9A2F620F711D811DF1
:102F9000911D43E0660F771F881F991F4A95D1F74F
:102FA00008958F929F92AF92BF92CF92DF92EF924D
:102FB000FF926B017C010E94AE174B015C01C114B2
:102FC000D104E104F104F1F00E9416210E94AE1731
:102FD000681979098A099B09683E73408105910542
:102FE00070F321E0C21AD108E108F10888EE880EDA
:102FF00083E0981EA11CB11CC114D104E104F104AA
:1030000029F7DDCFFF90EF90DF90CF90BF90AF908A
:103010009F908F9008958330910528F0880F991F15
:1030200004970197F1F70895789484B5826084BD80
:1030300084B5816084BD85B5826085BD85B58160BC
:1030400085BDEEE6F0E0808181608083E1E8F0E01C
:103050001082808182608083808181608083E0E84B
:10306000F0E0808181608083E1E9F0E0808182602E
:103070008083808181608083E0E9F0E080818160ED
:103080008083E1ECF0E080818460808380818260D5
:103090008083808181608083E3ECF0E080818160C7
:1030A0008083E0ECF0E0808182608083E2ECF0E0FD
:1030B000808181608083EAE7F0E0808184608083A2
:1030C00080818260808380818E7F80838081806820
:1030D00080830895823108F08251E82FF0E0E653B2
:1030E000FF4FE49180917B00E3FB222720F930E041
:1030F00095E0220F331F9A95E1F78F7D822B809305
:103100007B00E7708091420120E4829FC00111247E
:10311000E82BE0937C0080917A00806480937A00B1
:1031200080917A0086FDFCCF809178002091790013
:1031300090E0922B089590E0FC013197EF30F1057B
:10314000B0F5EA5AFF4F0C941525809180008F77D7
:1031500003C0809180008F7D8093800008958091CE
:103160008000877FF9CF84B58F7702C084B58F7DCB
:1031700084BD0895809190008F7707C08091900062
:103180008F7D03C080919000877F80939000089589
:103190008091C0008F7703C08091C0008F7D8093A5
:1031A000C00008958091C200877F8093C200089577
:1031B000CF93DF9390E0FC01EB50FF4F2491FC0193
:1031C000EC5EFE4F8491882349F190E0880F991FAF
:1031D000FC01E15BFE4FA591B4918F5B9E4FFC011A
:1031E000C591D4919FB7611108C0F8948C91209536
:1031F00082238C93888182230AC0623051F4F89430
:103200008C91322F309583238C938881822B8883F5
:1032100004C0F8948C91822B8C939FBFDF91CF9147
:1032200008950F931F93CF93DF931F92CDB7DEB70F
:10323000282F30E0F901EA52FF4F8491F901EB5059
:10324000FF4F1491F901EC5EFE4F04910023C9F089
:10325000882321F069830E949B186981E02FF0E0A8
:10326000EE0FFF1FEF5BFE4FA591B4919FB7F8944F
:103270008C91611103C01095812301C0812B8C9327
:103280009FBF0F90DF91CF911F910F910895CF9322
:10329000DF93282F30E0F901EA52FF4F8491F901C2
:1032A000EB50FF4FD491F901EC5EFE4FC491CC235B
:1032B00091F081110E949B18EC2FF0E0EE0FFF1FA0
:1032C000ED5CFE4FA591B4912C912D2381E090E00F
:1032D00021F480E002C080E090E0DF91CF9108957A
:1032E00008950E9414180E94701982EE93E00E94C3
:1032F0007C1F0E94AF07C0E0D0E00E94C90E20975B
:10330000E1F30E940000F9CFCF92DF92EF92FF929B
:103310000F931F93CF93DF937C016A01EB0100E0D1
:1033200010E00C151D0571F06991D701ED91FC912C
:103330000190F081E02DC7010995892B19F00F5FED
:103340001F4FEFCFC801DF91CF911F910F91FF90D9
:10335000EF90DF90CF9008956115710581F0DB014A
:103360000D900020E9F7AD0141505109461B570B64
:10337000DC01ED91FC910280F381E02D099480E065
:1033800090E00895DC01ED91FC91DB0114964D91E4
:103390005C9115976D917C910280F381E02D0994E9
:1033A0000C94AC19DC01ED91FC910190F081E02DC1
:1033B00009948F929F92AF92BF92DF92EF92FF9209
:1033C0000F931F93CF93DF93CDB7DEB7A1970FB6BF
:1033D000F894DEBF0FBECDBF7C01F42FD52ECB01FC
:1033E00019A2223008F42AE08E010F5D1F4F822EB1
:1033F000912CA12CB12C6F2F7D2DA50194010E9441
:10340000F324F22FD32ECA01015011096A3014F4AB
:10341000E0E301C0E7E3E60FD801EC93232B242B74
:10342000252B49F7B801C7010E94AC19A1960FB628
:10343000F894DEBF0FBECDBFDF91CF911F910F91EA
:10344000FF90EF90DF90BF90AF909F908F90089586
:10345000CF92DF92EF92FF920F931F93CF93DF9360
:10346000EC016A017B012115310579F4E881F981CC
:103470000190F081E02D642FDF91CF911F910F918A
:10348000FF90EF90DF90CF9009942A303105E9F456
:1034900077FF1AC06DE20E94D2198C01442755278C
:1034A000BA014C195D096E097F092AE0CE010E941C
:1034B000D919800F911FDF91CF911F910F91FF902C
:1034C000EF90DF90CF9008952AE0B701A601CE01DA
:1034D000DF91CF911F910F91FF90EF90DF90CF90F0
:1034E0000C94D9194F925F926F927F928F929F9214
:1034F000AF92BF92CF92DF92EF92FF920F931F9302
:10350000CF93DF93EC016A017B01B22E9A01AB01EC
:10351000C701B6010E94DB24882319F06CE872E031
:1035200027C026013701E89477F82FEF3FEF4FE7E8
:103530005FE7C301B2010E94DB2481110DC02FEFB0
:103540003FEF4FE75FE7C301B2010E942523181642
:103550001CF460E972E00CC02FEF3FEF4FE75FE42F
:10356000C701B6010E9474241816ACF464E972E035
:10357000CE01DF91CF911F910F91FF90EF90DF90DF
:10358000CF90BF90AF909F908F907F906F905F9003
:103590004F900C94AC192FEF3FEF4FE75FECC70152
:1035A000B6010E94252387FDE1CF20E030E0A9018C
:1035B000C701B6010E94252387FF0AC06DE2CE0134
:1035C0000E94D2198C01F7FAF094F7F8F09402C037
:1035D00000E010E0A12C60E070E080E09FE3AB141D
:1035E00041F020E030E040E251E40E942923A3941E
:1035F000F6CF9B01AC01C701B6010E94C1226B014D
:103600007C010E9496232B013C010E94C2239B0156
:10361000AC01C701B6010E94C0226B017C012AE007
:10362000B301A201CE010E94D919080F191FBB20B6
:1036300039F068E972E0CE010E94AC19080F191F39
:103640007B2C772041F120E030E040E251E4C701DB
:10365000B6010E9478246B017C010E9491234B01EA
:10366000AA2497FCA094BA2C2AE030E0B501A4016A
:10367000CE010E94281A080F191FC501B4010E942B
:10368000C4239B01AC01C701B6010E94C0226B019B
:103690007C017A94D6CFC801DF91CF911F910F9111
:1036A000FF90EF90DF90CF90BF90AF909F908F9062
:1036B0007F906F905F904F9008950C94721A409194
:1036C000E6035091E7032091E4033091E5034217AC
:1036D0005307B4F49091E8009570E1F39091E800FD
:1036E00092FD19C08093F1008091E6039091E70369
:1036F00001968F739927892B19F48EEF8093E80038
:103700008091E6039091E70301969093E7038093FD
:10371000E60381E0089580E00895CF92DF92EF9272
:10372000FF920F931F93CF93DF931F92CDB7DEB716
:10373000082F162FF42E862F880F8E5F99830E94F4
:103740005F1B83E00E945F1BE02EC02E9981D92E63
:103750008C2D8E19811798F4F601F7FE02C0849122
:1037600001C080810E945F1B082F80E00E945F1BC8
:103770008023FFEFCF1ADF0A8111EACF01C081E079
:103780000F90DF91CF911F910F91FF90EF90DF90FD
:10379000CF9008958091D70081608093D70080EA10
:1037A0008093D80089B58F7E89BD89B5826089BD37
:1037B00009B400FEFDCF61E070E080E090E00E947F
:1037C000D1178091D8008F7C80618093D800809140
:1037D000E000807F8093E0000895CF93DF931F92F5
:1037E000CDB7DEB71982CE0101960E9474210E94E6
:1037F000AC22BE016F5F7F4F0E94252289810F900E
:10380000DF91CF9108952FB7FC012083F894677062
:103810006093E9000895CF93DF931F92CDB7DEB791
:10382000682FCE0101960E94031C8091F2009981BD
:103830009FBF0F90DF91CF910895FF920F931F9339
:10384000CF93DF9300D0CDB7DEB7F62E8A019091EB
:10385000EA03992311F057FF03C08FEF9FEF2AC0AF
:10386000682FCE0101967A830E94031C8091F2009A
:1038700090E0A8017A81801791070CF4AC01EF2D3C
:10388000F72FF40E84E6FE1631F08093EB0390914F
:10389000F1009193F8CF4115510521F08091F2008C
:1038A000882321F089818FBFCA0104C08BE68093F1
:1038B000E800F8CF0F900F90DF91CF911F910F91FB
:1038C000FF900895CF93DF931F92CDB7DEB741E00D
:1038D00050E0BE016F5F7F4F0E941D1C019719F4DD
:1038E000898190E002C08FEF9FEF0F90DF91CF9121
:1038F0000895CF93DF931F92CDB7DEB7682FCE0127
:1039000001960E94031C9091E800892F807295FF18
:1039100004C09091F20080E4891B99819FBF0F90B1
:10392000DF91CF9108956F927F928F929F92AF9285
:10393000BF92CF92DF92EF92FF920F931F93CF939C
:10394000DF931F92CDB7DEB7782E7B01C42EB52E44
:103950008091EA03882369F0042F152F8AEFD82E6F
:10396000872D8072982E9AE3A92E872D8074882E39
:1039700011C08FEF9FEF56C0872D0E94791C682ED3
:1039800081110CC0DA94A9F361E070E080E090E06E
:103990000E94D1170115110579F73BC0282F30E09F
:1039A000021713070CF4602E672DCE0101960E94BA
:1039B000031C8091E80085FF29C0262D30E0021B02
:1039C000130B992039F06A948FEF6816B1F01092BA
:1039D000F100F9CFF701862D77FE07C0815058F02E
:1039E00094919093F1003196F9CF815020F091910C
:1039F0009093F100FACFE20EF31E8091E80085FF6C
:103A00000EC00115110511F4811009C089818FBF05
:103A1000C1CF84E68093EC038C2D9B2D03C0A09234
:103A2000E800F4CF0F90DF91CF911F910F91FF909D
:103A3000EF90DF90CF90BF90AF909F908F907F904E
:103A40006F9008951092E9001092E7031092E60338
:103A50009093E5038093E4030895CF92DF92FF9261
:103A60000F931F93CF93DF9300D0CDB7DEB7F82E1F
:103A70008A016B0101151105B1F0F601F7FE02C0D4
:103A8000849101C0808149835A830E945F1B015049
:103A90001109FFEFCF1ADF0A49815A818111EACF5C
:103AA0008FEF9FEF01C0CA010F900F90DF91CF9170
:103AB0001F910F91FF90DF90CF900895CF93DF93E8
:103AC0009B01A4E6BBEF21153105F9F0A9012134D2
:103AD000310514F040E450E0E091E800E2FFFCCF53
:103AE000FB01E21BF30BE80FF91FCE2FC40FCE171B
:103AF00029F0D091F100D0833196F9CFA093EB0358
:103B0000B093E800241B350BDECFCB01DF91CF91C2
:103B100008951F920F920FB60F921124DF92EF9229
:103B2000FF920F931F932F933F934F935F936F9346
:103B30007F938F939F93AF93BF93EF93FF93CF9315
:103B4000DF93CDB7DEB76C97DEBFCDBF1092E90033
:103B50008091E80083FF2EC1FE0175968F01AE01B2
:103B6000435E5F4F9F012F5F3F4F8091F100808345
:103B70002417350711F0F901F5CF84E68093EB03A4
:103B800082EF8093E8005D8957FF05C08091E800CF
:103B900080FFFCCF03C08EEF8093E800852F8076F6
:103BA00009F0EFC04E898F89D88C41110CC0503874
:103BB00029F48091E9038093F10002C01092F10092
:103BC0001092F100F0C0282F30E03D29413051F42F
:103BD0005111E9C02130310509F0E5C08091E903B8
:103BE0008D7F0BC0433061F45111DDC021303105B0
:103BF00009F0D9C08091E90382608093E903D3C0C2
:103C0000453041F49091E80090FFFCCF80688093AC
:103C1000E300C9C0463009F08BC0EB8CFC8C22E07D
:103C2000D2122CC080E090E00E94221D0E94ED1B69
:103C300099E08E010F5F1F4FF801292F11922A95ED
:103C4000E9F79983DA8291E09E8390EA98879AEF68
:103C500099872091E6033091E703275F3F4F3C832C
:103C60002B838D83C7010E94221D49E050E0B801DB
:103C700080E00E942D1D0E94ED1B95C0C7010E948F
:103C8000221D0E94AC22B8010E944E22009719F01A
:103C90000CF089C08CC081E0D8120EC08B8D9C8D39
:103CA000089719F481E08093E3038091E303811185
:103CB0002FC06FE671E031C0E3E0DE1278C08F897B
:103CC000882349F1823029F440E86CE08AE891E0E9
:103CD0001CC0813029F440E868E081E891E015C01B
:103CE000833009F064C00E94AC228E010F5F1F4F29
:103CF000B8010E946D22F80101900020E9F7319788
:103D0000E01BF10B40E06E2FC8010E948D1B49C0E3
:103D10006DE571E002C067E971E06115710509F4B4
:103D200046C0FB01449150E080E80E942D1D3BC03D
:103D30004730E9F1483021F481E08093F10033C04D
:103D4000493089F5537099F5E4E4F1E081E021E030
:103D500036E39081992361F08093E9002093EB0092
:103D600091919093EC003093ED008F5F873089F74D
:103D70008EE78093EA001092EA008F898093EA032D
:103D800012C08B8D9C8D0E94221D898D811104C0D3
:103D9000C8010E947F2105C00E94AC22B8010E9488
:103DA0008C22882321F08EEF8093E80003C081E20B
:103DB0008093EB006C960FB6F894DEBF0FBECDBFBC
:103DC000DF91CF91FF91EF91BF91AF919F918F9133
:103DD0007F916F915F914F913F912F911F910F9123
:103DE000FF90EF90DF900F900FBE0F901F901895EF
:103DF0008093E9008091F200882319F08AE3809390
:103E0000E80008951F920F920FB60F9211242F937E
:103E10003F934F935F936F937F938F939F93AF9352
:103E2000BF93CF93EF93FF93C091E1008091E100A6
:103E3000837F8093E1008093E100C3FF0FC0109265
:103E4000E90081E08093EB001092EC0082E3809324
:103E5000ED001092EA0388E08093F000C2FF15C0E5
:103E600083E00E94F81E8091EC03882329F0809162
:103E7000EC0381508093EC038091EB03882329F0BD
:103E80008091EB0381508093EB03C4FF10C08091BD
:103E9000E2008E7E81608093E2008091E1008F7E5F
:103EA0008093E1008091E8038E7E806111C0C0FFA5
:103EB00011C08091E2008E7E80618093E20080914B
:103EC000E1008E7E8093E1008091E8038E7E816028
:103ED0008093E803FF91EF91CF91BF91AF919F91B4
:103EE0008F917F916F915F914F913F912F910F90A3
:103EF0000FBE0F901F9018951092EA031092E903DD
:103F00001092E8030E94CA1B8091E1008E7E80938C
:103F1000E1008DE08093E200EEEFFFE78591949160
:103F20008B3F9C4D19F481E080933D040895FC0182
:103F3000808191810C94E825CF93DF93EC018881F7
:103F40009981009711F00E94E825198218821D823C
:103F50001C821B821A82DF91CF9108950F931F93C9
:103F6000CF93DF93EC018B016F5F7F4F8881998145
:103F70000E947726009731F0998388831B830A83F8
:103F800081E001C080E0DF91CF911F910F910895F2
:103F9000CF93DF93EC0188819981892B29F08A8165
:103FA0009B818617970760F4CE010E94AE1F88237D
:103FB00041F08C819D81892B19F4E881F98110826F
:103FC00081E0DF91CF910895EF92FF920F931F93BD
:103FD000CF93DF93EC017B018A01BA010E94C81FD5
:103FE000811104C0CE010E949C1F07C01D830C8359
:103FF000B701888199810E944A27CE01DF91CF9134
:104000001F910F91FF90EF900895FC011182108293
:1040100013821282158214826115710559F0FB0119
:1040200001900020E9F7AF0141505109461B570BA1
:104030000C94E41F08950F931F93CF93DF938C018B
:10404000EB01FC0180819181009799F042815381BD
:104050002C813D814217530750F0688179810E947D
:104060004A278C819D81F8019583848313C00E9427
:10407000E82588819981F801918380838A819B81D9
:10408000938382838C819D81958384831982188296
:104090001B821A821D821C82DF91CF911F910F918A
:1040A0000895CF93DF93EC018617970711F00E94D4
:1040B0001B20CE01DF91CF910895CF93DF93EC01C8
:1040C0006115710561F0FB0101900020E9F7AF0176
:1040D00041505109461B570B0E94E41F02C00E9429
:1040E0009C1FCE01DF91CF9108950F931F93CF9323
:1040F000DF93CDB7DEB762970FB6F894DEBF0FBE81
:10410000CDBF8C01CB01F801118210821382128283
:104110001582148250E0BE016F5F7F4F0E945127CD
:10412000BE016F5F7F4FC8010E945D2062960FB68F
:10413000F894DEBF0FBECDBFDF91CF911F910F91DD
:104140000895EF92FF920F931F93CF93DF93CDB714
:10415000DEB7A1970FB6F894DEBF0FBECDBF7C01CE
:10416000CB01BA01F70111821082138212821582EB
:10417000148242E0420F8E010F5F1F4F0E942F25D5
:10418000BC01C7010E945D20A1960FB6F894DEBF66
:104190000FBECDBFDF91CF911F910F91FF90EF9098
:1041A0000895BF92CF92DF92EF92FF920F931F93E9
:1041B000CF93DF936C017B01EA0189012417350756
:1041C00020F48D2FE901042F182F6BE872E0C6014F
:1041D0000E940520D70114968D919C911597C817C0
:1041E000D907C8F48017910708F48C01D701ED9125
:1041F000FC911197E00FF11FB08010826D917C91BE
:104200006C0F7D1FC6010E945D20D701ED91FC91CE
:10421000E00FF11FB082C601DF91CF911F910F9186
:10422000FF90EF90DF90CF90BF9008950895CF93C7
:10423000DF931F92CDB7DEB76983DC01ED91FC916E
:104240000280F381E02D41E050E0BE016F5F7F4FBF
:1042500009950F90DF91CF910895CF93DF93EC01F3
:104260008C859D8597FF05C082E00E94621C9D871A
:104270008C878C859D85DF91CF91089583E00C9488
:10428000F81EFC018485958597FD06C082E00E949A
:104290000B1C90E00196089582E00E940B1C90E0B8
:1042A0000895FC018485958597FD05C02FEF3FEFAC
:1042B00035872487089582E00C94621CCF93DF93A6
:1042C000EC0180915501882331F083E00E94931C1A
:1042D0001816190634F081E090E09B838A8380E011
:1042E00090E0DF91CF910895FC0120812E5F208323
:1042F00042E450E06BE971E080E80C942D1DFC0174
:1043000021818081813A59F4213209F04BC047E084
:1043100050E06EE471E080E00E942D1D5EC08132AD
:1043200009F040C0233289F4838190E0982F8827D8
:104330003281832BA0E0B0E080934A0190934B013F
:10434000A0934C01B0934D010FC0203239F467E0C7
:1043500070E08EE491E00E945E1D09C0223221F4DB
:1043600082818093550103C02D7F2032B1F5809169
:104370003D04811103C0E0E0F8E002C0EEEFFAE096
:1043800080914E0190914F01A0915001B091510147
:10439000803B9440A105B10511F58091550180FF46
:1043A00003C01DC080E00895EE3F2AE0F20731F01F
:1043B000808191819093FF0A8093FE0A87E797E7B7
:1043C000918380832BE088E190E00FB6F894A89564
:1043D000809360000FBE2093600081E0089588E123
:1043E0000FB6F89480936000109260000FBEA895FD
:1043F000EE3F8AE0F80739F08091FE0A9091FF0ABB
:1044000091838083EACF1092FF0A1092FE0AE5CFD3
:104410001092F0031092EF0388EE93E0A0E0B0E07A
:104420008093F1039093F203A093F303B093F4030A
:104430008EE992E09093EE038093ED038FEF9FEF70
:104440009093FA038093F9030895EF92FF920F93EC
:104450001F93CF93DF937B01FC01C281D38100E0E6
:1044600010E0209781F0E881F9810280F381E02D4E
:10447000B701CE01099597FD08C0080F191F0884E0
:10448000D985C02DEECFC80102C08FEF9FEFDF911D
:10449000CF911F910F91FF90EF9008950F931F936D
:1044A000CF93DF938B01FC01C281D381209771F000
:1044B000E881F9810480F581E02DB801CE010995EC
:1044C000009731F40884D985C02DF0CF80E090E0CA
:1044D000DF91CF911F910F9108950F931F93CF9369
:1044E000DF938B01FC01C281D381209771F0E881B9
:1044F000F9810680F781E02DB801CE010995080FFA
:10450000111D0884D985C02DF0CFF8011082DF91EC
:10451000CF911F910F9108950F931F93CF93DF9326
:104520008B01FC01C281D381209771F0E881F98170
:104530000190F081E02DB801CE010995811106C0EE
:104540000884D985C02DF0CF80E001C081E0DF91E3
:10455000CF911F910F9108958091420481110DC058
:1045600082E080933E0484E080933F0410924104F3
:104570001092400481E0809342048EE394E0089519
:104580005058BB27AA270ED075C166D130F06BD129
:1045900020F031F49F3F11F41EF45BC10EF4E0955E
:1045A000E7FB51C1E92F77D180F3BA176207730790
:1045B0008407950718F071F49EF58FC10EF4E0950D
:1045C0000B2EBA2FA02D0B01B90190010C01CA01CD
:1045D000A0011124FF27591B99F0593F50F4503E78
:1045E00068F11A16F040A22F232F342F4427585F6A
:1045F000F3CF469537952795A795F0405395C9F782
:104600007EF41F16BA0B620B730B840BBAF0915039
:10461000A1F0FF0FBB1F661F771F881FC2F70EC0D8
:10462000BA0F621F731F841F48F4879577956795AB
:10463000B795F7959E3F08F0B3CF9395880F08F094
:104640009927EE0F979587950895D9D008F481E0C2
:1046500008950CD00FC107D140F0FED030F021F406
:104660005F3F19F0F0C0511139C1F3C014D198F374
:104670009923C9F35523B1F3951B550BBB27AA27E3
:1046800062177307840738F09F5F5F4F220F331F55
:10469000441FAA1FA9F333D00E2E3AF0E0E830D021
:1046A00091505040E695001CCAF729D0FE2F27D024
:1046B000660F771F881FBB1F261737074807AB07F2
:1046C000B0E809F0BB0B802DBF01FF2793585F4F67
:1046D0002AF09E3F510568F0B6C000C15F3FECF381
:1046E000983EDCF3869577956795B795F7959F5F2C
:1046F000C9F7880F911D9695879597F90895E1E080
:10470000660F771F881FBB1F621773078407BA07DE
:1047100020F0621B730B840BBA0BEE1F88F7E09539
:10472000089504D06894B111D9C00895BCD088F020
:104730009F5790F0B92F9927B751A0F0D1F0660F8D
:10474000771F881F991F1AF0BA95C9F712C0B130A8
:1047500081F0C3D0B1E00895C0C0672F782F8827BB
:10476000B85F39F0B93FCCF3869577956795B395E7
:10477000D9F73EF490958095709561957F4F8F4F56
:104780009F4F0895E89409C097FB3EF4909580955B
:10479000709561957F4F8F4F9F4F9923A9F0F92F07
:1047A00096E9BB279395F695879577956795B79585
:1047B000F111F8CFFAF4BB0F11F460FF1BC06F5F6B
:1047C0007F4F8F4F9F4F16C0882311F096E911C07D
:1047D000772321F09EE8872F762F05C0662371F09E
:1047E00096E8862F70E060E02AF09A95660F771FB2
:1047F000881FDAF7880F9695879597F90895990F8E
:104800000008550FAA0BE0E8FEEF16161706E8079A
:10481000F907C0F012161306E407F50798F0621BBB
:10482000730B840B950B39F40A2661F0232B242B90
:10483000252B21F408950A2609F4A140A6958FEFAF
:10484000811D811D089597F99F6780E870E060E001
:1048500008959FEF80EC089500240A941616170619
:1048600018060906089500240A9412161306140661
:1048700005060895092E0394000C11F4882352F0C4
:10488000BB0F40F4BF2B11F460FF04C06F5F7F4F7C
:104890008F4F9F4F089557FD9058440F551F59F063
:1048A0005F3F71F04795880F97FB991F61F09F3F1D
:1048B00079F087950895121613061406551FF2CF46
:1048C0004695F1DF08C0161617061806991FF1CF96
:1048D00086957105610508940895E894BB276627BD
:1048E0007727CB0197F908958ADF08F48FEF0895B1
:1048F0000BD0C0CFB1DF28F0B6DF18F0952309F058
:10490000A2CFA7CF1124EACFC6DFA0F3959FD1F3A2
:10491000950F50E0551F629FF001729FBB27F00D6D
:10492000B11D639FAA27F00DB11DAA1F649F6627C2
:10493000B00DA11D661F829F2227B00DA11D621F11
:10494000739FB00DA11D621F839FA00D611D221FCB
:10495000749F3327A00D611D231F849F600D211DAF
:10496000822F762F6A2F11249F5750408AF0E1F052
:1049700088234AF0EE0FFF1FBB1F661F771F881F9B
:1049800091505040A9F79E3F510570F05CCFA6CFE3
:104990005F3FECF3983EDCF3869577956795B79586
:1049A000F795E7959F5FC1F7FE2B880F911D9695B0
:1049B000879597F9089523DF880B990B089597FB46
:1049C000072E16F4009407D077FD09D00E941B250E
:1049D00007FC05D03EF4909581959F4F0895709502
:1049E00061957F4F0895A1E21A2EAA1BBB1BFD0102
:1049F0000DC0AA1FBB1FEE1FFF1FA217B307E407BE
:104A0000F50720F0A21BB30BE40BF50B661F771F15
:104A1000881F991F1A9469F76095709580959095F5
:104A20009B01AC01BD01CF010895EE0FFF1F059062
:104A3000F491E02D0994AA1BBB1B51E107C0AA1FEA
:104A4000BB1FA617B70710F0A61BB70B881F991F2F
:104A50005A95A9F780959095BC01CD010895EF92E4
:104A60000F931F93CF93DF93E80147FF02C034E118
:104A700001C034E0E42FFF27E7FDF095F7FF03C006
:104A8000F195E195F109E32E022F2E2FAE010E9440
:104A90009727CE01DF91CF911F910F91EF9008954D
:104AA000CF93DF938230910510F482E090E0E091A3
:104AB0004C04F0914D0420E030E0A0E0B0E03097ED
:104AC00039F14081518148175907B8F04817590703
:104AD00071F482819381109729F013969C938E93A1
:104AE00012972CC090934D0480934C0427C021153D
:104AF000310531F04217530718F0A901DB0101C05D
:104B0000EF019A01BD01DF010280F381E02DD7CFD3
:104B100021153105F9F0281B390B2430310580F4BB
:104B20008A819B816115710521F0FB01938382834A
:104B300004C090934D0480934C04FE01329644C00F
:104B4000FE01E20FF31F81939193225031093983C3
:104B500028833AC020914A0430914B04232B41F41E
:104B6000209102013091030130934B0420934A04B9
:104B700020910001309101012115310541F42DB73B
:104B80003EB74091040150910501241B350BE09183
:104B90004A04F0914B04E217F307A0F42E1B3F0BDD
:104BA0002817390778F0AC014E5F5F4F241735079F
:104BB00048F04E0F5F1F50934B0440934A0481937B
:104BC000919302C0E0E0F0E0CF01DF91CF91089532
:104BD000CF93DF93009709F487C0FC0132971382CB
:104BE0001282C0914C04D0914D04209781F4208111
:104BF0003181280F391F80914A0490914B0482170C
:104C0000930779F5F0934B04E0934A046DC0DE01FD
:104C100020E030E0AE17BF0750F412964D915C9142
:104C200013979D014115510509F1DA01F3CFB383C3
:104C3000A28340815181840F951F8A179B0771F4CD
:104C40008D919C911197840F951F0296918380837B
:104C500012968D919C911397938382832115310530
:104C600029F4F0934D04E0934C043EC0D90113960F
:104C7000FC93EE9312974D915D91A40FB51FEA1727
:104C8000FB0779F480819181840F951F0296D901E9
:104C900011969C938E938281938113969C938E930D
:104CA0001297E0E0F0E08A819B81009719F0FE0105
:104CB000EC01F9CFCE01029628813981820F931F32
:104CC00020914A0430914B042817390769F4309732
:104CD00029F410924D0410924C0402C013821282E7
:104CE000D0934B04C0934A04DF91CF910895A0E084
:104CF000B0E0EDE7F6E20C94012AEC01CB0120973D
:104D000019F40E945025B8C0FE01E60FF71F9E015E
:104D100022503109E217F30708F4ACC0D9010D9114
:104D20001C91119706171707B8F00530110508F404
:104D30009FC0A801445051094617570708F498C06E
:104D400002501109061B170B019311936D937C936D
:104D5000CF010E94E8258CC05B01A01AB10A4E0168
:104D6000800E911EA0914C04B0914D04612C712CC9
:104D700060E070E0109709F449C0A815B905C9F5BD
:104D8000ED90FC901197670142E0C40ED11CCA144B
:104D9000DB0478F147018A189B08640142E0C40EE5
:104DA000D11C1296BC9012971396AC91B5E0CB161D
:104DB000D10440F0B282A38391828082D9018D9385
:104DC0009C9309C00E5F1F4F0E0D1F1DF90111832B
:104DD0000083EB2DFA2F6115710531F0DB0113967D
:104DE000FC93EE93129744C0F0934D04E0934C046F
:104DF0003FC06D917C9111976616770608F43B01D0
:104E0000BD0112960D90BC91A02DB4CF60914A04C3
:104E100070914B0468157905E9F468167906D0F4A9
:104E200040910001509101014115510541F44DB7E8
:104E30005EB76091040170910501461B570BE417A2
:104E4000F507C0F4F0934B04E0934A04F901918311
:104E500080830EC00E9450257C01009759F0A80164
:104E6000BE010E944127CE010E94E825C70104C06F
:104E7000CE0102C080E090E0CDB7DEB7EEE00C944A
:104E80001D2AFB01DC0102C001900D9241505040EF
:104E9000D8F70895FB01DC0101900D920020E1F7A5
:104EA00008954532510520F4423010F00C945C27EF
:104EB000FB011082CB010895BB274A3031F49923BE
:104EC00022F4BDE2909581959F4F0C946827BB27F3
:104ED000FB015527AA27880F991FAA1FA41710F0B6
:104EE000A41B83955051B9F7A05DAA3308F0A95DC2
:104EF000A193009779F7B111B1931192CB010C9462
:104F0000ED29F999FECF92BD81BDF89A992780B518
:104F10000895262FF999FECF1FBA92BD81BD20BDFD
:104F20000FB6F894FA9AF99A0FBE019608956F9207
:104F30007F929F92AF92BF92CF92DF92EF92FF92B9
:104F40000F931F93CF93DF93CDB7DEB729970FB69B
:104F5000F894DEBF0FBECDBF6A01B22E102F0C3306
:104F600020F4FF24F394F00E02C04CE3F42E0F2D36
:104F700027E0AE014F5F5F4F0E9415297981272FEF
:104F80002970213031F0E1FC06C0E0FC06C060E091
:104F900005C06DE203C06BE201C060E2AE2DA071FE
:104FA00073FF36C0662311F084E001C083E08B15E7
:104FB00010F4B81A01C0B12CA1110BC0F6018B2D51
:104FC00090E2882319F091938150FBCFCB0CD11C38
:104FD000B12C662331F0F601608396012F5F3F4FBD
:104FE0006901C6010396E2FE05C02EE4F6012083A6
:104FF00031E404C02EE6F601208331E631832283BA
:10500000FC012B2D30E22223F1F131932150FBCF13
:1050100072FF40C0662311F084E001C083E08B156D
:1050200010F4B81A01C0B12CA1110BC0F6018B2DE0
:1050300090E2882319F091938150FBCFCB0CD11CC7
:10504000B12C662331F0F601608396012F5F3F4F4C
:105050006901C6010396E2FE07C029E4F601208338
:105060002EE4218326E406C029E6F60120832EE6FD
:10507000218326E62283FC012B2D30E2222319F026
:1050800031932150FBCFFC01EB0DF11D10828EEF0F
:105090009FEFB7C0B1E0611101C0B0E04B2F50E00D
:1050A0001816190624F49C012F5F3F4F02C021E01F
:1050B00030E0240F351F112329F0412F50E04F5FBE
:1050C0005F4F02C040E050E0420F531F2B2D30E0F5
:1050D0004217530714F4B41A01C0B12C2E2D2871B5
:1050E00059F4F6012B2D30E2222319F0319321508F
:1050F000FBCFCB0CD11CB12CBB2331F0F60160836C
:1051000096012F5F3F4F6901A1110BC0F6012B2DB6
:1051100030E3222319F031932150FBCFCB0CD11C6B
:10512000B12CF80E0A81372F3071A32E74FF03C003
:10513000013309F4FA941F142CF42F2D293018F0A0
:1051400028E001C021E0682F392F97FF02C060E0FE
:1051500030E0462F532F612C712C3EE2932EBC0180
:10516000621B71099B01DC01A41BB50BE1E0F0E0BF
:10517000EC0FFD1FAE0FBF1FE12EF12CF194E19457
:10518000F1084F3FFFEF5F0731F4F6019082B6015F
:105190006F5F7F4F6B01841795074CF0241735071D
:1051A00034F4BD01660D771DFB01118101C010E3D0
:1051B00041505109FFEF6F1A7F0AB6016F5F7F4FB1
:1051C0004E155F0524F0F60110836B01DACF481706
:1051D000590739F4063320F4053319F4A11001C03E
:1051E00011E3F6011083FB018B2D90E2882319F067
:1051F00091938150FBCFFB01EB0DF11D108280E0FC
:1052000090E029960FB6F894DEBF0FBECDBFDF91B8
:10521000CF911F910F91FF90EF90DF90CF90BF90B3
:10522000AF909F907F906F900895283008F027E00E
:105230003327DA01990F311D87FD916000966105D2
:10524000710539F432602E5F3D9330E32A95E1F722
:1052500008959F3F30F080387105610509F03C5F8B
:105260003C5F3D93913008F08068911DDF93CF93B0
:105270001F930F93FF92EF92192F987F9695E92F26
:1052800096959695E90FFF27E95CFD4F99273327FF
:10529000EE24FF24A701E70105900894079428F461
:1052A000360FE71EF81E491F511D660F771F881F16
:1052B000991F0694A1F70590079428F4E70EF81EAD
:1052C000491F561FC11D770F881F991F661F06941F
:1052D000A1F70590079428F4F80E491F561FC71F21
:1052E000D11D880F991F661F771F0694A1F705909F
:1052F000079420F4490F561FC71FD81F990F661F28
:10530000771F881F0694A9F784911095177041F0B4
:10531000D695C79557954795F794E7941A95C1F791
:10532000EDEDF1E0689415901591359165919591A9
:1053300005907FE27395E118F10A430B560BC90BF8
:10534000D009C0F7E10CF11E431F561FC91FD01D25
:105350007EF4703311F48A95E6CFE894015030F072
:10536000080F0AF40027021708F4202F2395022FB4
:105370007A3328F079E37D932A95E9F710C07D937D
:105380002A9589F6069497956795379517951794FA
:10539000E118F10A430B560BC90BD00998F023957D
:1053A0007E9173957A3308F070E37C932013B8F7FD
:1053B0007E9170617D9330F0839571E37D9370E30E
:1053C0002A95E1F71124EF90FF900F911F91CF9153
:1053D000DF91992787FD90950895DC01FC01672FE7
:1053E00071917723E1F7329704C07C916D937083BC
:1053F0006291AE17BF07C8F308952F923F924F9264
:105400005F926F927F928F929F92AF92BF92CF9254
:10541000DF92EF92FF920F931F93CF93DF93CDB75D
:10542000DEB7CA1BDB0B0FB6F894DEBF0FBECDBFD5
:1054300009942A88398848885F846E847D848C84A6
:105440009B84AA84B984C884DF80EE80FD800C81AF
:105450001B81AA81B981CE0FD11D0FB6F894DEBF92
:0C5460000FBECDBFED010895F894FFCF02
:10546C0000004E04800003011E1714141C000002DF
:10547C00060E0602000000080C0E0C0800000400CA
:10548C000400040004000A040A040A040A0032009E
:10549C000000900100000100441644164416441606
:1054AC0044160100C18081000000FFFFFFFF00E1F6
:1054BC0000000000000020202020202020202000C0
:1054CC0025002D4149522D00456E746572696E6739
:1054DC000043616C6962726174696F6E204D6F6418
:1054EC00650043616C6962726174696F6E20464F2E
:1054FC00323A0025204F787967656E00436C6963FA
:10550C006B20746F00636F6E6669726D004261642C
:10551C002043616C6962726174696F6E00446174DE
:10552C0061005361766564004D69784D6F6E6974E6
:10553C006F72007600762000302E3300506C65615F
:10554C00736500526563616C6962726174650053C6
:10555C003120546172676574002520005332205449
:10556C00617267657400546F6C6572616E6365007F
:10557C0030005467742E204D69783A00202F004F6C
:10558C007074696F6E73004D656E75005365742091
:10559C004D6978004F322053656E736F7200546101
:1055AC0072676574730044697361626C6500436172
:1055BC006C696272617465004578697400206D567F
:1055CC00005332204552524F520020204D69782012
:1055DC00000000000083108419000000008E11618F
:1055EC001136113E11511160110D0A006E616E00E1
:1055FC00696E66006F7666002E00000000001721B1
:0A560C005E21412151212D213E2194
:1070000055C000006EC000006CC000006AC00000E7
:1070100068C0000066C0000064C0000062C00000DC
:1070200060C000005EC00000DAC400005AC000006A
:1070300058C0000056C0000054C0000052C00000FC
:1070400050C0000076C000004CC000004AC00000E4
:1070500048C0000046C0000044C0000042C000001C
:1070600040C000003EC000003CC000003AC000002C
:1070700038C0000036C0000034C0000032C000003C
:1070800030C000002EC000002CC000002AC000004C
:1070900028C0000026C0000024C0000022C000005C
:1070A00020C000001EC000001CC0000011241FBE34
:1070B000CFEFDAE0DEBFCDBF11E0A0E0B1E0EEEF50
:1070C000FEE702C005900D92AA3CB107D9F711E086
:1070D000AAECB1E001C01D92A03EB107E1F781D357
:1070E0000CC78ECFF89410926F001092810010920E
:1070F00085001092840081E085BF15BE47980C94EE
:10710000000008952091D4013091D5012F5F3F4FA9
:107110003093D5012093D401932F37FF03C08EEF16
:10712000831B982F990F921710F447980895479A48
:1071300008951F920F920FB60F9211242F938F93E1
:107140009F93EF93FF93109285001092840080919B
:10715000CA019091CB01009729F001979093CB0140
:107160008093CA018091CC019091CD01009729F0C4
:1071700001979093CD018093CC01E0E0F0E0859100
:1071800094918F5F9F4F49F08091CE019091CF01F4
:1071900001969093CF018093CE01FF91EF919F9143
:1071A0008F912F910F900FBE0F901F90189584E034
:1071B0008093E9000DC08091E8008B778093E80010
:1071C00003C08EB3882351F08091E80082FFF9CF8D
:1071D0008091E80085FFEFCF8091F1000895982F0E
:1071E00083E08093E9008091E80085FD0DC08091E7
:1071F000E8008E778093E80003C08EB3882361F0A7
:107200008091E80080FFF9CF9093F10084E690E050
:107210009093CB018093CA0108954F925F926F9231
:107220007F928F929F92AF92BF92CF92DF92EF9216
:10723000FF920F931F93CF93DF9384E08093E90035
:107240008091E80082FF56C284E690E09093CD01E1
:107250008093CC01ACDF182F853481F48CE195E26A
:107260009093CF018093CE0107B600FCFDCFF99932
:10727000FECF81E180935700E89503C0843519F46F
:1072800096DF8DE00DC28C34E1F38035D1F3843785
:1072900021F484E4A4DF80E003C2813611F489E59F
:1072A000FFC18134B1F483DF182F81DF90E0880FB4
:1072B000991FAA2797FDA095BA2F312F330F20E0F1
:1072C000442737FD4095542F822B932BA42BB52BAD
:1072D000B8C1803711F483E5E3C1833549F4C0E0D8
:1072E000D1E089917CDF21E0C730D207D1F7D9C145
:1072F000863521F481E373DF80E3D2C1833731F433
:1073000087E86DDF85E96BDF8EE1CAC18536B9F4A8
:10731000E0E0F0E093E085E090935700E89507B651
:1073200000FCFDCF80935700E89507B600FCFDCF29
:10733000E058FF4FA0E7E030FA0771F7A2CF82379D
:1073400039F4E1E0F0E089E0809357008491A8C12E
:10735000863439F4E0E0F0E089E0809357008491CE
:107360009FC18E3439F4E3E0F0E089E08093570068
:10737000849196C1813539F4E2E0F0E089E08093B0
:10738000570084918DC1823631F489E528DF80E091
:1073900026DF80E885C1823419F0873609F0E5C020
:1073A0001092CF011092CE0102DF082F00DFF82EDD
:1073B000FEDE682E8554823008F071C1902F80E087
:1073C000CF2DD0E0C82BD92B10926F00173609F0C3
:1073D0004BC081E180935700E895DD24CC24C39411
:1073E0003FC0E090D001F090D1010091D201109106
:1073F000D301B6E46B16D9F4ED2DF0E0EE29FF29A8
:10740000E4918E2FECDEDD2081F082E090E0A0E0C0
:10741000B0E0E80EF91E0A1F1B1FE092D001F092A7
:10742000D1010093D2011093D301DC2418C0D801FC
:10743000C701B695A7959795879549D5D0DE82E087
:1074400090E0A0E0B0E0E80EF91E0A1F1B1FE092DA
:10745000D001F092D1010093D2011093D301219772
:10746000209709F0BECF7DC08090D0019090D101CF
:10747000A090D201B090D30196E4691609F05DC0E6
:1074800083E0F40180935700E89507B600FCFDCF38
:1074900054C0F6E46F1661F5772031F1E090D00129
:1074A000F090D1010091D2011091D30180DED82E4D
:1074B000CC24852D90E08C299D29F7010C01409268
:1074C0005700E895112482E090E0A0E0B0E0E80EDB
