:100000000C946F010C94F7140C941E150C94451568
:100010000C946C150C9497010C9497010C94931507
:100020000C9497010C9497010C94641D0C94EB1B99
:100030000C9497010C9497010C9497010C949701E0
:100040000C9497010C9497010C9497010C949701D0
:100050000C9497010C9497010C9497010C94BA1589
:100060000C9497010C9497010C9497010C949701B0
:100070000C9497010C9497010C9497010C949701A0
:100080000C9497010C9497010C9497010C94970190
:100090000C9479130C9497010C9497010C9497018C
:1000A0000C9497010C9497010C949701151718174D
:1000B00007170B1711173917391739171C1720177E
:1000C00024172A172E1739173417070605040100BD
:1000D000080A0B0C0D090000000200090F000003C4
:1000E0000401000C000000000000000000000000FF
:1000F0000000000000040802011040804010204071
:10010000804080080204018040201002011080100D
:1001100020404020040404040403040502020202F7
:100120000403020202020606060606060404020290
:10013000020404000000002300260029002C002FE8
:100140000000000000250028002B002E00310000D8
:10015000000000240027002A002D003000120100BA
:1001600002EF0201409A230C8000010102030112F8
:10017000010002000000409A230C800001010203EC
:1001800001416461667275697400466561746865F1
:100190007220333275340004030904080B00020294
:1001A0000201000904000001020200000524001001
:1001B00001052401010104240206052406000107AB
:1001C00005810310004009040100020A0000000735
:1001D0000502024000000705830240000000407A4B
:1001E00010F35A00A0724E18090010A5D4E80000C0
:1001F000E87648170000E40B54020000CA9A3B005E
:100200000000E1F505000080969800000040420FD4
:10021000000000A08601000000102700000000E898
:1002200003000000006400000000000A000000005D
:10023000000100000000002C76D888DC674F0823FE
:10024000DFC1DFAE59E1B1B796E5E3E453C63AE664
:1002500051997696E8E6C28426EB898C9B62ED4044
:100260007C6FFCEFBC9C9F40F2BAA56FA5F4900593
:100270005A2AF75C936B6CF9676DC11BFCE0E40DC7
:1002800047FEF520E6B500D0ED902E0300943577BB
:10029000050080841E080000204E0A000000C80CE3
:1002A000333333330F986E12831141EF8D2114894C
:1002B0003BE65516CFFEE6DB18D1844B381BF77CA6
:1002C0001D901DA4BBE424203284725E228100C9EB
:1002D000F124ECA1E53D2700F00597126A201124D6
:1002E0001FBECFEFDAE0DEBFCDBF12E0A0E0B1E08D
:1002F000E0E3F1E502C005900D92A23AB107D9F70B
:1003000024E0A2EAB2E001C01D92A332B207E1F7F5
:1003100012E0CEEDD2E004C02297FE010E947923C4
:10032000C83DD107C9F70E94D3170C9496280C94A6
:10033000000080E00E94A91721E0892B09F420E049
:100340002093BB0281E00E94A91721E0892B09F4C8
:1003500020E02093BA028091B902882321F0809195
:10036000B802811109C08091B902811112C0809137
:10037000B802811163C00DC08091BB02811104C01D
:100380008091BA02811150C08091BB02882319F17B
:100390001DC08091B902811105C08091B8028823E7
:1003A00009F459C08091B9028823A9F08091B8025C
:1003B000811111C08091BB02882321F08091BA0283
:1003C00081116EC08091BB02811105C08091BA027B
:1003D000882309F46FC08091B4029091B50204970C
:1003E00034F08091B6029091B70201960CC08091D2
:1003F000B4029091B5028D3F9F4F6CF48091B6028C
:100400009091B70201979093B7028093B602109231
:10041000B5021092B4028091BB028093B902809120
:10042000BA028093B80208958091B4029091B50207
:1004300001969093B5028093B402A6CF8091BB023F
:10044000811104C08091BA028823B1F08091BB026F
:10045000882309F20CC08091BB02882321F080918F
:10046000BA02882399F08091BB028111B4CF8091A8
:10047000BA0281111FC0AFCF8091B4029091B50232
:1004800001969093B5028093B402E0CF8091B402BC
:100490009091B50201969093B5028093B402E3CF98
:1004A0008091B4029091B50201969093B502809329
:1004B000B40288CF8091B4029091B50201979093D5
:1004C000B5028093B40287CF80E00E94A91721E093
:1004D000892B09F420E02093BB0281E00E94A91738
:1004E00021E0892B09F420E02093BA028091B9021F
:1004F000882321F08091B802811109C08091B9024E
:10050000811112C08091B802811163C00DC0809129
:10051000BB02811104C08091BA02811150C0809148
:10052000BB02882319F11DC08091B902811105C059
:100530008091B802882309F459C08091B9028823B8
:10054000A9F08091B802811111C08091BB0288236B
:1005500021F08091BA0281116EC08091BB0281119D
:1005600005C08091BA02882309F46FC08091B4025B
:100570009091B502049734F08091B6029091B70241
:1005800001960CC08091B4029091B5028D3F9F4FAF
:100590006CF48091B6029091B70201979093B702E4
:1005A0008093B6021092B5021092B4028091BB0201
:1005B0008093B9028091BA028093B8020895809125
:1005C000B4029091B50201969093B5028093B40263
:1005D000A6CF8091BB02811104C08091BA0288230A
:1005E000B1F08091BB02882309F20CC08091BB025C
:1005F000882321F08091BA02882399F08091BB0270
:100600008111B4CF8091BA0281111FC0AFCF809108
:10061000B4029091B50201969093B5028093B40212
:10062000E0CF8091B4029091B50201969093B5020B
:100630008093B402E3CF8091B4029091B502019609
:100640009093B5028093B40288CF8091B4029091C8
:10065000B50201979093B5028093B40287CF0097BB
:1006600029F481ED92E00E947C1106C00197C1F44B
:1006700081ED92E00E94A111BC01882777FD809551
:10068000982F0E94262220E030E040E853E40E94A8
:10069000DA2220E03EEF4FEF56E40E948B210895CE
:1006A00060E070E0CB010895CF92DF92EF92FF926D
:1006B0000F931F93CF93DF9300D000D01F92CDB73D
:1006C000DEB749835A836B837C838C01000F111F33
:1006D000000F111FCE0101967C016E0195E0C90E3D
:1006E000D11CF70161917F01C8016D830E94E32550
:1006F0006D81681719F0C8010E94EB250F5F1F4F2D
:10070000EC14FD0471F70F900F900F900F900F9065
:10071000DF91CF911F910F91FF90EF90DF90CF90DD
:100720000895CF93FC01808191810E942F03C1E045
:100730002AE037ED43E25CE30E94D62218160CF063
:10074000C0E08C2FCF910895CF92DF92EF92FF926D
:100750000F931F93CF93DF93EC01E880F9808C8196
:10076000811135C0EE0CFF1CEE0CFF1C6E0185E004
:10077000C80ED11C87010C5F1F4FC7010E94E325E3
:10078000F60181936F01FFEFEF1AFF0AE016F10601
:10079000A1F781E08C83CD80DE80EF80F88422E5B4
:1007A00038EB4EEC5FE3C701B6010E94872187FD5D
:1007B0000AC020E030E048E250E4C701B6010E94E0
:1007C000D622181624F41D821E821F8218866D817F
:1007D0007E818F819885DF91CF911F910F91FF903E
:1007E000EF90DF90CF900895CF930E94A403C1E0D3
:1007F00020E030E0A9010E94D62218160CF0C0E0DB
:100800008C2FCF910895CF93DF93EC010E94F403D6
:10081000882339F0CE010E949103882311F081E0F2
:1008200001C080E0DF91CF910895CF92DF92EF92E7
:10083000FF92CF93DF93EC010E94F403882301F130
:10084000CE010E9491038823D9F0888199810E946A
:100850002F0320E030E0A9010E94D622181684F46C
:10086000888199810E942F036B017C01CE010E9437
:10087000A4039B01AC01C701B6010E94DA2203C0A8
:1008800060E070E0CB01DF91CF91FF90EF90DF90BF
:10089000CF9008958F929F92AF92BF92CF92DF92A6
:1008A000EF92FF92CF93DF93EC010E94F403882331
:1008B00009F46CC0CE010E949103882309F466C03C
:1008C000CE010E9415046B017C016A817B8188271F
:1008D00077FD8095982F0E94262220E030E040E2AC
:1008E00051E40E948B214B015C0160911E017091CB
:1008F0001F01882777FD8095982F0E94262220E0EF
:1009000030E040E251E40E948B219B01AC01C50123
:10091000B4010E9423219B01AC01C701B6010E94D2
:10092000D6221816ACF1CE010E9415046B017C0191
:100930006A817B81882777FD8095982F0E942622E7
:1009400020E030E040E251E40E948B214B015C0149
:1009500060911E0170911F01882777FD8095982F67
:100960000E94262220E030E040E251E40E948B21E8
:100970009B01AC01C501B4010E9422219B01AC0185
:10098000C701B6010E94872187FD02C081E001C036
:1009900080E0DF91CF91FF90EF90DF90CF90BF90FC
:1009A000AF909F908F9008950F931F930E94A91767
:1009B0009093D0028093CF02209128013091290199
:1009C00082179307A1F0892B91F40E94041660937B
:1009D000C3027093C4028093C5029093C6028091B3
:1009E000CF029091D00290932901809328010E9418
:1009F00004160091C3021091C4022091C5023091E7
:100A0000C602601B710B820B930B009120011091A9
:100A10002101209122013091230106171707280791
:100A2000390758F48091CF029091D002209128018B
:100A3000309129018217930711F480E00FC0909341
:100A40002901809328010E9404166093C3027093C9
:100A5000C4028093C5029093C60281E01F910F915A
:100A600008958BE10E94CC16BC01882777FD809504
:100A7000982F0E9426229B01AC010E94232123E390
:100A800033E343E550E40E94DA2220E030E040E81E
:100A90005AE30E94DA2208950F931F93CF93DF93B6
:100AA000CDB7DEB72C970FB6F894DEBF0FBECDBF23
:100AB000142F022F21E0AB01BC01CE0107960E944A
:100AC000031F8B859C850597B0F023E030E040E064
:100AD00050E0BE01695F7F4FCE0101960E94331F37
:100AE000BE016F5F7F4FCE0107960E94B31ECE01FD
:100AF00001960E94F91D402F612F86ED92E00E9421
:100B000001108B859C85049731F060E571E086EDDE
:100B100092E00E943218BE01695F7F4F86ED92E03D
:100B20000E942418CE0107960E94F91D2C960FB63C
:100B3000F894DEBF0FBECDBFDF91CF911F910F9113
:100B400008950F931F93CF93DF9300D000D000D070
:100B5000CDB7DEB7162F042F4AE0BC01CE010196B7
:100B60000E94D71E402F612F86ED92E00E94011057
:100B70008D819E81029731F066E671E086ED92E00C
:100B80000E943218BE016F5F7F4F86ED92E00E9497
:100B90002418CE0101960E94F91D26960FB6F894EE
:100BA000DEBF0FBECDBFDF91CF911F910F91089592
:100BB00040E067E086ED92E00E94011068E471E099
:100BC00086ED92E00E94321841E067E086ED92E007
:100BD0000E94011068E471E086ED92E00C943218F6
:100BE000CF92EF920F9325E0C22E36E0E32E0AE07B
:100BF0002BE04CE06DE086ED92E00E94B91068E4D5
:100C000081ED92E00E9419110E9404166093CB02BC
:100C10007093CC028093CD029093CE020E94041672
:100C20006093C7027093C8028093C9029093CA026E
:100C300081ED90E09093AE028093AD021092AF02EE
:100C40001092B0021092B1021092B2021092B3024E
:100C50001092AC021092AB029093A5028093A40272
:100C60001092A6021092A7021092A8021092A90256
:100C70001092AA0281E090E09093A3028093A202D6
:100C80000F91EF90CF9008950F931F930E94041639
:100C90000091CB021091CC022091CD023091CE0276
:100CA000601B710B820B930B0091240110912501A5
:100CB00020912601309127010617170728073907C9
:100CC00008F07AC08BEA92E00E9415042DEC3CEC0F
:100CD0004CEC5DE30E94D62218166CF48BEA92E08D
:100CE0000E94150420E030E040E050E00E944C05F6
:100CF00062E571E015C08091C1029091C20240E0AE
:100D000060E0019739F486ED92E00E94011064E5FD
:100D100071E006C086ED92E00E9401106CE471E083
:100D200086ED92E00E94321882EA92E00E94150459
:100D30002DEC3CEC4CEC5DE30E94D62218166CF4D2
:100D400082EA92E00E94150421E030E040E050E0A9
:100D50000E944C0562E571E008C041E060E086ED6C
:100D600092E00E9401106CE471E086ED92E00E9436
:100D7000321840E066E086ED92E00E94011060E0EB
:100D800086ED92E00E94131141E066E086ED92E06C
:100D90000E94011060E086ED92E00E9413110E9413
:100DA00004166093CB027093CC028093CD02909393
:100DB000CE0281E08093C0021F910F910895AF92FF
:100DC000BF92CF92DF92EF92FF920F931F93CF9338
:100DD000DF9340E067E086ED92E00E9401106AE553
:100DE00071E086ED92E00E94321885E190E09093E8
:100DF000B7028093B602C3E6D0E01AE085E190E046
:100E00000E94D404811136C00E9444068091B6022B
:100E10009091B702843691052CF0D093B702C0931D
:100E2000B6020AC08091B6029091B70297FF04C043
:100E30001092B7021092B6022091B6023091B7021A
:100E4000129FC001139F900D11249093A5028093CF
:100E5000A4028091B6029091B70241E050E067E0B1
:100E600070E00E94A10564E671E086ED92E00E94C8
:100E70003218C4CF1092B7021092B602CAE0D0E086
:100E800006EF1FEF85E190E00E94D40481116BC052
:100E90000E944406E091B602F091B7022091A402AC
:100EA0003091A502C901BE010E944123E60FF71F40
:100EB000E436F1055CF0C901B8010E9441236C5988
:100EC0007F4F7093B7026093B6020AC08091B6025A
:100ED0009091B70297FF04C01092B7021092B60229
:100EE000A090B602B090B702B901882777FD80952F
:100EF000982F0E94262220E030E040E251E40E9438
:100F00008B216B017C01B501882777FD8095982F97
:100F10000E9426229B01AC0160E070E088EC92E424
:100F20000E9422219B01AC01C701B6010E948B21C6
:100F300020E030E04AE754E40E94DA220E94F321E4
:100F40007093AE026093AD028091B6029091B702A9
:100F50009093BF028093BE0241E050E06AE070E0EF
:100F60000E94A1058FCF0E94D80540E067E086ED82
:100F700092E00E94011068E671E086ED92E00E9426
:100F8000321880911E0190911F019093B7028093B7
:100F9000B602C8EED3E085E190E00E94D40481114E
:100FA00039C00E9444068091B6029091B702893EF2
:100FB00093402CF0D093B702C093B6020AC0809140
:100FC000B6029091B70297FF04C01092B702109238
:100FD000B6026091B6027091B70270931F016093E0
:100FE0001E01882777FD8095982F0E94262220E0F9
:100FF00030E040E251E40E948B2121E030E047E004
:1010000050E00E944C0562E771E086ED92E00E949C
:101010003218C1CF0E94D80581E090E09093C202BF
:101020008093C102DF91CF911F910F91FF90EF90BC
:10103000DF90CF90BF90AF900895CF93DF938BEA6E
:1010400092E00E940304882309F457C040E067E05F
:1010500086ED92E00E94011068E771E086ED92E073
:101060000E9432188091AD029091AE029093B70227
:101070008093B602C8EED3E085E190E00E94D404EC
:10108000811139C00E9444068091B6029091B70246
:10109000893E93402CF0D093B702C093B6020AC0A9
:1010A0008091B6029091B70297FF04C01092B702E8
:1010B0001092B6026091B6027091B7027093AE02C0
:1010C0006093AD02882777FD8095982F0E94262295
:1010D00020E030E040E251E40E948B2121E030E04A
:1010E00047E050E00E944C0562E871E086ED92E036
:1010F0000E943218C1CF0E94D80582EA92E00E9475
:101100000304882309F457C040E067E086ED92E0CD
:101110000E94011067E871E086ED92E00E943218AB
:101120008091A4029091A5029093B7028093B60299
:10113000C8EED3E085E190E00E94D404811139C06B
:101140000E9444068091B6029091B702893E934076
:101150002CF0D093B702C093B6020AC08091B602B9
:101160009091B70297FF04C01092B7021092B60296
:101170006091B6027091B7027093A5026093A402C9
:10118000882777FD8095982F0E94262220E030E066
:1011900040E251E40E948B2121E030E047E050E042
:1011A0000E944C0562E871E086ED92E00E943218E0
:1011B000C1CF0E94D80540E067E086ED92E00E9432
:1011C000011068E671E086ED92E00E94321880918D
:1011D0001E0190911F019093B7028093B602C8EE52
:1011E000D3E085E190E00E94D404811139C00E94CF
:1011F00044068091B6029091B702893E93402CF04C
:10120000D093B702C093B6020AC08091B602909103
:10121000B70297FF04C01092B7021092B602609115
:10122000B6027091B70270931F0160931E01882768
:1012300077FD8095982F0E94262220E030E040E242
:1012400051E40E948B2121E030E047E050E00E9411
:101250004C0562E771E086ED92E00E943218C1CF42
:1012600082E090E09093C2028093C1020E94D80570
:10127000DF91CF910895CF92DF92EF92FF9280910C
:10128000C002882309F40AC28091C1029091C2026F
:10129000892B09F054C08BEA92E00E94030440E0DD
:1012A00067E0811107C086ED92E00E94011068E4BA
:1012B00071E017C086ED92E00E94011062E086EDB9
:1012C00092E00E9413118091AB029091AC020E94B7
:1012D0002F0320E030E048E050E00E944C0561E937
:1012E00071E086ED92E00E94321882EA92E00E945C
:1012F000030441E067E0811107C086ED92E00E949F
:10130000011068E471E017C086ED92E00E940110C0
:1013100062E086ED92E00E9413118091A20290910A
:10132000A3020E942F0321E030E048E050E00E9439
:101330004C0561E971E086ED92E00E9432188091DF
:10134000C1029091C202019709F022C182EA92E0A3
:101350000E940304811122C040E068E086ED92E023
:101360000E94011065E971E086ED92E00E9432185A
:1013700041E067E086ED92E00E94011068E471E0D0
:1013800086ED92E00E94321861E087E10E947317B7
:1013900061E086E10E9473170E94440682EA92E0AF
:1013A0000E940304882309F4F3C040E067E086ED5F
:1013B00092E00E9401108BEA92E00E9403048823CD
:1013C000A9F062E086ED92E00E9413118091AD02D7
:1013D0009091AE026AE070E00E944123CB0140E0B0
:1013E00050E068E070E00E94A10506C06EE471E084
:1013F00086ED92E00E94321840E06AE086ED92E0CD
:101400000E9401106EE971E086ED92E00E943218B0
:1014100041E067E086ED92E00E94011082EA92E0EE
:101420000E9403048823A9F062E086ED92E00E9406
:1014300013118091A4029091A5026AE070E00E94CD
:101440004123CB0141E050E068E070E00E94A1053B
:1014500006C06EE471E086ED92E00E94321882EAE6
:1014600092E00E94150420E030E040E05FE30E943B
:1014700023210E94F321DC01CB0141E050E06BE02D
:1014800070E00E94A10565EA71E086ED92E00E949D
:1014900032188BEA92E00E9403048823D9F08BEA89
:1014A00092E00E9415046B017C0182EA92E00E94A6
:1014B00015049B01AC01C701B6010E9422216B01FA
:1014C0007C018BEA92E00E9415049B01AC01C701EC
:1014D000B60110C082EA92E00E9415049B01AC01A3
:1014E00063E373E387EA91E40E94222123E333E379
:1014F00047EA51E40E948B2120E030E048EC52E4BE
:101500000E94DA2220E030E040E05FE30E942321E5
:101510000E94F3217093BD026093BC028091BC02D3
:101520009091BD0297FF04C01092BD021092BC02C0
:1015300041E050E06EE070E08091BC029091BD020D
:101540000E94A10582EA92E00E944A048823C1F029
:101550008091BC029091BD024091BE025091BF02A9
:1015600020911E0130911F01BA01620F731F68178D
:10157000790734F0421B530B841795070CF082C097
:1015800061E087E10E94731761E086E10E947317B2
:101590008091C1029091C202029709F070C040E0B0
:1015A00067E086ED92E00E9401108BEA92E00E94D3
:1015B00003048823E1F062E086ED92E00E941311BB
:1015C0006091AD027091AE02882777FD8095982FCB
:1015D0000E94262220E030E040E251E40E948B216C
:1015E00020E030E048E050E00E944C0506C068E48E
:1015F00071E086ED92E00E94321841E067E086EDEE
:1016000092E00E94011082EA92E00E940304882383
:10161000E1F062E086ED92E00E9413116091A40275
:101620007091A502882777FD8095982F0E94262229
:1016300020E030E040E251E40E948B2121E030E0E4
:1016400048E050E00E944C0506C068E471E086ED79
:1016500092E00E9432188BEA92E00E944A048823AA
:1016600031F082EA92E00E944A04811111C061E0E7
:1016700087E10E94731761E086E10E947317109260
:10168000C0020CC060E087E10E94731760E07DCF6C
:1016900060E087E10E94731760E0EECFFF90EF906B
:1016A000DF90CF900895CF92DF92EF92FF92CF9389
:1016B000DF9386ED92E00E94FA0F40E064E086ED51
:1016C00092E00E94011067EA71E086ED92E00E94CC
:1016D000321841E060E086ED92E00E94011060EB7C
:1016E00071E086ED92E00E94321866ED76E080E0CF
:1016F00090E00E94331686ED92E00E94FA0F85E199
:101700000E94A917892BD9F36AEF70E080E090E07E
:101710000E94331661EC71E086ED92E00E9432186F
:1017200081ED90E09093B7028093B602C8EED3E0CB
:1017300085E190E00E94D404811135C08091B60209
:101740009091B702893E93402CF0D093B702C0939A
:10175000B6020AC08091B6029091B70297FF04C00A
:101760001092B7021092B6026091B6027091B70261
:10177000882777FD8095982F0E94262220E030E070
:1017800040E251E40E948B216B017C0121E030E0BA
:1017900040E050E00E944C0562ED71E086ED92E081
:1017A0000E943218C5CF86ED92E00E94FA0F40E009
:1017B00067E086ED92E00E94011060E086ED92E025
:1017C0000E9413116BED71E086ED92E00E943218D9
:1017D00041E067E086ED92E00E94011060E086ED56
:1017E00092E00E94131164EE71E086ED92E00E9497
:1017F00032188091AB029091AC020E942F0320E03E
:1018000030E0A9010E94872118166CF040E060E0EA
:1018100086ED92E00E9401106DE471E086ED92E0A9
:101820000E9432180CC08091AB029091AC020E94D1
:101830002F0320E030E040E050E00E944C0562E9D8
:1018400071E086ED92E00E9432188091A2029091A0
:10185000A3020E942F0320E030E0A9010E9487210B
:1018600018166CF041E060E086ED92E00E940110F5
:101870006DE471E086ED92E00E9432180CC0809118
:10188000A2029091A3020E942F0321E030E040E0E9
:1018900050E00E944C0562E971E086ED92E00E9402
:1018A000321885E190E00E94D404882309F4A1CF86
:1018B0008BEA92E00E949103882309F47CC0809116
:1018C000AB029091AC020E942F039B01AC01C701B7
:1018D000B6010E948B2122E538EB4EEC5FE30E94BB
:1018E000D62218160CF067C08091AB029091AC0222
:1018F0000E942F039B01AC01C701B6010E948B21FE
:1019000020E030E048E250E40E94872187FF53C086
:101910008091AB029091AC020E942F039B01AC011D
:10192000C701B6010E948B21AB01BC018091AB02C3
:101930009091AC020E94540382EA92E00E949103CB
:10194000882309F461C08091A2029091A3020E94B1
:101950002F039B01AC01C701B6010E948B2122E538
:1019600038EB4EEC5FE30E94D62218160CF04CC008
:101970008091A2029091A3020E942F039B01AC01CF
:10198000C701B6010E948B2120E030E048E250E41C
:101990000E94872187FF38C08091A2029091A30204
:1019A0000E942F039B01AC01C701B6010E948B214D
:1019B000AB01BC0132C08BEA92E00E94910381111D
:1019C00004C040E050E0BA01B1CF86ED92E00E9441
:1019D000FA0F6CEE71E086ED92E00E94321841E061
:1019E00060E086ED92E00E9401106CEF71E086ED00
:1019F00092E00E94321868EB7BE080E090E00E9469
:101A000033160E94530B98CF82EA92E00E94910312
:101A100081112FC040E050E0BA018091A202909164
:101A2000A3020E94540386ED92E00E94FA0F60EF39
:101A300071E086ED92E00E94321841E060E086EDB0
:101A400092E00E94011061E072E086ED92E00E9457
:101A500032186CED75E080E090E00E94331686ED60
:101A600092E0DF91CF91FF90EF90DF90CF900C94B8
:101A7000FA0F86ED92E00E94FA0F6CEE71E086EDAF
:101A800092E00E94321841E060E086ED92E00E9410
:101A900001106CEF71E086ED92E00E94321868EB65
:101AA0007BE080E090E00E9433160E94530BBBCF96
:101AB00062E085E10E943A1762E080E00E943A17F6
:101AC00062E081E00E943A1761E087E10E943A17E4
:101AD00061E086E10E943A1741E050E069E971E077
:101AE00082E00E94A71441E050E064E672E083E0E7
:101AF0000E94A71420E042E060E186ED92E00E949F
:101B00001B1046E151E060E086ED92E00E94D910A2
:101B10004EE051E061E086ED92E00E94D91046E08F
:101B200051E062E086ED92E00E94D91081ED92E0F2
:101B30000E94211160E07AE081ED92E00E9425117F
:101B400040E063E086ED92E00E94011067E072E001
:101B500086ED92E00E94321841E060E086ED92E06E
:101B60000E9401100E943105AB01BC0122E030E06F
:101B700086ED92E00E94BF1962E172E086ED92E08C
:101B80000E94321841E06BE086ED92E00E94011065
:101B900064E172E086ED92E00E94321860ED77E039
:101BA00080E090E00E94331686ED92E00E94FA0FEA
:101BB00085E10E94A917892BD1F18BEA92E00E945E
:101BC0009103811107C082EA92E00E949103882369
:101BD00071F007C08BEA92E00E94F4038111F3CF09
:101BE0000AC082EA92E00E94F403882321F086ED85
:101BF00092E00C94FA0F86ED92E00E94FA0F6AE1EF
:101C000072E086ED92E00E94321841E060E086EDDD
:101C100092E00E94011061E272E086ED92E00E9483
:101C2000321860ED77E080E090E00E9433160E9469
:101C3000530BDDCF0F931F93CF93DF930E940416B6
:101C40006093C7027093C8028093C9029093CA023E
:101C50001092B7021092B602C091B602D091B702AC
:101C60000E94D80540E068E086ED92E00E940110F5
:101C70006DE272E086ED92E00E94321841E06AE087
:101C800086ED92E00E94011065E372E086ED92E03D
:101C90000E9432180E9404160091C7021091C802D7
:101CA0002091C9023091CA02601B710B820B930B09
:101CB000663D76408105910538F48091B602909199
:101CC000B702892B09F4F2C00E94D8051092B7021E
:101CD0001092B60204E010E00E9444068091B60221
:101CE0009091B702059724F01092B7021092B602B5
:101CF0008091B6029091B70297FF04C01093B7028B
:101D00000093B6028091B6029091B7028C179D079E
:101D100031F00E94D805C091B602D091B7028091EF
:101D2000B6029091B7028230910509F45CC02CF4A0
:101D3000009759F0019781F1CFCF8330910509F4D5
:101D400083C0049709F499C0C7CF40E067E086EDEF
:101D500092E00E9401106AE372E086ED92E00E9438
:101D6000321841E067E086ED92E00E9401106BE7D7
:101D700071E086ED92E00E94321885E190E00E94C9
:101D8000D404882309F4A8CF0E94D805DF91CF910D
:101D90001F910F910C94DF0640E067E086ED92E022
:101DA0000E94011062E472E086ED92E00E94321817
:101DB00041E067E086ED92E00E9401106CE472E081
:101DC00086ED92E00E94321885E190E00E94D404F2
:101DD000882309F481CF0E94D805DF91CF911F910C
:101DE0000F910C941D0840E067E086ED92E00E94A0
:101DF000011064E572E086ED92E00E94321841E045
:101E000067E086ED92E00E9401106CE472E086EDDE
:101E100092E00E94321885E190E00E94D404882369
:101E200009F45ACF0E94D8051092C2021092C10242
:101E300060E087E10E94731760E086E1DF91CF9157
:101E40001F910F910C94731740E067E086ED92E0CC
:101E50000E9401106CE572E086ED92E00E9432185B
:101E600085E190E00E94D404882309F435CFDF9106
:101E7000CF911F910F910C94530B40E067E086EDDA
:101E800092E00E94011066E672E086ED92E00E9408
:101E9000321885E190E00E94D404882309F41CCF15
:101EA000DF91CF911F910F910C94D8050E944406A9
:101EB000F1CE0E9444060E943B0985E190E00E9419
:101EC000D40481110C941A0E0895CF93DF93EC0182
:101ED00060E08E810E94731781E090E00E946D1691
:101EE00061E08E810E94731781E090E00E946D1680
:101EF00060E08E810E94731784E690E0DF91CF91BD
:101F00000C946D16EF92FF920F931F93CF93DF9374
:101F10008C01C0E0D0E0E62EF12CB7010C2E02C0FF
:101F2000759567950A94E2F76170F801EC0FFD1F53
:101F300087810E9473172196C430D10571F7C801BB
:101F4000DF91CF911F910F91FF90EF900C94650F4F
:101F5000EF92FF920F931F93CF93DF938C01C0E01A
:101F6000D0E0E62EF12CB7010C2E02C075956795D6
:101F70000A94E2F76170F801EC0FFD1F87810E945F
:101F800073172196C830D10571F7C801DF91CF9141
:101F90001F910F91FF90EF900C94650F1F93CF93BB
:101FA000DF93EC01162F642F8C810E9473178D81B3
:101FB0008F3F19F060E00E9473178F85612F84FFB7
:101FC00006C0CE01DF91CF911F910C94A80F70E055
:101FD00084E0759567958A95E1F7CE010E94820F9E
:101FE000612FCE01DF91CF911F910C94820F40E0C1
:101FF0000C94CE0F61E00E94F70F80ED97E00C94F7
:102000006D16443008F043E0FC012389421710F0BC
:102010004FEF420FFC01E40FF11D2489260F2068C9
:10202000622F0C94F70FFC016089262F2460208B0F
:102030006C600C94F70F0F931F93CF93DF93EC0119
:10204000423018F08F8588608F874B8B1C8A80E424
:102050008D8B6E8B70E0605C7F4F6F8B222329F03D
:10206000413019F48F8584608F8761E08C810E94F4
:102070003A178D818F3F19F061E00E943A1761E0B5
:102080008E810E943A1700E010E08F8584FF03C024
:1020900088E090E002C084E090E00817190754F44B
:1020A000FE01E00FF11F61E087810E943A170F5F88
:1020B0001F4FEBCF80E593EC0E946D1660E08C81A2
:1020C0000E94731760E08E810E9473178D818F3F8D
:1020D00019F060E00E9473176F8564FD1DC063E016
:1020E000CE010E94820F84E991E10E946D1663E0A7
:1020F000CE010E94820F84E991E10E946D1663E097
:10210000CE010E94820F86E990E00E946D1662E087
:10211000CE010E94820F16C06062CE010E94F70FAE
:1021200084E991E10E946D166F856062CE010E9484
:10213000F70F86E990E00E946D166F856062CE0110
:102140000E94F70F6F856062CE010E94F70F84E056
:10215000888BCE010E941310CE010E94FA0F82E0FC
:10216000898B66E0CE01DF91CF911F910F910C9486
:10217000F70FCF92EF920F93FC01138212828FE63A
:1021800092E09183808364838FEF858346832783E6
:102190000087E186C2861386148615861686178602
:1021A00020E041E060E1CF010F91EF90CF900C94DF
:1021B0001B10CF92DF92EF92FF920F931F93CF935A
:1021C000DF9300D0CDB7DEB78C01677088E0689FE1
:1021D000B00111246064C80149835A830E94F70F3B
:1021E0004981C42E5A81D52EE12CF12CD6016D9156
:1021F0006D01D801ED91FC910190F081E02DC801B5
:102200000995BFEFEB1AFB0AE8E0EE16F10471F74F
:102210000F900F90DF91CF911F910F91FF90EF9052
:10222000DF90CF90089541E00E94CE0F81E090E0D2
:102230000895FC0114821382608388E081831282F6
:1022400008958EEE92E00C945D12FC01748363831A
:1022500008951F93CF93DF9300D0CDB7DEB7162F2D
:10226000682F8EEE92E04A8359830E947712612F85
:102270008EEE92E00E941E125981652F8EEE92E042
:102280000E941E124A81642F8EEE92E00E941E125E
:102290008EEE92E00F900F90DF91CF911F910C94F2
:1022A00094121F93CF93DF93182F682F8EEE92E036
:1022B0000E94771260E08EEE92E00E941E128EEE77
:1022C00092E00E94941242E0612F8EEE92E00E9412
:1022D00074128EEE92E00E94CE11182F8EEE92E0D4
:1022E0000E94CE11D12F20E0C22F9E01282BC901C0
:1022F000DF91CF911F910895CF93DF93EC014B8134
:102300005C814368516861E088810E94291169817C
:1023100070E080E090E00E94331688810E945111A5
:102320002A81022E02C0969587950A94E2F722230D
:1023300029F0811528E0920708F0906FDF91CF9186
:102340000895CF93DF93EC014B815C814368516B1F
:1023500061E088810E942911698170E080E090E04D
:102360000E94331688810E9451112A81022E02C0D8
:10237000969587950A94E2F7222329F0811528E0A3
:10238000920708F0906FDF91CF91089580911E031E
:1023900090E020911F03821B9109089520911F0353
:1023A00080911E03281750F4E22FF0E0E05EFC4F0E
:1023B000808190E02F5F20931F0308958FEF9FEFA0
:1023C0000895E0911F0380911E03E81730F4F0E0B8
:1023D000E05EFC4F808190E008958FEF9FEF0895BD
:1023E0000895CF92DF92EF92FF920F931F93CF93B6
:1023F000DF937C01CB018A012091FA02222389F02C
:10240000EB016B01C40ED51ECC15DD0569F0699199
:10241000D701ED91FC910190F081E02DC701099564
:10242000F3CF642F0E945013C801DF91CF911F9109
:102430000F91FF90EF90DF90CF900895CF93DF93AF
:102440001F92CDB7DEB769832091FA022223D1F023
:102450002091FB02203240F021E030E0FC01338388
:10246000228380E090E015C08091FC02E82FF0E02C
:10247000E350FD4F998190838F5F8093FC0280939E
:10248000FB0205C061E0CE0101960E94501381E07D
:1024900090E00F90DF91CF910895FC01138212829A
:1024A00048EE53E060E070E04483558366837783B1
:1024B00087E792E091838083089510921F03109222
:1024C0001E031092FC021092FB020C949B12862FAA
:1024D000413208F040E260E273E00E94B9121092CB
:1024E0001F0380931E03089521E00C94671281E07E
:1024F0008093FA0260931D031092FC021092FB027B
:1025000008950F93062F21E04091FB026DEF72E0DA
:1025100080911D030E94FD121092FC021092FB029A
:102520001092FA020F91089561E00C9481128EEEE0
:1025300092E00C944D121092AD0381E08093AB03B6
:102540001092AA0361E082E00E94731761E083E0C9
:102550000E947317E9EBF0E080818E7F8083808199
:102560008D7F808380E28093B80085E48093BC00F7
:102570000895413208F03FC09091AD039111FCCF16
:1025800091E09093AD032093AB032FEF2093400392
:1025900010928503240F209384039093AC039091B1
:1025A000AC03880F892B8093AC038091AA03813000
:1025B00041F41092AA038091AC038093BB0085EC98
:1025C00001C085EE8093BC008091AD038130E1F3C2
:1025D00080918503841710F44091850326E833E049
:1025E000FB01D9018A2F821B841718F48D918193E6
:1025F000F9CF842F089580E008950F93413208F0B9
:1026000046C09091AD039111FCCF92E09093AD0341
:102610000093AB039FEF9093400310928503409388
:102620008403FB0166E873E0DB019A2F961B941785
:1026300018F491919D93F9CF1092AC039091AC0353
:10264000880F892B8093AC038091AA03813041F4D9
:102650001092AA038091AC038093BB0085EC01C06B
:1026600085EE8093BC00222321F08091AD0382305F
:10267000E1F3809140038F3F61F08091400380320D
:1026800051F080914003803341F483E007C081E042
:1026900005C080E003C082E001C084E00F9108958E
:1026A000613298F42091AD03243089F46093620381
:1026B000FC0184E693E0DC012A2F281B261718F47E
:1026C00021912D93F9CF80E0089581E0089582E073
:1026D000089585ED8093BC008091BC0084FDFCCF03
:1026E0001092AD03089585EC8093BC001092AD0369
:1026F00008951F920F920FB60F9211242F933F93BC
:102700004F935F936F937F938F939F93AF93BF93F9
:10271000EF93FF938091B900887F803609F49CC0C5
:1027200068F5883209F45BC090F4803109F454C034
:1027300038F4882309F4F5C0883009F44DC0F5C099
:10274000883109F44CC0803209F45DC0EEC0803499
:1027500009F468C048F4803309F455C0883309F09F
:10276000E4C080934003A8C0803509F44FC0883589
:1027700009F45DC0883409F0D8C0D5C0883909F49F
:10278000C6C0A8F4883709F467C038F4883609F45D
:1027900063C0803709F460C0C8C0883809F4B7C086
:1027A000803909F45FC0803809F0BFC05BC0803B4E
:1027B00009F485C038F4803A09F466C0883A09F40F
:1027C0007EC0B3C0803C09F4A6C0883C09F4A3C015
:1027D000883B09F489C0A9C08091AC0310C09091D6
:1027E000850380918403981770F5E091850381E05B
:1027F0008E0F80938503F0E0EA57FC4F8081809331
:10280000BB0085EC85C0809340038DC0E0918503BB
:1028100081E08E0F809385038091BB00F0E0EA5742
:10282000FC4F808390918503809184036DC0E0917B
:10283000850381E08E0F809385038091BB00F0E0DB
:10284000EA57FC4F80838091AB0381116CC081E01B
:102850008093AA0384EA60C083E08093AD03109262
:102860004103CFCF80914103803208F050C0E09106
:10287000410381E08E0F809341038091BB00F0E023
:10288000EE5BFC4F8083BDCF80914103803230F4FA
:10289000E0914103F0E0EE5BFC4F10820E9469136F
:1028A0006091410370E0E091A603F091A70382E4F8
:1028B00093E00995109241030E94731336C084E09F
:1028C0008093AD031092630310926203E091A8031A
:1028D000F091A903099580916203811105C081E0FF
:1028E0008093620310926403E091630381E08E0F92
:1028F00080936303F0E0EC59FC4F80818093BB0030
:102900009091630380916203981708F47ACF85E869
:102910008093BC000AC085EC8093BC001092AD038C
:1029200004C0109240030E946913FF91EF91BF9180
:10293000AF919F918F917F916F915F914F913F9157
:102940002F910F900FBE0F901F901895089585300E
:1029500008F04CC0E82FF0E0EE0FFF1FE65DFE4FE1
:10296000718360838230E1F018F4813069F004C033
:10297000833019F1843071F1809169008C7F842B50
:1029800080936900E89A089580916900440F551F6B
:10299000440F551F837F842B80936900E99A089523
:1029A0008091690034E0440F551F3A95E1F78F7C20
:1029B000842B80936900EA9A08958091690026E04B
:1029C000440F551F2A95E1F78F73842B809369007C
:1029D000EB9A089580916A0094E0440F551F9A95F0
:1029E000E1F78F7C842B80936A00EE9A08951F9202
:1029F0000F920FB60F9211242F933F934F935F9333
:102A00006F937F938F939F93AF93BF93EF93FF93B6
:102A1000E0912A01F0912B010995FF91EF91BF916F
:102A2000AF919F918F917F916F915F914F913F9166
:102A30002F910F900FBE0F901F9018951F920F921D
:102A40000FB60F9211242F933F934F935F936F9381
:102A50007F938F939F93AF93BF93EF93FF93E091F7
:102A60002C01F0912D010995FF91EF91BF91AF914C
:102A70009F918F917F916F915F914F913F912F9196
:102A80000F900FBE0F901F9018951F920F920FB6C8
:102A90000F9211242F933F934F935F936F937F93E4
:102AA0008F939F93AF93BF93EF93FF93E0912E018A
:102AB000F0912F010995FF91EF91BF91AF919F91F7
:102AC0008F917F916F915F914F913F912F910F90D7
:102AD0000FBE0F901F9018951F920F920FB60F9276
:102AE00011242F933F934F935F936F937F938F9313
:102AF0009F93AF93BF93EF93FF93E0913001F091D9
:102B000031010995FF91EF91BF91AF919F918F9105
:102B10007F916F915F914F913F912F910F900FBED9
:102B20000F901F9018951F920F920FB60F921124BD
:102B30002F933F934F935F936F937F938F939F93C5
:102B4000AF93BF93EF93FF93E0913201F091330184
:102B50000995FF91EF91BF91AF919F918F917F91D7
:102B60006F915F914F913F912F910F900FBE0F90FA
:102B70001F9018951F920F920FB60F9211242F934A
:102B80003F938F939F93AF93BF938091AF039091A7
:102B9000B003A091B103B091B2033091AE0326E02F
:102BA000230F2D3720F40296A11DB11D05C029E881
:102BB000230F0396A11DB11D2093AE038093AF0395
:102BC0009093B003A093B103B093B2038091B30389
:102BD0009091B403A091B503B091B6030196A11DE5
:102BE000B11D8093B3039093B403A093B503B09346
:102BF000B603BF91AF919F918F913F912F910F900D
:102C00000FBE0F901F9018952FB7F8946091AF03E7
:102C10007091B0038091B1039091B2032FBF0895DA
:102C20003FB7F8948091B3039091B403A091B5039A
:102C3000B091B60326B5A89B05C02F3F19F00196A9
:102C4000A11DB11D3FBF6627782F892F9A2F620FD4
:102C5000711D811D911D43E0660F771F881F991F0D
:102C60004A95D1F708958F929F92AF92BF92CF92DB
:102C7000DF92EF92FF926B017C010E9410164B01D4
:102C80005C01C114D104E104F104F1F00E94781F49
:102C90000E941016681979098A099B09683E7340D9
:102CA0008105910570F321E0C21AD108E108F1080D
:102CB00088EE880E83E0981EA11CB11CC114D104BB
:102CC000E104F10429F7DDCFFF90EF90DF90CF9082
:102CD000BF90AF909F908F9008958330910528F01A
:102CE000880F991F04970197F1F70895789484B598
:102CF000826084BD84B5816084BD85B5826085BDF8
:102D000085B5816085BDEEE6F0E0808181608083DD
:102D1000E1E8F0E0108280818260808380818160C0
:102D20008083E0E8F0E0808181608083E1E9F0E089
:102D3000808182608083808181608083E0E9F0E02F
:102D4000808181608083E1ECF0E080818460808319
:102D5000808182608083808181608083E3ECF0E009
:102D6000808181608083E0ECF0E0808182608083FC
:102D7000E2ECF0E0808181608083EAE7F0E080812E
:102D80008460808380818260808380818E7F808365
:102D90008081806880830895823108F08251E82F15
:102DA000F0E0E653FF4FE49180917B00E3FB2227A4
:102DB00020F930E095E0220F331F9A95E1F78F7DDF
:102DC000822B80937B00E7708091340120E4829F06
:102DD000C0011124E82BE0937C0080917A0080648C
:102DE00080937A0080917A0086FDFCCF80917800F4
:102DF0002091790090E0922B089590E0FC013197AA
:102E0000EF30F105B0F5EA5AFF4F0C94772380912B
:102E100080008F7703C0809180008F7D8093800039
:102E2000089580918000877FF9CF84B58F7702C0A5
:102E300084B58F7D84BD0895809190008F7707C001
:102E4000809190008F7D03C080919000877F809358
:102E5000900008958091C0008F7703C08091C000DA
:102E60008F7D8093C00008958091C200877F8093FA
:102E7000C2000895CF93DF9390E0FC01EB50FF4F29
:102E80002491FC01EC5EFE4F8491882349F190E08F
:102E9000880F991FFC01E15BFE4FA591B4918F5BF8
:102EA0009E4FFC01C591D4919FB7611108C0F89461
:102EB0008C91209582238C93888182230AC0623072
:102EC00051F4F8948C91322F309583238C93888120
:102ED000822B888304C0F8948C91822B8C939FBFA3
:102EE000DF91CF9108950F931F93CF93DF931F929C
:102EF000CDB7DEB7282F30E0F901EA52FF4F8491B9
:102F0000F901EB50FF4F1491F901EC5EFE4F049173
:102F10000023C9F0882321F069830E94FD1669818E
:102F2000E02FF0E0EE0FFF1FEF5BFE4FA591B49195
:102F30009FB7F8948C91611103C01095812301C053
:102F4000812B8C939FBF0F90DF91CF911F910F9199
:102F50000895CF93DF93282F30E0F901EA52FF4F15
:102F60008491F901EB50FF4FD491F901EC5EFE4FD3
:102F7000C491CC2391F081110E94FD16EC2FF0E05A
:102F8000EE0FFF1FED5CFE4FA591B4912C912D2308
:102F900081E090E021F480E002C080E090E0DF91E9
:102FA000CF91089508950E9476160E94D21787EB5C
:102FB00093E00E94DE1D0E94580DC0E0D0E00E9408
:102FC000590F2097E1F30E940000F9CFCF92DF92D2
:102FD000EF92FF920F931F93CF93DF937C016A01CF
:102FE000EB0100E010E00C151D0571F06991D701AF
:102FF000ED91FC910190F081E02DC7010995892B9D
:1030000019F00F5F1F4FEFCFC801DF91CF911F91D4
:103010000F91FF90EF90DF90CF90089561157105AB
:1030200081F0DB010D900020E9F7AD01415051091D
:10303000461B570BDC01ED91FC910280F381E02DE2
:10304000099480E090E00895DC01ED91FC91DB01B2
:1030500014964D915C9115976D917C910280F3814E
:10306000E02D09940C940E18DC01ED91FC91019077
:10307000F081E02D09948F929F92AF92BF92DF92E0
:10308000EF92FF920F931F93CF93DF93CDB7DEB7ED
:10309000A1970FB6F894DEBF0FBECDBF7C01F42F11
:1030A000D52ECB0119A2223008F42AE08E010F5D43
:1030B0001F4F822E912CA12CB12C6F2F7D2DA5019D
:1030C00094010E945523F22FD32ECA0101501109F9
:1030D0006A3014F4E0E301C0E7E3E60FD801EC93B3
:1030E000232B242B252B49F7B801C7010E940E186A
:1030F000A1960FB6F894DEBF0FBECDBFDF91CF9182
:103100001F910F91FF90EF90DF90BF90AF909F9035
:103110008F900895CF92DF92EF92FF920F931F93BB
:10312000CF93DF93EC016A017B012115310579F41E
:10313000E881F9810190F081E02D642FDF91CF913A
:103140001F910F91FF90EF90DF90CF9009942A305C
:103150003105E9F477FF1AC06DE20E9434188C0142
:1031600044275527BA014C195D096E097F092AE0E9
:10317000CE010E943B18800F911FDF91CF911F91CC
:103180000F91FF90EF90DF90CF9008952AE0B70164
:10319000A601CE01DF91CF911F910F91FF90EF908B
:1031A000DF90CF900C943B184F925F926F927F927A
:1031B0008F929F92AF92BF92CF92DF92EF92FF9247
:1031C0000F931F93CF93DF93EC016A017B01B22E23
:1031D0009A01AB01C701B6010E943D23882319F073
:1031E00066E872E027C026013701E89477F82FEFF0
:1031F0003FEF4FE75FE7C301B2010E943D2381111A
:103200000DC02FEF3FEF4FE75FE7C301B2010E9410
:10321000872118161CF46AE872E00CC02FEF3FEF0C
:103220004FE75FE4C701B6010E94D6221816ACF43E
:103230006EE872E0CE01DF91CF911F910F91FF9068
:10324000EF90DF90CF90BF90AF909F908F907F9046
:103250006F905F904F900C940E182FEF3FEF4FE759
:103260005FECC701B6010E94872187FDE1CF20E016
:1032700030E0A901C701B6010E94872187FF0AC07B
:103280006DE2CE010E9434188C01F7FAF094F7F841
:10329000F09402C000E010E0A12C60E070E080E05B
:1032A0009FE3AB1441F020E030E040E251E40E94A3
:1032B0008B21A394F6CF9B01AC01C701B6010E94FC
:1032C00023216B017C010E94F8212B013C010E940B
:1032D00024229B01AC01C701B6010E9422216B018F
:1032E0007C012AE0B301A201CE010E943B18080F25
:1032F000191FBB2039F066E771E0CE010E940E185D
:10330000080F191F7B2C772041F120E030E040E2CC
:1033100051E4C701B6010E94DA226B017C010E94D0
:10332000F3214B01AA2497FCA094BA2C2AE030E0A8
:10333000B501A401CE010E948A18080F191FC5010A
:10334000B4010E9426229B01AC01C701B6010E9474
:1033500022216B017C017A94D6CFC801DF91CF91F5
:103360001F910F91FF90EF90DF90CF90BF90AF90A3
:103370009F908F907F906F905F904F9008950C94E6
:10338000D4184091BB035091BC032091B9033091F4
:10339000BA0342175307B4F49091E8009570E1F333
:1033A0009091E80092FD19C08093F1008091BB03D9
:1033B0009091BC0301968F739927892B19F48EEF96
:1033C0008093E8008091BB039091BC030196909399
:1033D000BC038093BB0381E0089580E00895CF9201
:1033E000DF92EF92FF920F931F93CF93DF931F9281
:1033F000CDB7DEB7082F162FF42E862F880F8E5FDD
:1034000099830E94C11983E00E94C119E02EC02E49
:103410009981D92E8C2D8E19811798F4F601F7FE1B
:1034200002C0849101C080810E94C119082F80E0F0
:103430000E94C1198023FFEFCF1ADF0A8111EACF62
:1034400001C081E00F90DF91CF911F910F91FF900C
:10345000EF90DF90CF9008958091D70081608093A6
:10346000D70080EA8093D80089B58F7E89BD89B561
:10347000826089BD09B400FEFDCF61E070E080E0AC
:1034800090E00E9433168091D8008F7C80618093F9
:10349000D8008091E000807F8093E0000895CF9372
:1034A000DF931F92CDB7DEB71982CE0101960E943D
:1034B000D61F0E940E21BE016F5F7F4F0E948720A2
:1034C00089810F90DF91CF9108952FB7FC01208360
:1034D000F89467706093E9000895CF93DF931F928B
:1034E000CDB7DEB7682FCE0101960E94651A809194
:1034F000F20099819FBF0F90DF91CF910895FF92C5
:103500000F931F93CF93DF9300D0CDB7DEB7F62E86
:103510008A019091BF03992311F057FF03C08FEFE9
:103520009FEF2AC0682FCE0101967A830E94651A08
:103530008091F20090E0A8017A81801791070CF445
:10354000AC01EF2DF72FF40E84E6FE1631F08093D8
:10355000C0039091F1009193F8CF4115510521F0EE
:103560008091F200882321F089818FBFCA0104C0B5
:103570008BE68093E800F8CF0F900F90DF91CF910A
:103580001F910F91FF900895CF93DF931F92CDB7B6
:10359000DEB741E050E0BE016F5F7F4F0E947F1AAF
:1035A000019719F4898190E002C08FEF9FEF0F908F
:1035B000DF91CF910895CF93DF931F92CDB7DEB700
:1035C000682FCE0101960E94651A9091E800892F1C
:1035D000807295FF04C09091F20080E4891B99816C
:1035E0009FBF0F90DF91CF9108956F927F928F923E
:1035F0009F92AF92BF92CF92DF92EF92FF920F9382
:103600001F93CF93DF931F92CDB7DEB7782E7B0148
:10361000C42EB52E8091BF03882369F0042F152F87
:103620008AEFD82E872D8072982E9AE3A92E872DA7
:103630008074882E11C08FEF9FEF56C0872D0E9497
:10364000DB1A682E81110CC0DA94A9F361E070E0F6
:1036500080E090E00E9433160115110579F73BC018
:10366000282F30E0021713070CF4602E672DCE01CF
:1036700001960E94651A8091E80085FF29C0262DD9
:1036800030E0021B130B992039F06A948FEF681613
:10369000B1F01092F100F9CFF701862D77FE07C047
:1036A000815058F094919093F1003196F9CF815068
:1036B00020F091919093F100FACFE20EF31E8091E9
:1036C000E80085FF0EC00115110511F4811009C035
:1036D00089818FBFC1CF84E68093C1038C2D9B2D40
:1036E00003C0A092E800F4CF0F90DF91CF911F911B
:1036F0000F91FF90EF90DF90CF90BF90AF909F9091
:103700008F907F906F9008951092E9001092BC0303
:103710001092BB039093BA038093B9030895CF929C
:10372000DF92FF920F931F93CF93DF9300D0CDB71B
:10373000DEB7F82E8A016B0101151105B1F0F60113
:10374000F7FE02C0849101C0808149835A830E94A0
:10375000C11901501109FFEFCF1ADF0A49815A81BF
:103760008111EACF8FEF9FEF01C0CA010F900F9038
:10377000DF91CF911F910F91FF90DF90CF9008952F
:10378000CF93DF939B01A4E6BBEF21153105F9F040
:10379000A9012134310514F040E450E0E091E80043
:1037A000E2FFFCCFFB01E21BF30BE80FF91FCE2F6A
:1037B000C40FCE1729F0D091F100D0833196F9CF04
:1037C000A093C003B093E800241B350BDECFCB01E0
:1037D000DF91CF9108951F920F920FB60F9211248F
:1037E000DF92EF92FF920F931F932F933F934F938C
:1037F0005F936F937F938F939F93AF93BF93EF9359
:10380000FF93CF93DF93CDB7DEB76C97DEBFCDBF0D
:103810001092E9008091E80083FF2EC1FE017596A9
:103820008F01AE01435E5F4F9F012F5F3F4F80913D
:10383000F10080832417350711F0F901F5CF84E6F4
:103840008093C00382EF8093E8005D8957FF05C035
:103850008091E80080FFFCCF03C08EEF8093E800EA
:10386000852F807609F0EFC04E898F89D88C411161
:103870000CC0503829F48091BE038093F10002C03F
:103880001092F1001092F100F0C0282F30E03D2995
:10389000413051F45111E9C02130310509F0E5C042
:1038A0008091BE038D7F0BC0433061F45111DDC0A8
:1038B0002130310509F0D9C08091BE038260809328
:1038C000BE03D3C0453041F49091E80090FFFCCF97
:1038D00080688093E300C9C0463009F08BC0EB8C50
:1038E000FC8C22E0D2122CC080E090E00E94841B6D
:1038F0000E944F1A99E08E010F5F1F4FF801292F88
:1039000011922A95E9F79983DA8291E09E8390EAF1
:1039100098879AEF99872091BB033091BC03275F6A
:103920003F4F3C832B838D83C7010E94841B49E05A
:1039300050E0B80180E00E948F1B0E944F1A95C092
:10394000C7010E94841B0E940E21B8010E94B02072
:10395000009719F00CF089C08CC081E0D8120EC01D
:103960008B8D9C8D089719F481E08093B80380912A
:10397000B80381112FC06FE671E031C0E3E0DE12C1
:1039800078C08F89882349F1823029F440E86CE0BF
:103990008AE891E01CC0813029F440E868E081E8C1
:1039A00091E015C0833009F064C00E940E218E01A1
:1039B0000F5F1F4FB8010E94CF20F8010190002037
:1039C000E9F73197E01BF10B40E06E2FC8010E9430
:1039D000EF1949C06DE571E002C067E971E061155A
:1039E000710509F446C0FB01449150E080E80E9453
:1039F0008F1B3BC04730E9F1483021F481E08093D0
:103A0000F10033C0493089F5537099F5E6E3F1E0F0
:103A100081E021E036E39081992361F08093E90011
:103A20002093EB0091919093EC003093ED008F5F29
:103A3000873089F78EE78093EA001092EA008F8939
:103A40008093BF0312C08B8D9C8D0E94841B898D37
:103A5000811104C0C8010E94E11F05C00E940E210F
:103A6000B8010E94EE20882321F08EEF8093E800B9
:103A700003C081E28093EB006C960FB6F894DEBF32
:103A80000FBECDBFDF91CF91FF91EF91BF91AF916D
:103A90009F918F917F916F915F914F913F912F9166
:103AA0001F910F91FF90EF90DF900F900FBE0F903E
:103AB0001F9018958093E9008091F200882319F0F7
:103AC0008AE38093E80008951F920F920FB60F9239
:103AD00011242F933F934F935F936F937F938F9313
:103AE0009F93AF93BF93CF93EF93FF93C091E10068
:103AF0008091E100837F8093E1008093E100C3FF28
:103B00000FC01092E90081E08093EB001092EC006E
:103B100082E38093ED001092BF0388E08093F00071
:103B2000C2FF15C083E00E945A1D8091C103882303
:103B300029F08091C10381508093C1038091C0031B
:103B4000882329F08091C00381508093C003C4FF73
:103B500010C08091E2008E7E81608093E2008091AF
:103B6000E1008F7E8093E1008091BD038E7E8061B5
:103B700011C0C0FF11C08091E2008E7E80618093F1
:103B8000E2008091E1008E7E8093E1008091BD0390
:103B90008E7E81608093BD03FF91EF91CF91BF91A5
:103BA000AF919F918F917F916F915F914F913F91D5
:103BB0002F910F900FBE0F901F9018951092BF037A
:103BC0001092BE031092BD030E942C1A8091E10056
:103BD0008E7E8093E1008DE08093E200EEEFFFE7C0
:103BE000859194918B3F9C4D19F481E08093120450
:103BF0000895FC01808191810C944A24CF93DF9336
:103C0000EC0188819981009711F00E944A24198261
:103C100018821D821C821B821A82DF91CF91089527
:103C20000F931F93CF93DF93EC018B016F5F7F4F57
:103C3000888199810E94D924009731F099838883E3
:103C40001B830A8381E001C080E0DF91CF911F9147
:103C50000F910895CF93DF93EC0188819981892B8F
:103C600029F08A819B818617970760F4CE010E9414
:103C7000101E882341F08C819D81892B19F4E881E5
:103C8000F981108281E0DF91CF910895EF92FF9248
:103C90000F931F93CF93DF93EC017B018A01BA014D
:103CA0000E942A1E811104C0CE010E94FE1D07C081
:103CB0001D830C83B701888199810E94AC25CE01B8
:103CC000DF91CF911F910F91FF90EF900895FC012C
:103CD000118210821382128215821482611571057D
:103CE00059F0FB0101900020E9F7AF014150510963
:103CF000461B570B0C94461E08950F931F93CF93AA
:103D0000DF938C01EB01FC0180819181009799F098
:103D1000428153812C813D814217530750F06881C5
:103D200079810E94AC258C819D81F80195838483E3
:103D300013C00E944A2488819981F801918380836D
:103D40008A819B81938382838C819D8195838483E7
:103D5000198218821B821A821D821C82DF91CF91E8
:103D60001F910F910895CF93DF93EC01861797076A
:103D700011F00E947D1ECE01DF91CF910895CF9367
:103D8000DF93EC016115710561F0FB0101900020EA
:103D9000E9F7AF0141505109461B570B0E94461EDF
:103DA00002C00E94FE1DCE01DF91CF9108950F93B6
:103DB0001F93CF93DF93CDB7DEB762970FB6F8941A
:103DC000DEBF0FBECDBF8C01CB01F8011182108286
:103DD000138212821582148250E0BE016F5F7F4F02
:103DE0000E94B325BE016F5F7F4FC8010E94BF1EB6
:103DF00062960FB6F894DEBF0FBECDBFDF91CF91B4
:103E00001F910F910895EF92FF920F931F93CF93FD
:103E1000DF93CDB7DEB7A1970FB6F894DEBF0FBE24
:103E2000CDBF7C01CB01BA01F70111821082138250
:103E300012821582148242E0420F8E010F5F1F4FE3
:103E40000E949123BC01C7010E94BF1EA1960FB61C
:103E5000F894DEBF0FBECDBFDF91CF911F910F91C0
:103E6000FF90EF900895BF92CF92DF92EF92FF9272
:103E70000F931F93CF93DF936C017B01EA018901BC
:103E80002417350720F48D2FE901042F182F65E83A
:103E900072E0C6010E94671ED70114968D919C9115
:103EA0001597C817D907C8F48017910708F48C0133
:103EB000D701ED91FC911197E00FF11FB0801082B6
:103EC0006D917C916C0F7D1FC6010E94BF1ED701B2
:103ED000ED91FC91E00FF11FB082C601DF91CF910F
:103EE0001F910F91FF90EF90DF90CF90BF900895BA
:103EF0000895CF93DF931F92CDB7DEB76983DC01BE
:103F0000ED91FC910280F381E02D41E050E0BE0193
:103F10006F5F7F4F09950F90DF91CF910895CF93F9
:103F2000DF93EC018C859D8597FF05C082E00E94A0
:103F3000C41A9D878C878C859D85DF91CF910895CC
:103F400083E00C945A1DFC018485958597FD06C07D
:103F500082E00E946D1A90E00196089582E00E942E
:103F60006D1A90E00895FC018485958597FD05C044
:103F70002FEF3FEF35872487089582E00C94C41A11
:103F8000CF93DF93EC0180914701882331F083E0E8
:103F90000E94F51A1816190634F081E090E09B8310
:103FA0008A8380E090E0DF91CF910895FC01208129
:103FB0002E5F208342E450E06BE971E080E80C94CE
:103FC0008F1BFC0121818081813A59F4213209F053
:103FD0004BC047E050E060E471E080E00E948F1B3E
:103FE0005EC0813209F040C0233289F4838190E0C1
:103FF000982F88273281832BA0E0B0E080933C018A
:1040000090933D01A0933E01B0933F010FC0203239
:1040100039F467E070E080E491E00E94C01B09C0C1
:10402000223221F482818093470103C02D7F203208
:10403000B1F580911204811103C0E0E0F8E002C004
:10404000EEEFFAE08091400190914101A091420190
:10405000B0914301803B9440A105B10511F58091D9
:10406000470180FF03C01DC080E00895EE3F2AE0B5
:10407000F20731F0808191819093FF0A8093FE0ACC
:1040800087E797E7918380832BE088E190E00FB684
:10409000F894A895809360000FBE2093600081E0A3
:1040A000089588E10FB6F894809360001092600044
:1040B0000FBEA895EE3F8AE0F80739F08091FE0A1E
:1040C0009091FF0A91838083EACF1092FF0A1092A9
:1040D000FE0AE5CF1092C5031092C40388EE93E068
:1040E000A0E0B0E08093C6039093C703A093C803F9
:1040F000B093C90386E992E09093C3038093C2030F
:104100008FEF9FEF9093CF038093CE030895EF92AC
:10411000FF920F931F93CF93DF937B01FC01C2812A
:10412000D38100E010E0209781F0E881F9810280DE
:10413000F381E02DB701CE01099597FD08C0080F66
:10414000191F0884D985C02DEECFC80102C08FEF9A
:104150009FEFDF91CF911F910F91FF90EF90089506
:104160000F931F93CF93DF938B01FC01C281D38107
:10417000209771F0E881F9810480F581E02DB80184
:10418000CE010995009731F40884D985C02DF0CF70
:1041900080E090E0DF91CF911F910F9108950F93F0
:1041A0001F93CF93DF938B01FC01C281D3812097B2
:1041B00071F0E881F9810680F781E02DB801CE0128
:1041C0000995080F111D0884D985C02DF0CFF8017D
:1041D0001082DF91CF911F910F9108950F931F933C
:1041E000CF93DF938B01FC01C281D381209771F0C3
:1041F000E881F9810190F081E02DB801CE010995A7
:10420000811106C00884D985C02DF0CF80E001C09F
:1042100081E0DF91CF911F910F9108958091170454
:1042200081110DC082E08093130484E08093140414
:10423000109216041092150481E08093170483E114
:1042400094E008955058BB27AA270ED075C166D1B7
:1042500030F06BD120F031F49F3F11F41EF45BC1BC
:104260000EF4E095E7FB51C1E92F77D180F3BA173F
:10427000620773078407950718F071F49EF58FC1E4
:104280000EF4E0950B2EBA2FA02D0B01B901900171
:104290000C01CA01A0011124FF27591B99F0593FB5
:1042A00050F4503E68F11A16F040A22F232F342FFD
:1042B0004427585FF3CF469537952795A795F0404B
:1042C0005395C9F77EF41F16BA0B620B730B840B60
:1042D000BAF09150A1F0FF0FBB1F661F771F881F18
:1042E000C2F70EC0BA0F621F731F841F48F4879570
:1042F00077956795B795F7959E3F08F0B3CF93955F
:10430000880F08F09927EE0F979587950895D9D0D3
:1043100008F481E008950CD00FC107D140F0FED021
:1043200030F021F45F3F19F0F0C0511139C1F3C0F2
:1043300014D198F39923C9F35523B1F3951B550B69
:10434000BB27AA2762177307840738F09F5F5F4F68
:10435000220F331F441FAA1FA9F333D00E2E3AF0A9
:10436000E0E830D091505040E695001CCAF729D0C3
:10437000FE2F27D0660F771F881FBB1F2617370712
:104380004807AB07B0E809F0BB0B802DBF01FF2742
:1043900093585F4F2AF09E3F510568F0B6C000C1A8
:1043A0005F3FECF3983EDCF3869577956795B7957C
:1043B000F7959F5FC9F7880F911D9695879597F997
:1043C0000895E1E0660F771F881FBB1F6217730710
:1043D0008407BA0720F0621B730B840BBA0BEE1F25
:1043E00088F7E095089504D06894B111D9C0089574
:1043F000BCD088F09F5790F0B92F9927B751A0F003
:10440000D1F0660F771F881F991F1AF0BA95C9F768
:1044100012C0B13081F0C3D0B1E00895C0C0672FA1
:10442000782F8827B85F39F0B93FCCF38695779518
:104430006795B395D9F73EF4909580957095619501
:104440007F4F8F4F9F4F0895E89409C097FB3EF42C
:1044500090958095709561957F4F8F4F9F4F9923D1
:10446000A9F0F92F96E9BB279395F695879577954F
:104470006795B795F111F8CFFAF4BB0F11F460FF0F
:104480001BC06F5F7F4F8F4F9F4F16C0882311F067
:1044900096E911C0772321F09EE8872F762F05C07B
:1044A000662371F096E8862F70E060E02AF09A9516
:1044B000660F771F881FDAF7880F9695879597F90B
:1044C0000895990F0008550FAA0BE0E8FEEF1616A5
:1044D0001706E807F907C0F012161306E407F507F8
:1044E00098F0621B730B840B950B39F40A2661F06C
:1044F000232B242B252B21F408950A2609F4A1400F
:10450000A6958FEF811D811D089597F99F6780E81B
:1045100070E060E008959FEF80EC089500240A9415
:104520001616170618060906089500240A9412168E
:104530001306140605060895092E0394000C11F4C1
:10454000882352F0BB0F40F4BF2B11F460FF04C06E
:104550006F5F7F4F8F4F9F4F089557FD9058440FC7
:10456000551F59F05F3F71F04795880F97FB991FD2
:1045700061F09F3F79F0879508951216130614068F
:10458000551FF2CF4695F1DF08C01616170618061C
:10459000991FF1CF86957105610508940895E894F7
:1045A000BB2766277727CB0197F908958ADF08F4A0
:1045B0008FEF08950BD0C0CFB1DF28F0B6DF18F031
:1045C000952309F0A2CFA7CF1124EACFC6DFA0F32D
:1045D000959FD1F3950F50E0551F629FF001729F98
:1045E000BB27F00DB11D639FAA27F00DB11DAA1FB7
:1045F000649F6627B00DA11D661F829F2227B00D04
:10460000A11D621F739FB00DA11D621F839FA00D8E
:10461000611D221F749F3327A00D611D231F849FDE
:10462000600D211D822F762F6A2F11249F57504035
:104630008AF0E1F088234AF0EE0FFF1FBB1F661FD0
:10464000771F881F91505040A9F79E3F510570F089
:104650005CCFA6CF5F3FECF3983EDCF38695779571
:104660006795B795F795E7959F5FC1F7FE2B880F84
:10467000911D9695879597F9089523DF880B990BDF
:10468000089597FB072E16F4009407D077FD09D004
:104690000E947D2307FC05D03EF4909581959F4FA5
:1046A0000895709561957F4F0895A1E21A2EAA1B77
:1046B000BB1BFD010DC0AA1FBB1FEE1FFF1FA217D2
:1046C000B307E407F50720F0A21BB30BE40BF50BCF
:1046D000661F771F881F991F1A9469F76095709558
:1046E000809590959B01AC01BD01CF010895EE0F1F
:1046F000FF1F0590F491E02D0994AA1BBB1B51E10B
:1047000007C0AA1FBB1FA617B70710F0A61BB70B41
:10471000881F991F5A95A9F780959095BC01CD01E6
:104720000895EF920F931F93CF93DF93E80147FF14
:1047300002C034E101C034E0E42FFF27E7FDF0952B
:10474000F7FF03C0F195E195F109E32E022F2E2F1B
:10475000AE010E94F925CE01DF91CF911F910F91FB
:10476000EF900895CF93DF938230910510F482E0AB
:1047700090E0E0912104F091220420E030E0A0E0FC
:10478000B0E0309739F14081518148175907B8F0AE
:104790004817590771F482819381109729F0139675
:1047A0009C938E9312972CC09093220480932104A3
:1047B00027C02115310531F04217530718F0A90120
:1047C000DB0101C0EF019A01BD01DF010280F3812D
:1047D000E02DD7CF21153105F9F0281B390B2430F6
:1047E000310580F48A819B816115710521F0FB01FF
:1047F0009383828304C09093220480932104FE015A
:10480000329644C0FE01E20FF31F81939193225030
:104810003109398328833AC020911F043091200444
:10482000232B41F4209102013091030130932004A5
:1048300020931F04209100013091010121153105C1
:1048400041F42DB73EB74091040150910501241B5E
:10485000350BE0911F04F0912004E217F307A0F458
:104860002E1B3F0B2817390778F0AC014E5F5F4FC6
:104870002417350748F04E0F5F1F509320044093D4
:104880001F048193919302C0E0E0F0E0CF01DF913B
:10489000CF910895CF93DF93009709F487C0FC016F
:1048A000329713821282C0912104D0912204209762
:1048B00081F420813181280F391F80911F0490914C
:1048C00020048217930779F5F0932004E0931F04E6
:1048D0006DC0DE0120E030E0AE17BF0750F4129645
:1048E0004D915C9113979D014115510509F1DA0134
:1048F000F3CFB383A28340815181840F951F8A1720
:104900009B0771F48D919C911197840F951F0296CE
:104910009183808312968D919C91139793838283C8
:104920002115310529F4F0932204E09321043EC0BF
:10493000D9011396FC93EE9312974D915D91A40FBC
:10494000B51FEA17FB0779F480819181840F951FC9
:104950000296D90111969C938E938281938113962E
:104960009C938E931297E0E0F0E08A819B81009700
:1049700019F0FE01EC01F9CFCE01029628813981B0
:10498000820F931F20911F043091200428173907AC
:1049900069F4309729F4109222041092210402C085
:1049A00013821282D0932004C0931F04DF91CF9111
:1049B0000895A0E0B0E0EFEDF4E20C946328EC0180
:1049C000CB01209719F40E94B223B8C0FE01E60F74
:1049D000F71F9E0122503109E217F30708F4ACC01B
:1049E000D9010D911C91119706171707B8F00530E2
:1049F000110508F49FC0A8014450510946175707F4
:104A000008F498C002501109061B170B019311936B
:104A10006D937C93CF010E944A248CC05B01A01A45
:104A2000B10A4E01800E911EA0912104B091220482
:104A3000612C712C60E070E0109709F449C0A81552
:104A4000B905C9F5ED90FC901197670142E0C40EDD
:104A5000D11CCA14DB0478F147018A189B08640151
:104A600042E0C40ED11C1296BC9012971396AC91E2
:104A7000B5E0CB16D10440F0B282A383918280824C
:104A8000D9018D939C9309C00E5F1F4F0E0D1F1D02
:104A9000F90111830083EB2DFA2F6115710531F0B7
:104AA000DB011396FC93EE93129744C0F09322041B
:104AB000E09321043FC06D917C91119766167706B3
:104AC00008F43B01BD0112960D90BC91A02DB4CF0E
:104AD00060911F047091200468157905E9F4681647
:104AE0007906D0F440910001509101014115510522
:104AF00041F44DB75EB76091040170910501461B0A
:104B0000570BE417F507C0F4F0932004E0931F045B
:104B1000F901918380830EC00E94B2237C0100972B
:104B200059F0A801BE010E94A325CE010E944A248B
:104B3000C70104C0CE0102C080E090E0CDB7DEB76F
:104B4000EEE00C947F28FB01DC0102C001900D9285
:104B500041505040D8F70895FB01DC0101900D92BF
:104B60000020E1F708954532510520F4423010F05D
:104B70000C94BE25FB011082CB010895BB274A305F
:104B800031F4992322F4BDE2909581959F4F0C94C6
:104B9000CA25BB27FB015527AA27880F991FAA1FE3
:104BA000A41710F0A41B83955051B9F7A05DAA3348
:104BB00008F0A95DA193009779F7B111B193119213
:104BC000CB010C944F28F999FECF92BD81BDF89A84
:104BD000992780B50895262FF999FECF1FBA92BD67
:104BE00081BD20BD0FB6F894FA9AF99A0FBE0196CE
:104BF00008956F927F929F92AF92BF92CF92DF9271
:104C0000EF92FF920F931F93CF93DF93CDB7DEB751
:104C100029970FB6F894DEBF0FBECDBF6A01B22E42
:104C2000102F0C3320F4FF24F394F00E02C04CE359
:104C3000F42E0F2D27E0AE014F5F5F4F0E947727C4
:104C40007981272F2970213031F0E1FC06C0E0FC8A
:104C500006C060E005C06DE203C06BE201C060E227
:104C6000AE2DA07173FF36C0662311F084E001C041
:104C700083E08B1510F4B81A01C0B12CA1110BC040
:104C8000F6018B2D90E2882319F091938150FBCF90
:104C9000CB0CD11CB12C662331F0F6016083960158
:104CA0002F5F3F4F6901C6010396E2FE05C02EE467
:104CB000F601208331E404C02EE6F601208331E6BC
:104CC00031832283FC012B2D30E22223F1F1319339
:104CD0002150FBCF72FF40C0662311F084E001C079
:104CE00083E08B1510F4B81A01C0B12CA1110BC0D0
:104CF000F6018B2D90E2882319F091938150FBCF20
:104D0000CB0CD11CB12C662331F0F60160839601E7
:104D10002F5F3F4F6901C6010396E2FE07C029E4F9
:104D2000F60120832EE4218326E406C029E6F6015D
:104D300020832EE6218326E62283FC012B2D30E200
:104D4000222319F031932150FBCFFC01EB0DF11D13
:104D500010828EEF9FEFB7C0B1E0611101C0B0E0EB
:104D60004B2F50E01816190624F49C012F5F3F4F7B
:104D700002C021E030E0240F351F112329F0412F1C
:104D800050E04F5F5F4F02C040E050E0420F531FC2
:104D90002B2D30E04217530714F4B41A01C0B12C84
:104DA0002E2D287159F4F6012B2D30E2222319F013
:104DB00031932150FBCFCB0CD11CB12CBB2331F054
:104DC000F601608396012F5F3F4F6901A1110BC06F
:104DD000F6012B2D30E3222319F031932150FBCF24
:104DE000CB0CD11CB12CF80E0A81372F3071A32EB9
:104DF00074FF03C0013309F4FA941F142CF42F2D0F
:104E0000293018F028E001C021E0682F392F97FFE2
:104E100002C060E030E0462F532F612C712C3EE23F
:104E2000932EBC01621B71099B01DC01A41BB50B15
:104E3000E1E0F0E0EC0FFD1FAE0FBF1FE12EF12C03
:104E4000F194E194F1084F3FFFEF5F0731F4F60171
:104E50009082B6016F5F7F4F6B01841795074CF00E
:104E60002417350734F4BD01660D771DFB01118150
:104E700001C010E341505109FFEF6F1A7F0AB601DC
:104E80006F5F7F4F4E155F0524F0F60110836B01B5
:104E9000DACF4817590739F4063320F4053319F4EB
:104EA000A11001C011E3F6011083FB018B2D90E2EC
:104EB000882319F091938150FBCFFB01EB0DF11D7D
:104EC000108280E090E029960FB6F894DEBF0FBE06
:104ED000CDBFDF91CF911F910F91FF90EF90DF90A9
:104EE000CF90BF90AF909F907F906F9008952830A3
:104EF00008F027E03327DA01990F311D87FD916013
:104F000000966105710539F432602E5F3D9330E300
:104F10002A95E1F708959F3F30F0803871056105CB
:104F200009F03C5F3C5F3D93913008F08068911D33
:104F3000DF93CF931F930F93FF92EF92192F987FD8
:104F40009695E92F96959695E90FFF27E95CFD4F19
:104F500099273327EE24FF24A701E7010590089441
:104F6000079428F4360FE71EF81E491F511D660FDF
:104F7000771F881F991F0694A1F70590079428F4BE
:104F8000E70EF81E491F561FC11D770F881F991F76
:104F9000661F0694A1F70590079428F4F80E491FA0
:104FA000561FC71FD11D880F991F661F771F0694B4
:104FB000A1F70590079420F4490F561FC71FD81F6B
:104FC000990F661F771F881F0694A9F78491109583
:104FD000177041F0D695C79557954795F794E79484
:104FE0001A95C1F7EDEDF1E06894159015913591A2
:104FF0006591959105907FE27395E118F10A430B55
:10500000560BC90BD009C0F7E10CF11E431F561F08
:10501000C91FD01D7EF4703311F48A95E6CFE89451
:10502000015030F0080F0AF40027021708F4202F6F
:105030002395022F7A3328F079E37D932A95E9F7B7
:1050400010C07D932A9589F60694979567953795B4
:1050500017951794E118F10A430B560BC90BD009A9
:1050600098F023957E9173957A3308F070E37C93E2
:105070002013B8F77E9170617D9330F0839571E3D2
:105080007D9370E32A95E1F71124EF90FF900F9143
:105090001F91CF91DF91992787FD90950895DC01AD
:1050A000FC01672F71917723E1F7329704C07C915F
:1050B0006D9370836291AE17BF07C8F308952F9266
:1050C0003F924F925F926F927F928F929F92AF9298
:1050D000BF92CF92DF92EF92FF920F931F93CF93E5
:1050E000DF93CDB7DEB7CA1BDB0B0FB6F894DEBF7C
:1050F0000FBECDBF09942A88398848885F846E84A2
:105100007D848C849B84AA84B984C884DF80EE80EB
:10511000FD800C811B81AA81B981CE0FD11D0FB6F4
:10512000F894DEBF0FBECDBFED010895F894FFCF18
:1051300000002304800000080C0E0C08000004008E
:105140000400040004000A040A040A040A000F0010
:1051500032000000900100000100A614A614A6145D
:10516000A614A6140100C18081000000FFFFFFFF0C
:1051700000E100000000000020202020202020204E
:10518000200025002D4149522D005467742E204DDA
:1051900069783A002F303000546F6C6572616E632D
:1051A0006500207074732E0053312054617267655E
:1051B000740025204F3200533220546172676574A9
:1051C00000206D56005332204552524F520020208D
:1051D0004D697820002F00456E746572696E670016
:1051E00043616C6962726174696F6E204D6F6465B2
:1051F0000043616C6962726174696F6E20464F3260
:105200003A0025204F787967656E00436C69636BBF
:1052100020746F00636F6E6669726D004261642076
:1052200043616C6962726174696F6E00446174619C
:10523000005361766564004D69784D6F6E69746FD7
:10524000720076007620302E3200506C65617365F6
:1052500000526563616C696272617465004F7074BD
:10526000696F6E73004D656E7500536574204D69EE
:1052700078004F322053656E736F7200546172670D
:105280006574730044697361626C650043616C69A5
:105290006272617465004578697400000000001353
:1052A00011E617000000001E12F111C611CE11E127
:1052B00011F0110D0A006E616E00696E66006F7666
:1052C000660000000000791FC01FA31FB31F8F1FBF
:0252D000A01F1D
:1070000055C000006EC000006CC000006AC00000E7
:1070100068C0000066C0000064C0000062C00000DC
:1070200060C000005EC00000DAC400005AC000006A
:1070300058C0000056C0000054C0000052C00000FC
:1070400050C0000076C000004CC000004AC00000E4
:1070500048C0000046C0000044C0000042C000001C
:1070600040C000003EC000003CC000003AC000002C
:1070700038C0000036C0000034C0000032C000003C
:1070800030C000002EC000002CC000002AC000004C
:1070900028C0000026C0000024C0000022C000005C
:1070A00020C000001EC000001CC0000011241FBE34
:1070B000CFEFDAE0DEBFCDBF11E0A0E0B1E0EEEF50
:1070C000FEE702C005900D92AA3CB107D9F711E086
:1070D000AAECB1E001C01D92A03EB107E1F781D357
:1070E0000CC78ECFF89410926F001092810010920E
:1070F00085001092840081E085BF15BE47980C94EE
:10710000000008952091D4013091D5012F5F3F4FA9
:107110003093D5012093D401932F37FF03C08EEF16
:10712000831B982F990F921710F447980895479A48
:1071300008951F920F920FB60F9211242F938F93E1
:107140009F93EF93FF93109285001092840080919B
:10715000CA019091CB01009729F001979093CB0140
:107160008093CA018091CC019091CD01009729F0C4
:1071700001979093CD018093CC01E0E0F0E0859100
:1071800094918F5F9F4F49F08091CE019091CF01F4
:1071900001969093CF018093CE01FF91EF919F9143
:1071A0008F912F910F900FBE0F901F90189584E034
:1071B0008093E9000DC08091E8008B778093E80010
:1071C00003C08EB3882351F08091E80082FFF9CF8D
:1071D0008091E80085FFEFCF8091F1000895982F0E
:1071E00083E08093E9008091E80085FD0DC08091E7
:1071F000E8008E778093E80003C08EB3882361F0A7
:107200008091E80080FFF9CF9093F10084E690E050
:107210009093CB018093CA0108954F925F926F9231
:107220007F928F929F92AF92BF92CF92DF92EF9216
:10723000FF920F931F93CF93DF9384E08093E90035
:107240008091E80082FF56C284E690E09093CD01E1
:107250008093CC01ACDF182F853481F48CE195E26A
:107260009093CF018093CE0107B600FCFDCFF99932
:10727000FECF81E180935700E89503C0843519F46F
:1072800096DF8DE00DC28C34E1F38035D1F3843785
:1072900021F484E4A4DF80E003C2813611F489E59F
:1072A000FFC18134B1F483DF182F81DF90E0880FB4
:1072B000991FAA2797FDA095BA2F312F330F20E0F1
:1072C000442737FD4095542F822B932BA42BB52BAD
:1072D000B8C1803711F483E5E3C1833549F4C0E0D8
:1072E000D1E089917CDF21E0C730D207D1F7D9C145
:1072F000863521F481E373DF80E3D2C1833731F433
:1073000087E86DDF85E96BDF8EE1CAC18536B9F4A8
:10731000E0E0F0E093E085E090935700E89507B651
:1073200000FCFDCF80935700E89507B600FCFDCF29
:10733000E058FF4FA0E7E030FA0771F7A2CF82379D
:1073400039F4E1E0F0E089E0809357008491A8C12E
:10735000863439F4E0E0F0E089E0809357008491CE
:107360009FC18E3439F4E3E0F0E089E08093570068
:10737000849196C1813539F4E2E0F0E089E08093B0
:10738000570084918DC1823631F489E528DF80E091
:1073900026DF80E885C1823419F0873609F0E5C020
:1073A0001092CF011092CE0102DF082F00DFF82EDD
:1073B000FEDE682E8554823008F071C1902F80E087
:1073C000CF2DD0E0C82BD92B10926F00173609F0C3
:1073D0004BC081E180935700E895DD24CC24C39411
:1073E0003FC0E090D001F090D1010091D201109106
:1073F000D301B6E46B16D9F4ED2DF0E0EE29FF29A8
:10740000E4918E2FECDEDD2081F082E090E0A0E0C0
:10741000B0E0E80EF91E0A1F1B1FE092D001F092A7
:10742000D1010093D2011093D301DC2418C0D801FC
:10743000C701B695A7959795879549D5D0DE82E087
:1074400090E0A0E0B0E0E80EF91E0A1F1B1FE092DA
:10745000D001F092D1010093D2011093D301219772
:10746000209709F0BECF7DC08090D0019090D101CF
:10747000A090D201B090D30196E4691609F05DC0E6
:1074800083E0F40180935700E89507B600FCFDCF38
:1074900054C0F6E46F1661F5772031F1E090D00129
:1074A000F090D1010091D2011091D30180DED82E4D
:1074B000CC24852D90E08C299D29F7010C01409268
:1074C0005700E895112482E090E0A0E0B0E0E80EDB
:1074D000F91E0A1F1B1FE092D001F092D101009308
:1074E000D2011093D30102C062DE582E742423C04F
:1074F000E090D001F090D1010091D2011091D30120
:1075000016950795F794E79452DE682FC701E7D4E4
:107510008091D0019091D101A091D201B091D3017D
:107520000296A11DB11D8093D0019093D101A0932B
:10753000D201B093D301219704C055247724442469
:107540004394209709F0A5CF96E4691641F485E0AD
:10755000F40180935700E89507B600FCFDCF8DE05D
:107560003EDE82E080936F009CC0833471F4009112
:10757000D0011091D1011BDE90E021E0F8010C0157
:1075800020935700E89511247CCE833619F5E090BE
:10759000D001F090D1010091D2011091D30107DE0A
:1075A000F701E16090E021E00C0120935700E8959D
:1075B000112482E090E0A0E0B0E0E80EF91E0A1F7E
:1075C0001B1FE092D001F092D1010093D2011093E1
:1075D000D30157CE8D3661F4E091D001F091D10105
:1075E00085E080935700E89507B600FCFDCF49CEB3
:1075F000823551F4E091D001F091D10105911491BF
:10760000812FEDDD802F4CC0843421F5E090D00136
:10761000F090D1010091D2011091D30116950795F8
:10762000F794E794C4DD682FC70159D48091D00145
:107630009091D101A091D201B091D3010296A11DE8
:10764000B11D8093D0019093D101A093D201B0934A
:10765000D30117CE843609F5E090D001F090D10126
:107660000091D2011091D301D801C701B695A79519
:10767000979587952CD4B3DD82E090E0A0E0B0E050
:10768000E80EF91E0A1F1B1FE092D001F092D101F3
:107690000093D2011093D30104C08B3111F08FE31A
:1076A0009EDD83E08093E9009091E8008091E800FE
:1076B0008E778093E80095FF04C010C08EB38823B6
:1076C000C9F08091E80080FFF9CF8091E8008E77C3
:1076D0008093E80003C08EB3882361F08091E800B6
:1076E00080FFF9CF84E08093E9008091E8008B77F8
:1076F0008093E800DF91CF911F910F91FF90EF9061
:10770000DF90CF90BF90AF909F908F907F906F90C1
:107710005F904F9008959091D801892F8F77813293
:1077200049F58091D9018032A1F0813219F5913A61
:1077300009F58091E800877F8093E8008DE091E073
:1077400067E070E0FBD18091E8008B778093E800E0
:107750000895913279F48091E800877F8093E80062
:107760008DE091E067E070E04DD28091E8008E7787
:107770008093E800089582E061EC42E0A7D083E0C6
:1077800061E842E1A3D084E060E842E19FC084B7B1
:10779000877F84BF88E10FB6F894809360001092D1
:1077A00060000FBE20E880E090E00FB6F8942093D0
:1077B0006100809361000FBE81E085BF92E095BFBC
:1077C0003F9AE1E6F0E0208310824798109289000A
:1077D0008DE78093880090936F0083E08093810011
:1077E000E6C04091000850910108109201081092E3
:1077F000000824B714BE88E10FB6F89480936000A7
:10780000109260000FBEE0E0F0E0859194918F5FF0
