:100000000C946F010C94D2150C94F9150C942016D5
:100010000C9447160C9497010C9497010C946E164F
:100020000C9497010C9497010C943F1E0C94C61CE1
:100030000C9497010C9497010C9497010C949701E0
:100040000C9497010C9497010C9497010C949701D0
:100050000C9497010C9497010C9497010C949516AD
:100060000C9497010C9497010C9497010C949701B0
:100070000C9497010C9497010C9497010C949701A0
:100080000C9497010C9497010C9497010C94970190
:100090000C9454140C9497010C9497010C949701B0
:1000A0000C9497010C9497010C949701F017F31797
:1000B000E217E617EC17141814181418F717FB17A3
:1000C000FF170518091814180F1807060504010072
:1000D000080A0B0C0D090000000200090F000003C4
:1000E0000401000C000000000000000000000000FF
:1000F0000000000000040802011040804010204071
:10010000804080080204018040201002011080100D
:1001100020404020040404040403040502020202F7
:100120000403020202020606060606060404020290
:10013000020404000000002300260029002C002FE8
:100140000000000000250028002B002E00310000D8
:10015000000000240027002A002D003000120100BA
:1001600002EF0201409A230C8000010102030112F8
:10017000010002000000409A230C800001010203EC
:1001800001416461667275697400466561746865F1
:100190007220333275340004030904080B00020294
:1001A0000201000904000001020200000524001001
:1001B00001052401010104240206052406000107AB
:1001C00005810310004009040100020A0000000735
:1001D0000502024000000705830240000000407A4B
:1001E00010F35A00A0724E18090010A5D4E80000C0
:1001F000E87648170000E40B54020000CA9A3B005E
:100200000000E1F505000080969800000040420FD4
:10021000000000A08601000000102700000000E898
:1002200003000000006400000000000A000000005D
:10023000000100000000002C76D888DC674F0823FE
:10024000DFC1DFAE59E1B1B796E5E3E453C63AE664
:1002500051997696E8E6C28426EB898C9B62ED4044
:100260007C6FFCEFBC9C9F40F2BAA56FA5F4900593
:100270005A2AF75C936B6CF9676DC11BFCE0E40DC7
:1002800047FEF520E6B500D0ED902E0300943577BB
:10029000050080841E080000204E0A000000C80CE3
:1002A000333333330F986E12831141EF8D2114894C
:1002B0003BE65516CFFEE6DB18D1844B381BF77CA6
:1002C0001D901DA4BBE424203284725E228100C9EB
:1002D000F124ECA1E53D27005405721345211124BA
:1002E0001FBECFEFDAE0DEBFCDBF12E0A0E0B1E08D
:1002F000E6EEF2E502C005900D92AA3AB107D9F7F1
:1003000024E0AAEAB2E001C01D92AF32B207E1F7E1
:1003100012E0CEEDD2E004C02297FE010E945424E8
:10032000C83DD107C9F70E94AE180C9471290C94EE
:10033000000080E00E94841821E0892B09F420E06D
:100340002093C70281E00E94841821E0892B09F4E0
:1003500020E02093C6028091C502882321F080917D
:10036000C402811109C08091C502811112C080911F
:10037000C402811163C00DC08091C702811104C005
:100380008091C602811150C08091C702882319F163
:100390001DC08091C502811105C08091C4028823CF
:1003A00009F459C08091C5028823A9F08091C40244
:1003B000811111C08091C702882321F08091C6026B
:1003C00081116EC08091C702811105C08091C60263
:1003D000882309F46FC08091C0029091C1020497F4
:1003E00034F08091C2029091C30201960CC08091BA
:1003F000C0029091C1028D3F9F4F6CF48091C20268
:100400009091C30201979093C3028093C20210920D
:10041000C1021092C0028091C7028093C5028091F0
:10042000C6028093C40208958091C0029091C102D7
:1004300001969093C1028093C002A6CF8091C7021B
:10044000811104C08091C6028823B1F08091C70257
:10045000882309F20CC08091C702882321F0809183
:10046000C602882399F08091C7028111B4CF809190
:10047000C60281111FC0AFCF8091C0029091C1020E
:1004800001969093C1028093C002E0CF8091C00298
:100490009091C10201969093C1028093C002E3CF74
:1004A0008091C0029091C10201969093C102809305
:1004B000C00288CF8091C0029091C10201979093B1
:1004C000C1028093C00287CF80E00E94841821E09F
:1004D000892B09F420E02093C70281E00E94841850
:1004E00021E0892B09F420E02093C6028091C50207
:1004F000882321F08091C402811109C08091C50236
:10050000811112C08091C402811163C00DC080911D
:10051000C702811104C08091C602811150C0809130
:10052000C702882319F11DC08091C502811105C041
:100530008091C402882309F459C08091C5028823A0
:10054000A9F08091C402811111C08091C702882353
:1005500021F08091C60281116EC08091C702811185
:1005600005C08091C602882309F46FC08091C00243
:100570009091C102049734F08091C2029091C3021D
:1005800001960CC08091C0029091C1028D3F9F4F97
:100590006CF48091C2029091C30201979093C302C0
:1005A0008093C2021092C1021092C0028091C702D1
:1005B0008093C5028091C6028093C4020895809101
:1005C000C0029091C10201969093C1028093C00233
:1005D000A6CF8091C702811104C08091C6028823F2
:1005E000B1F08091C702882309F20CC08091C70244
:1005F000882321F08091C602882399F08091C70258
:100600008111B4CF8091C60281111FC0AFCF8091FC
:10061000C0029091C10201969093C1028093C002E2
:10062000E0CF8091C0029091C10201969093C102E7
:100630008093C002E3CF8091C0029091C1020196E5
:100640009093C1028093C00288CF8091C0029091A4
:10065000C10201979093C1028093C00287CF009797
:1006600029F48DED92E00E94571206C00197C1F463
:100670008DED92E00E947C12BC01882777FD809569
:10068000982F0E94012320E030E040E853E40E94CC
:10069000B52320E03EEF4FEF56E40E946622089516
:1006A00060E070E0CB010895CF93FC0180819181DF
:1006B0000E942F03C1E02AE037ED43E25CE30E9491
:1006C000B12318160CF0C0E08C2FCF910895CF9273
:1006D000DF92EF92FF920F931F93CF93DF93EC0182
:1006E000E880F9808E81811135C0EE0CFF1CEE0C84
:1006F000FF1C6E0187E0C80ED11C87010C5F1F4FE5
:10070000C7010E94BE26F60181936F01FFEFEF1A29
:10071000FF0AE016F106A1F781E08E83CF80D8842E
:10072000E984FA8422E538EB4EEC5FE3C701B601B9
:100730000E94622287FD0AC020E030E048E250E4D7
:10074000C701B6010E94B123181624F41F8218862F
:1007500019861A866F81788589859A85DF91CF9170
:100760001F910F91FF90EF90DF90CF900895CF935E
:100770000E946703C1E020E030E0A9010E94B1239C
:1007800018160CF0C0E08C2FCF910895CF93DF9313
:10079000EC010E94B703882339F0CE010E94540374
:1007A000882311F081E001C080E0DF91CF910895AE
:1007B000CF92DF92EF92FF92CF93DF93EC010E94F2
:1007C000B703882301F1CE010E9454038823D9F096
:1007D000888199810E942F0320E030E0A9010E94C6
:1007E000B123181684F4888199810E942F036B012C
:1007F0007C01CE010E9467039B01AC01C701B601D9
:100800000E94B52303C060E070E0CB01DF91CF917F
:10081000FF90EF90DF90CF9008954F925F926F928C
:100820007F928F929F92AF92BF92CF92DF92EF9280
:10083000FF920F931F93CF93DF93EC010A811B81EB
:10084000AC80BD800E94C603811102C081E045C01A
:10085000B801882777FD8095982F0E94012320E01A
:1008600030E040E251E40E9466226B017C01B50158
:10087000882777FD8095982F0E94012320E030E0A3
:1008800040E251E40E9466224B015C01CE010E94CD
:10089000D8032B013C01A5019401C701B6010E94B8
:1008A000FE219B01AC01C301B2010E94B1231816C5
:1008B0009CF0CE010E94D8032B013C01A5019401BC
:1008C000C701B6010E94FD219B01AC01C301B20129
:1008D0000E94622287FFBACF80E0DF91CF911F9103
:1008E0000F91FF90EF90DF90CF90BF90AF909F90CF
:1008F0008F907F906F905F904F900895AF92BF92CE
:10090000CF92DF92EF92FF920F931F93CF93DF93DB
:1009100000D000D01F92CDB7DEB76C0149835A8357
:100920006B837C83FC0100811181000F111F000F7C
:10093000111FCE0101967C015E0195E0A90EB11C4C
:10094000F70161917F01C8016D830E94BE266D8110
:10095000681719F0C8010E94C6260F5F1F4FEA14DE
:10096000FB0471F7F60116820F900F900F900F9015
:100970000F90DF91CF911F910F91FF90EF90DF903B
:10098000CF90BF90AF9008950F931F930E9484184B
:100990009093DC028093DB02209136013091370185
:1009A00082179307A1F0892B91F40E94DF166093C0
:1009B000CF027093D0028093D1029093D2028091A3
:1009C000DB029091DC0290933701809336010E9404
:1009D000DF160091CF021091D0022091D102309108
:1009E000D202601B710B820B930B00912E011091B0
:1009F0002F01209130013091310106171707280788
:100A0000390758F48091DB029091DC022091360185
:100A1000309137018217930711F480E00FC0909353
:100A20003701809336010E94DF166093CF027093E6
:100A3000D0028093D1029093D20281E01F910F9156
:100A400008958BE10E94A717BC01882777FD809548
:100A5000982F0E9401239B01AC010E94FE2123E3F9
:100A600033E343E550E40E94B52320E030E040E862
:100A70005AE30E94B523089540E067E082EE92E0D9
:100A80000E94DC1066E571E082EE92E00E940D1992
:100A900041E067E082EE92E00E94DC1066E571E0E2
:100AA00082EE92E00C940D19CF92EF920F9325E015
:100AB000C22E36E0E32E0AE02BE04CE06DE082EE41
:100AC00092E00E94941168E48DED92E00E94F4118E
:100AD0000E94DF166093D7027093D8028093D902E8
:100AE0009093DA020E94DF166093D3027093D402CF
:100AF0008093D5029093D60221ED30E03093B80276
:100B00002093B7028FE090E09093BA028093B902ED
:100B10001092BB021092BC021092BD021092BE0253
:100B20001092BF021092B6021092B5023093AD023D
:100B30002093AC029093AF028093AE021092B00269
:100B40001092B1021092B2021092B3021092B4024B
:100B500081E090E09093AB028093AA020F91EF9016
:100B6000CF900895FF920F931F93CF93DF93CDB74C
:100B7000DEB72C970FB6F894DEBF0FBECDBFF42EB4
:100B8000122F21E0AB01BC01CE0107960E94DE1FAF
:100B9000402F612F82EE92E00E94DC10FF2029F0AE
:100BA00062E082EE92E00E94EE118B859C850597B3
:100BB000B0F023E030E040E050E0BE01695F7F4FDD
:100BC000CE0101960E940E20BE016F5F7F4FCE01C5
:100BD00007960E948E1FCE0101960E94D41E8B851F
:100BE0009C85049731F06EE571E082EE92E00E9400
:100BF0000D19BE01695F7F4F82EE92E00E94FF18DF
:100C0000FF2061F065E0610F402F82EE92E00E94CC
:100C1000DC1063E082EE92E00E94EE11CE010796B6
:100C20000E94D41E2C960FB6F894DEBF0FBECDBF27
:100C3000DF91CF911F910F91FF9008950F931F9314
:100C40000E94DF160091D7021091D8022091D9029C
:100C50003091DA02601B710B820B930B0091320111
:100C60001091330120913401309135010617170797
:100C70002807390708F07CC085EB92E00E94D80372
:100C80002DEC3CEC4CEC5DE30E94B123181674F49F
:100C900085EB92E00E94D80300E010E020E030E015
:100CA00040E00E94B20560E671E015C08091CD027F
:100CB0009091CE0240E060E0019739F482EE92E03C
:100CC0000E94DC1062E671E006C082EE92E00E94B3
:100CD000DC106AE571E082EE92E00E940D198AEA6A
:100CE00092E00E94D8032DEC3CEC4CEC5DE30E94BA
:100CF000B123181674F48AEA92E00E94D80301E046
:100D000010E020E030E040E00E94B20560E671E0D3
:100D100008C041E060E082EE92E00E94DC106AE5EB
:100D200071E082EE92E00E940D1940E066E082EEF2
:100D300092E00E94DC1060E082EE92E00E94EE11F0
:100D400041E066E082EE92E00E94DC1060E082EE1C
:100D500092E00E94EE110E94DF166093D70270931A
:100D6000D8028093D9029093DA0281E08093CC027A
:100D70001F910F910895CF92DF92EF92FF920F9300
:100D80001F93CF93DF9382EE92E00E94D51040E054
:100D900064E082EE92E00E94DC1068E671E082EE90
:100DA00092E00E940D1941E060E082EE92E00E9424
:100DB000DC1061E771E082EE92E00E940D1966EDB1
:100DC00076E080E090E00E940E1782EE92E00E94B2
:100DD000D51085E10E948418892BD9F36AEF70E061
:100DE00080E090E00E940E1762E871E082EE92E0EF
:100DF0000E940D1981ED90E09093C3028093C2028E
:100E0000C8EED3E085E190E00E94C404811136C0B1
:100E10008091C2029091C302893E93402CF0D093FE
:100E2000C302C093C2020AC08091C2029091C30261
:100E300097FF04C01092C3021092C2026091C202D6
:100E40007091C302882777FD8095982F0E94012317
:100E500020E030E040E251E40E9466226B017C0118
:100E600001E010E020E030E041E00E94B20563E9DB
:100E700071E082EE92E00E940D19C4CF82EE92E002
:100E80000E94D51040E067E082EE92E00E94DC1004
:100E900060E082EE92E00E94EE116CE971E082EE79
:100EA00092E00E940D1941E067E082EE92E00E941C
:100EB000DC1060E082EE92E00E94EE1165EA71E0E3
:100EC00082EE92E00E940D198091B5029091B602D7
:100ED0000E942F0320E030E0A9010E946222181630
:100EE0006CF040E060E082EE92E00E94DC106BE586
:100EF00071E082EE92E00E940D190DC08091B50262
:100F00009091B6020E942F0300E010E020E030E054
:100F100040E00E94B2056DE572E082EE92E00E9430
:100F20000D198091AA029091AB020E942F0320E03C
:100F300030E0A9010E94622218166CF041E060E0E6
:100F400082EE92E00E94DC106BE571E082EE92E0AE
:100F50000E940D190DC08091AA029091AB020E94CF
:100F60002F0301E010E020E030E040E00E94B205F5
:100F70006DE572E082EE92E00E940D1985E190E04D
:100F80000E94C404882309F49FCF85EB92E00E945D
:100F90005403882309F47AC08091B5029091B60277
:100FA0000E942F039B01AC01C701B6010E9466227B
:100FB00022E538EB4EEC5FE30E94B12318160CF0EB
:100FC00065C08091B5029091B6020E942F039B01EB
:100FD000AC01C701B6010E94662220E030E048E281
:100FE00050E40E94622287FF51C08091B502909127
:100FF000B6020E942F039B01AC01C701B6010E94FB
:101000006622AB01BC0185EB92E00E947E048AEA75
:1010100092E00E945403882309F461C08091AA02DF
:101020009091AB020E942F039B01AC01C701B60156
:101030000E94662222E538EB4EEC5FE30E94B1236A
:1010400018160CF04CC08091AA029091AB020E943D
:101050002F039B01AC01C701B6010E94662220E06C
:1010600030E048E250E40E94622287FF38C080915D
:10107000AA029091AB020E942F039B01AC01C70111
:10108000B6010E946622AB01BC0132C085EB92E042
:101090000E945403811104C040E050E0BA01B3CF74
:1010A00082EE92E00E94D5106DEA71E082EE92E04D
:1010B0000E940D1941E060E082EE92E00E94DC1097
:1010C0006DEB71E082EE92E00E940D1968EB7BE01F
:1010D00080E090E00E940E170E94BB0698CF8AEA3B
:1010E00092E00E94540381113CC040E050E0BA01FC
:1010F0008AEA92E00E947E0485EB92E00E9454030B
:10110000811107C08AEA92E00E945403882309F4FF
:1011100047C082EE92E00E94D51061EB71E082EE52
:1011200092E00E940D1941E060E082EE92E00E94A0
:10113000DC1062EC71E082EE92E00E940D196CED21
:1011400075E080E090E00E940E1782EE92E0DF9161
:10115000CF911F910F91FF90EF90DF90CF900C9463
:10116000D51082EE92E00E94D5106DEA71E082EE19
:1011700092E00E940D1941E060E082EE92E00E9450
:10118000DC106DEB71E082EE92E00E940D1968EBCD
:101190007BE080E090E00E940E170E94BB06ACCF7F
:1011A00082EE92E00E94D5106DEA71E082EE92E04C
:1011B0000E940D1941E060E082EE92E00E94DC1096
:1011C0006DEB71E082EE92E00E940D1968EB7BE01E
:1011D00080E090E00E940E170E94BB069ACF62E06A
:1011E00085E10E94151862E080E00E94151862E017
:1011F00081E00E94151861E087E10E94151861E006
:1012000086E10E94151841E050E069E971E082E052
:101210000E94821541E050E064E672E083E00E94A3
:10122000821520E042E060E182EE92E00E94F6103A
:1012300046E251E060E082EE92E00E94B4114EE19D
:1012400051E061E082EE92E00E94B41146E151E08B
:1012500062E082EE92E00E94B4114EE051E063E061
:1012600082EE92E00E94B41146E051E064E082EE2A
:1012700092E00E94B4118DED92E00E94FC1160E0BA
:101280007AE08DED92E00E94001240E063E082EE91
:1012900092E00E94DC1068EC71E082EE92E00E9425
:1012A0000D1941E060E082EE92E00E94DC100E94A5
:1012B0002105AB01BC0122E030E082EE92E00E9409
:1012C0009A1A63ED71E082EE92E00E940D1941E0FE
:1012D0006BE082EE92E00E94DC1065ED71E082EE40
:1012E00092E00E940D1960ED77E080E090E00E94AE
:1012F0000E1782EE92E00E94D51085E10E948418BC
:10130000892BD1F185EB92E00E945403811107C033
:101310008AEA92E00E945403882371F007C085EBAB
:1013200092E00E94B7038111F3CF0AC08AEA92E0EB
:101330000E94B703882321F082EE92E00C94D5102E
:1013400082EE92E00E94D5106BED71E082EE92E0A9
:101350000E940D1941E060E082EE92E00E94DC10F4
:1013600062EE71E082EE92E00E940D1960ED77E08E
:1013700080E090E00E940E170E94BB06DDCF0F9325
:101380001F93CF93DF9385EB92E00E94C6038823DF
:1013900009F45DC040E067E082EE92E00E94DC105C
:1013A0006EEE71E082EE92E00E940D198091B7021C
:1013B0009091B8029093C3028093C202C8EED3E02A
:1013C00085E190E00E94C40481113FC00E941E0686
:1013D0008091C2029091C302893E93402CF0D09339
:1013E000C302C093C2020AC08091C2029091C3029C
:1013F00097FF04C01092C3021092C2026091C20211
:101400007091C3027093B8026093B702882777FD8A
:101410008095982F0E94012320E030E040E251E4C3
:101420000E94662201E010E027E030E041E00E94E7
:10143000B20568EF71E082EE92E00E940D1964E05F
:1014400082EE92E00E94EE11BBCF0E943C058AEA38
:1014500092E00E94C603882309F45DC040E067E083
:1014600082EE92E00E94DC106BEF71E082EE92E07F
:101470000E940D198091AC029091AD029093C3022D
:101480008093C202C8EED3E085E190E00E94C404DC
:1014900081113FC00E941E068091C2029091C3023A
:1014A000893E93402CF0D093C302C093C2020AC07D
:1014B0008091C2029091C30297FF04C01092C302B0
:1014C0001092C2026091C2027091C3027093AD0289
:1014D0006093AC02882777FD8095982F0E940123A6
:1014E00020E030E040E251E40E94662201E010E09A
:1014F00027E030E041E00E94B20568EF71E082EE43
:1015000092E00E940D1964E082EE92E00E94EE11DA
:10151000BBCF0E943C0540E067E082EE92E00E9473
:10152000DC1065E072E082EE92E00E940D1980917D
:10153000B9029091BA029093C3028093C202C8EE9E
:10154000D3E085E190E00E94C404811142C00E9472
:101550001E068091C2029091C302893E93402CF0F6
:10156000D093C302C093C2020AC08091C20290917C
:10157000C30297FF04C01092C3021092C20260918E
:10158000C2027091C3027093BA026093B902809153
:10159000C2029091C3029093AF028093AE0288275B
:1015A00077FD8095982F0E94012320E030E040E2F3
:1015B00051E40E94662201E010E028E030E041E0C2
:1015C0000E94B20560E671E082EE92E00E940D1981
:1015D000B8CF82E090E09093CE028093CD020E943B
:1015E0003C05DF91CF911F910F910895FF920F93CA
:1015F0001F93CF93DF9300D000D000D0CDB7DEB7DC
:10160000F62E042F122F4AE0BC01CE0101960E9453
:10161000B21F412F602F82EE92E00E94DC10FF206B
:1016200029F062E082EE92E00E94EE118D819E81AF
:10163000029731F06FE072E082EE92E00E940D19A5
:10164000BE016F5F7F4F82EE92E00E94FF18FF2085
:1016500061F063E0600F412F82EE92E00E94DC10A7
:1016600063E082EE92E00E94EE11CE0101960E94AC
:10167000D41E26960FB6F894DEBF0FBECDBFDF9105
:10168000CF911F910F91FF9008958F929F92AF92EB
:10169000BF92CF92DF92EF92FF920F931F93CF935F
:1016A000DF9340E067E082EE92E00E94DC1061E1AF
:1016B00072E082EE92E00E940D198091AC0290914E
:1016C000AD02813D910529F06AE070E00E941C2482
:1016D00002C065E170E07093C3026093C202C3E68A
:1016E000D0E05AE0F52E0AE010E085E190E00E949B
:1016F000C404811142C00E941E068091C2029091D2
:10170000C302843691052CF0D093C302C093C20269
:101710000AC08091C2029091C30297FF04C0109248
:10172000C3021092C2022091C2023091C302F29E03
:10173000C001F39E900D11249093AD028093AC02F2
:10174000B8010E941C24CB0121E030E047E050E0CA
:1017500061E00E94F60A6CE172E082EE92E00E9483
:101760000D1921E030E04DE050E060E08091CA02C8
:101770009091CB020E94F60AB8CF41E067E082EE7A
:1017800092E00E94DC1067E571E082EE92E00E9438
:101790000D198091CA029091CB029093C30280935D
:1017A000C2020AE010E046EFE42EFF24FA9485E13D
:1017B00090E00E94C40481117FC00E941E06E09147
:1017C000C202F091C3022091AC023091AD02C90176
:1017D000B8010E941C24EB01E60FF71FE436F10567
:1017E0005CF0C901B7010E941C246C597F4F7093B3
:1017F000C3026093C2020AC08091C2029091C302E8
:1018000097FF04C01092C3021092C202C090C2029D
:10181000D090C302B901882777FD8095982F0E9448
:10182000012320E030E040E251E40E9466224B01B7
:101830005C01B601882777FD8095982F0E940123CF
:101840009B01AC0160E070E088EC92E40E94FD2115
:101850009B01AC01C501B4010E94662220E030E08A
:101860004AE754E40E94B5230E94CE227093B80246
:101870006093B7028091C2029091C3029093CB0211
:101880008093CA0221E030E048E050E060E0CE0101
:101890000E94F60A6BE172E082EE92E00E940D195E
:1018A00021E030E04CE050E061E08091CA0290918C
:1018B000CB020E94F60A7BCF0E943C0540E067E025
:1018C00082EE92E00E94DC1065E072E082EE92E02F
:1018D0000E940D198091B9029091BA029093C302AF
:1018E0008093C202C8EED3E085E190E00E94C40478
:1018F000811142C00E941E068091C2029091C302D3
:10190000893E93402CF0D093C302C093C2020AC018
:101910008091C2029091C30297FF04C01092C3024B
:101920001092C2026091C2027091C3027093BA0217
:101930006093B9028091C2029091C3029093AF026A
:101940008093AE02882777FD8095982F0E9401230F
:1019500020E030E040E251E40E94662201E010E025
:1019600028E030E041E00E94B20560E671E082EEDE
:1019700092E00E940D19B8CF0E943C0581E090E0F2
:101980009093CE028093CD02DF91CF911F910F9162
:10199000FF90EF90DF90CF90BF90AF909F908F908F
:1019A00008950F931F93CF93DF930E94DF166093E8
:1019B000D3027093D4028093D5029093D6021092F2
:1019C000C3021092C202C091C202D091C3020E940F
:1019D0003C0540E068E082EE92E00E94DC106EE19F
:1019E00072E082EE92E00E940D1941E06AE082EE20
:1019F00092E00E94DC1066E272E082EE92E00E94C9
:101A00000D190E94DF160091D3021091D40220918B
:101A1000D5023091D602601B710B820B930B663D91
:101A200076408105910538F48091C2029091C302FD
:101A3000892B09F4F2C00E943C051092C302109257
:101A4000C20204E010E00E941E068091C202909142
:101A5000C302059724F01092C3021092C202809133
:101A6000C2029091C30297FF04C01093C302009377
:101A7000C2028091C2029091C3028C179D0731F07F
:101A80000E943C05C091C202D091C3028091C20263
:101A90009091C3028230910509F45CC02CF4009748
:101AA00059F0019781F1CFCF8330910509F483C0BC
:101AB000049709F499C0C7CF40E067E082EE92E056
:101AC0000E94DC106BE272E082EE92E00E940D193F
:101AD00041E067E082EE92E00E94DC1061EF71E08D
:101AE00082EE92E00E940D1985E190E00E94C4040C
:101AF000882309F4A8CF0E943C05DF91CF911F9164
:101B00000F910C94450B40E067E082EE92E00E945A
:101B1000DC1063E372E082EE92E00E940D1941E076
:101B200067E082EE92E00E94DC106DE372E082EEEC
:101B300092E00E940D1985E190E00E94C404882380
:101B400009F481CF0E943C05DF91CF911F910F9145
:101B50000C94BF0940E067E082EE92E00E94DC1046
:101B600065E472E082EE92E00E940D1941E067E0C8
:101B700082EE92E00E94DC106DE372E082EE92E071
:101B80000E940D1985E190E00E94C404882309F4A5
:101B90005ACF0E943C051092CE021092CD0260E016
:101BA00087E10E944E1860E086E1DF91CF911F919E
:101BB0000F910C944E1840E067E082EE92E00E9494
:101BC000DC106DE472E082EE92E00E940D1985E176
:101BD00090E00E94C404882309F435CFDF91CF91AF
:101BE0001F910F910C94BB0640E067E082EE92E0FB
:101BF0000E94DC1067E572E082EE92E00E940D190F
:101C000085E190E00E94C404882309F41CCFDF9191
:101C1000CF911F910F910C943C050E941E06F1CEAE
:101C2000CF92DF92EF92FF920F931F938091CC029D
:101C3000882309F412C28091CD029091CE02892BA3
:101C400009F056C085EB92E00E94C60340E067E0D1
:101C5000811107C082EE92E00E94DC1066E571E01F
:101C600018C082EE92E00E94DC1062E082EE92E008
:101C70000E94EE118091B5029091B6020E942F034E
:101C800000E010E028E030E040E00E94B2056CE5A2
:101C900072E082EE92E00E940D198AEA92E00E94C0
:101CA000C60341E067E0811107C082EE92E00E9426
:101CB000DC1066E571E018C082EE92E00E94DC1054
:101CC00062E082EE92E00E94EE118091AA02909171
:101CD000AB020E942F0301E010E028E030E040E07A
:101CE0000E94B2056CE572E082EE92E00E940D194E
:101CF0008091CD029091CE02019709F026C18AEA27
:101D000092E00E94C603811122C040E068E082EEAA
:101D100092E00E94DC1060E672E082EE92E00E94A7
:101D20000D1941E067E082EE92E00E94DC1066E56A
:101D300071E082EE92E00E940D1961E087E10E945D
:101D40004E1861E086E10E944E180E941E068AEA43
:101D500092E00E94C603882309F4F7C040E067E0E0
:101D600082EE92E00E94DC1085EB92E00E94C603B6
:101D70008823B1F062E082EE92E00E94EE11809141
:101D8000B7029091B8026AE070E00E941C24CB0177
:101D900020E030E048E050E060E00E94F60A06C033
:101DA0006CE571E082EE92E00E940D1940E06AE07D
:101DB00082EE92E00E94DC1069E672E082EE92E030
:101DC0000E940D1941E067E082EE92E00E94DC1073
:101DD0008AEA92E00E94C6038823B1F062E082EEB4
:101DE00092E00E94EE118091AC029091AD026AE007
:101DF00070E00E941C24CB0121E030E048E050E07C
:101E000060E00E94F60A06C06CE571E082EE92E0A6
:101E10000E940D198AEA92E00E94D80320E030E087
:101E200040E05FE30E94FE210E94CE22DC01CB0154
:101E300021E030E04BE050E060E00E94F60A6CE107
:101E400072E082EE92E00E940D1985EB92E00E9412
:101E5000C6038823D9F085EB92E00E94D8036B017A
:101E60007C018AEA92E00E94D8039B01AC01C70181
:101E7000B6010E94FD216B017C0185EB92E00E947E
:101E8000D8039B01AC01C701B60110C08AEA92E0F9
:101E90000E94D8039B01AC0163E373E387EA91E4FA
:101EA0000E94FD2123E333E347EA51E40E946622C6
:101EB00020E030E048EC52E40E94B52320E030E01E
:101EC00040E05FE30E94FE210E94CE227093C9028F
:101ED0006093C8028091C8029091C90297FF04C024
:101EE0001092C9021092C80221E030E04EE050E0AA
:101EF00060E08091C8029091C9020E94F60A8AEAC5
:101F000092E00E940D048823C1F08091C802909154
:101F1000C9024091CA025091CB022091AE02309189
:101F2000AF02BA01620F731F6817790734F0421BC2
:101F3000530B841795070CF084C061E087E10E9481
:101F40004E1861E086E10E944E188091CD0290917A
:101F5000CE02029709F072C040E067E082EE92E0A4
:101F60000E94DC1085EB92E00E94C6038823E9F012
:101F700062E082EE92E00E94EE116091B7027091F1
:101F8000B802882777FD8095982F0E94012320E0D2
:101F900030E040E251E40E94662200E010E028E0D8
:101FA00030E040E00E94B20506C066E571E082EED6
:101FB00092E00E940D1941E067E082EE92E00E94FB
:101FC000DC108AEA92E00E94C6038823E9F062E00E
:101FD00082EE92E00E94EE116091AC027091AD022F
:101FE000882777FD8095982F0E94012320E030E01C
:101FF00040E251E40E94662201E010E028E030E077
:1020000040E00E94B20506C066E571E082EE92E013
:102010000E940D1985EB92E00E940D04882331F097
:102020008AEA92E00E940D04811111C061E087E10B
:102030000E944E1861E086E10E944E181092CC0278
:102040000CC060E087E10E944E1860E07BCF60E04A
:1020500087E10E944E1860E0EECF1F910F91FF9034
:10206000EF90DF90CF9008950E941E060E94100E00
:1020700085E190E00E94C40481110C94D10C089574
:10208000CF93DF93EC0160E08E810E944E1881E0D7
:1020900090E00E94481761E08E810E944E1881E016
:1020A00090E00E94481760E08E810E944E1884E6FE
:1020B00090E0DF91CF910C944817EF92FF920F932D
:1020C0001F93CF93DF938C01C0E0D0E0E62EF12C7C
:1020D000B7010C2E02C0759567950A94E2F76170FE
:1020E000F801EC0FFD1F87810E944E182196C43025
:1020F000D10571F7C801DF91CF911F910F91FF902A
:10210000EF900C944010EF92FF920F931F93CF9398
:10211000DF938C01C0E0D0E0E62EF12CB7010C2E4D
:1021200002C0759567950A94E2F76170F801EC0FAB
:10213000FD1F87810E944E182196C830D10571F786
:10214000C801DF91CF911F910F91FF90EF900C94F8
:1021500040101F93CF93DF93EC01162F642F8C81D7
:102160000E944E188D818F3F19F060E00E944E183A
:102170008F85612F84FF06C0CE01DF91CF911F9123
:102180000C94831070E084E0759567958A95E1F76B
:10219000CE010E945D10612FCE01DF91CF911F9182
:1021A0000C945D1040E00C94A91061E00E94D210E4
:1021B00080ED97E00C944817443008F043E0FC01B0
:1021C0002389421710F04FEF420FFC01E40FF11D7D
:1021D0002489260F2068622F0C94D210FC0160899C
:1021E000262F2460208B6C600C94D2100F931F93C9
:1021F000CF93DF93EC01423018F08F8588608F8792
:102200004B8B1C8A80E48D8B6E8B70E0605C7F4F03
:102210006F8B222329F0413019F48F8584608F87DA
:1022200061E08C810E9415188D818F3F19F061E06B
:102230000E94151861E08E810E94151800E010E0E0
:102240008F8584FF03C088E090E002C084E090E0C6
:102250000817190754F4FE01E00FF11F61E08781B0
:102260000E9415180F5F1F4FEBCF80E593EC0E9483
:10227000481760E08C810E944E1860E08E810E94B9
:102280004E188D818F3F19F060E00E944E186F85C7
:1022900064FD1DC063E0CE010E945D1084E991E100
:1022A0000E94481763E0CE010E945D1084E991E12D
:1022B0000E94481763E0CE010E945D1086E990E01D
:1022C0000E94481762E0CE010E945D1016C0606255
:1022D000CE010E94D21084E991E10E9448176F85D7
:1022E0006062CE010E94D21086E990E00E944817F9
:1022F0006F856062CE010E94D2106F856062CE0150
:102300000E94D21084E0888BCE010E94EE10CE0194
:102310000E94D51082E0898B66E0CE01DF91CF91DB
:102320001F910F910C94D210CF92EF920F93FC015A
:102330001382128284E792E09183808364838FEF1B
:102340008583468327830087E186C28613861486A9
:1023500015861686178620E041E060E1CF010F91D7
:10236000EF90CF900C94F610CF92DF92EF92FF9205
:102370000F931F93CF93DF9300D0CDB7DEB78C01BF
:10238000677088E0689FB00111246064C8014983C8
:102390005A830E94D2104981C42E5A81D52EE12C35
:1023A000F12CD6016D916D01D801ED91FC91019058
:1023B000F081E02DC8010995BFEFEB1AFB0AE8E0B8
:1023C000EE16F10471F70F900F90DF91CF911F91EE
:1023D0000F91FF90EF90DF90CF90089541E00E9421
:1023E000A91081E090E00895FC01148213826083BB
:1023F00088E08183128208958AEF92E00C9438136A
:10240000FC017483638308951F93CF93DF9300D0FF
:10241000CDB7DEB7162F682F8AEF92E04A83598333
:102420000E945213612F8AEF92E00E94F9125981A3
:10243000652F8AEF92E00E94F9124A81642F8AEF99
:1024400092E00E94F9128AEF92E00F900F90DF91D4
:10245000CF911F910C946F131F93CF93DF93182F7D
:10246000682F8AEF92E00E94521360E08AEF92E0B8
:102470000E94F9128AEF92E00E946F1342E0612FEE
:102480008AEF92E00E944F138AEF92E00E94A91215
:10249000182F8AEF92E00E94A912D12F20E0C22FBC
:1024A0009E01282BC901DF91CF911F910895CF93F1
:1024B000DF93EC014B815C814368516861E0888166
:1024C0000E940412698170E080E090E00E940E1783
:1024D00088810E942C122A81022E02C0969587952F
:1024E0000A94E2F7222329F0811528E0920708F0E8
:1024F000906FDF91CF910895CF93DF93EC014B81E3
:102500005C814368516B61E088810E94041269819B
:1025100070E080E090E00E940E1788810E942C12EB
:102520002A81022E02C0969587950A94E2F722230B
:1025300029F0811528E0920708F0906FDF91CF9184
:10254000089580912A0390E020912B03821B91092A
:10255000089520912B0380912A03281750F4E22F2D
:10256000F0E0E45DFC4F808190E02F5F20932B032F
:1025700008958FEF9FEF0895E0912B0380912A0338
:10258000E81730F4F0E0E45DFC4F808190E00895BE
:102590008FEF9FEF08950895CF92DF92EF92FF9211
:1025A0000F931F93CF93DF937C01CB018A0120917E
:1025B0000603222389F0EB016B01C40ED51ECC1556
:1025C000DD0569F06991D701ED91FC910190F081F1
:1025D000E02DC7010995F3CF642F0E942B14C80189
:1025E000DF91CF911F910F91FF90EF90DF90CF90EF
:1025F0000895CF93DF931F92CDB7DEB76983209103
:1026000006032223D1F020910703203240F021E07D
:1026100030E0FC013383228380E090E015C080919C
:102620000803E82FF0E0E75FFC4F998190838F5F0C
:10263000809308038093070305C061E0CE010196F3
:102640000E942B1481E090E00F90DF91CF910895CC
:10265000FC011382128248EE53E060E070E0448394
:102660005583668377838CE792E091838083089516
:1026700010922B0310922A03109208031092070362
:102680000C947613862F413208F040E26CE273E03E
:102690000E94941310922B0380932A03089521E043
:1026A0000C94421381E080930603609329031092F7
:1026B00008031092070308950F93062F21E040911D
:1026C000070369E073E0809129030E94D8131092F8
:1026D000080310920703109206030F91089561E01A
:1026E0000C945C138AEF92E00C9428131092B903B7
:1026F00081E08093B7031092B60361E082E00E940C
:102700004E1861E083E00E944E18E9EBF0E0808112
:102710008E7F808380818D7F808380E28093B8006C
:1027200085E48093BC000895413208F03FC0909149
:10273000B9039111FCCF91E09093B9032093B703B3
:102740002FEF20934C0310929103240F20939003BA
:102750009093B8039091B803880F892B8093B803A6
:102760008091B603813041F41092B6038091B80392
:102770008093BB0085EC01C085EE8093BC00809106
:10278000B9038130E1F380919103841710F44091F3
:10279000910322E933E0FB01D9018A2F821B8417C0
:1027A00018F48D918193F9CF842F089580E00895D6
:1027B0000F93413208F046C09091B9039111FCCFBC
:1027C00092E09093B9030093B7039FEF90934C036B
:1027D0001092910340939003FB0162E973E0DB01E7
:1027E0009A2F961B941718F491919D93F9CF1092FC
:1027F000B8039091B803880F892B8093B803809118
:10280000B603813041F41092B6038091B8038093EF
:10281000BB0085EC01C085EE8093BC00222321F033
:102820008091B9038230E1F380914C038F3F61F0D6
:1028300080914C03803251F080914C03803341F4FD
:1028400083E007C081E005C080E003C082E001C0F2
:1028500084E00F910895613298F42091B9032430F7
:1028600089F460936E03FC0180E793E0DC012A2F7A
:10287000281B261718F421912D93F9CF80E0089595
:1028800081E0089582E0089585ED8093BC008091F9
:10289000BC0084FDFCCF1092B903089585EC8093B1
:1028A000BC001092B90308951F920F920FB60F92B9
:1028B00011242F933F934F935F936F937F938F9345
:1028C0009F93AF93BF93EF93FF938091B900887F5D
:1028D000803609F49CC068F5883209F45BC090F436
:1028E000803109F454C038F4882309F4F5C08830E5
:1028F00009F44DC0F5C0883109F44CC0803209F4A8
:102900005DC0EEC0803409F468C048F4803309F437
:1029100055C0883309F0E4C080934C03A8C08035CB
:1029200009F44FC0883509F45DC0883409F0D8C077
:10293000D5C0883909F4C6C0A8F4883709F467C03F
:1029400038F4883609F463C0803709F460C0C8C021
:10295000883809F4B7C0803909F45FC0803809F0BD
:10296000BFC05BC0803B09F485C038F4803A09F4ED
:1029700066C0883A09F47EC0B3C0803C09F4A6C0A2
:10298000883C09F4A3C0883B09F489C0A9C08091A0
:10299000B80310C09091910380919003981770F53F
:1029A000E091910381E08E0F80939103F0E0EE5669
:1029B000FC4F80818093BB0085EC85C080934C03E5
:1029C0008DC0E091910381E08E0F809391038091FF
:1029D000BB00F0E0EE56FC4F808390919103809114
:1029E00090036DC0E091910381E08E0F809391037D
:1029F0008091BB00F0E0EE56FC4F80838091B703DE
:102A000081116CC081E08093B60384EA60C083E0EA
:102A10008093B90310924D03CFCF80914D03803244
:102A200008F050C0E0914D0381E08E0F80934D037C
:102A30008091BB00F0E0E25BFC4F8083BDCF8091D2
:102A40004D03803230F4E0914D03F0E0E25BFC4F47
:102A500010820E94441460914D0370E0E091B20333
:102A6000F091B3038EE493E0099510924D030E9418
:102A70004E1436C084E08093B90310926F03109215
:102A80006E03E091B403F091B503099580916E0354
:102A9000811105C081E080936E0310927003E09174
:102AA0006F0381E08E0F80936F03F0E0E059FC4FDD
:102AB00080818093BB0090916F0380916E03981783
:102AC00008F47ACF85E88093BC000AC085EC809337
:102AD000BC001092B90304C010924C030E9444142D
:102AE000FF91EF91BF91AF919F918F917F916F91E6
:102AF0005F914F913F912F910F900FBE0F901F90BC
:102B000018950895853008F04CC0E82FF0E0EE0FDE
:102B1000FF1FE85CFE4F718360838230E1F018F4A0
:102B2000813069F004C0833019F1843071F18091F3
:102B300069008C7F842B80936900E89A08958091C6
:102B40006900440F551F440F551F837F842B8093CA
:102B50006900E99A08958091690034E0440F551F97
:102B60003A95E1F78F7C842B80936900EA9A089567
:102B70008091690026E0440F551F2A95E1F78F7375
:102B8000842B80936900EB9A089580916A0094E009
:102B9000440F551F9A95E1F78F7C842B80936A0030
:102BA000EE9A08951F920F920FB60F9211242F9351
:102BB0003F934F935F936F937F938F939F93AF93C5
:102BC000BF93EF93FF93E0913801F091390109959C
:102BD000FF91EF91BF91AF919F918F917F916F91F5
:102BE0005F914F913F912F910F900FBE0F901F90CB
:102BF00018951F920F920FB60F9211242F933F93A7
:102C00004F935F936F937F938F939F93AF93BF93F4
:102C1000EF93FF93E0913A01F0913B010995FF9109
:102C2000EF91BF91AF919F918F917F916F915F9144
:102C30004F913F912F910F900FBE0F901F901895BD
:102C40001F920F920FB60F9211242F933F934F9321
:102C50005F936F937F938F939F93AF93BF93EF9304
:102C6000FF93E0913C01F0913D010995FF91EF91B7
:102C7000BF91AF919F918F917F916F915F914F9194
:102C80003F912F910F900FBE0F901F9018951F929C
:102C90000F920FB60F9211242F933F934F935F9390
:102CA0006F937F938F939F93AF93BF93EF93FF9314
:102CB000E0913E01F0913F010995FF91EF91BF91A5
:102CC000AF919F918F917F916F915F914F913F91C4
:102CD0002F910F900FBE0F901F9018951F920F927B
:102CE0000FB60F9211242F933F934F935F936F93DF
:102CF0007F938F939F93AF93BF93EF93FF93E09155
:102D00004001F09141010995FF91EF91BF91AF9181
:102D10009F918F917F916F915F914F913F912F91F3
:102D20000F900FBE0F901F9018951F920F920FB625
:102D30000F9211242F933F938F939F93AF93BF9341
:102D40008091BB039091BC03A091BD03B091BE03E1
:102D50003091BA0326E0230F2D3720F40296A11DEF
:102D6000B11D05C029E8230F0396A11DB11D2093B5
:102D7000BA038093BB039093BC03A093BD03B093AD
:102D8000BE038091BF039091C003A091C103B09195
:102D9000C2030196A11DB11D8093BF039093C00390
:102DA000A093C103B093C203BF91AF919F918F9144
:102DB0003F912F910F900FBE0F901F9018952FB736
:102DC000F8946091BB037091BC038091BD03909116
:102DD000BE032FBF08953FB7F8948091BF03909131
:102DE000C003A091C103B091C20326B5A89B05C042
:102DF0002F3F19F00196A11DB11D3FBF6627782F07
:102E0000892F9A2F620F711D811D911D43E0660F5E
:102E1000771F881F991F4A95D1F708958F929F9227
:102E2000AF92BF92CF92DF92EF92FF926B017C0143
:102E30000E94EB164B015C01C114D104E104F104C2
:102E4000F1F00E9453200E94EB16681979098A0953
:102E50009B09683E73408105910570F321E0C21A19
:102E6000D108E108F10888EE880E83E0981EA11CC5
:102E7000B11CC114D104E104F10429F7DDCFFF90A6
:102E8000EF90DF90CF90BF90AF909F908F9008957C
:102E90008330910528F0880F991F04970197F1F767
:102EA0000895789484B5826084BD84B5816084BDC2
:102EB00085B5826085BD85B5816085BDEEE6F0E0B3
:102EC000808181608083E1E8F0E01082808182600F
:102ED0008083808181608083E0E8F0E08081816090
:102EE0008083E1E9F0E0808182608083808181607D
:102EF0008083E0E9F0E0808181608083E1ECF0E0B4
:102F00008081846080838081826080838081816011
:102F10008083E3ECF0E0808181608083E0ECF0E08E
:102F2000808182608083E2ECF0E080818160808338
:102F3000EAE7F0E080818460808380818260808322
:102F400080818E7F80838081806880830895823134
:102F500008F08251E82FF0E0E653FF4FE4918091B2
:102F60007B00E3FB222720F930E095E0220F331F9E
:102F70009A95E1F78F7D822B80937B00E77080919B
:102F8000420120E4829FC0011124E82BE0937C00E1
:102F900080917A00806480937A0080917A0086FD27
:102FA000FCCF809178002091790090E0922B0895D9
:102FB00090E0FC013197EF30F105B0F5EA5AFF4F90
:102FC0000C945224809180008F7703C08091800000
:102FD0008F7D80938000089580918000877FF9CF56
:102FE00084B58F7702C084B58F7D84BD08958091AC
:102FF00090008F7707C0809190008F7D03C08091F3
:103000009000877F8093900008958091C0008F7713
:1030100003C08091C0008F7D8093C000089580918F
:10302000C200877F8093C2000895CF93DF9390E022
:10303000FC01EB50FF4F2491FC01EC5EFE4F8491AC
:10304000882349F190E0880F991FFC01E15BFE4F56
:10305000A591B4918F5B9E4FFC01C591D4919FB710
:10306000611108C0F8948C91209582238C938881FB
:1030700082230AC0623051F4F8948C91322F30953B
:1030800083238C938881822B888304C0F8948C914D
:10309000822B8C939FBFDF91CF9108950F931F9345
:1030A000CF93DF931F92CDB7DEB7282F30E0F90121
:1030B000EA52FF4F8491F901EB50FF4F1491F9014F
:1030C000EC5EFE4F04910023C9F0882321F0698350
:1030D0000E94D8176981E02FF0E0EE0FFF1FEF5B31
:1030E000FE4FA591B4919FB7F8948C91611103C0E4
:1030F0001095812301C0812B8C939FBF0F90DF918E
:10310000CF911F910F910895CF93DF93282F30E037
:10311000F901EA52FF4F8491F901EB50FF4FD4912E
:10312000F901EC5EFE4FC491CC2391F081110E9415
:10313000D817EC2FF0E0EE0FFF1FED5CFE4FA591CE
:10314000B4912C912D2381E090E021F480E002C025
:1031500080E090E0DF91CF91089508950E9451178B
:103160000E94AD1883EC93E00E94B91E0E94EF0804
:10317000C0E0D0E00E9434102097E1F30E940000EC
:10318000F9CFCF92DF92EF92FF920F931F93CF93DD
:10319000DF937C016A01EB0100E010E00C151D05D6
:1031A00071F06991D701ED91FC910190F081E02DD2
:1031B000C7010995892B19F00F5F1F4FEFCFC80189
:1031C000DF91CF911F910F91FF90EF90DF90CF9003
:1031D00008956115710581F0DB010D900020E9F77C
:1031E000AD0141505109461B570BDC01ED91FC919B
:1031F0000280F381E02D099480E090E00895DC01E5
:10320000ED91FC91DB0114964D915C9115976D91B8
:103210007C910280F381E02D09940C94E918DC0183
:10322000ED91FC910190F081E02D09948F929F9295
:10323000AF92BF92DF92EF92FF920F931F93CF93C3
:10324000DF93CDB7DEB7A1970FB6F894DEBF0FBE00
:10325000CDBF7C01F42FD52ECB0119A2223008F46A
:103260002AE08E010F5D1F4F822E912CA12CB12CD4
:103270006F2F7D2DA50194010E943024F22FD32EB3
:10328000CA01015011096A3014F4E0E301C0E7E318
:10329000E60FD801EC93232B242B252B49F7B801FB
:1032A000C7010E94E918A1960FB6F894DEBF0FBEC1
:1032B000CDBFDF91CF911F910F91FF90EF90DF90E5
:1032C000BF90AF909F908F900895CF92DF92EF9232
:1032D000FF920F931F93CF93DF93EC016A017B0161
:1032E0002115310579F4E881F9810190F081E02D13
:1032F000642FDF91CF911F910F91FF90EF90DF909E
:10330000CF9009942A303105E9F477FF1AC06DE2B5
:103310000E940F198C0144275527BA014C195D09E9
:103320006E097F092AE0CE010E941619800F911FB5
:10333000DF91CF911F910F91FF90EF90DF90CF9091
:1033400008952AE0B701A601CE01DF91CF911F9128
:103350000F91FF90EF90DF90CF900C9416194F9241
:103360005F926F927F928F929F92AF92BF92CF9215
:10337000DF92EF92FF920F931F93CF93DF93EC01B5
:103380006A017B01B22E9A01AB01C701B6010E940E
:103390001824882319F06BE872E027C02601370152
:1033A000E89477F82FEF3FEF4FE75FE7C301B201F3
:1033B0000E94182481110DC02FEF3FEF4FE75FE708
:1033C000C301B2010E94622218161CF46FE872E079
:1033D0000CC02FEF3FEF4FE75FE4C701B6010E943B
:1033E000B1231816ACF463E972E0CE01DF91CF91FE
:1033F0001F910F91FF90EF90DF90CF90BF90AF9013
:103400009F908F907F906F905F904F900C94E918F1
:103410002FEF3FEF4FE75FECC701B6010E9462223A
:1034200087FDE1CF20E030E0A901C701B6010E948D
:10343000622287FF0AC06DE2CE010E940F198C0143
:10344000F7FAF094F7F8F09402C000E010E0A12C35
:1034500060E070E080E09FE3AB1441F020E030E0FA
:1034600040E251E40E946622A394F6CF9B01AC0196
:10347000C701B6010E94FE216B017C010E94D3228C
:103480002B013C010E94FF229B01AC01C701B60148
:103490000E94FD216B017C012AE0B301A201CE0153
:1034A0000E941619080F191FBB2039F067E972E056
:1034B000CE010E94E918080F191F7B2C772041F1DB
:1034C00020E030E040E251E4C701B6010E94B5239C
:1034D0006B017C010E94CE224B01AA2497FCA09490
:1034E000BA2C2AE030E0B501A401CE010E94651992
:1034F000080F191FC501B4010E9401239B01AC01F3
:10350000C701B6010E94FD216B017C017A94D6CFE0
:10351000C801DF91CF911F910F91FF90EF90DF9045
:10352000CF90BF90AF909F908F907F906F905F9063
:103530004F9008950C94AF194091C7035091C80360
:103540002091C5033091C60342175307B4F49091FC
:10355000E8009570E1F39091E80092FD19C0809326
:10356000F1008091C7039091C80301968F7399274A
:10357000892B19F48EEF8093E8008091C703909116
:10358000C80301969093C8038093C70381E0089510
:1035900080E00895CF92DF92EF92FF920F931F93F6
:1035A000CF93DF931F92CDB7DEB7082F162FF42EDF
:1035B000862F880F8E5F99830E949C1A83E00E9459
:1035C0009C1AE02EC02E9981D92E8C2D8E19811730
:1035D00098F4F601F7FE02C0849101C080810E9438
:1035E0009C1A082F80E00E949C1A8023FFEFCF1ABC
:1035F000DF0A8111EACF01C081E00F90DF91CF9106
:103600001F910F91FF90EF90DF90CF9008958091E0
:10361000D70081608093D70080EA8093D80089B575
:103620008F7E89BD89B5826089BD09B400FEFDCF5A
:1036300061E070E080E090E00E940E178091D80079
:103640008F7C80618093D8008091E000807F8093A0
:10365000E0000895CF93DF931F92CDB7DEB71982B4
:10366000CE0101960E94B1200E94E921BE016F5F48
:103670007F4F0E94622189810F90DF91CF91089541
:103680002FB7FC012083F89467706093E9000895D8
:10369000CF93DF931F92CDB7DEB7682FCE0101968F
:1036A0000E94401B8091F20099819FBF0F90DF9193
:1036B000CF910895FF920F931F93CF93DF9300D084
:1036C000CDB7DEB7F62E8A019091CB03992311F086
:1036D00057FF03C08FEF9FEF2AC0682FCE010196DE
:1036E0007A830E94401B8091F20090E0A8017A81C9
:1036F000801791070CF4AC01EF2DF72FF40E84E640
:10370000FE1631F08093CC039091F1009193F8CFA5
:103710004115510521F08091F200882321F0898123
:103720008FBFCA0104C08BE68093E800F8CF0F90EA
:103730000F90DF91CF911F910F91FF900895CF933C
:10374000DF931F92CDB7DEB741E050E0BE016F5F5F
:103750007F4F0E945A1B019719F4898190E002C0A3
:103760008FEF9FEF0F90DF91CF910895CF93DF936D
:103770001F92CDB7DEB7682FCE0101960E94401B85
:103780009091E800892F807295FF04C09091F2001B
:1037900080E4891B99819FBF0F90DF91CF9108959D
:1037A0006F927F928F929F92AF92BF92CF92DF9251
:1037B000EF92FF920F931F93CF93DF931F92CDB79A
:1037C000DEB7782E7B01C42EB52E8091CB038823E3
:1037D00069F0042F152F8AEFD82E872D8072982E2E
:1037E0009AE3A92E872D8074882E11C08FEF9FEF4A
:1037F00056C0872D0E94B61B682E81110CC0DA942A
:10380000A9F361E070E080E090E00E940E170115DE
:10381000110579F73BC0282F30E0021713070CF48D
:10382000602E672DCE0101960E94401B8091E8001A
:1038300085FF29C0262D30E0021B130B992039F09B
:103840006A948FEF6816B1F01092F100F9CFF7018A
:10385000862D77FE07C0815058F094919093F10027
:103860003196F9CF815020F091919093F100FACFE9
:10387000E20EF31E8091E80085FF0EC001151105D0
:1038800011F4811009C089818FBFC1CF84E6809374
:10389000CD038C2D9B2D03C0A092E800F4CF0F9098
:1038A000DF91CF911F910F91FF90EF90DF90CF901C
:1038B000BF90AF909F908F907F906F9008951092DF
:1038C000E9001092C8031092C7039093C603809337
:1038D000C5030895CF92DF92FF920F931F93CF936A
:1038E000DF9300D0CDB7DEB7F82E8A016B0101154A
:1038F0001105B1F0F601F7FE02C0849101C080818C
:1039000049835A830E949C1A01501109FFEFCF1A74
:10391000DF0A49815A818111EACF8FEF9FEF01C001
:10392000CA010F900F90DF91CF911F910F91FF90DF
:10393000DF90CF900895CF93DF939B01A4E6BBEF78
:1039400021153105F9F0A9012134310514F040E4C5
:1039500050E0E091E800E2FFFCCFFB01E21BF30B3B
:10396000E80FF91FCE2FC40FCE1729F0D091F10028
:10397000D0833196F9CFA093CC03B093E800241BF9
:10398000350BDECFCB01DF91CF9108951F920F92BF
:103990000FB60F921124DF92EF92FF920F931F93B5
:1039A0002F933F934F935F936F937F938F939F9347
:1039B000AF93BF93EF93FF93CF93DF93CDB7DEB772
:1039C0006C97DEBFCDBF1092E9008091E80083FFC5
:1039D0002EC1FE0175968F01AE01435E5F4F9F01C0
:1039E0002F5F3F4F8091F10080832417350711F03E
:1039F000F901F5CF84E68093CC0382EF8093E80051
:103A00005D8957FF05C08091E80080FFFCCF03C0AF
:103A10008EEF8093E800852F807609F0EFC04E8905
:103A20008F89D88C41110CC0503829F48091CA0379
:103A30008093F10002C01092F1001092F100F0C0EA
:103A4000282F30E03D29413051F45111E9C0213097
:103A5000310509F0E5C08091CA038D7F0BC043306A
:103A600061F45111DDC02130310509F0D9C08091D8
:103A7000CA0382608093CA03D3C0453041F4909159
:103A8000E80090FFFCCF80688093E300C9C0463017
:103A900009F08BC0EB8CFC8C22E0D2122CC080E0B1
:103AA00090E00E945F1C0E942A1B99E08E010F5F2C
:103AB0001F4FF801292F11922A95E9F79983DA828D
:103AC00091E09E8390EA98879AEF99872091C703A7
:103AD0003091C803275F3F4F3C832B838D83C70101
:103AE0000E945F1C49E050E0B80180E00E946A1C1F
:103AF0000E942A1B95C0C7010E945F1C0E94E921F9
:103B0000B8010E948B21009719F00CF089C08CC07D
:103B100081E0D8120EC08B8D9C8D089719F481E03E
:103B20008093C4038091C40381112FC06FE671E0BC
:103B300031C0E3E0DE1278C08F89882349F18230FA
:103B400029F440E86CE08AE891E01CC0813029F457
:103B500040E868E081E891E015C0833009F064C076
:103B60000E94E9218E010F5F1F4FB8010E94AA2118
:103B7000F80101900020E9F73197E01BF10B40E0DC
:103B80006E2FC8010E94CA1A49C06DE571E002C0DB
:103B900067E971E06115710509F446C0FB014491C4
:103BA00050E080E80E946A1C3BC04730E9F1483091
:103BB00021F481E08093F10033C0493089F55370DE
:103BC00099F5E4E4F1E081E021E036E39081992386
:103BD00061F08093E9002093EB0091919093EC00C9
:103BE0003093ED008F5F873089F78EE78093EA008E
:103BF0001092EA008F898093CB0312C08B8D9C8D2D
:103C00000E945F1C898D811104C0C8010E94BC20E4
:103C100005C00E94E921B8010E94C921882321F032
:103C20008EEF8093E80003C081E28093EB006C96F6
:103C30000FB6F894DEBF0FBECDBFDF91CF91FF91DD
:103C4000EF91BF91AF919F918F917F916F915F9114
:103C50004F913F912F911F910F91FF90EF90DF9027
:103C60000F900FBE0F901F9018958093E9008091E0
:103C7000F200882319F08AE38093E80008951F92E8
:103C80000F920FB60F9211242F933F934F935F9390
:103C90006F937F938F939F93AF93BF93CF93EF9344
:103CA000FF93C091E1008091E100837F8093E10068
:103CB0008093E100C3FF0FC01092E90081E0809380
:103CC000EB001092EC0082E38093ED001092CB03A6
:103CD00088E08093F000C2FF15C083E00E94351E8B
:103CE0008091CD03882329F08091CD03815080936A
:103CF000CD038091CC03882329F08091CC0381509F
:103D00008093CC03C4FF10C08091E2008E7E81605E
:103D10008093E2008091E1008F7E8093E1008091AA
:103D2000C9038E7E806111C0C0FF11C08091E20086
:103D30008E7E80618093E2008091E1008E7E809390
:103D4000E1008091C9038E7E81608093C903FF9159
:103D5000EF91CF91BF91AF919F918F917F916F9193
:103D60005F914F913F912F910F900FBE0F901F9039
:103D700018951092CB031092CA031092C9030E94A7
:103D8000071B8091E1008E7E8093E1008DE080939F
:103D9000E200EEEFFFE7859194918B3F9C4D19F483
:103DA00081E080931E040895FC01808191810C9430
:103DB0002525CF93DF93EC0188819981009711F03D
:103DC0000E942525198218821D821C821B821A825C
:103DD000DF91CF9108950F931F93CF93DF93EC0161
:103DE0008B016F5F7F4F888199810E94B425009776
:103DF00031F0998388831B830A8381E001C080E0CE
:103E0000DF91CF911F910F910895CF93DF93EC0134
:103E100088819981892B29F08A819B818617970750
:103E200060F4CE010E94EB1E882341F08C819D81BD
:103E3000892B19F4E881F981108281E0DF91CF911B
:103E40000895EF92FF920F931F93CF93DF93EC01AE
:103E50007B018A01BA010E94051F811104C0CE01B5
:103E60000E94D91E07C01D830C83B70188819981E8
:103E70000E948726CE01DF91CF911F910F91FF9075
:103E8000EF900895FC011182108213821282158234
:103E900014826115710559F0FB0101900020E9F7CA
:103EA000AF0141505109461B570B0C94211F089537
:103EB0000F931F93CF93DF938C01EB01FC01808163
:103EC0009181009799F0428153812C813D81421765
:103ED000530750F0688179810E9487268C819D81EB
:103EE000F8019583848313C00E94252588819981D8
:103EF000F801918380838A819B81938382838C8163
:103F00009D8195838483198218821B821A821D8267
:103F10001C82DF91CF911F910F910895CF93DF9372
:103F2000EC018617970711F00E94581FCE01DF9110
:103F3000CF910895CF93DF93EC016115710561F086
:103F4000FB0101900020E9F7AF0141505109461BE8
:103F5000570B0E94211F02C00E94D91ECE01DF9183
:103F6000CF9108950F931F93CF93DF93CDB7DEB713
:103F700062970FB6F894DEBF0FBECDBF8C01CB01A8
:103F8000F80111821082138212821582148250E08D
:103F9000BE016F5F7F4F0E948E26BE016F5F7F4F15
:103FA000C8010E949A1F62960FB6F894DEBF0FBE3A
:103FB000CDBFDF91CF911F910F910895EF92FF92A6
:103FC0000F931F93CF93DF93CDB7DEB7A1970FB6B3
:103FD000F894DEBF0FBECDBF7C01CB01BA01F70163
:103FE00011821082138212821582148242E0420FE3
:103FF0008E010F5F1F4F0E946C24BC01C7010E94FD
:104000009A1FA1960FB6F894DEBF0FBECDBFDF9109
:10401000CF911F910F91FF90EF900895BF92CF9293
:10402000DF92EF92FF920F931F93CF93DF936C0178
:104030007B01EA0189012417350720F48D2FE9015E
:10404000042F182F6AE872E0C6010E94421FD701B0
:1040500014968D919C911597C817D907C8F48017AD
:10406000910708F48C01D701ED91FC911197E00FB5
:10407000F11FB08010826D917C916C0F7D1FC60185
:104080000E949A1FD701ED91FC91E00FF11FB082C1
:10409000C601DF91CF911F910F91FF90EF90DF90BC
:1040A000CF90BF9008950895CF93DF931F92CDB71F
:1040B000DEB76983DC01ED91FC910280F381E02D94
:1040C00041E050E0BE016F5F7F4F09950F90DF9197
:1040D000CF910895CF93DF93EC018C859D8597FF59
:1040E00005C082E00E949F1B9D878C878C859D85E3
:1040F000DF91CF91089583E00C94351EFC018485F7
:10410000958597FD06C082E00E94481B90E00196CD
:10411000089582E00E94481B90E00895FC01848588
:10412000958597FD05C02FEF3FEF358724870895CC
:1041300082E00C949F1BCF93DF93EC01809155019B
:10414000882331F083E00E94D01B1816190634F042
:1041500081E090E09B838A8380E090E0DF91CF91C3
:104160000895FC0120812E5F208342E450E06BE93A
:1041700071E080E80C946A1CFC0121818081813A05
:1041800059F4213209F04BC047E050E06EE471E091
:1041900080E00E946A1C5EC0813209F040C0233278
:1041A00089F4838190E0982F88273281832BA0E0C7
:1041B000B0E080934A0190934B01A0934C01B093DF
:1041C0004D010FC0203239F467E070E08EE491E0D9
:1041D0000E949B1C09C0223221F4828180935501E8
:1041E00003C02D7F2032B1F580911E04811103C0E0
:1041F000E0E0F8E002C0EEEFFAE080914E0190912D
:104200004F01A0915001B0915101803B9440A10514
:10421000B10511F58091550180FF03C01DC080E0FC
:104220000895EE3F2AE0F20731F08081918190936A
:10423000FF0A8093FE0A87E797E7918380832BE04C
:1042400088E190E00FB6F894A895809360000FBEC7
:104250002093600081E0089588E10FB6F894809380
:104260006000109260000FBEA895EE3F8AE0F8074C
:1042700039F08091FE0A9091FF0A91838083EACF02
:104280001092FF0A1092FE0AE5CF1092D10310920D
:10429000D00388EE93E0A0E0B0E08093D203909347
:1042A000D303A093D403B093D5038DE992E0909308
:1042B000CF038093CE038FEF9FEF9093DB03809328
:1042C000DA030895EF92FF920F931F93CF93DF933A
:1042D0007B01FC01C281D38100E010E0209781F0D6
:1042E000E881F9810280F381E02DB701CE010995C3
:1042F00097FD08C0080F191F0884D985C02DEECF7F
:10430000C80102C08FEF9FEFDF91CF911F910F91F6
:10431000FF90EF9008950F931F93CF93DF938B013E
:10432000FC01C281D381209771F0E881F98104807A
:10433000F581E02DB801CE010995009731F408848C
:10434000D985C02DF0CF80E090E0DF91CF911F9113
:104350000F9108950F931F93CF93DF938B01FC016F
:10436000C281D381209771F0E881F9810680F781BD
:10437000E02DB801CE010995080F111D0884D985DB
:10438000C02DF0CFF8011082DF91CF911F910F91D6
:1043900008950F931F93CF93DF938B01FC01C2818C
:1043A000D381209771F0E881F9810190F081E02DAF
:1043B000B801CE010995811106C00884D985C02DA8
:1043C000F0CF80E001C081E0DF91CF911F910F918C
:1043D00008958091230481110DC082E080931F0411
:1043E00084E080932004109222041092210481E042
:1043F000809323048FE194E008955058BB27AA27A7
:104400000ED075C166D130F06BD120F031F49F3FF2
:1044100011F41EF45BC10EF4E095E7FB51C1E92FE6
:1044200077D180F3BA17620773078407950718F0EE
:1044300071F49EF58FC10EF4E0950B2EBA2FA02DCE
:104440000B01B90190010C01CA01A0011124FF2741
:10445000591B99F0593F50F4503E68F11A16F0403C
:10446000A22F232F342F4427585FF3CF469537953B
:104470002795A795F0405395C9F77EF41F16BA0B00
:10448000620B730B840BBAF09150A1F0FF0FBB1FAE
:10449000661F771F881FC2F70EC0BA0F621F731FF7
:1044A000841F48F4879577956795B795F7959E3F54
:1044B00008F0B3CF9395880F08F09927EE0F9795E2
:1044C00087950895D9D008F481E008950CD00FC1E4
:1044D00007D140F0FED030F021F45F3F19F0F0C07A
:1044E000511139C1F3C014D198F39923C9F355235D
:1044F000B1F3951B550BBB27AA27621773078407D7
:1045000038F09F5F5F4F220F331F441FAA1FA9F38C
:1045100033D00E2E3AF0E0E830D091505040E6957E
:10452000001CCAF729D0FE2F27D0660F771F881FDF
:10453000BB1F261737074807AB07B0E809F0BB0BCE
:10454000802DBF01FF2793585F4F2AF09E3F5105F2
:1045500068F0B6C000C15F3FECF3983EDCF386958F
:1045600077956795B795F7959F5FC9F7880F911D68
:104570009695879597F90895E1E0660F771F881F54
:10458000BB1F621773078407BA0720F0621B730B07
:10459000840BBA0BEE1F88F7E095089504D0689459
:1045A000B111D9C00895BCD088F09F5790F0B92FB1
:1045B0009927B751A0F0D1F0660F771F881F991F78
:1045C0001AF0BA95C9F712C0B13081F0C3D0B1E08A
:1045D0000895C0C0672F782F8827B85F39F0B93F9A
:1045E000CCF3869577956795B395D9F73EF490957A
:1045F0008095709561957F4F8F4F9F4F0895E894F8
:1046000009C097FB3EF490958095709561957F4F1A
:104610008F4F9F4F9923A9F0F92F96E9BB279395C8
:10462000F695879577956795B795F111F8CFFAF4D8
:10463000BB0F11F460FF1BC06F5F7F4F8F4F9F4F09
:1046400016C0882311F096E911C0772321F09EE867
:10465000872F762F05C0662371F096E8862F70E0CD
:1046600060E02AF09A95660F771F881FDAF7880FA7
:104670009695879597F90895990F0008550FAA0BFD
:10468000E0E8FEEF16161706E807F907C0F0121665
:104690001306E407F50798F0621B730B840B950B68
:1046A00039F40A2661F0232B242B252B21F40895BD
:1046B0000A2609F4A140A6958FEF811D811D08955A
:1046C00097F99F6780E870E060E008959FEF80ECC5
:1046D000089500240A941616170618060906089568
:1046E00000240A9412161306140605060895092ECE
:1046F0000394000C11F4882352F0BB0F40F4BF2B3D
:1047000011F460FF04C06F5F7F4F8F4F9F4F08957C
:1047100057FD9058440F551F59F05F3F71F0479572
:10472000880F97FB991F61F09F3F79F08795089557
:10473000121613061406551FF2CF4695F1DF08C076
:10474000161617061806991FF1CF86957105610593
:1047500008940895E894BB2766277727CB0197F93B
:1047600008958ADF08F48FEF08950BD0C0CFB1DF32
:1047700028F0B6DF18F0952309F0A2CFA7CF1124B7
:10478000EACFC6DFA0F3959FD1F3950F50E0551FF8
:10479000629FF001729FBB27F00DB11D639FAA2796
:1047A000F00DB11DAA1F649F6627B00DA11D661FE5
:1047B000829F2227B00DA11D621F739FB00DA11D06
:1047C000621F839FA00D611D221F749F3327A00DC0
:1047D000611D231F849F600D211D822F762F6A2F5C
:1047E00011249F5750408AF0E1F088234AF0EE0FE1
:1047F000FF1FBB1F661F771F881F91505040A9F7EE
:104800009E3F510570F05CCFA6CF5F3FECF3983E22
:10481000DCF3869577956795B795F795E7959F5F54
:10482000C1F7FE2B880F911D9695879597F90895EE
:1048300023DF880B990B089597FB072E16F400943D
:1048400007D077FD09D00E94582407FC05D03EF41C
:10485000909581959F4F0895709561957F4F08952C
:10486000A1E21A2EAA1BBB1BFD010DC0AA1FBB1F74
:10487000EE1FFF1FA217B307E407F50720F0A21BE6
:10488000B30BE40BF50B661F771F881F991F1A9453
:1048900069F760957095809590959B01AC01BD017D
:1048A000CF010895EE0FFF1F0590F491E02D0994BC
:1048B000AA1BBB1B51E107C0AA1FBB1FA617B70746
:1048C00010F0A61BB70B881F991F5A95A9F7809562
:1048D0009095BC01CD010895EF920F931F93CF9354
:1048E000DF93E80147FF02C034E101C034E0E42F68
:1048F000FF27E7FDF095F7FF03C0F195E195F1097A
:10490000E32E022F2E2FAE010E94D426CE01DF917E
:10491000CF911F910F91EF900895CF93DF93823045
:10492000910510F482E090E0E0912D04F0912E04C6
:1049300020E030E0A0E0B0E0309739F140815181D3
:1049400048175907B8F04817590771F482819381C5
:10495000109729F013969C938E9312972CC09093E6
:104960002E0480932D0427C02115310531F0421704
:10497000530718F0A901DB0101C0EF019A01BD0145
:10498000DF010280F381E02DD7CF21153105F9F049
:10499000281B390B2430310580F48A819B816115F5
:1049A000710521F0FB019383828304C090932E0450
:1049B00080932D04FE01329644C0FE01E20FF31FE6
:1049C0008193919322503109398328833AC02091F1
:1049D0002B0430912C04232B41F4209102013091BF
:1049E000030130932C0420932B042091000130917B
:1049F00001012115310541F42DB73EB74091040165
:104A000050910501241B350BE0912B04F0912C04EF
:104A1000E217F307A0F42E1B3F0B2817390778F095
:104A2000AC014E5F5F4F2417350748F04E0F5F1FF4
:104A300050932C0440932B048193919302C0E0E0A7
:104A4000F0E0CF01DF91CF910895CF93DF930097EE
:104A500009F487C0FC01329713821282C0912D04A1
:104A6000D0912E04209781F420813181280F391FA5
:104A700080912B0490912C048217930779F5F09381
:104A80002C04E0932B046DC0DE0120E030E0AE1773
:104A9000BF0750F412964D915C9113979D014115FB
:104AA000510509F1DA01F3CFB383A283408151812B
:104AB000840F951F8A179B0771F48D919C91119714
:104AC000840F951F02969183808312968D919C91FD
:104AD0001397938382832115310529F4F0932E04D3
:104AE000E0932D043EC0D9011396FC93EE931297E8
:104AF0004D915D91A40FB51FEA17FB0779F48081F2
:104B00009181840F951F0296D90111969C938E93E3
:104B10008281938113969C938E931297E0E0F0E04C
:104B20008A819B81009719F0FE01EC01F9CFCE013B
:104B3000029628813981820F931F20912B04309196
:104B40002C042817390769F4309729F410922E04A1
:104B500010922D0402C013821282D0932C04C093B1
:104B60002B04DF91CF910895A0E0B0E0EAEBF5E2ED
:104B70000C943E29EC01CB01209719F40E948D245E
:104B8000B8C0FE01E60FF71F9E0122503109E2175F
:104B9000F30708F4ACC0D9010D911C9111970617C9
:104BA0001707B8F00530110508F49FC0A80144505C
:104BB00051094617570708F498C002501109061BFF
:104BC000170B019311936D937C93CF010E942525C0
:104BD0008CC05B01A01AB10A4E01800E911EA091FB
:104BE0002D04B0912E04612C712C60E070E01097C0
:104BF00009F449C0A815B905C9F5ED90FC901197C5
:104C0000670142E0C40ED11CCA14DB0478F14701ED
:104C10008A189B08640142E0C40ED11C1296BC9015
:104C200012971396AC91B5E0CB16D10440F0B28246
:104C3000A38391828082D9018D939C9309C00E5FDA
:104C40001F4F0E0D1F1DF90111830083EB2DFA2F4D
:104C50006115710531F0DB011396FC93EE93129709
:104C600044C0F0932E04E0932D043FC06D917C91DD
:104C700011976616770608F43B01BD0112960D9058
:104C8000BC91A02DB4CF60912B0470912C046815B9
:104C90007905E9F468167906D0F440910001509145
:104CA00001014115510541F44DB75EB76091040112
:104CB00070910501461B570BE417F507C0F4F093FC
:104CC0002C04E0932B04F901918380830EC00E9491
:104CD0008D247C01009759F0A801BE010E947E2618
:104CE000CE010E942525C70104C0CE0102C080E08C
:104CF00090E0CDB7DEB7EEE00C945A29FB01DC0161
:104D000002C001900D9241505040D8F70895FB0128
:104D1000DC0101900D920020E1F708954532510524
:104D200020F4423010F00C949926FB011082CB0144
:104D30000895BB274A3031F4992322F4BDE29095BF
:104D400081959F4F0C94A526BB27FB015527AA27C9
:104D5000880F991FAA1FA41710F0A41B8395505108
:104D6000B9F7A05DAA3308F0A95DA193009779F780
:104D7000B111B1931192CB010C942A29F999FECF6C
:104D800092BD81BDF89A992780B50895262FF9998B
:104D9000FECF1FBA92BD81BD20BD0FB6F894FA9A1E
:104DA000F99A0FBE019608956F927F929F92AF92EB
:104DB000BF92CF92DF92EF92FF920F931F93CF9308
:104DC000DF93CDB7DEB729970FB6F894DEBF0FBEDD
:104DD000CDBF6A01B22E102F0C3320F4FF24F394C0
:104DE000F00E02C04CE3F42E0F2D27E0AE014F5F12
:104DF0005F4F0E9452287981272F2970213031F08E
:104E0000E1FC06C0E0FC06C060E005C06DE203C046
:104E10006BE201C060E2AE2DA07173FF36C0662365
:104E200011F084E001C083E08B1510F4B81A01C0C2
:104E3000B12CA1110BC0F6018B2D90E2882319F043
:104E400091938150FBCFCB0CD11CB12C662331F058
:104E5000F601608396012F5F3F4F6901C6010396FB
:104E6000E2FE05C02EE4F601208331E404C02EE604
:104E7000F601208331E631832283FC012B2D30E2C1
:104E80002223F1F131932150FBCF72FF40C0662302
:104E900011F084E001C083E08B1510F4B81A01C052
:104EA000B12CA1110BC0F6018B2D90E2882319F0D3
:104EB00091938150FBCFCB0CD11CB12C662331F0E8
:104EC000F601608396012F5F3F4F6901C60103968B
:104ED000E2FE07C029E4F60120832EE4218326E4C4
:104EE00006C029E6F60120832EE6218326E62283EA
:104EF000FC012B2D30E2222319F031932150FBCFFE
:104F0000FC01EB0DF11D10828EEF9FEFB7C0B1E0F9
:104F1000611101C0B0E04B2F50E01816190624F4BF
:104F20009C012F5F3F4F02C021E030E0240F351F6E
:104F3000112329F0412F50E04F5F5F4F02C040E046
:104F400050E0420F531F2B2D30E04217530714F44B
:104F5000B41A01C0B12C2E2D287159F4F6012B2D55
:104F600030E2222319F031932150FBCFCB0CD11C1E
:104F7000B12CBB2331F0F601608396012F5F3F4FC8
:104F80006901A1110BC0F6012B2D30E3222319F08A
:104F900031932150FBCFCB0CD11CB12CF80E0A81E0
:104FA000372F3071A32E74FF03C0013309F4FA9434
:104FB0001F142CF42F2D293018F028E001C021E017
:104FC000682F392F97FF02C060E030E0462F532F43
:104FD000612C712C3EE2932EBC01621B71099B0176
:104FE000DC01A41BB50BE1E0F0E0EC0FFD1FAE0F00
:104FF000BF1FE12EF12CF194E194F1084F3FFFEF38
:105000005F0731F4F6019082B6016F5F7F4F6B014D
:10501000841795074CF02417350734F4BD01660D4D
:10502000771DFB01118101C010E341505109FFEFD1
:105030006F1A7F0AB6016F5F7F4F4E155F0524F030
:10504000F60110836B01DACF4817590739F406339C
:1050500020F4053319F4A11001C011E3F601108307
:10506000FB018B2D90E2882319F091938150FBCFA7
:10507000FB01EB0DF11D108280E090E029960FB648
:10508000F894DEBF0FBECDBFDF91CF911F910F917E
:10509000FF90EF90DF90CF90BF90AF909F907F9068
:1050A0006F900895283008F027E03327DA01990F30
:1050B000311D87FD916000966105710539F43260FC
:1050C0002E5F3D9330E32A95E1F708959F3F30F03E
:1050D00080387105610509F03C5F3C5F3D9391307C
:1050E00008F08068911DDF93CF931F930F93FF9279
:1050F000EF92192F987F9695E92F96959695E90F3F
:10510000FF27E95CFD4F99273327EE24FF24A701F1
:10511000E70105900894079428F4360FE71EF81E5F
:10512000491F511D660F771F881F991F0694A1F70D
:105130000590079428F4E70EF81E491F561FC11D5D
:10514000770F881F991F661F0694A1F70590079493
:1051500028F4F80E491F561FC71FD11D880F991F2D
:10516000661F771F0694A1F70590079420F4490F56
:10517000561FC71FD81F990F661F771F881F0694D9
:10518000A9F784911095177041F0D695C79557955A
:105190004795F794E7941A95C1F7EDEDF1E068941F
:1051A0001590159135916591959105907FE27395D4
:1051B000E118F10A430B560BC90BD009C0F7E10CFB
:1051C000F11E431F561FC91FD01D7EF4703311F40A
:1051D0008A95E6CFE894015030F0080F0AF40027D2
:1051E000021708F4202F2395022F7A3328F079E351
:1051F0007D932A95E9F710C07D932A9589F6069448
:1052000097956795379517951794E118F10A430B11
:10521000560BC90BD00998F023957E9173957A337C
:1052200008F070E37C932013B8F77E9170617D9352
:1052300030F0839571E37D9370E32A95E1F71124B3
:10524000EF90FF900F911F91CF91DF91992787FDEC
:1052500090950895DC01FC01672F71917723E1F7A8
:10526000329704C07C916D9370836291AE17BF0733
:10527000C8F308952F923F924F925F926F927F9260
:105280008F929F92AF92BF92CF92DF92EF92FF9256
:105290000F931F93CF93DF93CDB7DEB7CA1BDB0B02
:1052A0000FB6F894DEBF0FBECDBF09942A883988A7
:1052B00048885F846E847D848C849B84AA84B984AE
:1052C000C884DF80EE80FD800C811B81AA81B981BA
:1052D000CE0FD11D0FB6F894DEBF0FBECDBFED01CE
:0652E0000895F894FFCFD1
:1052E60000002F04800003011E1714141C00000286
:1052F600060E0602000000080C0E0C080000040052
:105306000400040004000A040A040A040A00320025
:10531600000090010000010081158115811581159D
:1053260081150100C18081000000FFFFFFFF00E141
:105336000000000000002020202020202020200047
:1053460025002D4149522D00456E746572696E67C0
:105356000043616C6962726174696F6E204D6F649F
:10536600650043616C6962726174696F6E20464FB5
:10537600323A0025204F787967656E00436C696381
:105386006B20746F00636F6E6669726D00426164B4
:105396002043616C6962726174696F6E0044617466
:1053A60061005361766564004D69784D6F6E69746E
:1053B6006F720076007620302E3200506C65617375
:1053C6006500526563616C69627261746500533190
:1053D60020546172676574002520005332205461A1
:1053E6007267657400546F6C6572616E6365003038
:1053F600005467742E204D69783A00202F004F70B4
:1054060074696F6E73004D656E7500536574204D3B
:105416006978004F322053656E736F720054617263
:10542600676574730044697361626C650043616CFF
:10543600696272617465004578697400206D560072
:105446005332204552524F520020204D6978200099
:1054560000000000EE11C11800000000F912CC1285
:10546600A112A912BC12CB120D0A006E616E006960
:105476006E66006F7666002E000000000054209BCA
:0A548600207E208E206A207B20008B
:00000001FF
