:100000000C946F010C94C3160C94EA160C941117FF
:100010000C9438170C9497010C9497010C945F176B
:100020000C9497010C9497010C94301F0C94B71DFD
:100030000C9497010C9497010C9497010C949701E0
:100040000C9497010C9497010C9497010C949701D0
:100050000C9497010C9497010C9497010C948617BB
:100060000C9497010C9497010C9497010C949701B0
:100070000C9497010C9497010C9497010C949701A0
:100080000C9497010C9497010C9497010C94970190
:100090000C9498120C9497010C9497010C9497016E
:1000A0000C9497010C9497010C949701E118E418B3
:1000B000D318D718DD18051905190519E818EC1813
:1000C000F018F618FA1805190019070605040100BA
:1000D000080A0B0C0D090000000200090F000003C4
:1000E0000401000C000000000000000000000000FF
:1000F0000000000000040802011040804010204071
:10010000804080080204018040201002011080100D
:1001100020404020040404040403040502020202F7
:100120000403020202020606060606060404020290
:10013000020404000000002300260029002C002FE8
:100140000000000000250028002B002E00310000D8
:10015000000000240027002A002D003000120100BA
:1001600002EF0201409A230C8000010102030112F8
:10017000010002000000409A230C800001010203EC
:1001800001416461667275697400466561746865F1
:100190007220333275340004030904080B00020294
:1001A0000201000904000001020200000524001001
:1001B00001052401010104240206052406000107AB
:1001C00005810310004009040100020A0000000735
:1001D0000502024000000705830240000000407A4B
:1001E00010F35A00A0724E18090010A5D4E80000C0
:1001F000E87648170000E40B54020000CA9A3B005E
:100200000000E1F505000080969800000040420FD4
:10021000000000A08601000000102700000000E898
:1002200003000000006400000000000A000000005D
:10023000000100000000002C76D888DC674F0823FE
:10024000DFC1DFAE59E1B1B796E5E3E453C63AE664
:1002500051997696E8E6C28426EB898C9B62ED4044
:100260007C6FFCEFBC9C9F40F2BAA56FA5F4900593
:100270005A2AF75C936B6CF9676DC11BFCE0E40DC7
:1002800047FEF520E6B500D0ED902E0300943577BB
:10029000050080841E080000204E0A000000C80CE3
:1002A000333333330F986E12831141EF8D2114894C
:1002B0003BE65516CFFEE6DB18D1844B381BF77CA6
:1002C0001D901DA4BBE424203284725E228100C9EB
:1002D000F124ECA1E53D27003B04B61136221124A0
:1002E0001FBECFEFDAE0DEBFCDBF12E0A0E0B1E08D
:1002F000E8ECF4E502C005900D92AA3AB107D9F7EF
:1003000024E0AAEAB2E001C01D92AA35B207E1F7E3
:1003100012E0CEEDD2E004C02297FE010E944525F6
:10032000C83DD107C9F70E949F190C94622A0C940A
:10033000000080E00E94751921E0892B09F420E07B
:100340002093F90281E00E94751921E0892B09F4BC
:1003500020E02093F8028091F702882321F0809119
:10036000F602811109C08091F702811112C08091BB
:10037000F602811163C00DC08091F902811104C0A1
:100380008091F802811150C08091F902882319F1FF
:100390001DC08091F702811105C08091F60288236B
:1003A00009F459C08091F7028823A9F08091F602E0
:1003B000811111C08091F902882321F08091F80207
:1003C00081116EC08091F902811105C08091F802FF
:1003D000882309F46FC08091F2029091F302049790
:1003E00034F08091F4029091F50201960CC0809156
:1003F000F2029091F3028D3F9F4F6CF48091F402D2
:100400009091F50201979093F5028093F402109277
:10041000F3021092F2028091F9028093F702809128
:10042000F8028093F60208958091F2029091F3020F
:1004300001969093F3028093F202A6CF8091F90285
:10044000811104C08091F8028823B1F08091F902F3
:10045000882309F20CC08091F902882321F0809151
:10046000F802882399F08091F9028111B4CF80912C
:10047000F80281111FC0AFCF8091F2029091F30278
:1004800001969093F3028093F202E0CF8091F20202
:100490009091F30201969093F3028093F202E3CFDE
:1004A0008091F2029091F30201969093F30280936F
:1004B000F20288CF8091F2029091F302019790931B
:1004C000F3028093F20287CF80E00E94751921E049
:1004D000892B09F420E02093F90281E00E9475192C
:1004E00021E0892B09F420E02093F8028091F702A3
:1004F000882321F08091F602811109C08091F702D2
:10050000811112C08091F602811163C00DC08091EB
:10051000F902811104C08091F802811150C08091CC
:10052000F902882319F11DC08091F702811105C0DD
:100530008091F602882309F459C08091F70288233C
:10054000A9F08091F602811111C08091F9028823EF
:1005500021F08091F80281116EC08091F902811121
:1005600005C08091F802882309F46FC08091F202DF
:100570009091F302049734F08091F4029091F50287
:1005800001960CC08091F2029091F3028D3F9F4F33
:100590006CF48091F4029091F50201979093F5022A
:1005A0008093F4021092F3021092F2028091F90209
:1005B0008093F7028091F8028093F602089580916B
:1005C000F2029091F30201969093F3028093F2026B
:1005D000A6CF8091F902811104C08091F80288238E
:1005E000B1F08091F902882309F20CC08091F902E0
:1005F000882321F08091F802882399F08091F902F4
:100600008111B4CF8091F80281111FC0AFCF8091CA
:10061000F2029091F30201969093F3028093F2021A
:10062000E0CF8091F2029091F30201969093F30251
:100630008093F202E3CF8091F2029091F30201964F
:100640009093F3028093F20288CF8091F20290910E
:10065000F30201979093F3028093F20287CF0F93F6
:100660001F930E94751990930C0380930B032091A4
:1006700036013091370182179307A1F0892B91F44D
:100680000E94D0176093FF027093000380930103D0
:100690009093020380910B0390910C039093370188
:1006A000809336010E94D0170091FF021091000341
:1006B0002091010330910203601B710B820B930B9D
:1006C00000912E0110912F012091300130913101C4
:1006D000061717072807390758F480910B039091E4
:1006E0000C0320913601309137018217930711F4E2
:1006F00080E00FC090933701809336010E94D0179D
:100700006093FF02709300038093010390930203B0
:1007100081E01F910F9108958BE10E949818BC0110
:10072000882777FD8095982F0E94F2239B01AC01CA
:100730000E94EF2223E333E343E550E40E94A62422
:1007400020E030E040E85AE30E94A6240895CF92CA
:10075000DF92EF92FF92CF93DF9300D000D0CDB71E
:10076000DEB76B017C018EEC92E029833A834B83E8
:100770005C830E944D1529813A814B815C818823DD
:1007800039F0C701B6010E94EE22A70196010AC006
:1007900063E373E387EA91E40E94EE2223E333E309
:1007A00047EA51E40E94572320E030E048EC52E44D
:1007B0000E94A62420E030E040E05FE30E94EF22A8
:1007C0000E94BF23272F862F922F97FF02C080E021
:1007D00090E00F900F900F900F90DF91CF91FF90CE
:1007E000EF90DF90CF900895FF920F931F93CF93D8
:1007F000DF93EC018AEA92E00E949815F82E882394
:10080000D1F00091FA021091FB028AEA92E00E9474
:100810006E16800F911F8C179D076CF00091FA02E5
:100820001091FB028AEA92E00E946E16081B190BD7
:10083000C017D1070CF4F12C8F2DDF91CF911F91B0
:100840000F91FF90089540E067E08DE093E00E94F3
:10085000200F66E571E08DE093E00E94FE1941E013
:1008600067E08DE093E00E94200F66E571E08DE087
:1008700093E00C94FE19CF92EF920F9385E0C82E6F
:1008800096E0E92E0AE02BE04CE06DE08DE093E08D
:100890000E94D80F0E94D01760930703709308033B
:1008A0008093090390930A030E94D0176093030377
:1008B00070930403809305039093060340E050E097
:1008C00060E070E08EEC92E00E94291440E050E07D
:1008D00061E070E08AEA92E00F91EF90CF900C9483
:1008E0002914FF920F931F93CF93DF93CDB7DEB7F9
:1008F0002C970FB6F894DEBF0FBECDBFF42E122F8B
:1009000021E0AB01BC01CE0107960E94CF20402F11
:10091000612F8DE093E00E94200FFF2029F062E01C
:100920008DE093E00E9432108B859C850597B0F096
:1009300023E030E040E050E0BE01695F7F4FCE0130
:1009400001960E94FF20BE016F5F7F4FCE01079688
:100950000E947F20CE0101960E94C51F8B859C8539
:10096000049731F06EE571E08DE093E00E94FE198E
:10097000BE01695F7F4F8DE093E00E94F019FF2078
:1009800061F065E0610F402F8DE093E00E94200F41
:1009900063E08DE093E00E943210CE0107960E9442
:1009A000C51F2C960FB6F894DEBF0FBECDBFDF91EA
:1009B000CF911F910F91FF9008950F931F930E9465
:1009C000D01700910703109108032091090330917B
:1009D0000A03601B710B820B930B00913201109183
:1009E000330120913401309135010617170728078C
:1009F000390708F07CC08EEC92E00E945F152DEC68
:100A00003CEC4CEC5DE30E94A224181674F48EECCE
:100A100092E00E945F1500E010E020E030E040E04E
:100A20000E94710460E671E015C08091FD02909112
:100A3000FE0240E060E0019739F48DE093E00E940F
:100A4000200F62E671E006C08DE093E00E94200F67
:100A50006AE571E08DE093E00E94FE198AEA92E077
:100A60000E945F152DEC3CEC4CEC5DE30E94A2244F
:100A7000181674F48AEA92E00E945F1501E010E013
:100A800020E030E040E00E94710460E671E008C0C0
:100A900041E060E08DE093E00E94200F6AE571E0A4
:100AA0008DE093E00E94FE1940E066E08DE093E067
:100AB0000E94200F60E08DE093E00E94321041E040
:100AC00066E08DE093E00E94200F60E08DE093E00F
:100AD0000E9432100E94D01760930703709308039E
:100AE0008093090390930A0381E08093FC021F9195
:100AF0000F910895CF92DF92EF92FF920F931F9381
:100B0000CF93DF938DE093E00E94190F40E064E003
:100B10008DE093E00E94200F68E671E08DE093E0A5
:100B20000E94FE1941E060E08DE093E00E94200FFA
:100B300061E771E08DE093E00E94FE1966ED76E0DA
:100B400080E090E00E94FF178DE093E00E94190F73
:100B500085E10E947519892BD9F36AEF70E080E076
:100B600090E00E94FF1762E871E08DE093E00E9440
:100B7000FE1981ED90E09093F5028093F402C8EEA7
:100B8000D3E085E190E00E942F03811136C080916F
:100B9000F4029091F502893E93402CF0D093F50237
:100BA000C093F4020AC08091F4029091F50297FF7D
:100BB00004C01092F5021092F4026091F402709158
:100BC000F502882777FD8095982F0E94F22320E078
:100BD00030E040E251E40E9457236B017C0101E0C8
:100BE00010E020E030E041E00E94710463E971E030
:100BF0008DE093E00E94FE19C4CF8DE093E00E9447
:100C0000190F40E067E08DE093E00E94200F60E064
:100C10008DE093E00E9432106CE971E08DE093E08A
:100C20000E94FE1941E067E08DE093E00E94200FF2
:100C300060E08DE093E00E94321065EA71E08DE0A3
:100C400093E00E94FE198EEC92E00E94071520E0CE
:100C500030E0A9010E94532318166CF040E060E0D8
:100C60008DE093E00E94200F6BE571E08DE093E052
:100C70000E94FE190BC08EEC92E00E94071500E066
:100C800010E020E030E040E00E9471046EE572E088
:100C90008DE093E00E94FE198AEA92E00E94071517
:100CA00020E030E0A9010E94532318166CF041E0C7
:100CB00060E08DE093E00E94200F6BE571E08DE035
:100CC00093E00E94FE190BC08AEA92E00E94071589
:100CD00001E010E020E030E040E00E9471046EE5A9
:100CE00072E08DE093E00E94FE1985E190E00E94A1
:100CF0002F03882309F4A7CF8EEC92E00E943D15C4
:100D0000882399F1B701A6018EEC92E00E942E167D
:100D1000882359F18EEC92E00E9407159B01AC01EB
:100D2000C701B6010E945723AB01BC018EEC92E0D3
:100D30000E9409168AEA92E00E943D158823F1F18B
:100D4000B701A6018AEA92E00E942E168823B1F12B
:100D50008AEA92E00E9407159B01AC01C701B60127
:100D60000E945723AB01BC0132C08EEC92E00E947E
:100D70003D15811104C040E050E0BA01D7CF8DE0AD
:100D800093E00E94190F6DEA71E08DE093E00E94FC
:100D9000FE1941E060E08DE093E00E94200F6DEBD2
:100DA00071E08DE093E00E94FE1968EB7BE080E04B
:100DB00090E00E94FF170E947A05BCCF8AEA92E079
:100DC0000E943D1581113CC040E050E0BA018AEA22
:100DD00092E00E9409168EEC92E00E943D1581116E
:100DE00007C08AEA92E00E943D15882309F447C0B3
:100DF0008DE093E00E94190F61EB71E08DE093E0CC
:100E00000E94FE1941E060E08DE093E00E94200F17
:100E100062EC71E08DE093E00E94FE196CED75E0EC
:100E200080E090E00E94FF178DE093E0DF91CF918A
:100E30001F910F91FF90EF90DF90CF900C94190FBE
:100E40008DE093E00E94190F6DEA71E08DE093E070
:100E50000E94FE1941E060E08DE093E00E94200FC7
:100E60006DEB71E08DE093E00E94FE1968EB7BE092
:100E700080E090E00E94FF170E947A05ACCF8DE0E1
:100E800093E00E94190F6DEA71E08DE093E00E94FB
:100E9000FE1941E060E08DE093E00E94200F6DEBD1
:100EA00071E08DE093E00E94FE1968EB7BE080E04A
:100EB00090E00E94FF170E947A059ACF62E085E1D8
:100EC0000E94061962E080E00E94061962E081E05B
:100ED0000E94061961E087E10E94061961E086E13F
:100EE0000E94061941E050E069E971E082E00E9449
:100EF000731641E050E064E672E083E00E947316EE
:100F000020E042E060E18DE093E00E943A0F46E28B
:100F100051E060E08DE093E00E94F80F4EE151E077
:100F200061E08DE093E00E94F80F46E151E062E05D
:100F30008DE093E00E94F80F4EE051E063E08DE019
:100F400093E00E94F80F46E051E064E08DE093E00A
:100F50000E94F80F40E063E08DE093E00E94200FD4
:100F600068EC71E08DE093E00E94FE1941E060E0E2
:100F70008DE093E00E94200F0E948C03AB01BC0126
:100F800022E030E08DE093E00E948B1B63ED71E086
:100F90008DE093E00E94FE1941E06BE08DE093E06C
:100FA0000E94200F65ED71E08DE093E00E94FE1934
:100FB00068ED71E08DE093E00E94FE1960ED77E04E
:100FC00080E090E00E94FF178DE093E00E94190FEF
:100FD00085E10E947519892BD1F18EEC92E00E9477
:100FE0003D15811107C08AEA92E00E943D158823D1
:100FF00071F007C08EEC92E00E94D7148111F3CFFC
:101000000AC08AEA92E00E94D714882321F08DE07A
:1010100093E00C94190F8DE093E00E94190F6CED92
:1010200071E08DE093E00E94FE1941E060E08DE008
:1010300093E00E94200F63EE71E08DE093E00E9448
:10104000FE1960ED77E080E090E00E94FF170E94BB
:101050007A05DDCF0F931F93CF93DF938EEC92E051
:101060000E944D15882309F462C040E067E08DE0DE
:1010700093E00E94200F6FEE71E08DE093E00E94FC
:10108000FE198EEC92E00E9466169093F502809312
:10109000F402C8EED3E085E190E00E942F038111B5
:1010A00044C00E94DD048091F4029091F502893ED3
:1010B00093402CF0D093F502C093F4020AC08091C3
:1010C000F4029091F50297FF04C01092F50210927D
:1010D000F4026091F4027091F5028EEC92E00E94AD
:1010E00062168EEC92E00E946616BC01882777FD9E
:1010F0008095982F0E94F22320E030E040E251E4F6
:101100000E94572301E010E027E030E041E00E9418
:10111000710469EF71E08DE093E00E94FE1964E0D4
:101120008DE093E00E943210B6CF0E9423048AEA39
:1011300092E00E944D15882309F462C040E067E008
:101140008DE093E00E94200F6CEF71E08DE093E062
:101150000E94FE198AEA92E00E9466169093F502B8
:101160008093F402C8EED3E085E190E00E942F0363
:10117000811144C00E94DD048091F4029091F50237
:10118000893E93402CF0D093F502C093F4020AC03C
:101190008091F4029091F50297FF04C01092F5023D
:1011A0001092F4026091F4027091F5028AEA92E0E2
:1011B0000E9462168AEA92E00E946616BC018827A5
:1011C00077FD8095982F0E94F22320E030E040E2E6
:1011D00051E40E94572301E010E027E030E041E0B5
:1011E0000E94710469EF71E08DE093E00E94FE19A6
:1011F00064E08DE093E00E943210B6CF0E94230499
:1012000040E067E08DE093E00E94200F66E072E02E
:101210008DE093E00E94FE198EEC92E00E946E1623
:101220009093F5028093F402C8EED3E085E190E05C
:101230000E942F03811147C00E94DD048091F402B7
:101240009091F502893E93402CF0D093F502C09323
:10125000F4020AC08091F4029091F50297FF04C055
:101260001092F5021092F4026091F4027091F5026E
:101270008EEC92E00E946A166091F4027091F50281
:101280008AEA92E00E946A168EEC92E00E946E1644
:10129000BC01882777FD8095982F0E94F22320E0DB
:1012A00030E040E251E40E94572301E010E028E0E2
:1012B00030E041E00E94710460E671E08DE093E06F
:1012C0000E94FE19B3CF82E090E09093FE028093DB
:1012D000FD020E942304DF91CF911F910F91089589
:1012E000FF920F931F93CF93DF9300D000D000D0D5
:1012F000CDB7DEB7F62E042F122F4AE0BC01CE0187
:1013000001960E94A320412F602F8DE093E00E9460
:10131000200FFF2029F062E08DE093E00E94321060
:101320008D819E81029731F060E172E08DE093E063
:101330000E94FE19BE016F5F7F4F8DE093E00E9417
:10134000F019FF2061F063E0600F412F8DE093E022
:101350000E94200F63E08DE093E00E943210CE01E6
:1013600001960E94C51F26960FB6F894DEBF0FBEE9
:10137000CDBFDF91CF911F910F91FF900895AF9254
:10138000BF92CF92DF92EF92FF920F931F93CF9372
:10139000DF9340E067E08DE093E00E94200F62E180
:1013A00072E08DE093E00E94FE198AEA92E00E94CA
:1013B0006616813D910549F08AEA92E00E94661620
:1013C0006AE070E00E940D2502C065E170E0709354
:1013D000F5026093F402C3E6D0E02AE0F22E0AE0C0
:1013E00010E085E190E00E942F03811146C00E9429
:1013F000DD048091F4029091F502843691052CF081
:10140000D093F502C093F4020AC08091F402909147
:10141000F50297FF04C01092F5021092F402809139
:10142000F4029091F502F89EB001F99E700D11241E
:101430008AEA92E00E9462168AEA92E00E946616A8
:10144000B8010E940D25CB0121E030E047E050E0DB
:1014500061E00E9470096DE172E08DE093E00E940E
:10146000FE1921E030E04DE050E060E08091FA02AA
:101470009091FB020E947009B4CF41E067E08DE0DB
:1014800093E00E94200F67E571E08DE093E00E94F9
:10149000FE198091FA029091FB029093F5028093DD
:1014A000F402CAE0D0E006EF1FEF85E190E00E9471
:1014B0002F0381118BC00E94DD04E090F402F090B4
:1014C000F5028AEA92E00E946616BE010E940D258E
:1014D0006E0D7F1D6436710574F08AEA92E00E94F9
:1014E0006616B8010E940D256C597F4F7093F50266
:1014F0006093F4020AC08091F4029091F50297FF84
:1015000004C01092F5021092F4028AEA92E00E945E
:101510006616A090F402B090F502BC01882777FD12
:101520008095982F0E94F22320E030E040E251E4C1
:101530000E9457236B017C01B501882777FD8095B8
:10154000982F0E94F2239B01AC0160E070E088ECD0
:1015500092E40E94EE229B01AC01C701B6010E94F9
:10156000572320E030E04AE754E40E94A6240E947A
:10157000BF238EEC92E00E9462168091F40290915B
:10158000F5029093FB028093FA028AEA92E00E94AD
:101590006616BE010E940D25CB0121E030E048E037
:1015A00050E060E00E9470096CE172E08DE093E031
:1015B0000E94FE1921E030E04CE050E061E08091B3
:1015C000FA029091FB020E9470096FCF0E942304DF
:1015D00040E067E08DE093E00E94200F66E072E05B
:1015E0008DE093E00E94FE198EEC92E00E946E1650
:1015F0009093F5028093F402C8EED3E085E190E089
:101600000E942F03811147C00E94DD048091F402E3
:101610009091F502893E93402CF0D093F502C0934F
:10162000F4020AC08091F4029091F50297FF04C081
:101630001092F5021092F4026091F4027091F5029A
:101640008EEC92E00E946A166091F4027091F502AD
:101650008AEA92E00E946A168EEC92E00E946E1670
:10166000BC01882777FD8095982F0E94F22320E007
:1016700030E040E251E40E94572301E010E028E00E
:1016800030E041E00E94710460E671E08DE093E09B
:101690000E94FE19B3CF0E94230481E090E0909352
:1016A000FE028093FD02DF91CF911F910F91FF9079
:1016B000EF90DF90CF90BF90AF9008950F931F935E
:1016C000CF93DF930E94D0176093030370930403BA
:1016D00080930503909306031092F5021092F40292
:1016E000C091F402D091F5020E94230440E068E02A
:1016F0008DE093E00E94200F6FE172E08DE093E0B7
:101700000E94FE1941E06AE08DE093E00E94200F04
:1017100067E272E08DE093E00E94FE190E94D0170C
:1017200000910303109104032091050330910603F7
:10173000601B710B820B930B683E73408105910512
:1017400038F48091F4029091F502892B09F4F3C0EA
:101750000E9423041092F5021092F40204E010E0BB
:101760000E94DD048091F4029091F50205972CF01F
:101770001092F5021092F4020AC08091F402909146
:10178000F50297FF04C01093F5020093F4028091D4
:10179000F4029091F5028C179D0731F00E9423040A
:1017A000C091F402D091F5028091F4029091F5027B
:1017B0008230910509F45CC02CF4009759F0019730
:1017C00081F1CECF8330910509F483C0049709F4E9
:1017D00099C0C6CF40E067E08DE093E00E94200F03
:1017E0006CE272E08DE093E00E94FE1941E067E058
:1017F0008DE093E00E94200F62EF71E08DE093E0B6
:101800000E94FE1985E190E00E942F03882309F4CD
:10181000A7CF0E942304DF91CF911F910F910C94C9
:10182000BF0940E067E08DE093E00E94200F64E391
:1018300072E08DE093E00E94FE1941E067E08DE0E8
:1018400093E00E94200F6EE372E08DE093E00E942F
:10185000FE1985E190E00E942F03882309F480CFD0
:101860000E942304DF91CF911F910F910C942A08BD
:1018700040E067E08DE093E00E94200F66E472E0B4
:101880008DE093E00E94FE1941E067E08DE093E077
:101890000E94200F6EE372E08DE093E00E94FE193B
:1018A00085E190E00E942F03882309F459CF0E941C
:1018B00023041092FE021092FD0260E087E10E9474
:1018C0003F1960E086E1DF91CF911F910F910C9459
:1018D0003F1940E067E08DE093E00E94200F6EE446
:1018E00072E08DE093E00E94FE1985E190E00E9495
:1018F0002F03882309F434CFDF91CF911F910F91EB
:101900000C947A0540E067E08DE093E00E94200FA0
:1019100068E572E08DE093E00E94FE1985E190E0B9
:101920000E942F03882309F41BCFDF91CF911F91D1
:101930000F910C9423040E94DD04F0CE0F931F93AB
:10194000CF93DF9300D000D0CDB7DEB78091FC02FB
:10195000882309F4C4C18091FD029091FE02892B75
:1019600009F052C08EEC92E00E944D1540E067E015
:10197000811107C08DE093E00E94200F66E571E0C1
:1019800016C08DE093E00E94200F62E08DE093E0AE
:101990000E9432108EEC92E00E94071500E010E0E9
:1019A00028E030E040E00E9471046DE572E08DE0D7
:1019B00093E00E94FE198AEA92E00E944D1541E0F0
:1019C00067E0811107C08DE093E00E94200F66E57B
:1019D00071E016C08DE093E00E94200F62E08DE080
:1019E00093E00E9432108AEA92E00E94071501E01B
:1019F00010E028E030E040E00E9471046DE572E004
:101A00008DE093E00E94FE198091FD029091FE020C
:101A1000019709F0E0C08AEA92E00E944D15811119
:101A200022C040E068E08DE093E00E94200F61E674
:101A300072E08DE093E00E94FE1941E067E08DE0E6
:101A400093E00E94200F66E571E08DE093E00E9434
:101A5000FE1961E087E10E943F1961E086E10E9482
:101A60003F190E94DD048AEA92E00E944D15882306
:101A700009F4B1C040E067E08DE093E00E94200FE0
:101A80008EEC92E00E944D158823B1F062E08DE06B
:101A900093E00E9432108EEC92E00E9466166AE09B
:101AA00070E00E940D25CB0120E030E048E050E0DE
:101AB00060E00E94700906C06CE571E08DE093E083
:101AC0000E94FE1941E067E08DE093E00E94200F44
:101AD00062E08DE093E00E9432108AEA92E00E9478
:101AE00066166AE070E00E940D25CB0121E030E02F
:101AF00048E050E060E00E94700940E06AE08DE05C
:101B000093E00E94200F6AE672E08DE093E00E946D
:101B1000FE198AEA92E00E945F1520E030E040E082
:101B20005FE30E94EF220E94BF23DC01CB0121E092
:101B300030E04BE050E060E00E9470096DE172E03F
:101B40008DE093E00E94FE198AEA92E00E945F1500
:101B50009B01AC018EEC92E029833A834B835C833A
:101B60000E945F1529813A814B815C810E94A70305
:101B700021E030E04EE050E060E00E9470098EEC21
:101B800092E00E946E168C018AEA92E00E945F1534
:101B90009B01AC018EEC92E029833A834B835C83FA
:101BA0000E945F1529813A814B815C810E94A703C5
:101BB000B8010E94F403811106C061E087E10E9430
:101BC0003F1961E005C060E087E10E943F1960E0D5
:101BD00086E10E943F198091FD029091FE020297DA
:101BE00009F074C040E067E08DE093E00E94200FB0
:101BF0008EEC92E00E944D158823F1F062E08DE0BA
:101C000093E00E9432108EEC92E00E946616BC01B6
:101C1000882777FD8095982F0E94F22320E030E0FE
:101C200040E251E40E94572300E010E028E030E059
:101C300040E00E94710406C066E571E08DE093E02B
:101C40000E94FE1941E067E08DE093E00E94200FC2
:101C50008AEA92E00E944D158823F1F062E08DE05F
:101C600093E00E9432108AEA92E00E946616BC015C
:101C7000882777FD8095982F0E94F22320E030E09E
:101C800040E251E40E94572301E010E028E030E0F8
:101C900040E00E94710406C066E571E08DE093E0CB
:101CA0000E94FE198EEC92E00E949815882331F074
:101CB0008AEA92E00E94981581110BC061E087E1E9
:101CC0000E943F1961E086E10E943F191092FC02D8
:101CD00006C060E087E10E943F1960E0F4CF0F90FA
:101CE0000F900F900F90DF91CF911F910F9108955A
:101CF0000E94DD040E949E0C85E190E00E942F036B
:101D000081110C945E0B0895CF93DF93EC0160E09A
:101D10008E810E943F1981E090E00E94391861E0B5
:101D20008E810E943F1981E090E00E94391860E0A6
:101D30008E810E943F1984E690E0DF91CF910C9450
:101D40003918EF92FF920F931F93CF93DF938C017B
:101D5000C0E0D0E0E62EF12CB7010C2E02C0759544
:101D600067950A94E2F76170F801EC0FFD1F878117
:101D70000E943F192196C430D10571F7C801DF9147
:101D8000CF911F910F91FF90EF900C94840EEF92E2
:101D9000FF920F931F93CF93DF938C01C0E0D0E0AD
:101DA000E62EF12CB7010C2E02C0759567950A94AA
:101DB000E2F76170F801EC0FFD1F87810E943F1967
:101DC0002196C830D10571F7C801DF91CF911F91DD
:101DD0000F91FF90EF900C94840E1F93CF93DF939D
:101DE000EC01162F642F8C810E943F198D818F3F4B
:101DF00019F060E00E943F198F85612F84FF06C0B3
:101E0000CE01DF91CF911F910C94C70E70E084E05A
:101E1000759567958A95E1F7CE010E94A10E612F15
:101E2000CE01DF91CF911F910C94A10E40E00C9454
:101E3000ED0E61E00E94160F80ED97E00C943918CA
:101E4000443008F043E0FC012389421710F04FEFC3
:101E5000420FFC01E40FF11D2489260F2068622F38
:101E60000C94160FFC016089262F2460208B6C6077
:101E70000C94160F0F931F93CF93DF93EC01423016
:101E800018F08F8588608F874B8B1C8A80E48D8B40
:101E90006E8B70E0605C7F4F6F8B222329F04130A6
:101EA00019F48F8584608F8761E08C810E94061908
:101EB0008D818F3F19F061E00E94061961E08E81EB
:101EC0000E94061900E010E08F8584FF03C088E0BF
:101ED00090E002C084E090E00817190754F4FE0176
:101EE000E00FF11F61E087810E9406190F5F1F4F0D
:101EF000EBCF80E593EC0E94391860E08C810E9462
:101F00003F1960E08E810E943F198D818F3F19F04B
:101F100060E00E943F196F8564FD1DC063E0CE0143
:101F20000E94A10E84E991E10E94391863E0CE017C
:101F30000E94A10E84E991E10E94391863E0CE016C
:101F40000E94A10E86E990E00E94391862E0CE015D
:101F50000E94A10E16C06062CE010E94160F84E995
:101F600091E10E9439186F856062CE010E94160FC0
:101F700086E990E00E9439186F856062CE010E9468
:101F8000160F6F856062CE010E94160F84E0888B69
:101F9000CE010E94320FCE010E94190F82E0898B80
:101FA00066E0CE01DF91CF911F910F910C94160F37
:101FB000CF92EF920F93FC011382128285E792E099
:101FC0009183808364838FEF858346832783008793
:101FD000E186C2861386148615861686178620E04B
:101FE00041E060E1CF010F91EF90CF900C943A0F58
:101FF000CF92DF92EF92FF920F931F93CF93DF93D5
:1020000000D0CDB7DEB78C01677088E0689FB00163
:1020100011246064C80149835A830E94160F4981C4
:10202000C42E5A81D52EE12CF12CD6016D916D0173
:10203000D801ED91FC910190F081E02DC801099546
:10204000BFEFEB1AFB0AE8E0EE16F10471F70F9010
:102050000F90DF91CF911F910F91FF90EF90DF9044
:10206000CF90089541E00E94ED0E81E090E0089548
:10207000FC0114821382608388E0818312820895B8
:1020800085E293E00C947C11FC01748363830895D2
:102090001F93CF93DF9300D0CDB7DEB7162F682FF5
:1020A00085E293E04A8359830E949611612F85E26D
:1020B00093E00E943D115981652F85E293E00E94D3
:1020C0003D114A81642F85E293E00E943D1185E233
:1020D00093E00F900F90DF91CF911F910C94B3116B
:1020E0001F93CF93DF93182F682F85E293E00E9410
:1020F000961160E085E293E00E943D1185E293E055
:102100000E94B31142E0612F85E293E00E94931197
:1021100085E293E00E94ED10182F85E293E00E9483
:10212000ED10D12F20E0C22F9E01282BC901DF9195
:10213000CF911F910895CF93DF93EC014B815C8188
:102140004368516861E088810E944810698170E0AD
:1021500080E090E00E94FF1788810E9470102A8121
:10216000022E02C0969587950A94E2F7222329F061
:10217000811528E0920708F0906FDF91CF910895C4
:10218000CF93DF93EC014B815C814368516B61E03D
:1021900088810E944810698170E080E090E00E9490
:1021A000FF1788810E9470102A81022E02C0969526
:1021B00087950A94E2F7222329F0811528E09207F7
:1021C00008F0906FDF91CF9108958091550390E0D2
:1021D00020915603821B9109089520915603809106
:1021E0005503281750F4E22FF0E0E95AFC4F8081A4
:1021F00090E02F5F2093560308958FEF9FEF08958F
:10220000E091560380915503E81730F4F0E0E95A65
:10221000FC4F808190E008958FEF9FEF089508951F
:10222000CF92DF92EF92FF920F931F93CF93DF93A2
:102230007C01CB018A0120913103222389F0EB013B
:102240006B01C40ED51ECC15DD0569F06991D7016F
:10225000ED91FC910190F081E02DC7010995F3CF3C
:10226000642F0E946F12C801DF91CF911F910F91CF
:10227000FF90EF90DF90CF900895CF93DF931F9260
:10228000CDB7DEB76983209131032223D1F02091AD
:102290003203203240F021E030E0FC01338322831E
:1022A00080E090E015C080913303E82FF0E0EC5C13
:1022B000FC4F998190838F5F809333038093320327
:1022C00005C061E0CE0101960E946F1281E090E0AE
:1022D0000F90DF91CF910895FC011382128248EE96
:1022E00053E060E070E044835583668377838DE735
:1022F00092E09183808308951092560310925503C3
:1023000010923303109232030C94BA11862F41328B
:1023100008F040E267E573E00E94D811109256037E
:1023200080935503089521E00C94861181E08093F9
:1023300031036093540310923303109232030895D3
:102340000F93062F21E04091320364E373E0809104
:1023500054030E941C121092330310923203109205
:1023600031030F91089561E00C94A01185E293E090
:102370000C946C111092E40381E08093E2031092BC
:10238000E10361E082E00E943F1961E083E00E9486
:102390003F19E9EBF0E080818E7F808380818D7F23
:1023A000808380E28093B80085E48093BC00089528
:1023B000413208F03FC09091E4039111FCCF91E0CD
:1023C0009093E4032093E2032FEF2093770310927E
:1023D000BC03240F2093BB039093E3039091E3038A
:1023E000880F892B8093E3038091E103813041F4CE
:1023F0001092E1038091E3038093BB0085EC01C060
:1024000085EE8093BC008091E4038130E1F38091FC
:10241000BC03841710F44091BC032DEB33E0FB01A7
:10242000D9018A2F821B841718F48D918193F9CFDB
:10243000842F089580E008950F93413208F046C03C
:102440009091E4039111FCCF92E09093E403009308
:10245000E2039FEF909377031092BC034093BB037A
:10246000FB016DEB73E0DB019A2F961B941718F4B8
:1024700091919D93F9CF1092E3039091E303880F1C
:10248000892B8093E3038091E103813041F4109222
:10249000E1038091E3038093BB0085EC01C085EEEE
:1024A0008093BC00222321F08091E4038230E1F389
:1024B000809177038F3F61F080917703803251F0F4
:1024C00080917703803341F483E007C081E005C049
:1024D00080E003C082E001C084E00F910895613282
:1024E00098F42091E403243089F460939903FC016B
:1024F0008BE993E0DC012A2F281B261718F4219181
:102500002D93F9CF80E0089581E0089582E0089549
:1025100085ED8093BC008091BC0084FDFCCF1092BF
:10252000E403089585EC8093BC001092E4030895C1
:102530001F920F920FB60F9211242F933F934F9338
:102540005F936F937F938F939F93AF93BF93EF931B
:10255000FF938091B900887F803609F49CC068F5AC
:10256000883209F45BC090F4803109F454C038F427
:10257000882309F4F5C0883009F44DC0F5C08831CE
:1025800009F44CC0803209F45DC0EEC0803409F417
:1025900068C048F4803309F455C0883309F0E4C0BA
:1025A00080937703A8C0803509F44FC0883509F4BB
:1025B0005DC0883409F0D8C0D5C0883909F4C6C0D8
:1025C000A8F4883709F467C038F4883609F463C082
:1025D000803709F460C0C8C0883809F4B7C08039B2
:1025E00009F45FC0803809F0BFC05BC0803B09F4CC
:1025F00085C038F4803A09F466C0883A09F47EC090
:10260000B3C0803C09F4A6C0883C09F4A3C0883B51
:1026100009F489C0A9C08091E30310C09091BC0364
:102620008091BB03981770F5E091BC0381E08E0F99
:102630008093BC03F0E0E354FC4F80818093BB00A7
:1026400085EC85C0809377038DC0E091BC0381E069
:102650008E0F8093BC038091BB00F0E0E354FC4FED
:1026600080839091BC038091BB036DC0E091BC035B
:1026700081E08E0F8093BC038091BB00F0E0E354B7
:10268000FC4F80838091E20381116CC081E08093D4
:10269000E10384EA60C083E08093E403109278034E
:1026A000CFCF80917803803208F050C0E09178035A
:1026B00081E08E0F809378038091BB00F0E0E758B3
:1026C000FC4F8083BDCF80917803803230F4E0915D
:1026D0007803F0E0E758FC4F10820E948812609166
:1026E000780370E0E091DD03F091DE0389E793E089
:1026F0000995109278030E94921236C084E080936C
:10270000E40310929A0310929903E091DF03F09191
:10271000E003099580919903811105C081E08093C0
:10272000990310929B03E0919A0381E08E0F8093AE
:102730009A03F0E0E556FC4F80818093BB009091B6
:102740009A0380919903981708F47ACF85E88093CB
:10275000BC000AC085EC8093BC001092E40304C066
:10276000109277030E948812FF91EF91BF91AF9171
:102770009F918F917F916F915F914F913F912F9199
:102780000F900FBE0F901F901895AF92BF92CF92EF
:10279000DF92EF92FF920F931F93CF93DF931F92DD
:1027A000CDB7DEB75C01D62EC72E062F172F7C01C2
:1027B00084E0E80EF11CF80161918F01C501698385
:1027C0000E94AF276981681719F0C5010E94B727D9
:1027D000FFEFAF1ABF0AAE14BF0469F78D2D9C2D11
:1027E0000F90DF91CF911F910F91FF90EF90DF90AD
:1027F000CF90BF90AF900895CF92DF92EF92FF926B
:102800000F931F93CF93DF9300D0CDB7DEB76C014A
:102810008B017C0184E0E80EF11CC60169837A8398
:102820000E94AF27F80181938F01FFEFCF1ADF0AD3
:1028300069817A81CE14DF0481F7CB010F900F906C
:10284000DF91CF911F910F91FF90EF90DF90CF908C
:102850000895CF92DF92EF92FF920F931F93CF9341
:10286000DF93EC016B018A0181ED90E09F878E87F9
:102870008FE090E0998B888B1A8A1B8A1C8A1D8AAC
:102880001E8A1F8A188E198E1A8E7E018FE1E80E1D
:10289000F11C68E4C7010E943810D982C8821D83E8
:1028A0000C83C7010E94401001151105E1F00130B1
:1028B0001105A9F54AE057ED63E27CE34E835F839F
:1028C0006887798740E050E060E87FE34A875B876C
:1028D0006C877D8780E096E09B838A8340E050E0B0
:1028E00060E874E418C042E558EB6EEC7FE34E8379
:1028F0005F836887798740E050E068E270E44A8748
:102900005B876C877D8780E09AE09B838A8340E0C9
:1029100050E060E873E44B8F5C8F6D8F7E8FDF91AA
:10292000CF911F910F91FF90EF90DF90CF9008957E
:10293000CF92DF92EF92FF92CF93DF93EC018881E9
:1029400099812A89211128C0BE016D5E7F4F23E045
:10295000880F991F2A95E1F70E94FC1381E08A8B6A
:10296000CB88DC88ED88FE882E813F81488559859B
:10297000C701B6010E94532387FD0AC02A853B8503
:102980004C855D85C701B6010E94A224181624F467
:102990001B8A1C8A1D8A1E8A6B897C898D899E8967
:1029A000DF91CF91FF90EF90DF90CF900895CF937C
:1029B0000E949814C1E020E030E0A9010E94A22406
:1029C00018160CF0C0E08C2FCF910895CF93DF93B1
:1029D000EC01888199812C813D812130310561F4A0
:1029E00033E0880F991F3A95E1F7BE01695E7F4F8A
:1029F00004960E94FC1304C01F8A188E198E1A8E2A
:102A00006F89788D898D9A8DDF91CF9108950F937D
:102A10001F93CF93DF93EC018C01015E1F4F6A81FE
:102A20007B81C8010E94441088819981009721F41C
:102A3000C8010E949B1005C00197B9F4C8010E940B
:102A4000C010BC01882777FD8095982F0E94F22343
:102A50002B8D3C8D4D8D5E8D0E94A62420E03EEF97
:102A60004FEF56E40E94572303C060E070E0CB01B3
:102A7000DF91CF911F910F910895CF930E94071579
:102A8000C1E02AE037ED43E25CE30E94A22418167D
:102A90000CF0C0E08C2FCF910895CF93DF93EC0121
:102AA0000E94D714882339F0CE010E943D15882357
:102AB00011F081E001C080E0DF91CF910895CF92C5
:102AC000DF92EF92FF92CF93DF93EC010E944D15BE
:102AD000882351F0CE010E94071520E030E0A901C3
:102AE0000E94A224181624F060E070E0CB0119C007
:102AF000CE010E9407156B017C01CE010E94E614F5
:102B00009B01AC01C701B6010E94EE226B017C0162
:102B1000CE010E9498149B01AC01C701B6010E942E
:102B2000A624DF91CF91FF90EF90DF90CF90089592
:102B30004F925F926F927F928F929F92AF92BF92CD
:102B4000CF92DF92EF92FF920F931F93CF93DF9379
:102B5000EC010E851F85A888B9880E944D1581114A
:102B600002C081E045C0B801882777FD8095982F85
:102B70000E94F22320E030E040E251E40E9457231B
:102B80006B017C01B501882777FD8095982F0E9405
:102B9000F22320E030E040E251E40E9457234B0151
:102BA0005C01CE010E945F152B013C01A50194013F
:102BB000C701B6010E94EF229B01AC01C301B20123
:102BC0000E94A22418169CF0CE010E945F152B01D2
:102BD0003C01A5019401C701B6010E94EE229B01B0
:102BE000AC01C301B2010E94532387FFBACF80E03A
:102BF000DF91CF911F910F91FF90EF90DF90CF90D9
:102C0000BF90AF909F908F907F906F905F904F900C
:102C100008950F931F93CF93DF9300D000D0CDB7CB
:102C2000DEB78C0149835A836B837C83FC018081EE
:102C30009181BE016F5F7F4F43E0880F991F4A95D6
:102C4000E1F70E94C513F801128A0F900F900F90C0
:102C50000F90DF91CF911F910F910895CF92DF9246
:102C6000EF92FF92CF93DF93EC016A017B010E9408
:102C700007159B01AC01C701B6010E9457232E81A5
:102C80003F81488559850E94A22418169CF4CE01E4
:102C90000E9407159B01AC01C701B6010E94572392
:102CA0002A853B854C855D850E94532387FF02C0A2
:102CB00081E001C080E0DF91CF91FF90EF90DF9045
:102CC000CF900895FC01778766870895FC0186857B
:102CD00097850895FC01718B608B0895FC018089B4
:102CE000918908950895853008F04CC0E82FF0E0F0
:102CF000EE0FFF1FE85CFE4F718360838230E1F0CE
:102D000018F4813069F004C0833019F1843071F116
:102D1000809169008C7F842B80936900E89A0895E4
:102D200080916900440F551F440F551F837F842BEA
:102D300080936900E99A08958091690034E0440F16
:102D4000551F3A95E1F78F7C842B80936900EA9AAE
:102D500008958091690026E0440F551F2A95E1F7F8
:102D60008F73842B80936900EB9A089580916A0099
:102D700094E0440F551F9A95E1F78F7C842B809344
:102D80006A00EE9A08951F920F920FB60F921124C7
:102D90002F933F934F935F936F937F938F939F9363
:102DA000AF93BF93EF93FF93E0913801F091390116
:102DB0000995FF91EF91BF91AF919F918F917F9175
:102DC0006F915F914F913F912F910F900FBE0F9098
:102DD0001F9018951F920F920FB60F9211242F93E8
:102DE0003F934F935F936F937F938F939F93AF9393
:102DF000BF93EF93FF93E0913A01F0913B01099566
:102E0000FF91EF91BF91AF919F918F917F916F91C2
:102E10005F914F913F912F910F900FBE0F901F9098
:102E200018951F920F920FB60F9211242F933F9374
:102E30004F935F936F937F938F939F93AF93BF93C2
:102E4000EF93FF93E0913C01F0913D010995FF91D3
:102E5000EF91BF91AF919F918F917F916F915F9112
:102E60004F913F912F910F900FBE0F901F9018958B
:102E70001F920F920FB60F9211242F933F934F93EF
:102E80005F936F937F938F939F93AF93BF93EF93D2
:102E9000FF93E0913E01F0913F010995FF91EF9181
:102EA000BF91AF919F918F917F916F915F914F9162
:102EB0003F912F910F900FBE0F901F9018951F926A
:102EC0000F920FB60F9211242F933F934F935F935E
:102ED0006F937F938F939F93AF93BF93EF93FF93E2
:102EE000E0914001F09141010995FF91EF91BF916F
:102EF000AF919F918F917F916F915F914F913F9192
:102F00002F910F900FBE0F901F9018951F920F9248
:102F10000FB60F9211242F933F938F939F93AF93EC
:102F2000BF938091E6039091E703A091E803B091ED
:102F3000E9033091E50326E0230F2D3720F40296B4
:102F4000A11DB11D05C029E8230F0396A11DB11DC8
:102F50002093E5038093E6039093E703A093E803AF
:102F6000B093E9038091EA039091EB03A091EC0305
:102F7000B091ED030196A11DB11D8093EA039093DA
:102F8000EB03A093EC03B093ED03BF91AF919F913E
:102F90008F913F912F910F900FBE0F901F9018951A
:102FA0002FB7F8946091E6037091E7038091E803EE
:102FB0009091E9032FBF08953FB7F8948091EA03F9
:102FC0009091EB03A091EC03B091ED0326B5A89B83
:102FD00005C02F3F19F00196A11DB11D3FBF662707
:102FE000782F892F9A2F620F711D811D911D43E04B
:102FF000660F771F881F991F4A95D1F708958F9202
:103000009F92AF92BF92CF92DF92EF92FF926B01AD
:103010007C010E94DC174B015C01C114D104E10466
:10302000F104F1F00E9444210E94DC17681979092B
:103030008A099B09683E73408105910570F321E080
:10304000C21AD108E108F10888EE880E83E0981EC4
:10305000A11CB11CC114D104E104F10429F7DDCF96
:10306000FF90EF90DF90CF90BF90AF909F908F90A8
:1030700008958330910528F0880F991F04970197D0
:10308000F1F70895789484B5826084BD84B5816039
:1030900084BD85B5826085BD85B5816085BDEEE660
:1030A000F0E0808181608083E1E8F0E0108280813F
:1030B00082608083808181608083E0E8F0E08081AD
:1030C00081608083E1E9F0E080818260808380819B
:1030D00081608083E0E9F0E0808181608083E1ECC1
:1030E000F0E0808184608083808182608083808141
:1030F00081608083E3ECF0E0808181608083E0EC9C
:10310000F0E0808182608083E2ECF0E08081816089
:103110008083EAE7F0E08081846080838081826040
:10312000808380818E7F8083808180688083089502
:10313000823108F08251E82FF0E0E653FF4FE4912E
:1031400080917B00E3FB222720F930E095E0220FFD
:10315000331F9A95E1F78F7D822B80937B00E77078
:103160008091420120E4829FC0011124E82BE0936A
:103170007C0080917A00806480937A0080917A004C
:1031800086FDFCCF809178002091790090E0922B11
:10319000089590E0FC013197EF30F105B0F5EA5A5F
:1031A000FF4F0C944325809180008F7703C080915E
:1031B00080008F7D80938000089580918000877FBC
:1031C000F9CF84B58F7702C084B58F7D84BD089513
:1031D000809190008F7707C0809190008F7D03C011
:1031E00080919000877F8093900008958091C00027
:1031F0008F7703C08091C0008F7D8093C0000895B9
:103200008091C200877F8093C2000895CF93DF939F
:1032100090E0FC01EB50FF4F2491FC01EC5EFE4F6F
:103220008491882349F190E0880F991FFC01E15BAC
:10323000FE4FA591B4918F5B9E4FFC01C591D49137
:103240009FB7611108C0F8948C91209582238C93CC
:10325000888182230AC0623051F4F8948C91322F15
:10326000309583238C938881822B888304C0F894C3
:103270008C91822B8C939FBFDF91CF9108950F93F8
:103280001F93CF93DF931F92CDB7DEB7282F30E087
:10329000F901EA52FF4F8491F901EB50FF4F14916D
:1032A000F901EC5EFE4F04910023C9F0882321F060
:1032B00069830E94C9186981E02FF0E0EE0FFF1FBB
:1032C000EF5BFE4FA591B4919FB7F8948C9161117B
:1032D00003C01095812301C0812B8C939FBF0F9059
:1032E000DF91CF911F910F910895CF93DF93282FF6
:1032F00030E0F901EA52FF4F8491F901EB50FF4FA2
:10330000D491F901EC5EFE4FC491CC2391F0811170
:103310000E94C918EC2FF0E0EE0FFF1FED5CFE4F8E
:10332000A591B4912C912D2381E090E021F480E0CF
:1033300002C080E090E0DF91CF91089508950E944F
:1033400042180E949E198EEE93E00E94AA1F0E94CE
:103350005E07C0E0D0E00E94780E2097E1F30E9463
:103360000000F9CFCF92DF92EF92FF920F931F935D
:10337000CF93DF937C016A01EB0100E010E00C15B4
:103380001D0571F06991D701ED91FC910190F081DB
:10339000E02DC7010995892B19F00F5F1F4FEFCF63
:1033A000C801DF91CF911F910F91FF90EF90DF90B7
:1033B000CF9008956115710581F0DB010D9000201B
:1033C000E9F7AD0141505109461B570BDC01ED9166
:1033D000FC910280F381E02D099480E090E0089553
:1033E000DC01ED91FC91DB0114964D915C911597F8
:1033F0006D917C910280F381E02D09940C94DA198F
:10340000DC01ED91FC910190F081E02D09948F9207
:103410009F92AF92BF92DF92EF92FF920F931F9312
:10342000CF93DF93CDB7DEB7A1970FB6F894DEBF89
:103430000FBECDBF7C01F42FD52ECB0119A22230B7
:1034400008F42AE08E010F5D1F4F822E912CA12CD3
:10345000B12C6F2F7D2DA50194010E942125F22F03
:10346000D32ECA01015011096A3014F4E0E301C0FF
:10347000E7E3E60FD801EC93232B242B252B49F708
:10348000B801C7010E94DA19A1960FB6F894DEBF01
:103490000FBECDBFDF91CF911F910F91FF90EF90A5
:1034A000DF90BF90AF909F908F900895CF92DF9262
:1034B000EF92FF920F931F93CF93DF93EC016A017A
:1034C0007B012115310579F4E881F9810190F081C2
:1034D000E02D642FDF91CF911F910F91FF90EF901E
:1034E000DF90CF9009942A303105E9F477FF1AC0B4
:1034F0006DE20E94001A8C0144275527BA014C192D
:103500005D096E097F092AE0CE010E94071A800F2B
:10351000911FDF91CF911F910F91FF90EF90DF905E
:10352000CF9008952AE0B701A601CE01DF91CF9197
:103530001F910F91FF90EF90DF90CF900C94071A9E
:103540004F925F926F927F928F929F92AF92BF92B3
:10355000CF92DF92EF92FF920F931F93CF93DF935F
:10356000EC016A017B01B22E9A01AB01C701B601E1
:103570000E940925882319F06CE872E027C0260113
:103580003701E89477F82FEF3FEF4FE75FE7C3018C
:10359000B2010E94092581110DC02FEF3FEF4FE7C7
:1035A0005FE7C301B2010E94532318161CF460E9BF
:1035B00072E00CC02FEF3FEF4FE75FE4C701B601A9
:1035C0000E94A2241816ACF464E972E0CE01DF91E7
:1035D000CF911F910F91FF90EF90DF90CF90BF9010
:1035E000AF909F908F907F906F905F904F900C94D2
:1035F000DA192FEF3FEF4FE75FECC701B6010E94EA
:10360000532387FDE1CF20E030E0A901C701B601D7
:103610000E94532387FF0AC06DE2CE010E94001A68
:103620008C01F7FAF094F7F8F09402C000E010E093
:10363000A12C60E070E080E09FE3AB1441F020E05B
:1036400030E040E251E40E945723A394F6CF9B015F
:10365000AC01C701B6010E94EF226B017C010E9400
:10366000C4232B013C010E94F0239B01AC01C70144
:10367000B6010E94EE226B017C012AE0B301A20197
:10368000CE010E94071A080F191FBB2039F068E904
:1036900072E0CE010E94DA19080F191F7B2C7720E7
:1036A00041F120E030E040E251E4C701B6010E9460
:1036B000A6246B017C010E94BF234B01AA2497FC26
:1036C000A094BA2C2AE030E0B501A401CE010E94FA
:1036D000561A080F191FC501B4010E94F2239B015D
:1036E000AC01C701B6010E94EE226B017C017A9405
:1036F000D6CFC801DF91CF911F910F91FF90EF902E
:10370000DF90CF90BF90AF909F908F907F906F9001
:103710005F904F9008950C94A01A4091F20350913D
:10372000F3032091F0033091F10342175307B4F4EF
:103730009091E8009570E1F39091E80092FD19C036
:103740008093F1008091F2039091F30301968F73BF
:103750009927892B19F48EEF8093E8008091F2036A
:103760009091F30301969093F3038093F20381E029
:10377000089580E00895CF92DF92EF92FF920F9329
:103780001F93CF93DF931F92CDB7DEB7082F162F6D
:10379000F42E862F880F8E5F99830E948D1B83E005
:1037A0000E948D1BE02EC02E9981D92E8C2D8E1952
:1037B000811798F4F601F7FE02C0849101C0808160
:1037C0000E948D1B082F80E00E948D1B8023FFEF3D
:1037D000CF1ADF0A8111EACF01C081E00F90DF919B
:1037E000CF911F910F91FF90EF90DF90CF900895B0
:1037F0008091D70081608093D70080EA8093D800C1
:1038000089B58F7E89BD89B5826089BD09B400FE06
:10381000FDCF61E070E080E090E00E94FF178091B2
:10382000D8008F7C80618093D8008091E000807FF9
:103830008093E0000895CF93DF931F92CDB7DEB75A
:103840001982CE0101960E94A2210E94DA22BE01B5
:103850006F5F7F4F0E94532289810F90DF91CF913C
:1038600008952FB7FC012083F89467706093E900F6
:103870000895CF93DF931F92CDB7DEB7682FCE01A7
:1038800001960E94311C8091F20099819FBF0F9098
:10389000DF91CF910895FF920F931F93CF93DF9302
:1038A00000D0CDB7DEB7F62E8A019091F6039923AA
:1038B00011F057FF03C08FEF9FEF2AC0682FCE0192
:1038C00001967A830E94311C8091F20090E0A80159
:1038D0007A81801791070CF4AC01EF2DF72FF40ECD
:1038E00084E6FE1631F08093F7039091F1009193F6
:1038F000F8CF4115510521F08091F200882321F085
:1039000089818FBFCA0104C08BE68093E800F8CF9D
:103910000F900F90DF91CF911F910F91FF9008951D
:10392000CF93DF931F92CDB7DEB741E050E0BE01E9
:103930006F5F7F4F0E944B1C019719F4898190E0C3
:1039400002C08FEF9FEF0F90DF91CF910895CF933B
:10395000DF931F92CDB7DEB7682FCE0101960E948C
:10396000311C9091E800892F807295FF04C09091DE
:10397000F20080E4891B99819FBF0F90DF91CF9166
:1039800008956F927F928F929F92AF92BF92CF9243
:10399000DF92EF92FF920F931F93CF93DF931F92CB
:1039A000CDB7DEB7782E7B01C42EB52E8091F603FD
:1039B000882369F0042F152F8AEFD82E872D807267
:1039C000982E9AE3A92E872D8074882E11C08FEF30
:1039D0009FEF56C0872D0E94A71C682E81110CC036
:1039E000DA94A9F361E070E080E090E00E94FF17B4
:1039F0000115110579F73BC0282F30E00217130796
:103A00000CF4602E672DCE0101960E94311C80912E
:103A1000E80085FF29C0262D30E0021B130B9920FA
:103A200039F06A948FEF6816B1F01092F100F9CF77
:103A3000F701862D77FE07C0815058F0949190933E
:103A4000F1003196F9CF815020F091919093F100DF
:103A5000FACFE20EF31E8091E80085FF0EC001153B
:103A6000110511F4811009C089818FBFC1CF84E68F
:103A70008093F8038C2D9B2D03C0A092E800F4CF17
:103A80000F90DF91CF911F910F91FF90EF90DF90FA
:103A9000CF90BF90AF909F908F907F906F90089540
:103AA0001092E9001092F3031092F2039093F10345
:103AB0008093F0030895CF92DF92FF920F931F93AC
:103AC000CF93DF9300D0CDB7DEB7F82E8A016B011C
:103AD00001151105B1F0F601F7FE02C0849101C095
:103AE000808149835A830E948D1B01501109FFEF89
:103AF000CF1ADF0A49815A818111EACF8FEF9FEFF8
:103B000001C0CA010F900F90DF91CF911F910F91CB
:103B1000FF90DF90CF900895CF93DF939B01A4E6B1
:103B2000BBEF21153105F9F0A9012134310514F05D
:103B300040E450E0E091E800E2FFFCCFFB01E21B33
:103B4000F30BE80FF91FCE2FC40FCE1729F0D09139
:103B5000F100D0833196F9CFA093F703B093E8003A
:103B6000241B350BDECFCB01DF91CF9108951F923F
:103B70000F920FB60F921124DF92EF92FF920F93E4
:103B80001F932F933F934F935F936F937F938F93E5
:103B90009F93AF93BF93EF93FF93CF93DF93CDB7F3
:103BA000DEB76C97DEBFCDBF1092E9008091E800D0
:103BB00083FF2EC1FE0175968F01AE01435E5F4FFC
:103BC0009F012F5F3F4F8091F100808324173507BD
:103BD00011F0F901F5CF84E68093F70382EF80932B
:103BE000E8005D8957FF05C08091E80080FFFCCFA9
:103BF00003C08EEF8093E800852F807609F0EFC038
:103C00004E898F89D88C41110CC0503829F480918D
:103C1000F5038093F10002C01092F1001092F100C0
:103C2000F0C0282F30E03D29413051F45111E9C056
:103C30002130310509F0E5C08091F5038D7F0BC07F
:103C4000433061F45111DDC02130310509F0D9C094
:103C50008091F50382608093F503D3C0453041F431
:103C60009091E80090FFFCCF80688093E300C9C08A
:103C7000463009F08BC0EB8CFC8C22E0D2122CC0B9
:103C800080E090E00E94501D0E941B1C99E08E0174
:103C90000F5F1F4FF801292F11922A95E9F7998399
:103CA000DA8291E09E8390EA98879AEF9987209133
:103CB000F2033091F303275F3F4F3C832B838D83C7
:103CC000C7010E94501D49E050E0B80180E00E9409
:103CD0005B1D0E941B1C95C0C7010E94501D0E94C5
:103CE000DA22B8010E947C22009719F00CF089C0FA
:103CF0008CC081E0D8120EC08B8D9C8D089719F472
:103D000081E08093EF038091EF0381112FC06FE674
:103D100071E031C0E3E0DE1278C08F89882349F179
:103D2000823029F440E86CE08AE891E01CC08130E0
:103D300029F440E868E081E891E015C0833009F09B
:103D400064C00E94DA228E010F5F1F4FB8010E94EB
:103D50009B22F80101900020E9F73197E01BF10B5D
:103D600040E06E2FC8010E94BB1B49C06DE571E0A9
:103D700002C067E971E06115710509F446C0FB01F5
:103D8000449150E080E80E945B1D3BC04730E9F160
:103D9000483021F481E08093F10033C0493089F547
:103DA000537099F5E4E4F1E081E021E036E390819D
:103DB000992361F08093E9002093EB009191909317
:103DC000EC003093ED008F5F873089F78EE78093AA
:103DD000EA001092EA008F898093F60312C08B8D5F
:103DE0009C8D0E94501D898D811104C0C8010E94C4
:103DF000AD2105C00E94DA22B8010E94BA228823B0
:103E000021F08EEF8093E80003C081E28093EB0005
:103E10006C960FB6F894DEBF0FBECDBFDF91CF9189
:103E2000FF91EF91BF91AF919F918F917F916F9192
:103E30005F914F913F912F911F910F91FF90EF90C4
:103E4000DF900F900FBE0F901F9018958093E900A0
:103E50008091F200882319F08AE38093E8000895A6
:103E60001F920F920FB60F9211242F933F934F93EF
:103E70005F936F937F938F939F93AF93BF93CF93F2
:103E8000EF93FF93C091E1008091E100837F8093E5
:103E9000E1008093E100C3FF0FC01092E90081E0D0
:103EA0008093EB001092EC0082E38093ED0010927F
:103EB000F60388E08093F000C2FF15C083E00E9403
:103EC000261F8091F803882329F08091F803815000
:103ED0008093F8038091F703882329F08091F703FA
:103EE00081508093F703C4FF10C08091E2008E7E62
:103EF00081608093E2008091E1008F7E8093E100F9
:103F00008091F4038E7E806111C0C0FF11C080914A
:103F1000E2008E7E80618093E2008091E1008E7EDF
:103F20008093E1008091F4038E7E81608093F4039E
:103F3000FF91EF91CF91BF91AF919F918F917F9121
:103F40006F915F914F913F912F910F900FBE0F9006
:103F50001F9018951092F6031092F5031092F40337
:103F60000E94F81B8091E1008E7E8093E1008DE03D
:103F70008093E200EEEFFFE7859194918B3F9C4D9B
:103F800019F481E0809349040895FC0180819181B6
:103F90000C941626CF93DF93EC01888199810097CA
:103FA00011F00E941626198218821D821C821B8223
:103FB0001A82DF91CF9108950F931F93CF93DF93D0
:103FC000EC018B016F5F7F4F888199810E94A5264C
:103FD000009731F0998388831B830A8381E001C0B5
:103FE00080E0DF91CF911F910F910895CF93DF93E0
:103FF000EC0188819981892B29F08A819B81861720
:10400000970760F4CE010E94DC1F882341F08C8169
:104010009D81892B19F4E881F981108281E0DF917B
:10402000CF910895EF92FF920F931F93CF93DF9359
:10403000EC017B018A01BA010E94F61F811104C0C4
:10404000CE010E94CA1F07C01D830C83B70188815F
:1040500099810E947827CE01DF91CF911F910F9116
:10406000FF90EF900895FC0111821082138212825A
:10407000158214826115710559F0FB010190002031
:10408000E9F7AF0141505109461B570B0C94122020
:1040900008950F931F93CF93DF938C01EB01FC01E5
:1040A00080819181009799F0428153812C813D81DB
:1040B0004217530750F0688179810E9478278C81DC
:1040C0009D81F8019583848313C00E941626888100
:1040D0009981F801918380838A819B819383828374
:1040E0008C819D8195838483198218821B821A8218
:1040F0001D821C82DF91CF911F910F910895CF9364
:10410000DF93EC018617970711F00E944920CE013A
:10411000DF91CF910895CF93DF93EC016115710585
:1041200061F0FB0101900020E9F7AF014150510916
:10413000461B570B0E94122002C00E94CA1FCE01CC
:10414000DF91CF9108950F931F93CF93DF93CDB756
:10415000DEB762970FB6F894DEBF0FBECDBF8C01FD
:10416000CB01F8011182108213821282158214820F
:1041700050E0BE016F5F7F4F0E947F27BE016F5FDF
:104180007F4FC8010E948B2062960FB6F894DEBF65
:104190000FBECDBFDF91CF911F910F910895EF9288
:1041A000FF920F931F93CF93DF93CDB7DEB7A19705
:1041B0000FB6F894DEBF0FBECDBF7C01CB01BA01B4
:1041C000F70111821082138212821582148242E05A
:1041D000420F8E010F5F1F4F0E945D25BC01C7017A
:1041E0000E948B20A1960FB6F894DEBF0FBECDBF04
:1041F000DF91CF911F910F91FF90EF900895BF92A3
:10420000CF92DF92EF92FF920F931F93CF93DF93A2
:104210006C017B01EA0189012417350720F48D2FF9
:10422000E901042F182F6BE872E0C6010E943320C9
:10423000D70114968D919C911597C817D907C8F48A
:104240008017910708F48C01D701ED91FC9111972B
:10425000E00FF11FB08010826D917C916C0F7D1F7B
:10426000C6010E948B20D701ED91FC91E00FF11F58
:10427000B082C601DF91CF911F910F91FF90EF9017
:10428000DF90CF90BF9008950895CF93DF931F9252
:10429000CDB7DEB76983DC01ED91FC910280F3813B
:1042A000E02D41E050E0BE016F5F7F4F09950F9018
:1042B000DF91CF910895CF93DF93EC018C859D859D
:1042C00097FF05C082E00E94901C9D878C878C859B
:1042D0009D85DF91CF91089583E00C94261FFC010A
:1042E0008485958597FD06C082E00E94391C90E088
:1042F0000196089582E00E94391C90E00895FC0127
:104300008485958597FD05C02FEF3FEF358724877E
:10431000089582E00C94901CCF93DF93EC01809180
:104320005501882331F083E00E94C11C181619063C
:1043300034F081E090E09B838A8380E090E0DF911D
:10434000CF910895FC0120812E5F208342E450E04C
:104350006BE971E080E80C945B1DFC012181808198
:10436000813A59F4213209F04BC047E050E06EE445
:1043700071E080E00E945B1D5EC0813209F040C0A8
:10438000233289F4838190E0982F88273281832B10
:10439000A0E0B0E080934A0190934B01A0934C01C0
:1043A000B0934D010FC0203239F467E070E08EE425
:1043B00091E00E948C1D09C0223221F482818093F9
:1043C000550103C02D7F2032B1F580914904811140
:1043D00003C0E0E0F8E002C0EEEFFAE080914E01A9
:1043E00090914F01A0915001B0915101803B9440B8
:1043F000A105B10511F58091550180FF03C01DC0D5
:1044000080E00895EE3F2AE0F20731F0808191814B
:104410009093FF0A8093FE0A87E797E79183808352
:104420002BE088E190E00FB6F894A89580936000A7
:104430000FBE2093600081E0089588E10FB6F894E4
:1044400080936000109260000FBEA895EE3F8AE056
:10445000F80739F08091FE0A9091FF0A91838083DA
:10446000EACF1092FF0A1092FE0AE5CF1092FC03E9
:104470001092FB0388EE93E0A0E0B0E08093FD0390
:104480009093FE03A093FF03B09300048EE992E0A3
:104490009093FA038093F9038FEF9FEF90930604B4
:1044A000809305040895EF92FF920F931F93CF938B
:1044B000DF937B01FC01C281D38100E010E02097F3
:1044C00081F0E881F9810280F381E02DB701CE010E
:1044D000099597FD08C0080F191F0884D985C02DBC
:1044E000EECFC80102C08FEF9FEFDF91CF911F91F8
:1044F0000F91FF90EF9008950F931F93CF93DF9349
:104500008B01FC01C281D381209771F0E881F98190
:104510000480F581E02DB801CE010995009731F4B2
:104520000884D985C02DF0CF80E090E0DF91CF9155
:104530001F910F9108950F931F93CF93DF938B01DA
:10454000FC01C281D381209771F0E881F981068056
:10455000F781E02DB801CE010995080F111D0884DF
:10456000D985C02DF0CFF8011082DF91CF911F9136
:104570000F9108950F931F93CF93DF938B01FC014D
:10458000C281D381209771F0E881F9810190F08197
:10459000E02DB801CE010995811106C00884D985A6
:1045A000C02DF0CF80E001C081E0DF91CF911F915D
:1045B0000F91089580914E0481110DC082E0809387
:1045C0004A0484E080934B0410924D0410924C04F2
:1045D00081E080934E048AE494E008955058BB270C
:1045E000AA270ED075C166D130F06BD120F031F41E
:1045F0009F3F11F41EF45BC10EF4E095E7FB51C13F
:10460000E92F77D180F3BA176207730784079507FC
:1046100018F071F49EF58FC10EF4E0950B2EBA2FB1
:10462000A02D0B01B90190010C01CA01A0011124B8
:10463000FF27591B99F0593F50F4503E68F11A1664
:10464000F040A22F232F342F4427585FF3CF4695F5
:1046500037952795A795F0405395C9F77EF41F1617
:10466000BA0B620B730B840BBAF09150A1F0FF0FE1
:10467000BB1F661F771F881FC2F70EC0BA0F621FCD
:10468000731F841F48F4879577956795B795F795BD
:104690009E3F08F0B3CF9395880F08F09927EE0F4F
:1046A000979587950895D9D008F481E008950CD0A6
:1046B0000FC107D140F0FED030F021F45F3F19F078
:1046C000F0C0511139C1F3C014D198F39923C9F343
:1046D0005523B1F3951B550BBB27AA276217730708
:1046E000840738F09F5F5F4F220F331F441FAA1FBC
:1046F000A9F333D00E2E3AF0E0E830D0915050407C
:10470000E695001CCAF729D0FE2F27D0660F771F29
:10471000881FBB1F261737074807AB07B0E809F00B
:10472000BB0B802DBF01FF2793585F4F2AF09E3FA0
:10473000510568F0B6C000C15F3FECF3983EDCF372
:10474000869577956795B795F7959F5FC9F7880F19
:10475000911D9695879597F90895E1E0660F771F6B
:10476000881FBB1F621773078407BA0720F0621BFC
:10477000730B840BBA0BEE1F88F7E095089504D0F5
:104780006894B111D9C00895BCD088F09F5790F0BB
:10479000B92F9927B751A0F0D1F0660F771F881F66
:1047A000991F1AF0BA95C9F712C0B13081F0C3D081
:1047B000B1E00895C0C0672F782F8827B85F39F01F
:1047C000B93FCCF3869577956795B395D9F73EF4C5
:1047D00090958095709561957F4F8F4F9F4F08956D
:1047E000E89409C097FB3EF490958095709561958B
:1047F0007F4F8F4F9F4F9923A9F0F92F96E9BB2741
:104800009395F695879577956795B795F111F8CFBC
:10481000FAF4BB0F11F460FF1BC06F5F7F4F8F4F27
:104820009F4F16C0882311F096E911C0772321F01D
:104830009EE8872F762F05C0662371F096E8862FB5
:1048400070E060E02AF09A95660F771F881FDAF70C
:10485000880F9695879597F90895990F0008550F39
:10486000AA0BE0E8FEEF16161706E807F907C0F0F6
:1048700012161306E407F50798F0621B730B840BFE
:10488000950B39F40A2661F0232B242B252B21F4D8
:1048900008950A2609F4A140A6958FEF811D811D78
:1048A000089597F99F6780E870E060E008959FEFB2
:1048B00080EC089500240A941616170618060906B7
:1048C000089500240A941216130614060506089586
:1048D000092E0394000C11F4882352F0BB0F40F40E
:1048E000BF2B11F460FF04C06F5F7F4F8F4F9F4F4E
:1048F000089557FD9058440F551F59F05F3F71F0D0
:104900004795880F97FB991F61F09F3F79F0879536
:104910000895121613061406551FF2CF4695F1DFBF
:1049200008C0161617061806991FF1CF869571054F
:10493000610508940895E894BB2766277727CB0183
:1049400097F908958ADF08F48FEF08950BD0C0CF50
:10495000B1DF28F0B6DF18F0952309F0A2CFA7CF7A
:104960001124EACFC6DFA0F3959FD1F3950F50E055
:10497000551F629FF001729FBB27F00DB11D639F11
:10498000AA27F00DB11DAA1F649F6627B00DA11DB7
:10499000661F829F2227B00DA11D621F739FB00D5D
:1049A000A11D621F839FA00D611D221F749F3327CD
:1049B000A00D611D231F849F600D211D822F762F66
:1049C0006A2F11249F5750408AF0E1F088234AF063
:1049D000EE0FFF1FBB1F661F771F881F91505040AF
:1049E000A9F79E3F510570F05CCFA6CF5F3FECF377
:1049F000983EDCF3869577956795B795F795E7959B
:104A00009F5FC1F7FE2B880F911D9695879597F9AB
:104A1000089523DF880B990B089597FB072E16F452
:104A2000009407D077FD09D00E94492507FC05D0E6
:104A30003EF4909581959F4F0895709561957F4FB5
:104A40000895A1E21A2EAA1BBB1BFD010DC0AA1FCF
:104A5000BB1FEE1FFF1FA217B307E407F50720F0E7
:104A6000A21BB30BE40BF50B661F771F881F991F62
:104A70001A9469F760957095809590959B01AC01AB
:104A8000BD01CF010895EE0FFF1F0590F491E02DB9
:104A90000994AA1BBB1B51E107C0AA1FBB1FA61785
:104AA000B70710F0A61BB70B881F991F5A95A9F7D7
:104AB00080959095BC01CD010895EF920F931F93BF
:104AC000CF93DF93E80147FF02C034E101C034E037
:104AD000E42FFF27E7FDF095F7FF03C0F195E1957F
:104AE000F109E32E022F2E2FAE010E94C527CE0121
:104AF000DF91CF911F910F91EF900895CF93DF93A6
:104B00008230910510F482E090E0E0915804F09139
:104B1000590420E030E0A0E0B0E0309739F1408166
:104B2000518148175907B8F04817590771F4828125
:104B30009381109729F013969C938E9312972CC013
:104B4000909359048093580427C02115310531F002
:104B50004217530718F0A901DB0101C0EF019A01C8
:104B6000BD01DF010280F381E02DD7CF2115310592
:104B7000F9F0281B390B2430310580F48A819B81A0
:104B80006115710521F0FB019383828304C090932A
:104B9000590480935804FE01329644C0FE01E20F8E
:104BA000F31F8193919322503109398328833AC0AE
:104BB0002091560430915704232B41F42091020197
:104BC0003091030130935704209356042091000143
:104BD000309101012115310541F42DB73EB74091C7
:104BE000040150910501241B350BE0915604F0910E
:104BF0005704E217F307A0F42E1B3F0B28173907C1
:104C000078F0AC014E5F5F4F2417350748F04E0F28
:104C10005F1F50935704409356048193919302C0B1
:104C2000E0E0F0E0CF01DF91CF910895CF93DF93E3
:104C3000009709F487C0FC01329713821282C09159
:104C40005804D0915904209781F420813181280F94
:104C5000391F80915604909157048217930779F574
:104C6000F0935704E09356046DC0DE0120E030E07D
:104C7000AE17BF0750F412964D915C9113979D01AA
:104C80004115510509F1DA01F3CFB383A2834081C5
:104C90005181840F951F8A179B0771F48D919C9108
:104CA0001197840F951F02969183808312968D91A0
:104CB0009C911397938382832115310529F4F093F6
:104CC0005904E09358043EC0D9011396FC93EE9327
:104CD00012974D915D91A40FB51FEA17FB0779F468
:104CE00080819181840F951F0296D90111969C9322
:104CF0008E938281938113969C938E931297E0E01A
:104D0000F0E08A819B81009719F0FE01EC01F9CF58
:104D1000CE01029628813981820F931F209156047B
:104D2000309157042817390769F4309729F4109205
:104D300059041092580402C013821282D09357046F
:104D4000C0935604DF91CF910895A0E0B0E0EBEA64
:104D5000F6E20C942F2AEC01CB01209719F40E9463
:104D60007E25B8C0FE01E60FF71F9E0122503109D3
:104D7000E217F30708F4ACC0D9010D911C9111970B
:104D800006171707B8F00530110508F49FC0A801F1
:104D9000445051094617570708F498C002501109AA
:104DA000061B170B019311936D937C93CF010E9407
:104DB00016268CC05B01A01AB10A4E01800E911E0E
:104DC000A0915804B0915904612C712C60E070E0FE
:104DD000109709F449C0A815B905C9F5ED90FC90E4
:104DE0001197670142E0C40ED11CCA14DB0478F1AC
:104DF00047018A189B08640142E0C40ED11C129638
:104E0000BC9012971396AC91B5E0CB16D10440F04C
:104E1000B282A38391828082D9018D939C9309C031
:104E20000E5F1F4F0E0D1F1DF90111830083EB2D27
:104E3000FA2F6115710531F0DB011396FC93EE93A7
:104E4000129744C0F0935904E09358043FC06D9109
:104E50007C9111976616770608F43B01BD01129606
:104E60000D90BC91A02DB4CF609156047091570461
:104E700068157905E9F468167906D0F440910001C7
:104E8000509101014115510541F44DB75EB7609154
:104E9000040170910501461B570BE417F507C0F498
:104EA000F0935704E0935604F901918380830EC078
:104EB0000E947E257C01009759F0A801BE010E9446
:104EC0006F27CE010E941626C70104C0CE0102C082
:104ED00080E090E0CDB7DEB7EEE00C944B2AFB010A
:104EE000DC0102C001900D9241505040D8F7089566
:104EF000FB01DC0101900D920020E1F7089545329D
:104F0000510520F4423010F00C948A27FB011082E6
:104F1000CB010895BB274A3031F4992322F4BDE236
:104F2000909581959F4F0C949627BB27FB015527A1
:104F3000AA27880F991FAA1FA41710F0A41B8395F6
:104F40005051B9F7A05DAA3308F0A95DA19300976D
:104F500079F7B111B1931192CB010C941B2AF999F5
:104F6000FECF92BD81BDF89A992780B50895262F6E
:104F7000F999FECF1FBA92BD81BD20BD0FB6F8943E
:104F8000FA9AF99A0FBE019608956F927F929F92B6
:104F9000AF92BF92CF92DF92EF92FF920F931F9347
:104FA000CF93DF93CDB7DEB729970FB6F894DEBF66
:104FB0000FBECDBF6A01B22E102F0C3320F4FF2498
:104FC000F394F00E02C04CE3F42E0F2D27E0AE0157
:104FD0004F5F5F4F0E9443297981272F297021302D
:104FE00031F0E1FC06C0E0FC06C060E005C06DE207
:104FF00003C06BE201C060E2AE2DA07173FF36C04A
:10500000662311F084E001C083E08B1510F4B81A18
:1050100001C0B12CA1110BC0F6018B2D90E28823A9
:1050200019F091938150FBCFCB0CD11CB12C66238E
:1050300031F0F601608396012F5F3F4F6901C60191
:105040000396E2FE05C02EE4F601208331E404C09D
:105050002EE6F601208331E631832283FC012B2DDD
:1050600030E22223F1F131932150FBCF72FF40C097
:10507000662311F084E001C083E08B1510F4B81AA8
:1050800001C0B12CA1110BC0F6018B2D90E2882339
:1050900019F091938150FBCFCB0CD11CB12C66231E
:1050A00031F0F601608396012F5F3F4F6901C60121
:1050B0000396E2FE07C029E4F60120832EE4218353
:1050C00026E406C029E6F60120832EE6218326E6A3
:1050D0002283FC012B2D30E2222319F03193215041
:1050E000FBCFFC01EB0DF11D10828EEF9FEFB7C0DF
:1050F000B1E0611101C0B0E04B2F50E01816190665
:1051000024F49C012F5F3F4F02C021E030E0240FC8
:10511000351F112329F0412F50E04F5F5F4F02C030
:1051200040E050E0420F531F2B2D30E04217530751
:1051300014F4B41A01C0B12C2E2D287159F4F601C3
:105140002B2D30E2222319F031932150FBCFCB0CD1
:10515000D11CB12CBB2331F0F601608396012F5F87
:105160003F4F6901A1110BC0F6012B2D30E3222323
:1051700019F031932150FBCFCB0CD11CB12CF80E80
:105180000A81372F3071A32E74FF03C0013309F455
:10519000FA941F142CF42F2D293018F028E001C0A8
:1051A00021E0682F392F97FF02C060E030E0462FE2
:1051B000532F612C712C3EE2932EBC01621B7109AE
:1051C0009B01DC01A41BB50BE1E0F0E0EC0FFD1F3F
:1051D000AE0FBF1FE12EF12CF194E194F1084F3F87
:1051E000FFEF5F0731F4F6019082B6016F5F7F4FEA
:1051F0006B01841795074CF02417350734F4BD0173
:10520000660D771DFB01118101C010E3415051096A
:10521000FFEF6F1A7F0AB6016F5F7F4F4E155F0574
:1052200024F0F60110836B01DACF4817590739F4DF
:10523000063320F4053319F4A11001C011E3F6017F
:105240001083FB018B2D90E2882319F091938150FC
:10525000FBCFFB01EB0DF11D108280E090E0299661
:105260000FB6F894DEBF0FBECDBFDF91CF911F9177
:105270000F91FF90EF90DF90CF90BF90AF909F90F5
:105280007F906F900895283008F027E03327DA01E7
:10529000990F311D87FD916000966105710539F404
:1052A00032602E5F3D9330E32A95E1F708959F3FEA
:1052B00030F080387105610509F03C5F3C5F3D933B
:1052C000913008F08068911DDF93CF931F930F9367
:1052D000FF92EF92192F987F9695E92F96959695C4
:1052E000E90FFF27E95CFD4F99273327EE24FF24C0
:1052F000A701E70105900894079428F4360FE71EEC
:10530000F81E491F511D660F771F881F991F0694AD
:10531000A1F70590079428F4E70EF81E491F561FC1
:10532000C11D770F881F991F661F0694A1F705906E
:10533000079428F4F80E491F561FC71FD11D880F68
:10534000991F661F771F0694A1F70590079420F414
:10535000490F561FC71FD81F990F661F771F881F39
:105360000694A9F784911095177041F0D695C795CA
:1053700057954795F794E7941A95C1F7EDEDF1E04D
:1053800068941590159135916591959105907FE2FE
:105390007395E118F10A430B560BC90BD009C0F7FE
:1053A000E10CF11E431F561FC91FD01D7EF4703340
:1053B00011F48A95E6CFE894015030F0080F0AF412
:1053C0000027021708F4202F2395022F7A3328F0A4
:1053D00079E37D932A95E9F710C07D932A9589F6A4
:1053E000069497956795379517951794E118F10AE4
:1053F000430B560BC90BD00998F023957E917395FA
:105400007A3308F070E37C932013B8F77E917061D3
:105410007D9330F0839571E37D9370E32A95E1F7F6
:105420001124EF90FF900F911F91CF91DF91992759
:1054300087FD90950895DC01FC01672F719177231A
:10544000E1F7329704C07C916D9370836291AE173F
:10545000BF07C8F308952F923F924F925F926F92C9
:105460007F928F929F92AF92BF92CF92DF92EF92F4
:10547000FF920F931F93CF93DF93CDB7DEB7CA1B75
:10548000DB0B0FB6F894DEBF0FBECDBF09942A88A0
:10549000398848885F846E847D848C849B84AA8448
:1054A000B984C884DF80EE80FD800C811B81AA81D5
:1054B000B981CE0FD11D0FB6F894DEBF0FBECDBFA0
:0854C000ED010895F894FFCFFF
:1054C80000005A04800003011E1714141C00000277
:1054D800060E0602000000080C0E0C08000004006E
:1054E8000400040004000A040A040A040A00320042
:1054F80000009001000001007216721672167216F2
:1055080072160100C18081000000FFFFFFFF00E16B
:105518000000000000002020202020202020200063
:1055280025002D4149522D00456E746572696E67DC
:105538000043616C6962726174696F6E204D6F64BB
:10554800650043616C6962726174696F6E20464FD1
:10555800323A0025204F787967656E00436C69639D
:105568006B20746F00636F6E6669726D00426164D0
:105578002043616C6962726174696F6E0044617482
:1055880061005361766564004D69784D6F6E69748A
:105598006F72007600762000302E3300506C656103
:1055A800736500526563616C69627261746500536A
:1055B80031205461726765740025200053322054ED
:1055C800617267657400546F6C6572616E63650023
:1055D80030005467742E204D69783A00202F004F10
:1055E8007074696F6E73004D656E75005365742035
:1055F8004D6978004F322053656E736F72005461A5
:1056080072676574730044697361626C6500436115
:105618006C696272617465004578697400206D5622
:10562800005332204552524F520020204D697820B5
:1056380000000000003210B219000000003D1110F7
:1056480011E510ED1000110F110D0A006E616E00CA
:10565800696E66006F7666002E0000000000452126
:0A5668008C216F217F215B216C2152
:1070000055C000006EC000006CC000006AC00000E7
:1070100068C0000066C0000064C0000062C00000DC
:1070200060C000005EC00000DAC400005AC000006A
:1070300058C0000056C0000054C0000052C00000FC
:1070400050C0000076C000004CC000004AC00000E4
:1070500048C0000046C0000044C0000042C000001C
:1070600040C000003EC000003CC000003AC000002C
:1070700038C0000036C0000034C0000032C000003C
:1070800030C000002EC000002CC000002AC000004C
:1070900028C0000026C0000024C0000022C000005C
:1070A00020C000001EC000001CC0000011241FBE34
:1070B000CFEFDAE0DEBFCDBF11E0A0E0B1E0EEEF50
:1070C000FEE702C005900D92AA3CB107D9F711E086
:1070D000AAECB1E001C01D92A03EB107E1F781D357
:1070E0000CC78ECFF89410926F001092810010920E
:1070F00085001092840081E085BF15BE47980C94EE
:10710000000008952091D4013091D5012F5F3F4FA9
:107110003093D5012093D401932F37FF03C08EEF16
:10712000831B982F990F921710F447980895479A48
:1071300008951F920F920FB60F9211242F938F93E1
:107140009F93EF93FF93109285001092840080919B
:10715000CA019091CB01009729F001979093CB0140
:107160008093CA018091CC019091CD01009729F0C4
:1071700001979093CD018093CC01E0E0F0E0859100
:1071800094918F5F9F4F49F08091CE019091CF01F4
:1071900001969093CF018093CE01FF91EF919F9143
:1071A0008F912F910F900FBE0F901F90189584E034
:1071B0008093E9000DC08091E8008B778093E80010
:1071C00003C08EB3882351F08091E80082FFF9CF8D
:1071D0008091E80085FFEFCF8091F1000895982F0E
:1071E00083E08093E9008091E80085FD0DC08091E7
:1071F000E8008E778093E80003C08EB3882361F0A7
:107200008091E80080FFF9CF9093F10084E690E050
:107210009093CB018093CA0108954F925F926F9231
:107220007F928F929F92AF92BF92CF92DF92EF9216
:10723000FF920F931F93CF93DF9384E08093E90035
:107240008091E80082FF56C284E690E09093CD01E1
:107250008093CC01ACDF182F853481F48CE195E26A
:107260009093CF018093CE0107B600FCFDCFF99932
:10727000FECF81E180935700E89503C0843519F46F
:1072800096DF8DE00DC28C34E1F38035D1F3843785
:1072900021F484E4A4DF80E003C2813611F489E59F
:1072A000FFC18134B1F483DF182F81DF90E0880FB4
:1072B000991FAA2797FDA095BA2F312F330F20E0F1
:1072C000442737FD4095542F822B932BA42BB52BAD
:1072D000B8C1803711F483E5E3C1833549F4C0E0D8
:1072E000D1E089917CDF21E0C730D207D1F7D9C145
:1072F000863521F481E373DF80E3D2C1833731F433
:1073000087E86DDF85E96BDF8EE1CAC18536B9F4A8
:10731000E0E0F0E093E085E090935700E89507B651
:1073200000FCFDCF80935700E89507B600FCFDCF29
:10733000E058FF4FA0E7E030FA0771F7A2CF82379D
:1073400039F4E1E0F0E089E0809357008491A8C12E
:10735000863439F4E0E0F0E089E0809357008491CE
:107360009FC18E3439F4E3E0F0E089E08093570068
:10737000849196C1813539F4E2E0F0E089E08093B0
:10738000570084918DC1823631F489E528DF80E091
:1073900026DF80E885C1823419F0873609F0E5C020
:1073A0001092CF011092CE0102DF082F00DFF82EDD
:1073B000FEDE682E8554823008F071C1902F80E087
:1073C000CF2DD0E0C82BD92B10926F00173609F0C3
:1073D0004BC081E180935700E895DD24CC24C39411
:1073E0003FC0E090D001F090D1010091D201109106
:1073F000D301B6E46B16D9F4ED2DF0E0EE29FF29A8
:10740000E4918E2FECDEDD2081F082E090E0A0E0C0
:10741000B0E0E80EF91E0A1F1B1FE092D001F092A7
:10742000D1010093D2011093D301DC2418C0D801FC
:10743000C701B695A7959795879549D5D0DE82E087
:1074400090E0A0E0B0E0E80EF91E0A1F1B1FE092DA
:10745000D001F092D1010093D2011093D301219772
:10746000209709F0BECF7DC08090D0019090D101CF
