:100000000C946F010C9403160C942A160C94511640
:100010000C9478160C9497010C9497010C949F16ED
:100020000C9497010C9497010C94701E0C94F71C7F
:100030000C9497010C9497010C9497010C949701E0
:100040000C9497010C9497010C9497010C949701D0
:100050000C9497010C9497010C9497010C94C6167C
:100060000C9497010C9497010C9497010C949701B0
:100070000C9497010C9497010C9497010C949701A0
:100080000C9497010C9497010C9497010C94970190
:100090000C9485140C9497010C9497010C9497017F
:1000A0000C9497010C9497010C9497012118241833
:1000B000131817181D1845184518451828182C1816
:1000C000301836183A18451840180706050401007C
:1000D000080A0B0C0D090000000200090F000003C4
:1000E0000401000C000000000000000000000000FF
:1000F0000000000000040802011040804010204071
:10010000804080080204018040201002011080100D
:1001100020404020040404040403040502020202F7
:100120000403020202020606060606060404020290
:10013000020404000000002300260029002C002FE8
:100140000000000000250028002B002E00310000D8
:10015000000000240027002A002D003000120100BA
:1001600002EF0201409A230C8000010102030112F8
:10017000010002000000409A230C800001010203EC
:1001800001416461667275697400466561746865F1
:100190007220333275340004030904080B00020294
:1001A0000201000904000001020200000524001001
:1001B00001052401010104240206052406000107AB
:1001C00005810310004009040100020A0000000735
:1001D0000502024000000705830240000000407A4B
:1001E00010F35A00A0724E18090010A5D4E80000C0
:1001F000E87648170000E40B54020000CA9A3B005E
:100200000000E1F505000080969800000040420FD4
:10021000000000A08601000000102700000000E898
:1002200003000000006400000000000A000000005D
:10023000000100000000002C76D888DC674F0823FE
:10024000DFC1DFAE59E1B1B796E5E3E453C63AE664
:1002500051997696E8E6C28426EB898C9B62ED4044
:100260007C6FFCEFBC9C9F40F2BAA56FA5F4900593
:100270005A2AF75C936B6CF9676DC11BFCE0E40DC7
:1002800047FEF520E6B500D0ED902E0300943577BB
:10029000050080841E080000204E0A000000C80CE3
:1002A000333333330F986E12831141EF8D2114894C
:1002B0003BE65516CFFEE6DB18D1844B381BF77CA6
:1002C0001D901DA4BBE424203284725E228100C9EB
:1002D000F124ECA1E53D2700C205A31376211124EA
:1002E0001FBECFEFDAE0DEBFCDBF12E0A0E0B1E08D
:1002F000E8E4F3E502C005900D92AA3AB107D9F7F8
:1003000024E0AAEAB2E001C01D92AD32B207E1F7E3
:1003100012E0CEEDD2E004C02297FE010E948524B7
:10032000C83DD107C9F70E94DF180C94A2290C948C
:10033000000080E00E94B51821E0892B09F420E03C
:100340002093C70281E00E94B51821E0892B09F4AF
:1003500020E02093C6028091C502882321F080917D
:10036000C402811109C08091C502811112C080911F
:10037000C402811163C00DC08091C702811104C005
:100380008091C602811150C08091C702882319F163
:100390001DC08091C502811105C08091C4028823CF
:1003A00009F459C08091C5028823A9F08091C40244
:1003B000811111C08091C702882321F08091C6026B
:1003C00081116EC08091C702811105C08091C60263
:1003D000882309F46FC08091C0029091C1020497F4
:1003E00034F08091C2029091C30201960CC08091BA
:1003F000C0029091C1028D3F9F4F6CF48091C20268
:100400009091C30201979093C3028093C20210920D
:10041000C1021092C0028091C7028093C5028091F0
:10042000C6028093C40208958091C0029091C102D7
:1004300001969093C1028093C002A6CF8091C7021B
:10044000811104C08091C6028823B1F08091C70257
:10045000882309F20CC08091C702882321F0809183
:10046000C602882399F08091C7028111B4CF809190
:10047000C60281111FC0AFCF8091C0029091C1020E
:1004800001969093C1028093C002E0CF8091C00298
:100490009091C10201969093C1028093C002E3CF74
:1004A0008091C0029091C10201969093C102809305
:1004B000C00288CF8091C0029091C10201979093B1
:1004C000C1028093C00287CF80E00E94B51821E06E
:1004D000892B09F420E02093C70281E00E94B5181F
:1004E00021E0892B09F420E02093C6028091C50207
:1004F000882321F08091C402811109C08091C50236
:10050000811112C08091C402811163C00DC080911D
:10051000C702811104C08091C602811150C0809130
:10052000C702882319F11DC08091C502811105C041
:100530008091C402882309F459C08091C5028823A0
:10054000A9F08091C402811111C08091C702882353
:1005500021F08091C60281116EC08091C702811185
:1005600005C08091C602882309F46FC08091C00243
:100570009091C102049734F08091C2029091C3021D
:1005800001960CC08091C0029091C1028D3F9F4F97
:100590006CF48091C2029091C30201979093C302C0
:1005A0008093C2021092C1021092C0028091C702D1
:1005B0008093C5028091C6028093C4020895809101
:1005C000C0029091C10201969093C1028093C00233
:1005D000A6CF8091C702811104C08091C6028823F2
:1005E000B1F08091C702882309F20CC08091C70244
:1005F000882321F08091C602882399F08091C70258
:100600008111B4CF8091C60281111FC0AFCF8091FC
:10061000C0029091C10201969093C1028093C002E2
:10062000E0CF8091C0029091C10201969093C102E7
:100630008093C002E3CF8091C0029091C1020196E5
:100640009093C1028093C00288CF8091C0029091A4
:10065000C10201979093C1028093C00287CF009797
:1006600029F48BED92E00E94881206C00197C1F434
:100670008BED92E00E94AD12BC01882777FD80953A
:10068000982F0E94322320E030E040E853E40E949B
:10069000E62320E03EEF4FEF56E40E9497220895B4
:1006A00060E070E0CB010895CF93FC0180819181DF
:1006B0000E942F03C1E02AE037ED43E25CE30E9491
:1006C000E22318160CF0C0E08C2FCF910895CF9242
:1006D000DF92EF92FF920F931F93CF93DF93EC0182
:1006E000E880F9808E81811135C0EE0CFF1CEE0C84
:1006F000FF1C6E0187E0C80ED11C87010C5F1F4FE5
:10070000C7010E94EF26F60181936F01FFEFEF1AF8
:10071000FF0AE016F106A1F781E08E83CF80D8842E
:10072000E984FA8422E538EB4EEC5FE3C701B601B9
:100730000E94932287FD0AC020E030E048E250E4A6
:10074000C701B6010E94E223181624F41F821886FE
:1007500019861A866F81788589859A85DF91CF9170
:100760001F910F91FF90EF90DF90CF900895CF935E
:100770000E946703C1E020E030E0A9010E94E2236B
:1007800018160CF0C0E08C2FCF910895CF93DF9313
:10079000EC010E94B703882339F0CE010E94540374
:1007A000882311F081E001C080E0DF91CF910895AE
:1007B000CF92DF92EF92FF92CF93DF93EC010E94F2
:1007C000B703882301F1CE010E9454038823D9F096
:1007D000888199810E942F0320E030E0A9010E94C6
:1007E000E223181684F4888199810E942F036B01FB
:1007F0007C01CE010E9467039B01AC01C701B601D9
:100800000E94E62303C060E070E0CB01DF91CF914E
:10081000FF90EF90DF90CF9008954F925F926F928C
:100820007F928F929F92AF92BF92CF92DF92EF9280
:10083000FF920F931F93CF93DF93EC010A811B81EB
:10084000AC80BD800E94C603811102C081E045C01A
:10085000B801882777FD8095982F0E94322320E0E9
:1008600030E040E251E40E9497226B017C01B50127
:10087000882777FD8095982F0E94322320E030E072
:1008800040E251E40E9497224B015C01CE010E949C
:10089000D8032B013C01A5019401C701B6010E94B8
:1008A0002F229B01AC01C301B2010E94E223181662
:1008B0009CF0CE010E94D8032B013C01A5019401BC
:1008C000C701B6010E942E229B01AC01C301B201F7
:1008D0000E94932287FFBACF80E0DF91CF911F91D2
:1008E0000F91FF90EF90DF90CF90BF90AF909F90CF
:1008F0008F907F906F905F904F900895AF92BF92CE
:10090000CF92DF92EF92FF920F931F93CF93DF93DB
:1009100000D000D01F92CDB7DEB76C0149835A8357
:100920006B837C83FC0100811181000F111F000F7C
:10093000111FCE0101967C015E0195E0A90EB11C4C
:10094000F70161917F01C8016D830E94EF266D81DF
:10095000681719F0C8010E94F7260F5F1F4FEA14AD
:10096000FB0471F7F60116820F900F900F900F9015
:100970000F90DF91CF911F910F91FF90EF90DF903B
:10098000CF90BF90AF9008950F931F930E94B5181A
:100990009093DA028093D902209136013091370189
:1009A00082179307A1F0892B91F40E94101760938E
:1009B000CD027093CE028093CF029093D0028091AB
:1009C000D9029091DA0290933701809336010E9408
:1009D00010170091CD021091CE022091CF023091DC
:1009E000D002601B710B820B930B00912E011091B2
:1009F0002F01209130013091310106171707280788
:100A0000390758F48091D9029091DA022091360189
:100A1000309137018217930711F480E00FC0909353
:100A20003701809336010E9410176093CD027093B6
:100A3000CE028093CF029093D00281E01F910F915C
:100A400008958BE10E94D817BC01882777FD809517
:100A5000982F0E9432239B01AC010E942F2223E396
:100A600033E343E550E40E94E62320E030E040E831
:100A70005AE30E94E6230895CF92DF92EF92FF920D
:100A8000CF93DF9300D000D0CDB7DEB76B017C01F0
:100A900085EB92E029833A834B835C830E94C603F3
:100AA00029813A814B815C8181110BC063E373E33F
:100AB00087EA91E40E942E2223E333E347EA51E4DC
:100AC00006C0C701B6010E942E22A70196010E940E
:100AD000972220E030E048EC52E40E94E62320E038
:100AE00030E040E05FE30E942F220E94FF22272F88
:100AF000862F922F97FF02C080E090E00F900F901A
:100B00000F900F90DF91CF91FF90EF90DF90CF90FB
:100B10000895CF93DF93EC018AEA92E00E940D04DE
:100B20008823A9F02091C8023091C9028091AE02B9
:100B30009091AF02A901480F591F4C175D0734F07F
:100B4000281B390B81E0C217D3070CF480E0DF913A
:100B5000CF91089540E067E080EE92E00E940D1191
:100B600066E571E080EE92E00E943E1941E067E0A8
:100B700080EE92E00E940D1166E571E080EE92E059
:100B80000C943E19CF92EF920F9325E0C22E36E0DF
:100B9000E32E0AE02BE04CE06DE080EE92E00E9454
:100BA000C51168E48BED92E00E9425120E94101797
:100BB0006093D5027093D6028093D7029093D802A7
:100BC0000E9410176093D1027093D2028093D302D7
:100BD0009093D40221ED30E03093B8022093B70215
:100BE0008FE090E09093BA028093B9021092BB021A
:100BF0001092BC021092BD021092BE021092BF026F
:100C00001092B6021092B5023093AD022093AC025E
:100C10009093AF028093AE021092B0021092B10294
:100C20001092B2021092B3021092B40281E090E0EE
:100C30009093AB028093AA020F91EF90CF9008950A
:100C4000FF920F931F93CF93DF93CDB7DEB72C970F
:100C50000FB6F894DEBF0FBECDBFF42E122F21E0E9
:100C6000AB01BC01CE0107960E940F20402F612FDF
:100C700080EE92E00E940D11FF2029F062E080EEEC
:100C800092E00E941F128B859C850597B0F023E0AF
:100C900030E040E050E0BE01695F7F4FCE01019639
:100CA0000E943F20BE016F5F7F4FCE0107960E94DA
:100CB000BF1FCE0101960E94051F8B859C8504975E
:100CC00031F06EE571E080EE92E00E943E19BE01C7
:100CD000695F7F4F80EE92E00E943019FF2061F043
:100CE00065E0610F402F80EE92E00E940D1163E0FD
:100CF00080EE92E00E941F12CE0107960E94051F0F
:100D00002C960FB6F894DEBF0FBECDBFDF91CF910A
:100D10001F910F91FF9008950F931F930E9410173A
:100D20000091D5021091D6022091D7023091D802BD
:100D3000601B710B820B930B0091320110913301F8
:100D4000209134013091350106171707280739071C
:100D500008F07CC085EB92E00E94D8032DEC3CECBF
:100D60004CEC5DE30E94E223181674F485EB92E0EC
:100D70000E94D80300E010E020E030E040E00E9454
:100D8000200660E671E015C08091CB029091CC0204
:100D900040E060E0019739F480EE92E00E940D118E
:100DA00062E671E006C080EE92E00E940D116AE5F5
:100DB00071E080EE92E00E943E198AEA92E00E9481
:100DC000D8032DEC3CEC4CEC5DE30E94E2231816BA
:100DD00074F48AEA92E00E94D80301E010E020E077
:100DE00030E040E00E94200660E671E008C041E08B
:100DF00060E080EE92E00E940D116AE571E080EE05
:100E000092E00E943E1940E066E080EE92E00E948F
:100E10000D1160E080EE92E00E941F1241E066E05A
:100E200080EE92E00E940D1160E080EE92E00E9460
:100E30001F120E9410176093D5027093D602809300
:100E4000D7029093D80281E08093CA021F910F913C
:100E50000895CF92DF92EF92FF920F931F93CF935B
:100E6000DF9380EE92E00E94061140E064E080EEA5
:100E700092E00E940D1168E671E080EE92E00E941F
:100E80003E1941E060E080EE92E00E940D1161E7C2
:100E900071E080EE92E00E943E1966ED76E080E01F
:100EA00090E00E943F1780EE92E00E94061185E1DB
:100EB0000E94B518892BD9F36AEF70E080E090E0CA
:100EC0000E943F1762E871E080EE92E00E943E19B6
:100ED00081ED90E09093C3028093C202C8EED3E00C
:100EE00085E190E00E94C404811136C08091C20265
:100EF0009091C302893E93402CF0D093C302C093DB
:100F0000C2020AC08091C2029091C30297FF04C03E
:100F10001092C3021092C2026091C2027091C30289
:100F2000882777FD8095982F0E94322320E030E0BB
:100F300040E251E40E9497226B017C0101E010E045
:100F400020E030E041E00E94200663E971E080EE9D
:100F500092E00E943E19C4CF80EE92E00E940611FA
:100F600040E067E080EE92E00E940D1160E080EECC
:100F700092E00E941F126CE971E080EE92E00E9404
:100F80003E1941E067E080EE92E00E940D1160E0C2
:100F900080EE92E00E941F1265EA71E080EE92E01E
:100FA0000E943E198091B5029091B6020E942F03D3
:100FB00020E030E0A9010E94932218166CF040E076
:100FC00060E080EE92E00E940D116BE571E080EE32
:100FD00092E00E943E190DC08091B5029091B60238
:100FE0000E942F0300E010E020E030E040E00E948B
:100FF00020066DE572E080EE92E00E943E1980913D
:10100000AA029091AB020E942F0320E030E0A901D8
:101010000E94932218166CF041E060E080EE92E0AE
:101020000E940D116BE571E080EE92E00E943E1986
:101030000DC08091AA029091AB020E942F0301E0A3
:1010400010E020E030E040E00E9420066DE572E014
:1010500080EE92E00E943E1985E190E00E94C40477
:10106000882309F49FCF85EB92E00E9454038823E4
:1010700009F47AC08091B5029091B6020E942F03C4
:101080009B01AC01C701B6010E94972222E538EB13
:101090004EEC5FE30E94E22318160CF065C08091CD
:1010A000B5029091B6020E942F039B01AC01C701CB
:1010B000B6010E94972220E030E048E250E40E940E
:1010C000932287FF51C08091B5029091B6020E9491
:1010D0002F039B01AC01C701B6010E949722AB010F
:1010E000BC0185EB92E00E947E048AEA92E00E94B5
:1010F0005403882309F461C08091AA029091AB0245
:101100000E942F039B01AC01C701B6010E949722E8
:1011100022E538EB4EEC5FE30E94E22318160CF058
:101120004CC08091AA029091AB020E942F039B01B8
:10113000AC01C701B6010E94972220E030E048E2EE
:1011400050E40E94932287FF38C08091AA029091B8
:10115000AB020E942F039B01AC01C701B6010E94A4
:101160009722AB01BC0132C085EB92E00E94540390
:10117000811104C040E050E0BA01B3CF80EE92E0AC
:101180000E9406116DEA71E080EE92E00E943E1925
:1011900041E060E080EE92E00E940D116DEB71E0A5
:1011A00080EE92E00E943E1968EB7BE080E090E0E8
:1011B0000E943F170E94290798CF8AEA92E00E9476
:1011C000540381113CC040E050E0BA018AEA92E049
:1011D0000E947E0485EB92E00E945403811107C0B7
:1011E0008AEA92E00E945403882309F447C080EE03
:1011F00092E00E94061161EB71E080EE92E00E94A5
:101200003E1941E060E080EE92E00E940D1162EC38
:1012100071E080EE92E00E943E196CED75E080E096
:1012200090E00E943F1780EE92E0DF91CF911F91F6
:101230000F91FF90EF90DF90CF900C94061180EE0D
:1012400092E00E9406116DEA71E080EE92E00E9449
:101250003E1941E060E080EE92E00E940D116DEBDE
:1012600071E080EE92E00E943E1968EB7BE080E046
:1012700090E00E943F170E942907ACCF80EE92E0D9
:101280000E9406116DEA71E080EE92E00E943E1924
:1012900041E060E080EE92E00E940D116DEB71E0A4
:1012A00080EE92E00E943E1968EB7BE080E090E0E7
:1012B0000E943F170E9429079ACF62E085E10E94B1
:1012C000461862E080E00E94461862E081E00E94D9
:1012D000461861E087E10E94461861E086E10E94BD
:1012E000461841E050E069E971E082E00E94B315E0
:1012F00041E050E064E672E083E00E94B31520E034
:1013000042E060E180EE92E00E94271146E251E067
:1013100060E080EE92E00E94E5114EE151E061E074
:1013200080EE92E00E94E51146E151E062E080EE3D
:1013300092E00E94E5114EE051E063E080EE92E021
:101340000E94E51146E051E064E080EE92E00E94E8
:10135000E5118BED92E00E942D1260E07AE08BEDBA
:1013600092E00E94311240E063E080EE92E00E9441
:101370000D1168EC71E080EE92E00E943E1941E0B0
:1013800060E080EE92E00E940D110E942105AB0109
:10139000BC0122E030E080EE92E00E94CB1A63EDC7
:1013A00071E080EE92E00E943E1941E06BE080EE39
:1013B00092E00E940D1165ED71E080EE92E00E94D6
:1013C0003E1960ED77E080E090E00E943F1780EEEC
:1013D00092E00E94061185E10E94B518892BD1F197
:1013E00085EB92E00E945403811107C08AEA92E0E3
:1013F0000E945403882371F007C085EB92E00E949D
:10140000B7038111F3CF0AC08AEA92E00E94B703C2
:10141000882321F080EE92E00C94061180EE92E099
:101420000E9406116BED71E080EE92E00E943E1981
:1014300041E060E080EE92E00E940D1162EE71E00A
:1014400080EE92E00E943E1960ED77E080E090E04F
:101450000E943F170E942907DDCF0F931F93CF9360
:10146000DF9385EB92E00E94C603882309F45DC0F8
:1014700040E067E080EE92E00E940D116EEE71E0B8
:1014800080EE92E00E943E198091B7029091B802DE
:101490009093C3028093C202C8EED3E085E190E04E
:1014A0000E94C40481113FC00E948C068091C20238
:1014B0009091C302893E93402CF0D093C302C09315
:1014C000C2020AC08091C2029091C30297FF04C079
:1014D0001092C3021092C2026091C2027091C302C4
:1014E0007093B8026093B702882777FD8095982F94
:1014F0000E94322320E030E040E251E40E94972233
:1015000001E010E027E030E041E00E94200668EFB3
:1015100071E080EE92E00E943E1964E080EE92E07D
:101520000E941F12BBCF0E94AA058AEA92E00E9485
:10153000C603882309F45DC040E067E080EE92E0D6
:101540000E940D116BEF71E080EE92E00E943E1957
:101550008091AC029091AD029093C3028093C2023D
:10156000C8EED3E085E190E00E94C40481113FC041
:101570000E948C068091C2029091C302893E9340E2
:101580002CF0D093C302C093C2020AC08091C20261
:101590009091C30297FF04C01092C3021092C2023E
:1015A0006091C2027091C3027093AD026093AC026D
:1015B000882777FD8095982F0E94322320E030E025
:1015C00040E251E40E94972201E010E027E030E081
:1015D00041E00E94200668EF71E080EE92E00E94F8
:1015E0003E1964E080EE92E00E941F12BBCF0E9481
:1015F000AA0540E067E080EE92E00E940D1165E0F0
:1016000072E080EE92E00E943E198091B9029091C2
:10161000BA029093C3028093C202C8EED3E085E180
:1016200090E00E94C404811142C00E948C06809107
:10163000C2029091C302893E93402CF0D093C30222
:10164000C093C2020AC08091C2029091C30297FF68
:1016500004C01092C3021092C2026091C202709143
:10166000C3027093BA026093B9028091C202909152
:10167000C3029093AF028093AE02882777FD8095D6
:10168000982F0E94322320E030E040E251E40E9493
:10169000972201E010E028E030E041E00E942006BF
:1016A00060E671E080EE92E00E943E19B8CF82E0E1
:1016B00090E09093CC028093CB020E94AA05DF9128
:1016C000CF911F910F910895FF920F931F93CF9386
:1016D000DF9300D000D000D0CDB7DEB7F62E042FB8
:1016E000122F4AE0BC01CE0101960E94E31F412F58
:1016F000602F80EE92E00E940D11FF2029F062E041
:1017000080EE92E00E941F128D819E81029731F03F
:101710006FE072E080EE92E00E943E19BE016F5FC2
:101720007F4F80EE92E00E943019FF2061F063E06D
:10173000600F412F80EE92E00E940D1163E080EE79
:1017400092E00E941F12CE0101960E94051F26966C
:101750000FB6F894DEBF0FBECDBFDF91CF911F91C2
:101760000F91FF9008958F929F92AF92BF92CF9268
:10177000DF92EF92FF920F931F93CF93DF9340E09E
:1017800067E080EE92E00E940D1161E172E080EE70
:1017900092E00E943E198091AC029091AD02813D91
:1017A000910529F06AE070E00E944D2402C065E1D5
:1017B00070E07093C3026093C202C3E6D0E05AE0C7
:1017C000F52E0AE010E085E190E00E94C40481114A
:1017D00042C00E948C068091C2029091C30284365E
:1017E00091052CF0D093C302C093C2020AC080912D
:1017F000C2029091C30297FF04C01092C3021092DC
:10180000C2022091C2023091C302F29EC001F39E37
:10181000900D11249093AD028093AC02B8010E9408
:101820004D24CB0121E030E047E050E061E00E9430
:10183000640B6CE172E080EE92E00E943E1921E0C0
:1018400030E04DE050E060E08091C8029091C90224
:101850000E94640BB8CF41E067E080EE92E00E9406
:101860000D1167E571E080EE92E00E943E198091D3
:10187000C8029091C9029093C3028093C2020AE009
:1018800010E046EFE42EFF24FA9485E190E00E94F8
:10189000C40481117FC00E948C06E091C202F091C5
:1018A000C3022091AC023091AD02C901B8010E947F
:1018B0004D24EB01E60FF71FE436F1055CF0C9019A
:1018C000B7010E944D246C597F4F7093C3026093FF
:1018D000C2020AC08091C2029091C30297FF04C065
:1018E0001092C3021092C202C090C202D090C302F2
:1018F000B901882777FD8095982F0E94322320E038
:1019000030E040E251E40E9497224B015C01B601B5
:10191000882777FD8095982F0E9432239B01AC0188
:1019200060E070E088EC92E40E942E229B01AC0102
:10193000C501B4010E94972220E030E04AE754E458
:101940000E94E6230E94FF227093B8026093B702C0
:101950008091C2029091C3029093C9028093C80201
:1019600021E030E048E050E060E0CE010E94640BEE
:101970006BE172E080EE92E00E943E1921E030E0DF
:101980004CE050E061E08091C8029091C9020E9451
:10199000640B7BCF0E94AA0540E067E080EE92E0F6
:1019A0000E940D1165E072E080EE92E00E943E1907
:1019B0008091B9029091BA029093C3028093C202BF
:1019C000C8EED3E085E190E00E94C404811142C0DA
:1019D0000E948C068091C2029091C302893E93407E
:1019E0002CF0D093C302C093C2020AC08091C202FD
:1019F0009091C30297FF04C01092C3021092C202DA
:101A00006091C2027091C3027093BA026093B902EE
:101A10008091C2029091C3029093AF028093AE0274
:101A2000882777FD8095982F0E94322320E030E0B0
:101A300040E251E40E94972201E010E028E030E00B
:101A400041E00E94200660E671E080EE92E00E9494
:101A50003E19B8CF0E94AA0581E090E09093CC0295
:101A60008093CB02DF91CF911F910F91FF90EF9068
:101A7000DF90CF90BF90AF909F908F9008950F937D
:101A80001F93CF93DF930E9410176093D10270933E
:101A9000D2028093D3029093D4021092C302109288
:101AA000C202C091C202D091C3020E94AA0540E0C6
:101AB00068E080EE92E00E940D116EE172E080EE2F
:101AC00092E00E943E1941E06AE080EE92E00E94BE
:101AD0000D1166E272E080EE92E00E943E190E94D3
:101AE00010170091D1021091D2022091D3023091AF
:101AF000D402601B710B820B930B663D764081050F
:101B0000910538F48091C2029091C302892B09F4A7
:101B1000F2C00E94AA051092C3021092C20204E011
:101B200010E00E948C068091C2029091C30205973A
:101B300024F01092C3021092C2028091C2029091CE
:101B4000C30297FF04C01093C3020093C2028091A6
:101B5000C2029091C3028C179D0731F00E94AA0522
:101B6000C091C202D091C3028091C2029091C3027F
:101B70008230910509F45CC02CF4009759F001976C
:101B800081F1CFCF8330910509F483C0049709F424
:101B900099C0C7CF40E067E080EE92E00E940D114F
:101BA0006BE272E080EE92E00E943E1941E067E055
:101BB00080EE92E00E940D1161EF71E080EE92E004
:101BC0000E943E1985E190E00E94C404882309F434
:101BD000A8CF0E94AA05DF91CF911F910F910C947D
:101BE000B30B40E067E080EE92E00E940D1163E3EA
:101BF00072E080EE92E00E943E1941E067E080EEE4
:101C000092E00E940D116DE372E080EE92E00E947E
:101C10003E1985E190E00E94C404882309F481CF35
:101C20000E94AA05DF91CF911F910F910C942D0A6C
:101C300040E067E080EE92E00E940D1165E472E002
:101C400080EE92E00E943E1941E067E080EE92E073
:101C50000E940D116DE372E080EE92E00E943E1949
:101C600085E190E00E94C404882309F45ACF0E94C1
:101C7000AA051092CC021092CB0260E087E10E948C
:101C80007F1860E086E1DF91CF911F910F910C9456
:101C90007F1840E067E080EE92E00E940D116DE455
:101CA00072E080EE92E00E943E1985E190E00E9491
:101CB000C404882309F435CFDF91CF911F910F9190
:101CC0000C94290740E067E080EE92E00E940D113D
:101CD00067E572E080EE92E00E943E1985E190E0B7
:101CE0000E94C404882309F41CCFDF91CF911F9177
:101CF0000F910C94AA050E948C06F1CE0F931F93AE
:101D0000CF93DF9300D000D0CDB7DEB78091CA0269
:101D1000882309F4D1C18091CB029091CC02892B08
:101D200009F056C085EB92E00E94C60340E067E0F0
:101D3000811107C080EE92E00E940D1166E571E00E
:101D400018C080EE92E00E940D1162E080EE92E0F9
:101D50000E941F128091B5029091B6020E942F033B
:101D600000E010E028E030E040E00E9420066CE552
:101D700072E080EE92E00E943E198AEA92E00E94B0
:101D8000C60341E067E0811107C080EE92E00E9447
:101D90000D1166E571E018C080EE92E00E940D1111
:101DA00062E080EE92E00E941F128091AA02909160
:101DB000AB020E942F0301E010E028E030E040E099
:101DC0000E9420066CE572E080EE92E00E943E19CF
:101DD0008091CB029091CC02019709F0ECC08AEA85
:101DE00092E00E94C603811122C040E068E080EECC
:101DF00092E00E940D1160E672E080EE92E00E9497
:101E00003E1941E067E080EE92E00E940D1166E528
:101E100071E080EE92E00E943E1961E087E10E944D
:101E20007F1861E086E10E947F180E948C068AEA92
:101E300092E00E94C603882309F4BDC040E067E039
:101E400080EE92E00E940D1185EB92E00E94C603A5
:101E50008823B1F062E080EE92E00E941F12809130
:101E6000B7029091B8026AE070E00E944D24CB0165
:101E700020E030E048E050E060E00E94640B06C0E3
:101E80006CE571E080EE92E00E943E1941E067E06F
:101E900080EE92E00E940D118AEA92E00E94C60351
:101EA0008823B1F062E080EE92E00E941F128091E0
:101EB000AC029091AD026AE070E00E944D24CB012B
:101EC00021E030E048E050E060E00E94640B06C092
:101ED0006CE571E080EE92E00E943E1940E06AE01D
:101EE00080EE92E00E940D1169E672E080EE92E0D1
:101EF0000E943E198AEA92E00E94D80320E030E076
:101F000040E05FE30E942F220E94FF22DC01CB0110
:101F100021E030E04BE050E060E00E94640B6CE1B7
:101F200072E080EE92E00E943E198AEA92E00E94FE
:101F3000D8039B01AC0185EB92E029833A834B8364
:101F40005C830E94D80329813A814B815C810E9485
:101F50003C0521E030E04EE050E060E00E94640B80
:101F60000091B9021091BA028AEA92E00E94D80365
:101F70009B01AC0185EB92E029833A834B835C8320
:101F80000E94D80329813A814B815C810E943C05E3
:101F9000B8010E948905811106C061E087E10E94B5
:101FA0007F1861E005C060E087E10E947F1860E073
:101FB00086E10E947F188091CB029091CC0202971B
:101FC00009F078C040E067E080EE92E00E940D11D9
:101FD00085EB92E00E94C6038823E9F062E080EE80
:101FE00092E00E941F126091B7027091B802882798
:101FF00077FD8095982F0E94322320E030E040E268
:1020000051E40E94972200E010E028E030E040E038
:102010000E94200606C066E571E080EE92E00E9414
:102020003E1941E067E080EE92E00E940D118AEADD
:1020300092E00E94C6038823E9F062E080EE92E01D
:102040000E941F126091AC027091AD02882777FD4B
:102050008095982F0E94322320E030E040E251E446
:102060000E94972201E010E028E030E040E00E946A
:10207000200606C066E571E080EE92E00E943E19FF
:1020800085EB92E00E940D04882361F08AEA92E0D9
:102090000E940D04882331F060E087E10E947F18E0
:1020A00060E005C061E087E10E947F1861E086E1A1
:1020B0000E947F181092CA020F900F900F900F90FD
:1020C000DF91CF911F910F9108950E948C060E947D
:1020D0007E0E85E190E00E94C40481110C943F0DB6
:1020E0000895CF93DF93EC0160E08E810E947F180A
:1020F00081E090E00E94791761E08E810E947F1854
:1021000081E090E00E94791760E08E810E947F1844
:1021100084E690E0DF91CF910C947917EF92FF92D3
:102120000F931F93CF93DF938C01C0E0D0E0E62E96
:10213000F12CB7010C2E02C0759567950A94E2F751
:102140006170F801EC0FFD1F87810E947F182196B6
:10215000C430D10571F7C801DF91CF911F910F9164
:10216000FF90EF900C947110EF92FF920F931F93DA
:10217000CF93DF938C01C0E0D0E0E62EF12CB701C5
:102180000C2E02C0759567950A94E2F76170F8010C
:10219000EC0FFD1F87810E947F182196C830D10562
:1021A00071F7C801DF91CF911F910F91FF90EF90D0
:1021B0000C9471101F93CF93DF93EC01162F642FB3
:1021C0008C810E947F188D818F3F19F060E00E9402
:1021D0007F188F85612F84FF06C0CE01DF91CF91DC
:1021E0001F910C94B41070E084E0759567958A9502
:1021F000E1F7CE010E948E10612FCE01DF91CF91C9
:102200001F910C948E1040E00C94DA1061E00E9453
:10221000031180ED97E00C947917443008F043E007
:10222000FC012389421710F04FEF420FFC01E40F2D
:10223000F11D2489260F2068622F0C940311FC01E4
:102240006089262F2460208B6C600C9403110F93FF
:102250001F93CF93DF93EC01423018F08F85886095
:102260008F874B8B1C8A80E48D8B6E8B70E0605C5B
:102270007F4F6F8B222329F0413019F48F858460C2
:102280008F8761E08C810E9446188D818F3F19F005
:1022900061E00E94461861E08E810E94461800E0CD
:1022A00010E08F8584FF03C088E090E002C084E0E6
:1022B00090E00817190754F4FE01E00FF11F61E0E8
:1022C00087810E9446180F5F1F4FEBCF80E593EC8C
:1022D0000E94791760E08C810E947F1860E08E81F7
:1022E0000E947F188D818F3F19F060E00E947F1857
:1022F0006F8564FD1DC063E0CE010E948E1084E9ED
:1023000091E10E94791763E0CE010E948E1084E96A
:1023100091E10E94791763E0CE010E948E1086E958
:1023200090E00E94791762E0CE010E948E1016C0E4
:102330006062CE010E94031184E991E10E94791745
:102340006F856062CE010E94031186E990E00E94D1
:1023500079176F856062CE010E9403116F856062FC
:10236000CE010E94031184E0888BCE010E941F11D0
:10237000CE010E94061182E0898B66E0CE01DF91DA
:10238000CF911F910F910C940311CF92EF920F9365
:10239000FC011382128284E792E09183808364833C
:1023A0008FEF8583468327830087E186C286138665
:1023B000148615861686178620E041E060E1CF017D
:1023C0000F91EF90CF900C942711CF92DF92EF9264
:1023D000FF920F931F93CF93DF9300D0CDB7DEB75B
:1023E0008C01677088E0689FB00111246064C801A7
:1023F00049835A830E9403114981C42E5A81D52EE4
:10240000E12CF12CD6016D916D01D801ED91FC917B
:102410000190F081E02DC8010995BFEFEB1AFB0A8E
:10242000E8E0EE16F10471F70F900F90DF91CF9175
:102430001F910F91FF90EF90DF90CF90089541E0B2
:102440000E94DA1081E090E00895FC01148213826A
:10245000608388E081831282089588EF92E00C9473
:102460006913FC017483638308951F93CF93DF93F3
:1024700000D0CDB7DEB7162F682F88EF92E04A83E1
:1024800059830E948313612F88EF92E00E942A13E0
:102490005981652F88EF92E00E942A134A81642FA8
:1024A00088EF92E00E942A1388EF92E00F900F903D
:1024B000DF91CF911F910C94A0131F93CF93DF93C3
:1024C000182F682F88EF92E00E94831360E088EF56
:1024D00092E00E942A1388EF92E00E94A01342E04B
:1024E000612F88EF92E00E94801388EF92E00E94B3
:1024F000DA12182F88EF92E00E94DA12D12F20E032
:10250000C22F9E01282BC901DF91CF911F91089501
:10251000CF93DF93EC014B815C814368516861E0AC
:1025200088810E943512698170E080E090E00E940D
:102530003F1788810E945D122A81022E02C0969563
:1025400087950A94E2F7222329F0811528E0920763
:1025500008F0906FDF91CF910895CF93DF93EC0156
:102560004B815C814368516B61E088810E94351228
:10257000698170E080E090E00E943F1788810E94AE
:102580005D122A81022E02C0969587950A94E2F781
:10259000222329F0811528E0920708F0906FDF913F
:1025A000CF9108958091280390E020912903821B08
:1025B000910908952091290380912803281750F448
:1025C000E22FF0E0E65DFC4F808190E02F5F2093EA
:1025D000290308958FEF9FEF0895E09129038091DB
:1025E0002803E81730F4F0E0E65DFC4F808190E0CE
:1025F00008958FEF9FEF08950895CF92DF92EF92A5
:10260000FF920F931F93CF93DF937C01CB018A013D
:1026100020910403222389F0EB016B01C40ED51E27
:10262000CC15DD0569F06991D701ED91FC91019020
:10263000F081E02DC7010995F3CF642F0E945C144F
:10264000C801DF91CF911F910F91FF90EF90DF9024
:10265000CF900895CF93DF931F92CDB7DEB76983F4
:10266000209104032223D1F020910503203240F071
:1026700021E030E0FC013383228380E090E015C04C
:1026800080910603E82FF0E0E95FFC4F9981908389
:102690008F5F809306038093050305C061E0CE0140
:1026A00001960E945C1481E090E00F90DF91CF9141
:1026B0000895FC011382128248EE53E060E070E05E
:1026C00044835583668377838CE792E0918380838C
:1026D0000895109229031092280310920603109275
:1026E00005030C94A713862F413208F040E26AE2FA
:1026F00073E00E94C5131092290380932803089564
:1027000021E00C94731381E080930403609327030A
:10271000109206031092050308950F93062F21E0EF
:102720004091050367E073E0809127030E9409143C
:102730001092060310920503109204030F9108955E
:1027400061E00C948D1388EF92E00C945913109271
:10275000B70381E08093B5031092B40361E082E097
:102760000E947F1861E083E00E947F18E9EBF0E0AF
:1027700080818E7F808380818D7F808380E28093C3
:10278000B80085E48093BC000895413208F03FC052
:102790009091B7039111FCCF91E09093B7032093F0
:1027A000B5032FEF20934A0310928F03240F209339
:1027B0008E039093B6039091B603880F892B809374
:1027C000B6038091B403813041F41092B403809138
:1027D000B6038093BB0085EC01C085EE8093BC00FE
:1027E0008091B7038130E1F380918F03841710F457
:1027F00040918F0320E933E0FB01D9018A2F821B2E
:10280000841718F48D918193F9CF842F089580E077
:1028100008950F93413208F046C09091B70391118B
:10282000FCCF92E09093B7030093B5039FEF909392
:102830004A0310928F0340938E03FB0160E973E01B
:10284000DB019A2F961B941718F491919D93F9CF61
:102850001092B6039091B603880F892B8093B6032C
:102860008091B403813041F41092B4038091B60397
:102870008093BB0085EC01C085EE8093BC002223D1
:1028800021F08091B7038230E1F380914A038F3FBA
:1028900061F080914A03803251F080914A03803385
:1028A00041F483E007C081E005C080E003C082E01E
:1028B00001C084E00F910895613298F42091B7032C
:1028C000243089F460936C03FC018EE693E0DC0114
:1028D0002A2F281B261718F421912D93F9CF80E079
:1028E000089581E0089582E0089585ED8093BC000D
:1028F0008091BC0084FDFCCF1092B703089585EC55
:102900008093BC001092B70308951F920F920FB6E8
:102910000F9211242F933F934F935F936F937F9365
:102920008F939F93AF93BF93EF93FF938091B900E1
:10293000887F803609F49CC068F5883209F45BC052
:1029400090F4803109F454C038F4882309F4F5C0B8
:10295000883009F44DC0F5C0883109F44CC080328C
:1029600009F45DC0EEC0803409F468C048F48033D7
:1029700009F455C0883309F0E4C080934A03A8C025
:10298000803509F44FC0883509F45DC0883409F0FA
:10299000D8C0D5C0883909F4C6C0A8F4883709F46E
:1029A00067C038F4883609F463C0803709F460C022
:1029B000C8C0883809F4B7C0803909F45FC08038CE
:1029C00009F0BFC05BC0803B09F485C038F4803A91
:1029D00009F466C0883A09F47EC0B3C0803C09F4AB
:1029E000A6C0883C09F4A3C0883B09F489C0A9C0EB
:1029F0008091B60310C090918F0380918E03981739
:102A000070F5E0918F0381E08E0F80938F03F0E0EB
:102A1000E057FC4F80818093BB0085EC85C080939C
:102A20004A038DC0E0918F0381E08E0F80938F0366
:102A30008091BB00F0E0E057FC4F808390918F03C2
:102A400080918E036DC0E0918F0381E08E0F8093A3
:102A50008F038091BB00F0E0E057FC4F80838091B2
:102A6000B50381116CC081E08093B40384EA60C037
:102A700083E08093B70310924B03CFCF80914B0339
:102A8000803208F050C0E0914B0381E08E0F8093BC
:102A90004B038091BB00F0E0E45BFC4F8083BDCF33
:102AA00080914B03803230F4E0914B03F0E0E45B23
:102AB000FC4F10820E94751460914B0370E0E0910E
:102AC000B003F091B1038CE493E0099510924B03AD
:102AD0000E947F1436C084E08093B70310926D0388
:102AE00010926C03E091B203F091B30309958091C9
:102AF0006C03811105C081E080936C0310926E031A
:102B0000E0916D0381E08E0F80936D03F0E0E25958
:102B1000FC4F80818093BB0090916D0380916C038A
:102B2000981708F47ACF85E88093BC000AC085EC3A
:102B30008093BC001092B70304C010924A030E9415
:102B40007514FF91EF91BF91AF919F918F917F91FC
:102B50006F915F914F913F912F910F900FBE0F900A
:102B60001F9018950895853008F04CC0E82FF0E0CC
:102B7000EE0FFF1FE85CFE4F718360838230E1F04F
:102B800018F4813069F004C0833019F1843071F198
:102B9000809169008C7F842B80936900E89A089566
:102BA00080916900440F551F440F551F837F842B6C
:102BB00080936900E99A08958091690034E0440F98
:102BC000551F3A95E1F78F7C842B80936900EA9A30
:102BD00008958091690026E0440F551F2A95E1F77A
:102BE0008F73842B80936900EB9A089580916A001B
:102BF00094E0440F551F9A95E1F78F7C842B8093C6
:102C00006A00EE9A08951F920F920FB60F92112448
:102C10002F933F934F935F936F937F938F939F93E4
:102C2000AF93BF93EF93FF93E0913801F091390197
:102C30000995FF91EF91BF91AF919F918F917F91F6
:102C40006F915F914F913F912F910F900FBE0F9019
:102C50001F9018951F920F920FB60F9211242F9369
:102C60003F934F935F936F937F938F939F93AF9314
:102C7000BF93EF93FF93E0913A01F0913B010995E7
:102C8000FF91EF91BF91AF919F918F917F916F9144
:102C90005F914F913F912F910F900FBE0F901F901A
:102CA00018951F920F920FB60F9211242F933F93F6
:102CB0004F935F936F937F938F939F93AF93BF9344
:102CC000EF93FF93E0913C01F0913D010995FF9155
:102CD000EF91BF91AF919F918F917F916F915F9194
:102CE0004F913F912F910F900FBE0F901F9018950D
:102CF0001F920F920FB60F9211242F933F934F9371
:102D00005F936F937F938F939F93AF93BF93EF9353
:102D1000FF93E0913E01F0913F010995FF91EF9102
:102D2000BF91AF919F918F917F916F915F914F91E3
:102D30003F912F910F900FBE0F901F9018951F92EB
:102D40000F920FB60F9211242F933F934F935F93DF
:102D50006F937F938F939F93AF93BF93EF93FF9363
:102D6000E0914001F09141010995FF91EF91BF91F0
:102D7000AF919F918F917F916F915F914F913F9113
:102D80002F910F900FBE0F901F9018951F920F92CA
:102D90000FB60F9211242F933F938F939F93AF936E
:102DA000BF938091B9039091BA03A091BB03B091F6
:102DB000BC033091B80326E0230F2D3720F4029690
:102DC000A11DB11D05C029E8230F0396A11DB11D4A
:102DD0002093B8038093B9039093BA03A093BB03E5
:102DE000B093BC038091BD039091BE03A091BF033B
:102DF000B091C0030196A11DB11D8093BD039093B6
:102E0000BE03A093BF03B093C003BF91AF919F9146
:102E10008F913F912F910F900FBE0F901F9018959B
:102E20002FB7F8946091B9037091BA038091BB03F6
:102E30009091BC032FBF08953FB7F8948091BD03D4
:102E40009091BE03A091BF03B091C00326B5A89B8B
:102E500005C02F3F19F00196A11DB11D3FBF662788
:102E6000782F892F9A2F620F711D811D911D43E0CC
:102E7000660F771F881F991F4A95D1F708958F9283
:102E80009F92AF92BF92CF92DF92EF92FF926B012F
:102E90007C010E941C174B015C01C114D104E104A8
:102EA000F104F1F00E9484200E941C17681979092E
:102EB0008A099B09683E73408105910570F321E002
:102EC000C21AD108E108F10888EE880E83E0981E46
:102ED000A11CB11CC114D104E104F10429F7DDCF18
:102EE000FF90EF90DF90CF90BF90AF909F908F902A
:102EF00008958330910528F0880F991F0497019752
:102F0000F1F70895789484B5826084BD84B58160BA
:102F100084BD85B5826085BD85B5816085BDEEE6E1
:102F2000F0E0808181608083E1E8F0E010828081C0
:102F300082608083808181608083E0E8F0E080812E
:102F400081608083E1E9F0E080818260808380811C
:102F500081608083E0E9F0E0808181608083E1EC42
:102F6000F0E08081846080838081826080838081C2
:102F700081608083E3ECF0E0808181608083E0EC1D
:102F8000F0E0808182608083E2ECF0E0808181600B
:102F90008083EAE7F0E080818460808380818260C2
:102FA000808380818E7F8083808180688083089584
:102FB000823108F08251E82FF0E0E653FF4FE491B0
:102FC00080917B00E3FB222720F930E095E0220F7F
:102FD000331F9A95E1F78F7D822B80937B00E770FA
:102FE0008091420120E4829FC0011124E82BE093EC
:102FF0007C0080917A00806480937A0080917A00CE
:1030000086FDFCCF809178002091790090E0922B92
:10301000089590E0FC013197EF30F105B0F5EA5AE0
:10302000FF4F0C948324809180008F7703C08091A0
:1030300080008F7D80938000089580918000877F3D
:10304000F9CF84B58F7702C084B58F7D84BD089594
:10305000809190008F7707C0809190008F7D03C092
:1030600080919000877F8093900008958091C000A8
:103070008F7703C08091C0008F7D8093C00008953A
:103080008091C200877F8093C2000895CF93DF9321
:1030900090E0FC01EB50FF4F2491FC01EC5EFE4FF1
:1030A0008491882349F190E0880F991FFC01E15B2E
:1030B000FE4FA591B4918F5B9E4FFC01C591D491B9
:1030C0009FB7611108C0F8948C91209582238C934E
:1030D000888182230AC0623051F4F8948C91322F97
:1030E000309583238C938881822B888304C0F89445
:1030F0008C91822B8C939FBFDF91CF9108950F937A
:103100001F93CF93DF931F92CDB7DEB7282F30E008
:10311000F901EA52FF4F8491F901EB50FF4F1491EE
:10312000F901EC5EFE4F04910023C9F0882321F0E1
:1031300069830E9409186981E02FF0E0EE0FFF1FFC
:10314000EF5BFE4FA591B4919FB7F8948C916111FC
:1031500003C01095812301C0812B8C939FBF0F90DA
:10316000DF91CF911F910F910895CF93DF93282F77
:1031700030E0F901EA52FF4F8491F901EB50FF4F23
:10318000D491F901EC5EFE4FC491CC2391F08111F2
:103190000E940918EC2FF0E0EE0FFF1FED5CFE4FD0
:1031A000A591B4912C912D2381E090E021F480E051
:1031B00002C080E090E0DF91CF91089508950E94D1
:1031C00082170E94DE1881EC93E00E94EA1E0E94A2
:1031D0005D09C0E0D0E00E9465102097E1F30E94F5
:1031E0000000F9CFCF92DF92EF92FF920F931F93DF
:1031F000CF93DF937C016A01EB0100E010E00C1536
:103200001D0571F06991D701ED91FC910190F0815C
:10321000E02DC7010995892B19F00F5F1F4FEFCFE4
:10322000C801DF91CF911F910F91FF90EF90DF9038
:10323000CF9008956115710581F0DB010D9000209C
:10324000E9F7AD0141505109461B570BDC01ED91E7
:10325000FC910280F381E02D099480E090E00895D4
:10326000DC01ED91FC91DB0114964D915C91159779
:103270006D917C910280F381E02D09940C941A19D0
:10328000DC01ED91FC910190F081E02D09948F9289
:103290009F92AF92BF92DF92EF92FF920F931F9394
:1032A000CF93DF93CDB7DEB7A1970FB6F894DEBF0B
:1032B0000FBECDBF7C01F42FD52ECB0119A2223039
:1032C00008F42AE08E010F5D1F4F822E912CA12C55
:1032D000B12C6F2F7D2DA50194010E946124F22F46
:1032E000D32ECA01015011096A3014F4E0E301C081
:1032F000E7E3E60FD801EC93232B242B252B49F78A
:10330000B801C7010E941A19A1960FB6F894DEBF42
:103310000FBECDBFDF91CF911F910F91FF90EF9026
:10332000DF90BF90AF909F908F900895CF92DF92E3
:10333000EF92FF920F931F93CF93DF93EC016A01FB
:103340007B012115310579F4E881F9810190F08143
:10335000E02D642FDF91CF911F910F91FF90EF909F
:10336000DF90CF9009942A303105E9F477FF1AC035
:103370006DE20E9440198C0144275527BA014C196F
:103380005D096E097F092AE0CE010E944719800F6E
:10339000911FDF91CF911F910F91FF90EF90DF90E0
:1033A000CF9008952AE0B701A601CE01DF91CF9119
:1033B0001F910F91FF90EF90DF90CF900C944719E1
:1033C0004F925F926F927F928F929F92AF92BF9235
:1033D000CF92DF92EF92FF920F931F93CF93DF93E1
:1033E000EC016A017B01B22E9A01AB01C701B60163
:1033F0000E944924882319F06BE872E027C0260157
:103400003701E89477F82FEF3FEF4FE75FE7C3010D
:10341000B2010E94492481110DC02FEF3FEF4FE709
:103420005FE7C301B2010E94932218161CF46FE8F3
:1034300072E00CC02FEF3FEF4FE75FE4C701B6012A
:103440000E94E2231816ACF463E972E0CE01DF912A
:10345000CF911F910F91FF90EF90DF90CF90BF9091
:10346000AF909F908F907F906F905F904F900C9453
:103470001A192FEF3FEF4FE75FECC701B6010E942B
:10348000932287FDE1CF20E030E0A901C701B6011A
:103490000E94932287FF0AC06DE2CE010E9440196C
:1034A0008C01F7FAF094F7F8F09402C000E010E015
:1034B000A12C60E070E080E09FE3AB1441F020E0DD
:1034C00030E040E251E40E949722A394F6CF9B01A2
:1034D000AC01C701B6010E942F226B017C010E9442
:1034E00004232B013C010E9430239B01AC01C70146
:1034F000B6010E942E226B017C012AE0B301A201D9
:10350000CE010E944719080F191FBB2039F067E947
:1035100072E0CE010E941A19080F191F7B2C772028
:1035200041F120E030E040E251E4C701B6010E94E1
:10353000E6236B017C010E94FF224B01AA2497FC29
:10354000A094BA2C2AE030E0B501A401CE010E947B
:103550009619080F191FC501B4010E9432239B015F
:10356000AC01C701B6010E942E226B017C017A9446
:10357000D6CFC801DF91CF911F910F91FF90EF90AF
:10358000DF90CF90BF90AF909F908F907F906F9083
:103590005F904F9008950C94E0194091C5035091AD
:1035A000C6032091C3033091C40342175307B4F4F8
:1035B0009091E8009570E1F39091E80092FD19C0B8
:1035C0008093F1008091C5039091C60301968F739B
:1035D0009927892B19F48EEF8093E8008091C50319
:1035E0009091C60301969093C6038093C50381E032
:1035F000089580E00895CF92DF92EF92FF920F93AB
:103600001F93CF93DF931F92CDB7DEB7082F162FEE
:10361000F42E862F880F8E5F99830E94CD1A83E047
:103620000E94CD1AE02EC02E9981D92E8C2D8E1994
:10363000811798F4F601F7FE02C0849101C08081E1
:103640000E94CD1A082F80E00E94CD1A8023FFEF40
:10365000CF1ADF0A8111EACF01C081E00F90DF911C
:10366000CF911F910F91FF90EF90DF90CF90089531
:103670008091D70081608093D70080EA8093D80042
:1036800089B58F7E89BD89B5826089BD09B400FE88
:10369000FDCF61E070E080E090E00E943F178091F4
:1036A000D8008F7C80618093D8008091E000807F7B
:1036B0008093E0000895CF93DF931F92CDB7DEB7DC
:1036C0001982CE0101960E94E2200E941A22BE01B8
:1036D0006F5F7F4F0E94932189810F90DF91CF917F
:1036E00008952FB7FC012083F89467706093E90078
:1036F0000895CF93DF931F92CDB7DEB7682FCE0129
:1037000001960E94711B8091F20099819FBF0F90DA
:10371000DF91CF910895FF920F931F93CF93DF9383
:1037200000D0CDB7DEB7F62E8A019091C903992358
:1037300011F057FF03C08FEF9FEF2AC0682FCE0113
:1037400001967A830E94711B8091F20090E0A8019B
:103750007A81801791070CF4AC01EF2DF72FF40E4E
:1037600084E6FE1631F08093CA039091F1009193A4
:10377000F8CF4115510521F08091F200882321F006
:1037800089818FBFCA0104C08BE68093E800F8CF1F
:103790000F900F90DF91CF911F910F91FF9008959F
:1037A000CF93DF931F92CDB7DEB741E050E0BE016B
:1037B0006F5F7F4F0E948B1B019719F4898190E006
:1037C00002C08FEF9FEF0F90DF91CF910895CF93BD
:1037D000DF931F92CDB7DEB7682FCE0101960E940E
:1037E000711B9091E800892F807295FF04C0909121
:1037F000F20080E4891B99819FBF0F90DF91CF91E8
:1038000008956F927F928F929F92AF92BF92CF92C4
:10381000DF92EF92FF920F931F93CF93DF931F924C
:10382000CDB7DEB7782E7B01C42EB52E8091C903AB
:10383000882369F0042F152F8AEFD82E872D8072E8
:10384000982E9AE3A92E872D8074882E11C08FEFB1
:103850009FEF56C0872D0E94E71B682E81110CC078
:10386000DA94A9F361E070E080E090E00E943F17F5
:103870000115110579F73BC0282F30E00217130717
:103880000CF4602E672DCE0101960E94711B809171
:10389000E80085FF29C0262D30E0021B130B99207C
:1038A00039F06A948FEF6816B1F01092F100F9CFF9
:1038B000F701862D77FE07C0815058F094919093C0
:1038C000F1003196F9CF815020F091919093F10061
:1038D000FACFE20EF31E8091E80085FF0EC00115BD
:1038E000110511F4811009C089818FBFC1CF84E611
:1038F0008093CB038C2D9B2D03C0A092E800F4CFC6
:103900000F90DF91CF911F910F91FF90EF90DF907B
:10391000CF90BF90AF909F908F907F906F900895C1
:103920001092E9001092C6031092C5039093C4034D
:103930008093C3030895CF92DF92FF920F931F935A
:10394000CF93DF9300D0CDB7DEB7F82E8A016B019D
:1039500001151105B1F0F601F7FE02C0849101C016
:10396000808149835A830E94CD1A01501109FFEFCB
:10397000CF1ADF0A49815A818111EACF8FEF9FEF79
:1039800001C0CA010F900F90DF91CF911F910F914D
:10399000FF90DF90CF900895CF93DF939B01A4E633
:1039A000BBEF21153105F9F0A9012134310514F0DF
:1039B00040E450E0E091E800E2FFFCCFFB01E21BB5
:1039C000F30BE80FF91FCE2FC40FCE1729F0D091BB
:1039D000F100D0833196F9CFA093CA03B093E800E9
:1039E000241B350BDECFCB01DF91CF9108951F92C1
:1039F0000F920FB60F921124DF92EF92FF920F9366
:103A00001F932F933F934F935F936F937F938F9366
:103A10009F93AF93BF93EF93FF93CF93DF93CDB774
:103A2000DEB76C97DEBFCDBF1092E9008091E80051
:103A300083FF2EC1FE0175968F01AE01435E5F4F7D
:103A40009F012F5F3F4F8091F1008083241735073E
:103A500011F0F901F5CF84E68093CA0382EF8093D9
:103A6000E8005D8957FF05C08091E80080FFFCCF2A
:103A700003C08EEF8093E800852F807609F0EFC0B9
:103A80004E898F89D88C41110CC0503829F480910F
:103A9000C8038093F10002C01092F1001092F1006F
:103AA000F0C0282F30E03D29413051F45111E9C0D8
:103AB0002130310509F0E5C08091C8038D7F0BC02E
:103AC000433061F45111DDC02130310509F0D9C016
:103AD0008091C80382608093C803D3C0453041F40D
:103AE0009091E80090FFFCCF80688093E300C9C00C
:103AF000463009F08BC0EB8CFC8C22E0D2122CC03B
:103B000080E090E00E94901C0E945B1B99E08E0177
:103B10000F5F1F4FF801292F11922A95E9F799831A
:103B2000DA8291E09E8390EA98879AEF99872091B4
:103B3000C5033091C603275F3F4F3C832B838D83A2
:103B4000C7010E94901C49E050E0B80180E00E944B
:103B50009B1C0E945B1B95C0C7010E94901C0E9489
:103B60001A22B8010E94BC21009719F00CF089C0FC
:103B70008CC081E0D8120EC08B8D9C8D089719F4F3
:103B800081E08093C2038091C20381112FC06FE650
:103B900071E031C0E3E0DE1278C08F89882349F1FB
:103BA000823029F440E86CE08AE891E01CC0813062
:103BB00029F440E868E081E891E015C0833009F01D
:103BC00064C00E941A228E010F5F1F4FB8010E942D
:103BD000DB21F80101900020E9F73197E01BF10BA0
:103BE00040E06E2FC8010E94FB1A49C06DE571E0EC
:103BF00002C067E971E06115710509F446C0FB0177
:103C0000449150E080E80E949B1C3BC04730E9F1A2
:103C1000483021F481E08093F10033C0493089F5C8
:103C2000537099F5E4E4F1E081E021E036E390811E
:103C3000992361F08093E9002093EB009191909398
:103C4000EC003093ED008F5F873089F78EE780932B
:103C5000EA001092EA008F898093C90312C08B8D0D
:103C60009C8D0E94901C898D811104C0C8010E9406
:103C7000ED2005C00E941A22B8010E94FA21882373
:103C800021F08EEF8093E80003C081E28093EB0087
:103C90006C960FB6F894DEBF0FBECDBFDF91CF910B
:103CA000FF91EF91BF91AF919F918F917F916F9114
:103CB0005F914F913F912F911F910F91FF90EF9046
:103CC000DF900F900FBE0F901F9018958093E90022
:103CD0008091F200882319F08AE38093E800089528
:103CE0001F920F920FB60F9211242F933F934F9371
:103CF0005F936F937F938F939F93AF93BF93CF9374
:103D0000EF93FF93C091E1008091E100837F809366
:103D1000E1008093E100C3FF0FC01092E90081E051
:103D20008093EB001092EC0082E38093ED00109200
:103D3000C90388E08093F000C2FF15C083E00E94B1
:103D4000661E8091CB03882329F08091CB0381509C
:103D50008093CB038091CA03882329F08091CA0302
:103D600081508093CA03C4FF10C08091E2008E7E10
:103D700081608093E2008091E1008F7E8093E1007A
:103D80008091C7038E7E806111C0C0FF11C08091F9
:103D9000E2008E7E80618093E2008091E1008E7E61
:103DA0008093E1008091C7038E7E81608093C7037A
:103DB000FF91EF91CF91BF91AF919F918F917F91A3
:103DC0006F915F914F913F912F910F900FBE0F9088
:103DD0001F9018951092C9031092C8031092C70340
:103DE0000E94381B8091E1008E7E8093E1008DE07F
:103DF0008093E200EEEFFFE7859194918B3F9C4D1D
:103E000019F481E080931C040895FC018081918164
:103E10000C945625CF93DF93EC018881998100970C
:103E200011F00E945625198218821D821C821B8265
:103E30001A82DF91CF9108950F931F93CF93DF9351
:103E4000EC018B016F5F7F4F888199810E94E5258E
:103E5000009731F0998388831B830A8381E001C036
:103E600080E0DF91CF911F910F910895CF93DF9361
:103E7000EC0188819981892B29F08A819B818617A1
:103E8000970760F4CE010E941C1F882341F08C81AB
:103E90009D81892B19F4E881F981108281E0DF91FD
:103EA000CF910895EF92FF920F931F93CF93DF93DB
:103EB000EC017B018A01BA010E94361F811104C006
:103EC000CE010E940A1F07C01D830C83B7018881A1
:103ED00099810E94B826CE01DF91CF911F910F9159
:103EE000FF90EF900895FC011182108213821282DC
:103EF000158214826115710559F0FB0101900020B3
:103F0000E9F7AF0141505109461B570B0C94521F62
:103F100008950F931F93CF93DF938C01EB01FC0166
:103F200080819181009799F0428153812C813D815C
:103F30004217530750F0688179810E94B8268C811E
:103F40009D81F8019583848313C00E945625888142
:103F50009981F801918380838A819B8193838283F5
:103F60008C819D8195838483198218821B821A8299
:103F70001D821C82DF91CF911F910F910895CF93E5
:103F8000DF93EC018617970711F00E94891FCE017D
:103F9000DF91CF910895CF93DF93EC016115710507
:103FA00061F0FB0101900020E9F7AF014150510998
:103FB000461B570B0E94521F02C00E940A1FCE01CF
:103FC000DF91CF9108950F931F93CF93DF93CDB7D8
:103FD000DEB762970FB6F894DEBF0FBECDBF8C017F
:103FE000CB01F80111821082138212821582148291
:103FF00050E0BE016F5F7F4F0E94BF26BE016F5F22
:104000007F4FC8010E94CB1F62960FB6F894DEBFA7
:104010000FBECDBFDF91CF911F910F910895EF9209
:10402000FF920F931F93CF93DF93CDB7DEB7A19786
:104030000FB6F894DEBF0FBECDBF7C01CB01BA0135
:10404000F70111821082138212821582148242E0DB
:10405000420F8E010F5F1F4F0E949D24BC01C701BC
:104060000E94CB1FA1960FB6F894DEBF0FBECDBF46
:10407000DF91CF911F910F91FF90EF900895BF9224
:10408000CF92DF92EF92FF920F931F93CF93DF9324
:104090006C017B01EA0189012417350720F48D2F7B
:1040A000E901042F182F6AE872E0C6010E94731F0D
:1040B000D70114968D919C911597C817D907C8F40C
:1040C0008017910708F48C01D701ED91FC911197AD
:1040D000E00FF11FB08010826D917C916C0F7D1FFD
:1040E000C6010E94CB1FD701ED91FC91E00FF11F9B
:1040F000B082C601DF91CF911F910F91FF90EF9099
:10410000DF90CF90BF9008950895CF93DF931F92D3
:10411000CDB7DEB76983DC01ED91FC910280F381BC
:10412000E02D41E050E0BE016F5F7F4F09950F9099
:10413000DF91CF910895CF93DF93EC018C859D851E
:1041400097FF05C082E00E94D01B9D878C878C85DD
:104150009D85DF91CF91089583E00C94661EFC014C
:104160008485958597FD06C082E00E94791B90E0CA
:104170000196089582E00E94791B90E00895FC0169
:104180008485958597FD05C02FEF3FEF3587248700
:10419000089582E00C94D01BCF93DF93EC018091C3
:1041A0005501882331F083E00E94011C181619067E
:1041B00034F081E090E09B838A8380E090E0DF919F
:1041C000CF910895FC0120812E5F208342E450E0CE
:1041D0006BE971E080E80C949B1CFC0121818081DB
:1041E000813A59F4213209F04BC047E050E06EE4C7
:1041F00071E080E00E949B1C5EC0813209F040C0EB
:10420000233289F4838190E0982F88273281832B91
:10421000A0E0B0E080934A0190934B01A0934C0141
:10422000B0934D010FC0203239F467E070E08EE4A6
:1042300091E00E94CC1C09C0223221F4828180933B
:10424000550103C02D7F2032B1F580911C048111EE
:1042500003C0E0E0F8E002C0EEEFFAE080914E012A
:1042600090914F01A0915001B0915101803B944039
:10427000A105B10511F58091550180FF03C01DC056
:1042800080E00895EE3F2AE0F20731F080819181CD
:104290009093FF0A8093FE0A87E797E791838083D4
:1042A0002BE088E190E00FB6F894A8958093600029
:1042B0000FBE2093600081E0089588E10FB6F89466
:1042C00080936000109260000FBEA895EE3F8AE0D8
:1042D000F80739F08091FE0A9091FF0A918380835C
:1042E000EACF1092FF0A1092FE0AE5CF1092CF0398
:1042F0001092CE0388EE93E0A0E0B0E08093D0036C
:104300009093D103A093D203B093D3038DE992E0AD
:104310009093CD038093CC038FEF9FEF9093D903BD
:104320008093D8030895EF92FF920F931F93CF933A
:10433000DF937B01FC01C281D38100E010E0209774
:1043400081F0E881F9810280F381E02DB701CE018F
:10435000099597FD08C0080F191F0884D985C02D3D
:10436000EECFC80102C08FEF9FEFDF91CF911F9179
:104370000F91FF90EF9008950F931F93CF93DF93CA
:104380008B01FC01C281D381209771F0E881F98112
:104390000480F581E02DB801CE010995009731F434
:1043A0000884D985C02DF0CF80E090E0DF91CF91D7
:1043B0001F910F9108950F931F93CF93DF938B015C
:1043C000FC01C281D381209771F0E881F9810680D8
:1043D000F781E02DB801CE010995080F111D088461
:1043E000D985C02DF0CFF8011082DF91CF911F91B8
:1043F0000F9108950F931F93CF93DF938B01FC01CF
:10440000C281D381209771F0E881F9810190F08118
:10441000E02DB801CE010995811106C00884D98527
:10442000C02DF0CF80E001C081E0DF91CF911F91DE
:104430000F9108958091210481110DC082E0809335
:104440001D0484E080931E041092200410921F0427
:1044500081E0809321048DE194E008955058BB27BA
:10446000AA270ED075C166D130F06BD120F031F49F
:104470009F3F11F41EF45BC10EF4E095E7FB51C1C0
:10448000E92F77D180F3BA1762077307840795077E
:1044900018F071F49EF58FC10EF4E0950B2EBA2F33
:1044A000A02D0B01B90190010C01CA01A00111243A
:1044B000FF27591B99F0593F50F4503E68F11A16E6
:1044C000F040A22F232F342F4427585FF3CF469577
:1044D00037952795A795F0405395C9F77EF41F1699
:1044E000BA0B620B730B840BBAF09150A1F0FF0F63
:1044F000BB1F661F771F881FC2F70EC0BA0F621F4F
:10450000731F841F48F4879577956795B795F7953E
:104510009E3F08F0B3CF9395880F08F09927EE0FD0
:10452000979587950895D9D008F481E008950CD027
:104530000FC107D140F0FED030F021F45F3F19F0F9
:10454000F0C0511139C1F3C014D198F39923C9F3C4
:104550005523B1F3951B550BBB27AA276217730789
:10456000840738F09F5F5F4F220F331F441FAA1F3D
:10457000A9F333D00E2E3AF0E0E830D091505040FD
:10458000E695001CCAF729D0FE2F27D0660F771FAB
:10459000881FBB1F261737074807AB07B0E809F08D
:1045A000BB0B802DBF01FF2793585F4F2AF09E3F22
:1045B000510568F0B6C000C15F3FECF3983EDCF3F4
:1045C000869577956795B795F7959F5FC9F7880F9B
:1045D000911D9695879597F90895E1E0660F771FED
:1045E000881FBB1F621773078407BA0720F0621B7E
:1045F000730B840BBA0BEE1F88F7E095089504D077
:104600006894B111D9C00895BCD088F09F5790F03C
:10461000B92F9927B751A0F0D1F0660F771F881FE7
:10462000991F1AF0BA95C9F712C0B13081F0C3D002
:10463000B1E00895C0C0672F782F8827B85F39F0A0
:10464000B93FCCF3869577956795B395D9F73EF446
:1046500090958095709561957F4F8F4F9F4F0895EE
:10466000E89409C097FB3EF490958095709561950C
:104670007F4F8F4F9F4F9923A9F0F92F96E9BB27C2
:104680009395F695879577956795B795F111F8CF3E
:10469000FAF4BB0F11F460FF1BC06F5F7F4F8F4FA9
:1046A0009F4F16C0882311F096E911C0772321F09F
:1046B0009EE8872F762F05C0662371F096E8862F37
:1046C00070E060E02AF09A95660F771F881FDAF78E
:1046D000880F9695879597F90895990F0008550FBB
:1046E000AA0BE0E8FEEF16161706E807F907C0F078
:1046F00012161306E407F50798F0621B730B840B80
:10470000950B39F40A2661F0232B242B252B21F459
:1047100008950A2609F4A140A6958FEF811D811DF9
:10472000089597F99F6780E870E060E008959FEF33
:1047300080EC089500240A94161617061806090638
:10474000089500240A941216130614060506089507
:10475000092E0394000C11F4882352F0BB0F40F48F
:10476000BF2B11F460FF04C06F5F7F4F8F4F9F4FCF
:10477000089557FD9058440F551F59F05F3F71F051
:104780004795880F97FB991F61F09F3F79F08795B8
:104790000895121613061406551FF2CF4695F1DF41
:1047A00008C0161617061806991FF1CF86957105D1
:1047B000610508940895E894BB2766277727CB0105
:1047C00097F908958ADF08F48FEF08950BD0C0CFD2
:1047D000B1DF28F0B6DF18F0952309F0A2CFA7CFFC
:1047E0001124EACFC6DFA0F3959FD1F3950F50E0D7
:1047F000551F629FF001729FBB27F00DB11D639F93
:10480000AA27F00DB11DAA1F649F6627B00DA11D38
:10481000661F829F2227B00DA11D621F739FB00DDE
:10482000A11D621F839FA00D611D221F749F33274E
:10483000A00D611D231F849F600D211D822F762FE7
:104840006A2F11249F5750408AF0E1F088234AF0E4
:10485000EE0FFF1FBB1F661F771F881F9150504030
:10486000A9F79E3F510570F05CCFA6CF5F3FECF3F8
:10487000983EDCF3869577956795B795F795E7951C
:104880009F5FC1F7FE2B880F911D9695879597F92D
:10489000089523DF880B990B089597FB072E16F4D4
:1048A000009407D077FD09D00E94892407FC05D029
:1048B0003EF4909581959F4F0895709561957F4F37
:1048C0000895A1E21A2EAA1BBB1BFD010DC0AA1F51
:1048D000BB1FEE1FFF1FA217B307E407F50720F069
:1048E000A21BB30BE40BF50B661F771F881F991FE4
:1048F0001A9469F760957095809590959B01AC012D
:10490000BD01CF010895EE0FFF1F0590F491E02D3A
:104910000994AA1BBB1B51E107C0AA1FBB1FA61706
:10492000B70710F0A61BB70B881F991F5A95A9F758
:1049300080959095BC01CD010895EF920F931F9340
:10494000CF93DF93E80147FF02C034E101C034E0B8
:10495000E42FFF27E7FDF095F7FF03C0F195E19500
:10496000F109E32E022F2E2FAE010E940527CE0162
:10497000DF91CF911F910F91EF900895CF93DF9327
:104980008230910510F482E090E0E0912B04F091E8
:104990002C0420E030E0A0E0B0E0309739F1408115
:1049A000518148175907B8F04817590771F48281A7
:1049B0009381109729F013969C938E9312972CC095
:1049C00090932C0480932B0427C02115310531F0DE
:1049D0004217530718F0A901DB0101C0EF019A014A
:1049E000BD01DF010280F381E02DD7CF2115310514
:1049F000F9F0281B390B2430310580F48A819B8122
:104A00006115710521F0FB019383828304C09093AB
:104A10002C0480932B04FE01329644C0FE01E20F69
:104A2000F31F8193919322503109398328833AC02F
:104A30002091290430912A04232B41F42091020172
:104A40003091030130932A0420932904209100011E
:104A5000309101012115310541F42DB73EB7409148
:104A6000040150910501241B350BE0912904F091BC
:104A70002A04E217F307A0F42E1B3F0B281739076F
:104A800078F0AC014E5F5F4F2417350748F04E0FAA
:104A90005F1F50932A04409329048193919302C08D
:104AA000E0E0F0E0CF01DF91CF910895CF93DF9365
:104AB000009709F487C0FC01329713821282C091DB
:104AC0002B04D0912C04209781F420813181280F70
:104AD000391F8091290490912A048217930779F550
:104AE000F0932A04E09329046DC0DE0120E030E059
:104AF000AE17BF0750F412964D915C9113979D012C
:104B00004115510509F1DA01F3CFB383A283408146
:104B10005181840F951F8A179B0771F48D919C9189
:104B20001197840F951F02969183808312968D9121
:104B30009C911397938382832115310529F4F09377
:104B40002C04E0932B043EC0D9011396FC93EE9302
:104B500012974D915D91A40FB51FEA17FB0779F4E9
:104B600080819181840F951F0296D90111969C93A3
:104B70008E938281938113969C938E931297E0E09B
:104B8000F0E08A819B81009719F0FE01EC01F9CFDA
:104B9000CE01029628813981820F931F209129042A
:104BA00030912A042817390769F4309729F41092B4
:104BB0002C0410922B0402C013821282D0932A0478
:104BC000C0932904DF91CF910895A0E0B0E0EBEE0F
:104BD000F5E20C946F29EC01CB01209719F40E94A7
:104BE000BE24B8C0FE01E60FF71F9E012250310916
:104BF000E217F30708F4ACC0D9010D911C9111978D
:104C000006171707B8F00530110508F49FC0A80172
:104C1000445051094617570708F498C0025011092B
:104C2000061B170B019311936D937C93CF010E9488
:104C300056258CC05B01A01AB10A4E01800E911E50
:104C4000A0912B04B0912C04612C712C60E070E0D9
:104C5000109709F449C0A815B905C9F5ED90FC9065
:104C60001197670142E0C40ED11CCA14DB0478F12D
:104C700047018A189B08640142E0C40ED11C1296B9
:104C8000BC9012971396AC91B5E0CB16D10440F0CE
:104C9000B282A38391828082D9018D939C9309C0B3
:104CA0000E5F1F4F0E0D1F1DF90111830083EB2DA9
:104CB000FA2F6115710531F0DB011396FC93EE9329
:104CC000129744C0F0932C04E0932B043FC06D91E5
:104CD0007C9111976616770608F43B01BD01129688
:104CE0000D90BC91A02DB4CF6091290470912A043D
:104CF00068157905E9F468167906D0F44091000149
:104D0000509101014115510541F44DB75EB76091D5
:104D1000040170910501461B570BE417F507C0F419
:104D2000F0932A04E0932904F901918380830EC053
:104D30000E94BE247C01009759F0A801BE010E9488
:104D4000AF26CE010E945625C70104C0CE0102C085
:104D500080E090E0CDB7DEB7EEE00C948B29FB014C
:104D6000DC0102C001900D9241505040D8F70895E7
:104D7000FB01DC0101900D920020E1F7089545321E
:104D8000510520F4423010F00C94CA26FB01108229
:104D9000CB010895BB274A3031F4992322F4BDE2B8
:104DA000909581959F4F0C94D626BB27FB015527E4
:104DB000AA27880F991FAA1FA41710F0A41B839578
:104DC0005051B9F7A05DAA3308F0A95DA1930097EF
:104DD00079F7B111B1931192CB010C945B29F99938
:104DE000FECF92BD81BDF89A992780B50895262FF0
:104DF000F999FECF1FBA92BD81BD20BD0FB6F894C0
:104E0000FA9AF99A0FBE019608956F927F929F9237
:104E1000AF92BF92CF92DF92EF92FF920F931F93C8
:104E2000CF93DF93CDB7DEB729970FB6F894DEBFE7
:104E30000FBECDBF6A01B22E102F0C3320F4FF2419
:104E4000F394F00E02C04CE3F42E0F2D27E0AE01D8
:104E50004F5F5F4F0E9483287981272F297021306F
:104E600031F0E1FC06C0E0FC06C060E005C06DE288
:104E700003C06BE201C060E2AE2DA07173FF36C0CB
:104E8000662311F084E001C083E08B1510F4B81A9A
:104E900001C0B12CA1110BC0F6018B2D90E288232B
:104EA00019F091938150FBCFCB0CD11CB12C662310
:104EB00031F0F601608396012F5F3F4F6901C60113
:104EC0000396E2FE05C02EE4F601208331E404C01F
:104ED0002EE6F601208331E631832283FC012B2D5F
:104EE00030E22223F1F131932150FBCF72FF40C019
:104EF000662311F084E001C083E08B1510F4B81A2A
:104F000001C0B12CA1110BC0F6018B2D90E28823BA
:104F100019F091938150FBCFCB0CD11CB12C66239F
:104F200031F0F601608396012F5F3F4F6901C601A2
:104F30000396E2FE07C029E4F60120832EE42183D4
:104F400026E406C029E6F60120832EE6218326E624
:104F50002283FC012B2D30E2222319F031932150C2
:104F6000FBCFFC01EB0DF11D10828EEF9FEFB7C060
:104F7000B1E0611101C0B0E04B2F50E018161906E6
:104F800024F49C012F5F3F4F02C021E030E0240F4A
:104F9000351F112329F0412F50E04F5F5F4F02C0B2
:104FA00040E050E0420F531F2B2D30E042175307D3
:104FB00014F4B41A01C0B12C2E2D287159F4F60145
:104FC0002B2D30E2222319F031932150FBCFCB0C53
:104FD000D11CB12CBB2331F0F601608396012F5F09
:104FE0003F4F6901A1110BC0F6012B2D30E32223A5
:104FF00019F031932150FBCFCB0CD11CB12CF80E02
:105000000A81372F3071A32E74FF03C0013309F4D6
:10501000FA941F142CF42F2D293018F028E001C029
:1050200021E0682F392F97FF02C060E030E0462F63
:10503000532F612C712C3EE2932EBC01621B71092F
:105040009B01DC01A41BB50BE1E0F0E0EC0FFD1FC0
:10505000AE0FBF1FE12EF12CF194E194F1084F3F08
:10506000FFEF5F0731F4F6019082B6016F5F7F4F6B
:105070006B01841795074CF02417350734F4BD01F4
:10508000660D771DFB01118101C010E341505109EC
:10509000FFEF6F1A7F0AB6016F5F7F4F4E155F05F6
:1050A00024F0F60110836B01DACF4817590739F461
:1050B000063320F4053319F4A11001C011E3F60101
:1050C0001083FB018B2D90E2882319F0919381507E
:1050D000FBCFFB01EB0DF11D108280E090E02996E3
:1050E0000FB6F894DEBF0FBECDBFDF91CF911F91F9
:1050F0000F91FF90EF90DF90CF90BF90AF909F9077
:105100007F906F900895283008F027E03327DA0168
:10511000990F311D87FD916000966105710539F485
:1051200032602E5F3D9330E32A95E1F708959F3F6B
:1051300030F080387105610509F03C5F3C5F3D93BC
:10514000913008F08068911DDF93CF931F930F93E8
:10515000FF92EF92192F987F9695E92F9695969545
:10516000E90FFF27E95CFD4F99273327EE24FF2441
:10517000A701E70105900894079428F4360FE71E6D
:10518000F81E491F511D660F771F881F991F06942F
:10519000A1F70590079428F4E70EF81E491F561F43
:1051A000C11D770F881F991F661F0694A1F70590F0
:1051B000079428F4F80E491F561FC71FD11D880FEA
:1051C000991F661F771F0694A1F70590079420F496
:1051D000490F561FC71FD81F990F661F771F881FBB
:1051E0000694A9F784911095177041F0D695C7954C
:1051F00057954795F794E7941A95C1F7EDEDF1E0CF
:1052000068941590159135916591959105907FE27F
:105210007395E118F10A430B560BC90BD009C0F77F
:10522000E10CF11E431F561FC91FD01D7EF47033C1
:1052300011F48A95E6CFE894015030F0080F0AF493
:105240000027021708F4202F2395022F7A3328F025
:1052500079E37D932A95E9F710C07D932A9589F625
:10526000069497956795379517951794E118F10A65
:10527000430B560BC90BD00998F023957E9173957B
:105280007A3308F070E37C932013B8F77E91706155
:105290007D9330F0839571E37D9370E32A95E1F778
:1052A0001124EF90FF900F911F91CF91DF919927DB
:1052B00087FD90950895DC01FC01672F719177239C
:1052C000E1F7329704C07C916D9370836291AE17C1
:1052D000BF07C8F308952F923F924F925F926F924B
:1052E0007F928F929F92AF92BF92CF92DF92EF9276
:1052F000FF920F931F93CF93DF93CDB7DEB7CA1BF7
:10530000DB0B0FB6F894DEBF0FBECDBF09942A8821
:10531000398848885F846E847D848C849B84AA84C9
:10532000B984C884DF80EE80FD800C811B81AA8156
:10533000B981CE0FD11D0FB6F894DEBF0FBECDBF21
:08534000ED010895F894FFCF80
:1053480000002D04800003011E1714141C00000225
:10535800060E0602000000080C0E0C0800000400EF
:105368000400040004000A040A040A040A003200C3
:105378000000900100000100B215B215B215B21577
:10538800B2150100C18081000000FFFFFFFF00E1AE
:1053980000000000000020202020202020202000E5
:1053A80025002D4149522D00456E746572696E675E
:1053B8000043616C6962726174696F6E204D6F643D
:1053C800650043616C6962726174696F6E20464F53
:1053D800323A0025204F787967656E00436C69631F
:1053E8006B20746F00636F6E6669726D0042616452
:1053F8002043616C6962726174696F6E0044617404
:1054080061005361766564004D69784D6F6E69740B
:105418006F720076007620302E3200506C65617312
:105428006500526563616C6962726174650053312D
:10543800205461726765740025200053322054613E
:105448007267657400546F6C6572616E63650030D5
:10545800005467742E204D69783A00202F004F7051
:1054680074696F6E73004D656E7500536574204DD9
:105478006978004F322053656E736F720054617201
:10548800676574730044697361626C650043616C9D
:10549800696272617465004578697400206D560010
:1054A8005332204552524F520020204D6978200037
:1054B800000000001F12F218000000002A13FD125D
:1054C800D212DA12ED12FC120D0A006E616E00693A
:1054D8006E66006F7666002E00000000008520CC06
:0A54E80020AF20BF209B20AC200065
:1070000055C000006EC000006CC000006AC00000E7
:1070100068C0000066C0000064C0000062C00000DC
:1070200060C000005EC00000DAC400005AC000006A
:1070300058C0000056C0000054C0000052C00000FC
:1070400050C0000076C000004CC000004AC00000E4
:1070500048C0000046C0000044C0000042C000001C
:1070600040C000003EC000003CC000003AC000002C
:1070700038C0000036C0000034C0000032C000003C
:1070800030C000002EC000002CC000002AC000004C
:1070900028C0000026C0000024C0000022C000005C
:1070A00020C000001EC000001CC0000011241FBE34
:1070B000CFEFDAE0DEBFCDBF11E0A0E0B1E0EEEF50
:1070C000FEE702C005900D92AA3CB107D9F711E086
:1070D000AAECB1E001C01D92A03EB107E1F781D357
:1070E0000CC78ECFF89410926F001092810010920E
:1070F00085001092840081E085BF15BE47980C94EE
:10710000000008952091D4013091D5012F5F3F4FA9
:107110003093D5012093D401932F37FF03C08EEF16
:10712000831B982F990F921710F447980895479A48
:1071300008951F920F920FB60F9211242F938F93E1
:107140009F93EF93FF93109285001092840080919B
:10715000CA019091CB01009729F001979093CB0140
:107160008093CA018091CC019091CD01009729F0C4
:1071700001979093CD018093CC01E0E0F0E0859100
:1071800094918F5F9F4F49F08091CE019091CF01F4
:1071900001969093CF018093CE01FF91EF919F9143
:1071A0008F912F910F900FBE0F901F90189584E034
:1071B0008093E9000DC08091E8008B778093E80010
:1071C00003C08EB3882351F08091E80082FFF9CF8D
:1071D0008091E80085FFEFCF8091F1000895982F0E
:1071E00083E08093E9008091E80085FD0DC08091E7
:1071F000E8008E778093E80003C08EB3882361F0A7
:107200008091E80080FFF9CF9093F10084E690E050
:107210009093CB018093CA0108954F925F926F9231
:107220007F928F929F92AF92BF92CF92DF92EF9216
:10723000FF920F931F93CF93DF9384E08093E90035
:107240008091E80082FF56C284E690E09093CD01E1
:107250008093CC01ACDF182F853481F48CE195E26A
:107260009093CF018093CE0107B600FCFDCFF99932
:10727000FECF81E180935700E89503C0843519F46F
:1072800096DF8DE00DC28C34E1F38035D1F3843785
:1072900021F484E4A4DF80E003C2813611F489E59F
:1072A000FFC18134B1F483DF182F81DF90E0880FB4
:1072B000991FAA2797FDA095BA2F312F330F20E0F1
:1072C000442737FD4095542F822B932BA42BB52BAD
:1072D000B8C1803711F483E5E3C1833549F4C0E0D8
:1072E000D1E089917CDF21E0C730D207D1F7D9C145
:1072F000863521F481E373DF80E3D2C1833731F433
:1073000087E86DDF85E96BDF8EE1CAC18536B9F4A8
:10731000E0E0F0E093E085E090935700E89507B651
:1073200000FCFDCF80935700E89507B600FCFDCF29
:10733000E058FF4FA0E7E030FA0771F7A2CF82379D
:1073400039F4E1E0F0E089E0809357008491A8C12E
:10735000863439F4E0E0F0E089E0809357008491CE
:107360009FC18E3439F4E3E0F0E089E08093570068
:10737000849196C1813539F4E2E0F0E089E08093B0
:10738000570084918DC1823631F489E528DF80E091
:1073900026DF80E885C1823419F0873609F0E5C020
:1073A0001092CF011092CE0102DF082F00DFF82EDD
:1073B000FEDE682E8554823008F071C1902F80E087
:1073C000CF2DD0E0C82BD92B10926F00173609F0C3
:1073D0004BC081E180935700E895DD24CC24C39411
:1073E0003FC0E090D001F090D1010091D201109106
:1073F000D301B6E46B16D9F4ED2DF0E0EE29FF29A8
:10740000E4918E2FECDEDD2081F082E090E0A0E0C0
:10741000B0E0E80EF91E0A1F1B1FE092D001F092A7
:10742000D1010093D2011093D301DC2418C0D801FC
:10743000C701B695A7959795879549D5D0DE82E087
:1074400090E0A0E0B0E0E80EF91E0A1F1B1FE092DA
:10745000D001F092D1010093D2011093D301219772
:10746000209709F0BECF7DC08090D0019090D101CF
:10747000A090D201B090D30196E4691609F05DC0E6
:1074800083E0F40180935700E89507B600FCFDCF38
:1074900054C0F6E46F1661F5772031F1E090D00129
:1074A000F090D1010091D2011091D30180DED82E4D
:1074B000CC24852D90E08C299D29F7010C01409268
:1074C0005700E895112482E090E0A0E0B0E0E80EDB
:1074D000F91E0A1F1B1FE092D001F092D101009308
:1074E000D2011093D30102C062DE582E742423C04F
:1074F000E090D001F090D1010091D2011091D30120
:1075000016950795F794E79452DE682FC701E7D4E4
:107510008091D0019091D101A091D201B091D3017D
:107520000296A11DB11D8093D0019093D101A0932B
:10753000D201B093D301219704C055247724442469
:107540004394209709F0A5CF96E4691641F485E0AD
:10755000F40180935700E89507B600FCFDCF8DE05D
:107560003EDE82E080936F009CC0833471F4009112
:10757000D0011091D1011BDE90E021E0F8010C0157
:1075800020935700E89511247CCE833619F5E090BE
:10759000D001F090D1010091D2011091D30107DE0A
:1075A000F701E16090E021E00C0120935700E8959D
:1075B000112482E090E0A0E0B0E0E80EF91E0A1F7E
:1075C0001B1FE092D001F092D1010093D2011093E1
:1075D000D30157CE8D3661F4E091D001F091D10105
:1075E00085E080935700E89507B600FCFDCF49CEB3
