:100000000C9470010C9463160C948A160C94B1161F
:100010000C94D8160C9498010C9498010C94FF162B
:100020000C9498010C9498010C9407200C948E1E4B
:100030000C9498010C9498010C9498010C949801DC
:100040000C9498010C9498010C9498010C949801CC
:100050000C9498010C9498010C9498010C94261718
:100060000C9498010C9498010C9498010C949801AC
:100070000C9498010C9498010C9498010C9498019C
:100080000C9498010C9498010C9498010C9498018C
:100090000C94E5140C9498010C9498010C9498011C
:1000A0000C9498010C9498010C9498018118841870
:1000B000731877187D18A518A518A51888188C1816
:1000C000901896189A18A518A0180706050401009C
:1000D000080A0B0C0D090000000200090F000003C4
:1000E0000401000C000000000000000000000000FF
:1000F0000000000000040802011040804010204071
:10010000804080080204018040201002011080100D
:1001100020404020040404040403040502020202F7
:100120000403020202020606060606060404020290
:10013000020404000000002300260029002C002FE8
:100140000000000000250028002B002E00310000D8
:10015000000000240027002A002D003000080B00BA
:10016000020202010009040000010202000005244D
:1001700000100105240101010424020605240600E3
:10018000010705810310004009040100020A000074
:10019000000705020240000007058302400000122C
:1001A000010002EF0201409A230C800001010203CA
:1001B0000112010002000000409A230C800001019E
:1001C0000203014164616672756974004665617479
:1001D0006865722033327534000403090400407AE4
:1001E00010F35A00A0724E18090010A5D4E80000C0
:1001F000E87648170000E40B54020000CA9A3B005E
:100200000000E1F505000080969800000040420FD4
:10021000000000A08601000000102700000000E898
:1002200003000000006400000000000A000000005D
:10023000000100000000002C76D888DC674F0823FE
:10024000DFC1DFAE59E1B1B796E5E3E453C63AE664
:1002500051997696E8E6C28426EB898C9B62ED4044
:100260007C6FFCEFBC9C9F40F2BAA56FA5F4900593
:100270005A2AF75C936B6CF9676DC11BFCE0E40DC7
:1002800047FEF520E6B500D0ED902E0300943577BB
:10029000050080841E080000204E0A000000C80CE3
:1002A000333333330F986E12831141EF8D2114894C
:1002B0003BE65516CFFEE6DB18D1844B381BF77CA6
:1002C0001D901DA4BBE424203284725E228100C9EB
:1002D000F124ECA1E53D2700F10511130314441AA4
:1002E00011241FBECFEFDAE0DEBFCDBF13E0A0E0E8
:1002F000B1E0EAE5F4E502C005900D92AC31B1073A
:10030000D9F724E0ACE1B3E001C01D92A53EB207ED
:10031000E1F712E0C0EED2E004C02297FE010E9495
:100320000E25C83DD107C9F70E94621A0C942B2AEA
:100330000C94000080E00E94151921E0892B09F43B
:1003400020E02093350381E00E94151921E0892BDC
:1003500009F420E02093340380913303882321F0B3
:1003600080913203811109C080913303811112C041
:1003700080913203811163C00DC0809135038111DA
:1003800004C080913403811150C0809135038823CB
:1003900019F11DC080913303811105C08091320392
:1003A000882309F459C0809133038823A9F08091F0
:1003B0003203811111C080913503882321F080918F
:1003C000340381116EC080913503811105C0809185
:1003D0003403882309F46FC080912E0390912F037A
:1003E000049734F0809130039091310301960CC052
:1003F00080912E0390912F038D3F9F4F6CF480913D
:10040000300390913103019790933103809330032F
:1004100010922F0310922E038091350380933303A3
:100420008091340380933203089580912E0390913C
:100430002F03019690932F0380932E03A6CF8091D4
:100440003503811104C0809134038823B1F0809179
:100450003503882309F20CC080913503882321F0ED
:1004600080913403882399F0809135038111B4CFB2
:100470008091340381111FC0AFCF80912E039091E2
:100480002F03019690932F0380932E03E0CF80914A
:100490002E0390912F03019690932F0380932E03A8
:1004A000E3CF80912E0390912F03019690932F0319
:1004B00080932E0388CF80912E0390912F03019774
:1004C00090932F0380932E0387CF80E00E9415190D
:1004D00021E0892B09F420E02093350381E00E947C
:1004E000151921E0892B09F420E020933403809131
:1004F0003303882321F080913203811109C0809158
:100500003303811112C080913203811163C00DC089
:1005100080913503811104C080913403811150C052
:1005200080913503882319F11DC080913303811117
:1005300005C080913203882309F459C080913303A8
:100540008823A9F080913203811111C08091350375
:10055000882321F08091340381116EC0809135038E
:10056000811105C080913403882309F46FC0809104
:100570002E0390912F03049734F0809130039091D3
:10058000310301960CC080912E0390912F038D3F73
:100590009F4F6CF4809130039091310301979093B9
:1005A00031038093300310922F0310922E03809119
:1005B000350380933303809134038093320308958D
:1005C00080912E0390912F03019690932F03809397
:1005D0002E03A6CF80913503811104C0809134038E
:1005E0008823B1F080913503882309F20CC08091F3
:1005F0003503882321F080913403882399F080917A
:1006000035038111B4CF8091340381111FC0AFCF66
:1006100080912E0390912F03019690932F03809346
:100620002E03E0CF80912E0390912F03019690939B
:100630002F0380932E03E3CF80912E0390912F03FD
:10064000019690932F0380932E0388CF80912E03E1
:1006500090912F03019790932F0380932E0387CFC0
:10066000009729F48BE493E00E94AE1106C0019735
:10067000C1F48BE493E00E94D311BC01882777FD7D
:100680008095982F0E94BB2320E030E040E853E49F
:100690000E946F2420E03EEF4FEF56E40E9420239B
:1006A000089560E070E0CB010895CF92DF92EF9261
:1006B000FF920F931F93CF93DF9300D000D01F9230
:1006C000CDB7DEB749835A836B837C838C01000FDF
:1006D000111F000F111FCE0101967C016E0195E0E4
:1006E000C90ED11CF70161917F01C8016D830E9481
:1006F00078276D81681719F0C8010E9480270F5F65
:100700001F4FEC14FD0471F70F900F900F900F9096
:100710000F90DF91CF911F910F91FF90EF90DF909D
:10072000CF900895CF93FC01808191810E94300386
:10073000C1E02AE037ED43E25CE30E946B24181627
:100740000CF0C0E08C2FCF910895CF92DF92EF9202
:10075000FF920F931F93CF93DF93EC01E880F98012
:100760008C81811135C0EE0CFF1CEE0CFF1C6E015C
:1007700085E0C80ED11C87010C5F1F4FC7010E9486
:100780007827F60181936F01FFEFEF1AFF0AE01659
:10079000F106A1F781E08C83CD80DE80EF80F884C4
:1007A00022E538EB4EEC5FE3C701B6010E941C2343
:1007B00087FD0AC020E030E048E250E4C701B601FE
:1007C0000E946B24181624F41D821E821F82188634
:1007D0006D817E818F819885DF91CF911F910F91DF
:1007E000FF90EF90DF90CF900895CF930E94A503E4
:1007F000C1E020E030E0A9010E946B2418160CF043
:10080000C0E08C2FCF910895CF93DF93EC010E942D
:10081000F503882339F0CE010E949203882311F05A
:1008200081E001C080E0DF91CF910895CF92DF9207
:10083000EF92FF92CF93DF93EC010E94F5038823A0
:1008400001F1CE010E9492038823D9F08881998119
:100850000E94300320E030E0A9010E946B241816AA
:1008600084F4888199810E9430036B017C01CE0160
:100870000E94A5039B01AC01C701B6010E946F2431
:1008800003C060E070E0CB01DF91CF91FF90EF906B
:10089000DF90CF9008958F929F92AF92BF92CF92A8
:1008A000DF92EF92FF92CF93DF93EC010E94F5036A
:1008B000882309F46CC0CE010E949203882309F4B6
:1008C00066C0CE010E9416046B017C016A817B81A7
:1008D000882777FD8095982F0E94BB2320E030E089
:1008E00040E251E40E9420234B015C0160911E0113
:1008F00070911F01882777FD8095982F0E94BB2358
:1009000020E030E040E251E40E9420239B01AC0152
:10091000C501B4010E94B8229B01AC01C701B60118
:100920000E946B241816ACF1CE010E9416046B01D4
:100930007C016A817B81882777FD8095982F0E94B2
:10094000BB2320E030E040E251E40E9420234B0131
:100950005C0160911E0170911F01882777FD8095D1
:10096000982F0E94BB2320E030E040E251E40E9437
:1009700020239B01AC01C501B4010E94B7229B0159
:10098000AC01C701B6010E941C2387FD02C081E0B3
:1009900001C080E0DF91CF91FF90EF90DF90CF908A
:1009A000BF90AF909F908F9008950F931F930E94D8
:1009B000151990934A03809349032091280130919F
:1009C000290182179307A1F0892B91F40E947017D7
:1009D00060933D0370933E0380933F0390934003E5
:1009E0008091490390914A039093290180932801B3
:1009F0000E94701700913D0310913E0320913F0328
:100A000030914003601B710B820B930B009120010E
:100A1000109121012091220130912301061717071F
:100A20002807390758F48091490390914A0320918F
:100A30002801309129018217930711F480E00FC03B
:100A400090932901809328010E94701760933D03C1
:100A500070933E0380933F039093400381E01F9186
:100A60000F9108958BE10E943818BC01882777FD0B
:100A70008095982F0E94BB239B01AC010E94B82255
:100A800023E333E343E550E40E946F2420E030E0A9
:100A900040E85AE30E946F2408950F931F93CF9369
:100AA000DF93CDB7DEB72C970FB6F894DEBF0FBE3D
:100AB000CDBF142F022F21E0AB01BC01CE01079660
:100AC0000E94A6218B859C850597B0F023E030E03D
:100AD00040E050E0BE01695F7F4FCE0101960E9469
:100AE000D621BE016F5F7F4FCE0107960E9456212F
:100AF000CE0101960E949C20402F612F80E593E05B
:100B00000E9433108B859C85049731F060E571E07D
:100B100080E593E00E94C11ABE01695F7F4F80E5C6
:100B200093E00E94B31ACE0107960E949C202C9657
:100B30000FB6F894DEBF0FBECDBFDF91CF911F91EE
:100B40000F9108950F931F93CF93DF9300D000D0A0
:100B500000D0CDB7DEB7162F042F4AE0BC01CE017E
:100B600001960E947A21402F612F80E593E00E9438
:100B700033108D819E81029731F066E671E080E549
:100B800093E00E94C11ABE016F5F7F4F80E593E042
:100B90000E94B31ACE0101960E949C2026960FB6A1
:100BA000F894DEBF0FBECDBFDF91CF911F910F91A3
:100BB000089540E067E080E593E00E94331068E428
:100BC00071E080E593E00E94C11A41E067E080E5B2
:100BD00093E00E94331068E471E080E593E00C94A8
:100BE000C11ACF92EF920F9325E0C22E36E0E32E8A
:100BF0000AE02BE04CE06DE080E593E00E94EB1012
:100C000068E48BE493E00E944B110E94701760939C
:100C100045037093460380934703909348030E94D3
:100C20007017609341037093420380934303909342
:100C3000440381ED90E09093280380932703109262
:100C4000290310922A0310922B0310922C03109266
:100C50002D03109226031092250390931F03809377
:100C60001E0310922003109221031092220310926F
:100C700023031092240381E090E090931D0380935E
:100C80001C030F91EF90CF9008950F931F930E9434
:100C9000701700914503109146032091470330914E
:100CA0004803601B710B820B930B00912401109180
:100CB00025012091260130912701061717072807E3
:100CC000390708F07AC085E293E00E9416042DEC03
:100CD0003CEC4CEC5DE30E946B2418166CF485E24E
:100CE00093E00E94160420E030E040E050E00E94D3
:100CF0004D0562E571E015C080913B0390913C0386
:100D000040E060E0019739F480E593E00E94331001
:100D100064E571E006C080E593E00E9433106CE466
:100D200071E080E593E00E94C11A8CE193E00E949B
:100D300016042DEC3CEC4CEC5DE30E946B24181681
:100D40006CF48CE193E00E94160421E030E040E076
:100D500050E00E944D0562E571E008C041E060E0AE
:100D600080E593E00E9433106CE471E080E593E04D
:100D70000E94C11A40E066E080E593E00E943310D3
:100D800060E080E593E00E94451141E066E080E587
:100D900093E00E94331060E080E593E00E944511EB
:100DA0000E94701760934503709346038093470336
:100DB0009093480381E080933A031F910F91089527
:100DC000AF92BF92CF92DF92EF92FF920F931F9359
:100DD000CF93DF9340E067E080E593E00E9433101B
:100DE0006AE571E080E593E00E94C11A85E190E038
:100DF0009093310380933003C3E6D0E01AE085E19D
:100E000090E00E94D504811136C00E944506809171
:100E1000300390913103843691052CF0D093310347
:100E2000C09330030AC0809130039091310397FF43
:100E300004C010923103109230032091300330919E
:100E40003103129FC001139F900D112490931F0333
:100E500080931E03809130039091310341E050E074
:100E600067E070E00E94A20564E671E080E593E02F
:100E70000E94C11AC4CF1092310310923003CAE00D
:100E8000D0E006EF1FEF85E190E00E94D5048111CC
:100E90006BC00E944506E0913003F0913103209130
:100EA0001E0330911F03C901BE010E94D624E60F24
:100EB000F71FE436F1055CF0C901B8010E94D624A1
:100EC0006C597F4F70933103609330030AC0809157
:100ED00030039091310397FF04C0109231031092B8
:100EE0003003A0903003B0903103B901882777FD1B
:100EF0008095982F0E94BB2320E030E040E251E42F
:100F00000E9420236B017C01B501882777FD809525
:100F1000982F0E94BB239B01AC0160E070E088EC3D
:100F200092E40E94B7229B01AC01C701B6010E9466
:100F3000202320E030E04AE754E40E946F240E941E
:100F40008823709328036093270380913003909146
:100F50003103909339038093380341E050E06AE015
:100F600070E00E94A2058FCF0E94D90540E067E0A3
:100F700080E593E00E94331068E671E080E593E03D
:100F80000E94C11A80911E0190911F01909331031C
:100F900080933003C8EED3E085E190E00E94D50451
:100FA000811139C00E944506809130039091310330
:100FB000893E93402CF0D0933103C09330030AC094
:100FC000809130039091310397FF04C01092310358
:100FD00010923003609130037091310370931F01C0
:100FE00060931E01882777FD8095982F0E94BB2370
:100FF00020E030E040E251E40E94202321E030E094
:1010000047E050E00E944D0562E771E080E593E023
:101010000E94C11AC1CF0E94D90581E090E090934F
:101020003C0380933B03DF91CF911F910F91FF9081
:10103000EF90DF90CF90BF90AF900895CF93DF9364
:1010400085E293E00E940404882309F457C040E03D
:1010500067E080E593E00E94331068E771E080E587
:1010600093E00E94C11A80912703909128039093E6
:10107000310380933003C8EED3E085E190E00E9415
:10108000D504811139C00E944506809130039091AA
:101090003103893E93402CF0D0933103C093300349
:1010A0000AC0809130039091310397FF04C01092E1
:1010B00031031092300360913003709131037093CB
:1010C000280360932703882777FD8095982F0E9437
:1010D000BB2320E030E040E251E40E94202321E0E5
:1010E00030E047E050E00E944D0562E871E080E5A5
:1010F00093E00E94C11AC1CF0E94D9058CE193E010
:101100000E940404882309F457C040E067E080E5AA
:1011100093E00E94331067E871E080E593E00E945D
:10112000C11A80911E0390911F0390933103809305
:101130003003C8EED3E085E190E00E94D504811130
:1011400039C00E9445068091300390913103893E59
:1011500093402CF0D0933103C09330030AC08091A8
:1011600030039091310397FF04C010923103109225
:101170003003609130037091310370931F036093CB
:101180001E03882777FD8095982F0E94BB2320E0BF
:1011900030E040E251E40E94202321E030E047E0CB
:1011A00050E00E944D0562E871E080E593E00E9406
:1011B000C11AC1CF0E94D90540E067E080E593E005
:1011C0000E94331068E671E080E593E00E94C11A46
:1011D00080911E0190911F01909331038093300301
:1011E000C8EED3E085E190E00E94D504811139C0BA
:1011F0000E9445068091300390913103893E9340CF
:101200002CF0D0933103C09330030AC08091300397
:101210009091310397FF04C0109231031092300374
:10122000609130037091310370931F0160931E0130
:10123000882777FD8095982F0E94BB2320E030E01F
:1012400040E251E40E94202321E030E047E050E0FA
:101250000E944D0562E771E080E593E00E94C11AAB
:10126000C1CF82E090E090933C0380933B030E94C7
:10127000D905DF91CF910895CF92DF92EF92FF923F
:1012800080913A03882309F40AC280913B0390912C
:101290003C03892B09F054C085E293E00E940404CA
:1012A00040E067E0811107C080E593E00E943310C1
:1012B00068E471E017C080E593E00E94331062E0BB
:1012C00080E593E00E9445118091250390912603CB
:1012D0000E94300320E030E048E050E00E944D05DD
:1012E00061E971E080E593E00E94C11A8CE193E02E
:1012F0000E94040441E067E0811107C080E593E0AB
:101300000E94331068E471E017C080E593E00E940A
:10131000331062E080E593E00E94451180911C0348
:1013200090911D030E94300321E030E048E050E03E
:101330000E944D0561E971E080E593E00E94C11AC9
:1013400080913B0390913C03019709F022C18CE10D
:1013500093E00E940404811122C040E068E080E52F
:1013600093E00E94331065E971E080E593E00E940C
:10137000C11A41E067E080E593E00E94331068E421
:1013800071E080E593E00E94C11A61E087E10E946C
:10139000DF1861E086E10E94DF180E9445068CE1BB
:1013A00093E00E940404882309F4F3C040E067E05E
:1013B00080E593E00E94331085E293E00E940404EC
:1013C0008823A9F062E080E593E00E9445118091B6
:1013D0002703909128036AE070E00E94D624CB0195
:1013E00040E050E068E070E00E94A20506C06EE4B4
:1013F00071E080E593E00E94C11A40E06AE080E578
:1014000093E00E9433106EE971E080E593E00E9462
:10141000C11A41E067E080E593E00E9433108CE15F
:1014200093E00E9404048823A9F062E080E593E041
:101430000E94451180911E0390911F036AE070E0A5
:101440000E94D624CB0141E050E068E070E00E94A9
:10145000A20506C06EE471E080E593E00E94C11A27
:101460008CE193E00E94160420E030E040E05FE36E
:101470000E94B8220E948823DC01CB0141E050E0A9
:101480006BE070E00E94A20565EA71E080E593E000
:101490000E94C11A85E293E00E9404048823D9F0D7
:1014A00085E293E00E9416046B017C018CE193E0DD
:1014B0000E9416049B01AC01C701B6010E94B7222D
:1014C0006B017C0185E293E00E9416049B01AC0154
:1014D000C701B60110C08CE193E00E9416049B0185
:1014E000AC0163E373E387EA91E40E94B72223E34C
:1014F00033E347EA51E40E94202320E030E048EC47
:1015000052E40E946F2420E030E040E05FE30E945C
:10151000B8220E948823709337036093360380912A
:1015200036039091370397FF04C01092370310924F
:10153000360341E050E06EE070E080913603909118
:1015400037030E94A2058CE193E00E944B0488239C
:10155000C1F0809136039091370340913803509148
:10156000390320911E0130911F01BA01620F731FD0
:101570006817790734F0421B530B841795070CF05A
:1015800082C061E087E10E94DF1861E086E10E948D
:10159000DF1880913B0390913C03029709F070C0E3
:1015A00040E067E080E593E00E94331085E293E03D
:1015B0000E9404048823E1F062E080E593E00E9449
:1015C00045116091270370912803882777FD809546
:1015D000982F0E94BB2320E030E040E251E40E94BB
:1015E000202320E030E048E050E00E944D0506C096
:1015F00068E471E080E593E00E94C11A41E067E091
:1016000080E593E00E9433108CE193E00E94040493
:101610008823E1F062E080E593E00E94451160914B
:101620001E0370911F03882777FD8095982F0E94D5
:10163000BB2320E030E040E251E40E94202321E07F
:1016400030E048E050E00E944D0506C068E471E0DB
:1016500080E593E00E94C11A85E293E00E944B046A
:10166000882331F08CE193E00E944B04811111C07A
:1016700061E087E10E94DF1861E086E10E94DF18E7
:1016800010923A030CC060E087E10E94DF1860E02E
:101690007DCF60E087E10E94DF1860E0EECFFF9031
:1016A000EF90DF90CF900895CF92DF92EF92FF926C
:1016B000CF93DF9380E593E00E942C1040E064E03C
:1016C00080E593E00E94331067EA71E080E593E0E3
:1016D0000E94C11A41E060E080E593E00E9433106F
:1016E00060EB71E080E593E00E94C11A66ED76E060
:1016F00080E090E00E949F1780E593E00E942C100C
:1017000085E10E941519892BD9F36AEF70E080E01A
:1017100090E00E949F1761EC71E080E593E00E94E9
:10172000C11A81ED90E09093310380933003C8EEAD
:10173000D3E085E190E00E94D504811135C080910D
:10174000300390913103893E93402CF0D0933103C4
:10175000C09330030AC0809130039091310397FF0A
:1017600004C01092310310923003609130037091E5
:101770003103882777FD8095982F0E94BB2320E0B6
:1017800030E040E251E40E9420236B017C0121E023
:1017900030E040E050E00E944D0562ED71E080E5F0
:1017A00093E00E94C11AC5CF80E593E00E942C10FF
:1017B00040E067E080E593E00E94331060E080E560
:1017C00093E00E9445116BED71E080E593E00E948B
:1017D000C11A41E067E080E593E00E94331060E0C9
:1017E00080E593E00E94451164EE71E080E593E0AE
:1017F0000E94C11A80912503909126030E94300314
:1018000020E030E0A9010E941C2318166CF040E093
:1018100060E080E593E00E9433106DE471E080E5C4
:1018200093E00E94C11A0CC0809125039091260379
:101830000E94300320E030E040E050E00E944D057F
:1018400062E971E080E593E00E94C11A80911C0377
:1018500090911D030E94300320E030E0A9010E9416
:101860001C2318166CF041E060E080E593E00E94D4
:1018700033106DE471E080E593E00E94C11A0CC062
:1018800080911C0390911D030E94300321E030E001
:1018900040E050E00E944D0562E971E080E593E090
:1018A0000E94C11A85E190E00E94D504882309F4C2
:1018B000A1CF85E293E00E949203882309F47CC0C3
:1018C00080912503909126030E9430039B01AC0177
:1018D000C701B6010E94202322E538EB4EEC5FE3FE
:1018E0000E946B2418160CF067C08091250390911C
:1018F00026030E9430039B01AC01C701B6010E9480
:10190000202320E030E048E250E40E941C2387FFBF
:1019100053C080912503909126030E9430039B01C0
:10192000AC01C701B6010E942023AB01BC0180912C
:101930002503909126030E9455038CE193E00E94B9
:101940009203882309F461C080911C0390911D03C8
:101950000E9430039B01AC01C701B6010E94202305
:1019600022E538EB4EEC5FE30E946B2418160CF076
:101970004CC080911C0390911D030E9430039B0179
:10198000AC01C701B6010E94202320E030E048E20C
:1019900050E40E941C2387FF38C080911C03909163
:1019A0001D030E9430039B01AC01C701B6010E94D8
:1019B0002023AB01BC0132C085E293E00E94920378
:1019C000811104C040E050E0BA01B1CF80E593E05E
:1019D0000E942C106CEE71E080E593E00E94C11A29
:1019E00041E060E080E593E00E9433106CEF71E02D
:1019F00080E593E00E94C11A68EB7BE080E090E014
:101A00000E949F170E94540B98CF8CE193E00E9494
:101A1000920381112FC040E050E0BA0180911C0375
:101A200090911D030E94550380E593E00E942C10C5
:101A300060EF71E080E593E00E94C11A41E060E050
:101A400080E593E00E94331061E072E080E593E06E
:101A50000E94C11A6CED75E080E090E00E949F1733
:101A600080E593E0DF91CF91FF90EF90DF90CF90F2
:101A70000C942C1080E593E00E942C106CEE71E029
:101A800080E593E00E94C11A41E060E080E593E0C8
:101A90000E9433106CEF71E080E593E00E94C11A60
:101AA00068EB7BE080E090E00E949F170E94540B5F
:101AB000BBCF48EB5BE060E070E088E693E00E941B
:101AC0006B1220E032EC41E050E069E774E088E618
:101AD00093E00E94221261E088E693E00E94F811F0
:101AE000882391F067E072E08091AA039091AB03A4
:101AF0000E94C11A6AE070E080E090E00E949F17A7
:101B000088E693E00E94211241E060E088E693E0DD
:101B10000E94F31262E085E10E94A61862E080E074
:101B20000E94A61862E081E00E94A61861E087E1A9
:101B30000E94A61861E086E10E94A61841E050E0EC
:101B40006AE971E082E00E94131641E050E065E628
:101B500072E083E00E94131620E042E060E180E53D
:101B600093E00E944D1046E151E060E080E593E093
:101B70000E940B114EE051E061E080E593E00E948D
:101B80000B1146E051E062E080E593E00E940B110A
:101B90008BE493E00E94531160E07AE08BE493E0E1
:101BA0000E94571140E063E080E593E00E9433100B
:101BB00069E172E080E593E00E94C11A41E060E0D3
:101BC00080E593E00E9433100E943205AB01BC0116
:101BD00022E030E080E593E00E94621C64E272E063
:101BE00080E593E00E94C11A41E06BE080E593E05C
:101BF0000E94331066E272E080E593E00E94C11A11
:101C000060ED77E080E090E00E949F1780E593E030
:101C10000E942C1085E10E941519892BD1F185E2D3
:101C200093E00E949203811107C08CE193E00E942F
:101C30009203882371F007C085E293E00E94F503C8
:101C40008111F3CF0AC08CE193E00E94F503882351
:101C500021F080E593E00C942C1080E593E00E9445
:101C60002C106CE272E080E593E00E94C11A41E022
:101C700060E080E593E00E94331063E372E080E56A
:101C800093E00E94C11A60ED77E080E090E00E944E
:101C90009F170E94540BDDCF0F931F93CF93DF93B9
:101CA0000E94701760934103709342038093430333
:101CB000909344031092310310923003C09130038B
:101CC000D09131030E94D90540E068E080E593E0BF
:101CD0000E9433106FE372E080E593E00E94C11A26
:101CE00041E06AE080E593E00E94331067E472E02F
:101CF00080E593E00E94C11A0E9470170091410391
:101D0000109142032091430330914403601B710BF7
:101D1000820B930B663D76408105910538F48091E6
:101D2000300390913103892B09F4F2C00E94D90548
:101D3000109231031092300304E010E00E94450637
:101D40008091300390913103059724F01092310374
:101D500010923003809130039091310397FF04C0BB
:101D6000109331030093300380913003909131033D
:101D70008C179D0731F00E94D905C0913003D09196
:101D8000310380913003909131038230910509F441
:101D90005CC02CF4009759F0019781F1CFCF8330CC
:101DA000910509F483C0049709F499C0C7CF40E0B6
:101DB00067E080E593E00E9433106CE472E080E518
:101DC00093E00E94C11A41E067E080E593E00E9441
:101DD00033106BE771E080E593E00E94C11A85E162
:101DE00090E00E94D504882309F4A8CF0E94D90569
:101DF000DF91CF911F910F910C94E00640E067E0D6
:101E000080E593E00E94331064E572E080E593E0A2
:101E10000E94C11A41E067E080E593E00E94331020
:101E20006EE572E080E593E00E94C11A85E190E0E2
:101E30000E94D504882309F481CF0E94D905DF913F
:101E4000CF911F910F910C941E0840E067E080E550
:101E500093E00E94331066E672E080E593E00E9412
:101E6000C11A41E067E080E593E00E9433106EE51F
:101E700072E080E593E00E94C11A85E190E00E9443
:101E8000D504882309F45ACF0E94D90510923C0347
:101E900010923B0360E087E10E94DF1860E086E17A
:101EA000DF91CF911F910F910C94DF1840E067E014
:101EB00080E593E00E9433106EE672E080E593E0E7
:101EC0000E94C11A85E190E00E94D504882309F49C
:101ED00035CFDF91CF911F910F910C94540B40E0BF
:101EE00067E080E593E00E94331068E772E080E5E8
:101EF00093E00E94C11A85E190E00E94D5048823F6
:101F000009F41CCFDF91CF911F910F910C94D9054B
:101F10000E944506F1CE0E9445060E943C0985E1DB
:101F200090E00E94D50481110C944C0E0895CF933B
:101F3000DF93EC0160E08E810E94DF1881E090E089
:101F40000E94D91761E08E810E94DF1881E090E045
:101F50000E94D91760E08E810E94DF1884E690E02D
:101F6000DF91CF910C94D917EF92FF920F931F93AB
:101F7000CF93DF938C01C0E0D0E0E62EF12CB701C7
:101F80000C2E02C0759567950A94E2F76170F8010E
:101F9000EC0FFD1F87810E94DF182196C430D10508
:101FA00071F7C801DF91CF911F910F91FF90EF90D2
:101FB0000C94970FEF92FF920F931F93CF93DF93A1
:101FC0008C01C0E0D0E0E62EF12CB7010C2E02C04F
:101FD000759567950A94E2F76170F801EC0FFD1FA3
:101FE00087810E94DF182196C830D10571F7C8019A
:101FF000DF91CF911F910F91FF90EF900C94970F6D
:102000001F93CF93DF93EC01162F642F8C810E94D6
:10201000DF188D818F3F19F060E00E94DF188F85F7
:10202000612F84FF06C0CE01DF91CF911F910C94E8
:10203000DA0F70E084E0759567958A95E1F7CE0137
:102040000E94B40F612FCE01DF91CF911F910C94AC
:10205000B40F40E00C94001061E00E94291080ED64
:1020600097E00C94D917443008F043E0FC01238931
:10207000421710F04FEF420FFC01E40FF11D2489CD
:10208000260F2068622F0C942910FC016089262FEE
:102090002460208B6C600C9429100F931F93CF93B6
:1020A000DF93EC01423018F08F8588608F874B8B6F
:1020B0001C8A80E48D8B6E8B70E0605C7F4F6F8B31
:1020C000222329F0413019F48F8584608F8761E0E5
:1020D0008C810E94A6188D818F3F19F061E00E94CB
:1020E000A61861E08E810E94A61800E010E08F859E
:1020F00084FF03C088E090E002C084E090E008170D
:10210000190754F4FE01E00FF11F61E087810E947E
:10211000A6180F5F1F4FEBCF80E593EC0E94D917F5
:1021200060E08C810E94DF1860E08E810E94DF18E1
:102130008D818F3F19F060E00E94DF186F8564FD8C
:102140001DC063E0CE010E94B40F84E991E10E94BA
:10215000D91763E0CE010E94B40F84E991E10E9497
:10216000D91763E0CE010E94B40F86E990E00E9487
:10217000D91762E0CE010E94B40F16C06062CE0192
:102180000E94291084E991E10E94D9176F8560624D
:10219000CE010E94291086E990E00E94D9176F8530
:1021A0006062CE010E9429106F856062CE010E949C
:1021B000291084E0888BCE010E944510CE010E9438
:1021C0002C1082E0898B66E0CE01DF91CF911F91C8
:1021D0000F910C942910CF92EF920F93FC01138270
:1021E000128281E892E09183808364838FEF8583FC
:1021F000468327830087E186C28613861486158668
:102200001686178620E041E060E1CF010F91EF9044
:10221000CF900C944D10CF92DF92EF92FF920F93DC
:102220001F93CF93DF9300D0CDB7DEB78C016770DB
:1022300088E0689FB00111246064C80149835A8313
:102240000E9429104981C42E5A81D52EE12CF12CEF
:10225000D6016D916D01D801ED91FC910190F08155
:10226000E02DC8010995BFEFEB1AFB0AE8E0EE1676
:10227000F10471F70F900F90DF91CF911F910F91A3
:10228000FF90EF90DF90CF90089541E00E94001002
:1022900081E090E00895FC0114821382608388E05D
:1022A00081831282089580EB93E00C94C913FC01A2
:1022B0007483638308951F93CF93DF9300D0CDB7CA
:1022C000DEB7162F682F80EB93E04A8359830E9474
:1022D000E313612F80EB93E00E948A135981652FED
:1022E00080EB93E00E948A134A81642F80EB93E095
:1022F0000E948A1380EB93E00F900F90DF91CF91B3
:102300001F910C9400141F93CF93DF93182F682F05
:1023100080EB93E00E94E31360E080EB93E00E9487
:102320008A1380EB93E00E94001442E0612F80EB5F
:1023300093E00E94E01380EB93E00E943A13182F81
:1023400080EB93E00E943A13D12F20E0C22F9E0130
:10235000282BC901DF91CF911F910895CF93DF936F
:10236000EC014B815C814368516861E088810E9487
:102370005B11698170E080E090E00E949F17888186
:102380000E9483112A81022E02C0969587950A9495
:10239000E2F7222329F0811528E0920708F0906FD8
:1023A000DF91CF910895CF93DF93EC014B815C8156
:1023B0004368516B61E088810E945B11698170E024
:1023C00080E090E00E949F1788810E9483112A81FB
:1023D000022E02C0969587950A94E2F7222329F0EF
:1023E000811528E0920708F0906FDF91CF91089552
:1023F0000F931F93CF93DF93EC01611116C00E94DE
:1024000070170A811B812C813D81601B710B820B2F
:10241000930B613271058105910538F463E070E03A
:1024200080E090E00E949F17EACF0E9470176A83B5
:102430007B838C839D8381E0DF91CF911F910F91EE
:1024400008950895CF92DF92EF92FF920F931F931A
:10245000CF93DF9300D000D0CDB7DEB77B018C01E6
:102460000E5B1F4FF801718360838BE1C82ED12C66
:10247000C70129833A834B835C830E94351A2981E3
:102480003A814B815C81811113C0F1E0CF1AD108F0
:1024900079F064E670E080E090E029833A834B8332
:1024A0005C830E949F175C814B813A812981E0CF38
:1024B000BA01A901F801808191810F900F900F90CE
:1024C0000F90DF91CF911F910F91FF90EF90DF90D0
:1024D000CF900C942F1AFC01EC5BFF4F10821182FD
:1024E00012821382FC01128213821482158241151A
:1024F00051056105710521F0CB01BA010C949F17BC
:1025000008958E5B9F4FDC018D919C91DC01ED91D4
:10251000FC910680F781E02D099508958E5B9F4F11
:10252000DC018D919C91DC01ED91FC910480F581A1
:10253000E02D099508951F93CF93DF93EC01162F9B
:102540000E9470176A837B838C839D83CE5BDF4FF1
:1025500067E972E0888199810E94C11A4AE050E0DF
:10256000612F888199810E94701B6EE972E08881D9
:1025700099810E94C11A62E370E080E090E0DF91EF
:10258000CF911F910C949F171F93CF93DF93EC0172
:10259000162F8E89882311F1CE010E948E1281118F
:1025A00002C085E61CC0CE010E948E128823C9F3AA
:1025B000CE010E948112883689F048F4883569F08E
:1025C000833689F7612FCE010E949B1207C08137A5
:1025D00029F0863741F786E702C01E8A83E6DF913D
:1025E000CF911F9108950F931F93CF93DF931F9265
:1025F000CDB7DEB78C01611108C0F801468B0F9092
:10260000DF91CF911F910F91089581E0F801868BA2
:1026100060E0C80149830E94C41249818336C1F732
:10262000ECCF10926E0310926F0310927003109211
:10263000710310927203109273031092740310923C
:10264000750310927603109277031092780310921C
:10265000790310927A0310927B0310927C031092FC
:102660007D0308958091E00390E02091E103821BB7
:10267000910908952091E1038091E003281750F417
:10268000E22FF0E0EE51FC4F808190E02F5F20932D
:10269000E10308958FEF9FEF0895E091E1038091AA
:1026A000E003E81730F4F0E0EE51FC4F808190E059
:1026B00008958FEF9FEF08950895CF92DF92EF92E4
:1026C000FF920F931F93CF93DF937C01CB018A017D
:1026D0002091BC03222389F0EB016B01C40ED51EAF
:1026E000CC15DD0569F06991D701ED91FC91019060
:1026F000F081E02DC7010995F3CF642F0E94BC142F
:10270000C801DF91CF911F910F91FF90EF90DF9063
:10271000CF900895CF93DF931F92CDB7DEB7698333
:102720002091BC032223D1F02091BD03203240F040
:1027300021E030E0FC013383228380E090E015C08B
:102740008091BE03E82FF0E0E154FC4F9981908323
:102750008F5F8093BE038093BD0305C061E0CE010F
:1027600001960E94BC1481E090E00F90DF91CF9120
:102770000895FC011382128248EE53E060E070E09D
:10278000448355836683778383EF92E091838083CC
:1027900008951092E1031092E0031092BE0310928C
:1027A000BD030C940714862F413208F040E262EE1C
:1027B00073E00E9425141092E1038093E0030895D2
:1027C00021E00C94D31381E08093BC036093DF037A
:1027D0001092BE031092BD0308950F93062F21E0BF
:1027E0004091BD036FEB73E08091DF030E94691499
:1027F0001092BE031092BD031092BC030F91089576
:1028000061E00C94ED1380EB93E00C94B9131092FB
:102810006F0481E080936D0410926C0461E082E0AB
:102820000E94DF1861E083E00E94DF18E9EBF0E02E
:1028300080818E7F808380818D7F808380E2809302
:10284000B80085E48093BC000895413208F03FC091
:1028500090916F049111FCCF91E090936F042093BD
:102860006D042FEF2093020410924704240F20934D
:10287000460490936E0490916E04880F892B809388
:102880006E0480916C04813041F410926C0480914C
:102890006E048093BB0085EC01C085EE8093BC0084
:1028A00080916F048130E1F380914704841710F424
:1028B0004091470428E434E0FB01D9018A2F821BB0
:1028C000841718F48D918193F9CF842F089580E0B7
:1028D00008950F93413208F046C090916F04911112
:1028E000FCCF92E090936F0400936D049FEF909360
:1028F00002041092470440934604FB0168E474E02C
:10290000DB019A2F961B941718F491919D93F9CFA0
:1029100010926E0490916E04880F892B80936E0440
:1029200080916C04813041F410926C0480916E04AB
:102930008093BB0085EC01C085EE8093BC00222310
:1029400021F080916F048230E1F3809102048F3F87
:1029500061F080910204803251F080910204803352
:1029600041F483E007C081E005C080E003C082E05D
:1029700001C084E00F910895613298F420916F04B2
:10298000243089F460932404FC0186E294E0DC01A5
:102990002A2F281B261718F421912D93F9CF80E0B8
:1029A000089581E0089582E0089585ED8093BC004C
:1029B0008091BC0084FDFCCF10926F04089585ECDB
:1029C0008093BC0010926F0408951F920F920FB66F
:1029D0000F9211242F933F934F935F936F937F93A5
:1029E0008F939F93AF93BF93EF93FF938091B90021
:1029F000887F803609F49CC068F5883209F45BC092
:102A000090F4803109F454C038F4882309F4F5C0F7
:102A1000883009F44DC0F5C0883109F44CC08032CB
:102A200009F45DC0EEC0803409F468C048F4803316
:102A300009F455C0883309F0E4C080930204A8C0AB
:102A4000803509F44FC0883509F45DC0883409F039
:102A5000D8C0D5C0883909F4C6C0A8F4883709F4AD
:102A600067C038F4883609F463C0803709F460C061
:102A7000C8C0883809F4B7C0803909F45FC080380D
:102A800009F0BFC05BC0803B09F485C038F4803AD0
:102A900009F466C0883A09F47EC0B3C0803C09F4EA
:102AA000A6C0883C09F4A3C0883B09F489C0A9C02A
:102AB00080916E0410C0909147048091460498174D
:102AC00070F5E091470481E08E0F80934704F0E0B9
:102AD000E85BFB4F80818093BB0085EC85C08093D1
:102AE00002048DC0E091470481E08E0F809347047B
:102AF0008091BB00F0E0E85BFB4F8083909147043E
:102B0000809146046DC0E091470481E08E0F809370
:102B100047048091BB00F0E0E85BFB4F808380912D
:102B20006D0481116CC081E080936C0484EA60C004
:102B300083E080936F0410920304CFCF809103044D
:102B4000803208F050C0E091030481E08E0F809342
:102B500003048091BB00F0E0EC5FFB4F8083BDCFAE
:102B600080910304803230F4E0910304F0E0EC5FE4
:102B7000FB4F10820E94D5146091030470E0E09135
:102B80006804F091690484E094E0099510920304CC
:102B90000E94DF1436C084E080936F0410922504F5
:102BA00010922404E0916A04F0916B0409958091DD
:102BB0002404811105C081E080932404109226042E
:102BC000E091250481E08E0F80932504F0E0EA5D1A
:102BD000FB4F80818093BB00909125048091240459
:102BE000981708F47ACF85E88093BC000AC085EC7A
:102BF0008093BC0010926F0404C0109202040E94E3
:102C0000D514FF91EF91BF91AF919F918F917F91DB
:102C10006F915F914F913F912F910F900FBE0F9049
:102C20001F9018950895853008F04CC0E82FF0E00B
:102C3000EE0FFF1FE65DFE4F718360838230E1F08F
:102C400018F4813069F004C0833019F1843071F1D7
:102C5000809169008C7F842B80936900E89A0895A5
:102C600080916900440F551F440F551F837F842BAB
:102C700080936900E99A08958091690034E0440FD7
:102C8000551F3A95E1F78F7C842B80936900EA9A6F
:102C900008958091690026E0440F551F2A95E1F7B9
:102CA0008F73842B80936900EB9A089580916A005A
:102CB00094E0440F551F9A95E1F78F7C842B809305
:102CC0006A00EE9A08951F920F920FB60F92112488
:102CD0002F933F934F935F936F937F938F939F9324
:102CE000AF93BF93EF93FF93E0912A01F0912B01F3
:102CF0000995FF91EF91BF91AF919F918F917F9136
:102D00006F915F914F913F912F910F900FBE0F9058
:102D10001F9018951F920F920FB60F9211242F93A8
:102D20003F934F935F936F937F938F939F93AF9353
:102D3000BF93EF93FF93E0912C01F0912D01099542
:102D4000FF91EF91BF91AF919F918F917F916F9183
:102D50005F914F913F912F910F900FBE0F901F9059
:102D600018951F920F920FB60F9211242F933F9335
:102D70004F935F936F937F938F939F93AF93BF9383
:102D8000EF93FF93E0912E01F0912F010995FF91B0
:102D9000EF91BF91AF919F918F917F916F915F91D3
:102DA0004F913F912F910F900FBE0F901F9018954C
:102DB0001F920F920FB60F9211242F933F934F93B0
:102DC0005F936F937F938F939F93AF93BF93EF9393
:102DD000FF93E0913001F09131010995FF91EF915E
:102DE000BF91AF919F918F917F916F915F914F9123
:102DF0003F912F910F900FBE0F901F9018951F922B
:102E00000F920FB60F9211242F933F934F935F931E
:102E10006F937F938F939F93AF93BF93EF93FF93A2
:102E2000E0913201F09133010995FF91EF91BF914B
:102E3000AF919F918F917F916F915F914F913F9152
:102E40002F910F900FBE0F901F9018951F920F9209
:102E50000FB60F9211242F933F938F939F93AF93AD
:102E6000BF938091710490917204A0917304B0910A
:102E700074043091700426E0230F2D3720F402965D
:102E8000A11DB11D05C029E8230F0396A11DB11D89
:102E9000209370048093710490937204A093730440
:102EA000B09374048091750490917604A091770496
:102EB000B09178040196A11DB11D80937504909383
:102EC0007604A0937704B0937804BF91AF919F915B
:102ED0008F913F912F910F900FBE0F901F901895DB
:102EE0002FB7F8946091710470917204809173040B
:102EF000909174042FBF08953FB7F89480917504A2
:102F000090917604A0917704B091780426B5A89B9F
:102F100005C02F3F19F00196A11DB11D3FBF6627C7
:102F2000782F892F9A2F620F711D811D911D43E00B
:102F3000660F771F881F991F4A95D1F708958F92C2
:102F40009F92AF92BF92CF92DF92EF92FF926B016E
:102F50007C010E947C174B015C01C114D104E10487
:102F6000F104F1F00E941B220E947C176819790974
:102F70008A099B09683E73408105910570F321E041
:102F8000C21AD108E108F10888EE880E83E0981E85
:102F9000A11CB11CC114D104E104F10429F7DDCF57
:102FA000FF90EF90DF90CF90BF90AF909F908F9069
:102FB00008958330910528F0880F991F0497019791
:102FC000F1F70895789484B5826084BD84B58160FA
:102FD00084BD85B5826085BD85B5816085BDEEE621
:102FE000F0E0808181608083E1E8F0E01082808100
:102FF00082608083808181608083E0E8F0E080816E
:1030000081608083E1E9F0E080818260808380815B
:1030100081608083E0E9F0E0808181608083E1EC81
:10302000F0E0808184608083808182608083808101
:1030300081608083E3ECF0E0808181608083E0EC5C
:10304000F0E0808182608083E2ECF0E0808181604A
:103050008083EAE7F0E08081846080838081826001
:10306000808380818E7F80838081806880830895C3
:10307000823108F08251E82FF0E0E653FF4FE491EF
:1030800080917B00E3FB222720F930E095E0220FBE
:10309000331F9A95E1F78F7D822B80937B00E77039
:1030A0008091340120E4829FC0011124E82BE09339
:1030B0007C0080917A00806480937A0080917A000D
:1030C00086FDFCCF809178002091790090E0922BD2
:1030D000089590E0FC013197EF30F105B0F5EA5A20
:1030E000FF4F0C940C25809180008F7703C0809156
:1030F00080008F7D80938000089580918000877F7D
:10310000F9CF84B58F7702C084B58F7D84BD0895D3
:10311000809190008F7707C0809190008F7D03C0D1
:1031200080919000877F8093900008958091C000E7
:103130008F7703C08091C0008F7D8093C000089579
:103140008091C200877F8093C2000895CF93DF9360
:1031500090E0FC01EB50FF4F2491FC01EC5EFE4F30
:103160008491882349F190E0880F991FFC01E15B6D
:10317000FE4FA591B4918F5B9E4FFC01C591D491F8
:103180009FB7611108C0F8948C91209582238C938D
:10319000888182230AC0623051F4F8948C91322FD6
:1031A000309583238C938881822B888304C0F89484
:1031B0008C91822B8C939FBFDF91CF9108950F93B9
:1031C0001F93CF93DF931F92CDB7DEB7282F30E048
:1031D000F901EA52FF4F8491F901EB50FF4F14912E
:1031E000F901EC5EFE4F04910023C9F0882321F021
:1031F00069830E9469186981E02FF0E0EE0FFF1FDC
:10320000EF5BFE4FA591B4919FB7F8948C9161113B
:1032100003C01095812301C0812B8C939FBF0F9019
:10322000DF91CF911F910F910895CF93DF93282FB6
:1032300030E0F901EA52FF4F8491F901EB50FF4F62
:10324000D491F901EC5EFE4FC491CC2391F0811131
:103250000E946918EC2FF0E0EE0FFF1FED5CFE4FAF
:10326000A591B4912C912D2381E090E021F480E090
:1032700002C080E090E0DF91CF910895CF93DF937B
:103280001F92CDB7DEB76983DC01ED91FC9102801E
:10329000F381E02D41E050E0BE016F5F7F4F099563
:1032A0000F90DF91CF910895CF93DF93EC018C8540
:1032B0009D8597FF05C082E00E94671D9D878C87D2
:1032C0008C859D85DF91CF91089583E00C94FD1F3F
:1032D000FC018485958597FD06C082E00E94101D43
:1032E00090E00196089582E00E94101D90E00895FC
:1032F000FC018485958597FD05C02FEF3FEF35874D
:103300002487089582E00C94671DCF93DF93EC012E
:1033100080914001882331F083E00E94981D1816A7
:10332000190634F081E090E09B838A8380E090E08E
:10333000DF91CF910895FC0120812E5F208342E42C
:1033400050E06DE571E080E80C94321EFC012181B3
:103350008081813A59F4213209F04BC047E050E0B6
:1033600069E371E080E00E94321E5EC0813209F0A4
:1033700040C0233289F4838190E0982F88273281DE
:10338000832BA0E0B0E08093350190933601A093A9
:103390003701B09338010FC0203239F467E070E094
:1033A00089E391E00E94631E09C0223221F48281E8
:1033B0008093400103C02D7F2032B1F58091C90474
:1033C000811103C0E0E0F8E002C0EEEFFAE0809186
:1033D000390190913A01A0913B01B0913C01803BB1
:1033E0009440A105B10511F58091400180FF03C013
:1033F0001DC080E00895EE3F2AE0F20731F08081A1
:1034000091819093FF0A8093FE0A87E797E7918363
:1034100080832BE088E190E00FB6F894A895809324
:1034200060000FBE2093600081E0089588E10FB630
:10343000F89480936000109260000FBEA895EE3F54
:103440008AE0F80739F08091FE0A9091FF0A918393
:103450008083EACF1092FF0A1092FE0AE5CF2FEF89
:103460003FEFFC01358724870895CF93C091400139
:103470006AE070E080E090E00E949F1781E0C11157
:1034800001C080E0CF91089510927C0410927B04DB
:1034900088EE93E0A0E0B0E080937D0490937E04FA
:1034A000A0937F04B093800483E093E090937A0428
:1034B000809379048FEF9FEF909386048093850427
:1034C000089508950E94E2170E94611A8AEC94E020
:1034D0000E9481200E94590DC0E0D0E00E948B0F15
:1034E0002097E1F30E940000F9CFCF92DF92EF9294
:1034F000FF920F931F93CF93DF937C016A01EB013F
:1035000000E010E00C151D0571F06991D701ED91F7
:10351000FC910190F081E02DC7010995892B19F0EC
:103520000F5F1F4FEFCFC801DF91CF911F910F9118
:10353000FF90EF90DF90CF9008956115710581F0B5
:10354000DB010D900020E9F7AD0141505109461B08
:10355000570BDC01ED91FC910280F381E02D099481
:1035600080E090E00895DC01ED91FC91DB01149680
:103570004D915C9115976D917C910280F381E02DC6
:1035800009940C949D1ADC01ED91FC910190F0815D
:10359000E02D09948F929F92AF92BF92DF92EF92AB
:1035A000FF920F931F93CF93DF93CDB7DEB7A19711
:1035B0000FB6F894DEBF0FBECDBF7C01F42FD52E21
:1035C000CB0119A2223008F42AE08E010F5D1F4FB3
:1035D000822E912CA12CB12C6F2F7D2DA501940151
:1035E0000E94EA24F22FD32ECA01015011096A3039
:1035F00014F4E0E301C0E7E3E60FD801EC93232BDA
:10360000242B252B49F7B801C7010E949D1AA196CA
:103610000FB6F894DEBF0FBECDBFDF91CF911F91E3
:103620000F91FF90EF90DF90BF90AF909F908F90A1
:103630000895CF92DF92EF92FF920F931F93CF9353
:10364000DF93EC016A017B012115310579F4E881F2
:10365000F9810190F081E02D642FDF91CF911F91CE
:103660000F91FF90EF90DF90CF9009942A303105B1
:10367000E9F477FF1AC06DE20E94C31A8C01442757
:103680005527BA014C195D096E097F092AE0CE0160
:103690000E94CA1A800F911FDF91CF911F910F9145
:1036A000FF90EF90DF90CF9008952AE0B701A60138
:1036B000CE01DF91CF911F910F91FF90EF90DF909E
:1036C000CF900C94CA1A2115310541F4DC01ED911B
:1036D000FC910190F081E02D642F09940C94CA1A9A
:1036E0009A01462F50E060E070E00C94631B4F920B
:1036F0005F926F927F928F929F92AF92BF92CF9282
:10370000DF92EF92FF920F931F93CF93DF93EC0121
:103710006A017B01B22E9A01AB01C701B6010E947A
:10372000D224882319F06FE073E027C02601370107
:10373000E89477F82FEF3FEF4FE75FE7C301B2015F
:103740000E94D22481110DC02FEF3FEF4FE75FE7BA
:10375000C301B2010E941C2318161CF463E173E03C
:103760000CC02FEF3FEF4FE75FE4C701B6010E94A7
:103770006B241816ACF467E173E0CE01DF91CF91B2
:103780001F910F91FF90EF90DF90CF90BF90AF907F
:103790009F908F907F906F905F904F900C949D1AA8
:1037A0002FEF3FEF4FE75FECC701B6010E941C23EC
:1037B00087FDE1CF20E030E0A901C701B6010E94FA
:1037C0001C2387FF0AC06DE2CE010E94C31A8C0140
:1037D000F7FAF094F7F8F09402C000E010E0A12CA2
:1037E00060E070E080E09FE3AB1441F020E030E067
:1037F00040E251E40E942023A394F6CF9B01AC0148
:10380000C701B6010E94B8226B017C010E948D2382
:103810002B013C010E94B9239B01AC01C701B601F9
:103820000E94B7226B017C012AE0B301A201CE0104
:103830000E94CA1A080F191FBB2039F066E771E011
:10384000CE010E949D1A080F191F7B2C772041F191
:1038500020E030E040E251E4C701B6010E946F244D
:103860006B017C010E9488234B01AA2497FCA09441
:10387000BA2C2AE030E0B501A401CE010E94191B48
:10388000080F191FC501B4010E94BB239B01AC01A5
:10389000C701B6010E94B7226B017C017A94D6CF92
:1038A000C801DF91CF911F910F91FF90EF90DF90B2
:1038B000CF90BF90AF909F908F907F906F905F90D0
:1038C0004F9008950C94771B4091CE045091CF04F3
:1038D0002091CC043091CD0442175307B4F4909159
:1038E000E8009570E1F39091E80092FD19C0809393
:1038F000F1008091CE049091CF0401968F739927A7
:10390000892B19F48EEF8093E8008091CE0490917A
:10391000CF0401969093CF048093CE0481E0089564
:1039200080E00895CF92DF92EF92FF920F931F9362
:10393000CF93DF931F92CDB7DEB7082F162FF42E4B
:10394000862F880F8E5F99830E94641C83E00E94FB
:10395000641CE02EC02E9981D92E8C2D8E198117D2
:1039600098F4F601F7FE02C0849101C080810E94A4
:10397000641C082F80E00E94641C8023FFEFCF1A94
:10398000DF0A8111EACF01C081E00F90DF91CF9172
:103990001F910F91FF90EF90DF90CF90089580914D
:1039A000D70081608093D70080EA8093D80089B5E2
:1039B0008F7E89BD89B5826089BD09B400FEFDCFC7
:1039C00061E070E080E090E00E949F178091D80055
:1039D0008F7C80618093D8008091E000807F80930D
:1039E000E0000895CF93DF931F92CDB7DEB7198221
:1039F000CE0101960E949B190E94A322BE016F5F17
:103A00007F4F0E941C2289810F90DF91CF910895F2
:103A10002FB7FC012083F89467706093E900089544
:103A2000CF93DF931F92CDB7DEB7682FCE010196FB
:103A30000E94081D8091F20099819FBF0F90DF9135
:103A4000CF910895FF920F931F93CF93DF9300D0F0
:103A5000CDB7DEB7F62E8A019091D204992311F0EA
:103A600057FF03C08FEF9FEF2AC0682FCE0101964A
:103A70007A830E94081D8091F20090E0A8017A816B
:103A8000801791070CF4AC01EF2DF72FF40E84E6AC
:103A9000FE1631F08093D3049091F1009193F8CF0A
:103AA0004115510521F08091F200882321F0898190
:103AB0008FBFCA0104C08BE68093E800F8CF0F9057
:103AC0000F90DF91CF911F910F91FF900895CF93A9
:103AD000DF931F92CDB7DEB741E050E0BE016F5FCC
:103AE0007F4F0E94221D019719F4898190E002C046
:103AF0008FEF9FEF0F90DF91CF910895CF93DF93DA
:103B00001F92CDB7DEB7682FCE0101960E94081D27
:103B10009091E800892F807295FF04C09091F20087
:103B200080E4891B99819FBF0F90DF91CF91089509
:103B30006F927F928F929F92AF92BF92CF92DF92BD
:103B4000EF92FF920F931F93CF93DF931F92CDB706
:103B5000DEB7782E7B01C42EB52E8091D204882347
:103B600069F0042F152F8AEFD82E872D8072982E9A
:103B70009AE3A92E872D8074882E11C08FEF9FEFB6
:103B800056C0872D0E947E1D682E81110CC0DA94CC
:103B9000A9F361E070E080E090E00E949F170115BA
:103BA000110579F73BC0282F30E0021713070CF4FA
:103BB000602E672DCE0101960E94081D8091E800BD
:103BC00085FF29C0262D30E0021B130B992039F008
:103BD0006A948FEF6816B1F01092F100F9CFF701F7
:103BE000862D77FE07C0815058F094919093F10094
:103BF0003196F9CF815020F091919093F100FACF56
:103C0000E20EF31E8091E80085FF0EC0011511053C
:103C100011F4811009C089818FBFC1CF84E68093E0
:103C2000D4048C2D9B2D03C0A092E800F4CF0F90FC
:103C3000DF91CF911F910F91FF90EF90DF90CF9088
:103C4000BF90AF909F908F907F906F90089510924B
:103C5000E9001092CF041092CE049093CD0480938B
:103C6000CC040895CF92DF92FF920F931F93CF93CE
:103C7000DF9300D0CDB7DEB7F82E8A016B010115B6
:103C80001105B1F0F601F7FE02C0849101C08081F8
:103C900049835A830E94641C01501109FFEFCF1A17
:103CA000DF0A49815A818111EACF8FEF9FEF01C06E
:103CB000CA010F900F90DF91CF911F910F91FF904C
:103CC000DF90CF900895CF93DF939B01A4E6BBEFE5
:103CD00021153105F9F0A9012134310514F040E432
:103CE00050E0E091E800E2FFFCCFFB01E21BF30BA8
:103CF000E80FF91FCE2FC40FCE1729F0D091F10095
:103D0000D0833196F9CFA093D304B093E800241B5D
:103D1000350BDECFCB01DF91CF9108951F920F922B
:103D20000FB60F921124DF92EF92FF920F931F9321
:103D30002F933F934F935F936F937F938F939F93B3
:103D4000AF93BF93EF93FF93CF93DF93CDB7DEB7DE
:103D50006C97DEBFCDBF1092E9008091E80083FF31
:103D60002EC1FE0175968F01AE01435E5F4F9F012C
:103D70002F5F3F4F8091F10080832417350711F0AA
:103D8000F901F5CF84E68093D30482EF8093E800B5
:103D90005D8957FF05C08091E80080FFFCCF03C01C
:103DA0008EEF8093E800852F807609F0EFC04E8972
:103DB0008F89D88C41110CC0503829F48091D104DE
:103DC0008093F10002C01092F1001092F100F0C057
:103DD000282F30E03D29413051F45111E9C0213004
:103DE000310509F0E5C08091D1048D7F0BC04330CF
:103DF00061F45111DDC02130310509F0D9C0809145
:103E0000D10482608093D104D3C0453041F49091B5
:103E1000E80090FFFCCF80688093E300C9C0463083
:103E200009F08BC0EB8CFC8C22E0D2122CC080E01D
:103E300090E00E94271E0E94F21C99E08E010F5F05
:103E40001F4FF801292F11922A95E9F79983DA82F9
:103E500091E09E8390EA98879AEF99872091CE040B
:103E60003091CF04275F3F4F3C832B838D83C70165
:103E70000E94271E49E050E0B80180E00E94321EF7
:103E80000E94F21C95C0C7010E94271E0E94A32217
:103E9000B8010E944522009719F00CF089C08CC02F
:103EA00081E0D8120EC08B8D9C8D089719F481E0AB
:103EB0008093CB048091CB0481112FC061EB71E022
:103EC00031C0E3E0DE1278C08F89882349F1823067
:103ED00029F440E86CE08CEC91E01CC0813029F4BE
:103EE00040E868E083EC91E015C0833009F064C0DD
:103EF0000E94A3228E010F5F1F4FB8010E9464220F
:103F0000F80101900020E9F73197E01BF10B40E048
:103F10006E2FC8010E94921C49C06FE971E002C077
:103F200069ED71E06115710509F446C0FB0144912A
:103F300050E080E80E94321E3BC04730E9F1483033
:103F400021F481E08093F10033C0493089F553704A
:103F500099F5E2E4F1E081E021E036E390819923F4
:103F600061F08093E9002093EB0091919093EC0035
:103F70003093ED008F5F873089F78EE78093EA00FA
:103F80001092EA008F898093D20412C08B8D9C8D91
:103F90000E94271E898D811104C0C8010E94A619A4
:103FA00005C00E94A322B8010E948322882321F029
:103FB0008EEF8093E80003C081E28093EB006C9663
:103FC0000FB6F894DEBF0FBECDBFDF91CF91FF914A
:103FD000EF91BF91AF919F918F917F916F915F9181
:103FE0004F913F912F911F910F91FF90EF90DF9094
:103FF0000F900FBE0F901F9018958093E90080914D
:10400000F200882319F08AE38093E80008951F9254
:104010000F920FB60F9211242F933F934F935F93FC
:104020006F937F938F939F93AF93BF93CF93EF93B0
:10403000FF93C091E1008091E100837F8093E100D4
:104040008093E100C3FF0FC01092E90081E08093EC
:10405000EB001092EC0082E38093ED001092D2040A
:1040600088E08093F000C2FF15C083E00E94FD1F2E
:104070008091D404882329F08091D40481508093C6
:10408000D4048091D304882329F08091D3048150F3
:104090008093D304C4FF10C08091E2008E7E8160C3
:1040A0008093E2008091E1008F7E8093E100809117
:1040B000D0048E7E806111C0C0FF11C08091E200EB
:1040C0008E7E80618093E2008091E1008E7E8093FD
:1040D000E1008091D0048E7E81608093D004FF91B6
:1040E000EF91CF91BF91AF919F918F917F916F9100
:1040F0005F914F913F912F910F900FBE0F901F90A6
:1041000018951092D2041092D1041092D0040E94FB
:10411000CF1C8091E1008E7E8093E1008DE0809342
:10412000E200EEEFFFE7859194918B3F9C4D19F4EF
:1041300081E08093C9040895FC01808191810C94F1
:10414000DF25CF93DF93EC0188819981009711F0EF
:104150000E94DF25198218821D821C821B821A820E
:10416000DF91CF9108950F931F93CF93DF93EC01CD
:104170008B016F5F7F4F888199810E946E26009727
:1041800031F0998388831B830A8381E001C080E03A
:10419000DF91CF911F910F910895CF93DF93EC01A1
:1041A00088819981892B29F08A819B8186179707BD
:1041B00060F4CE010E94B320882341F08C819D8160
:1041C000892B19F4E881F981108281E0DF91CF9188
:1041D0000895EF92FF920F931F93CF93DF93EC011B
:1041E0007B018A01BA010E94CD20811104C0CE0159
:1041F0000E94A12007C01D830C83B701888199818B
:104200000E944127CE01DF91CF911F910F91FF9026
:10421000EF900895FC0111821082138212821582A0
:1042200014826115710559F0FB0101900020E9F736
:10423000AF0141505109461B570B0C94E9200895DA
:104240000F931F93CF93DF938C01EB01FC018081CF
:104250009181009799F0428153812C813D814217D1
:10426000530750F0688179810E9441278C819D819C
:10427000F8019583848313C00E94DF25888199818A
:10428000F801918380838A819B81938382838C81CF
:104290009D8195838483198218821B821A821D82D4
:1042A0001C82DF91CF911F910F910895CF93DF93DF
:1042B000EC018617970711F00E942021CE01DF91B3
:1042C000CF910895CF93DF93EC016115710561F0F3
:1042D000FB0101900020E9F7AF0141505109461B55
:1042E000570B0E94E92002C00E94A120CE01DF915D
:1042F000CF9108950F931F93CF93DF93CDB7DEB780
:1043000062970FB6F894DEBF0FBECDBF8C01CB0114
:10431000F80111821082138212821582148250E0F9
:10432000BE016F5F7F4F0E944827BE016F5F7F4FC6
:10433000C8010E94622162960FB6F894DEBF0FBEDC
:10434000CDBFDF91CF911F910F910895EF92FF9212
:104350000F931F93CF93DF93CDB7DEB7A1970FB61F
:10436000F894DEBF0FBECDBF7C01CB01BA01F701CF
:1043700011821082138212821582148242E0420F4F
:104380008E010F5F1F4F0E942625BC01C7010E94AE
:104390006221A1960FB6F894DEBF0FBECDBFDF91AC
:1043A000CF911F910F91FF90EF900895BF92CF9200
:1043B000DF92EF92FF920F931F93CF93DF936C01E5
:1043C0007B01EA0189012417350720F48D2FE901CB
:1043D000042F182F66EA72E0C6010E940A21D70155
:1043E00014968D919C911597C817D907C8F480171A
:1043F000910708F48C01D701ED91FC911197E00F22
:10440000F11FB08010826D917C916C0F7D1FC601F1
:104410000E946221D701ED91FC91E00FF11FB08263
:10442000C601DF91CF911F910F91FF90EF90DF9028
:10443000CF90BF9008950895EF92FF920F931F932E
:10444000CF93DF937B01FC01C281D38100E010E0B8
:10445000209781F0E881F9810280F381E02DB70196
:10446000CE01099597FD08C0080F191F0884D9854A
:10447000C02DEECFC80102C08FEF9FEFDF91CF912B
:104480001F910F91FF90EF9008950F931F93CF937B
:10449000DF938B01FC01C281D381209771F0E88109
:1044A000F9810480F581E02DB801CE0109950097CE
:1044B00031F40884D985C02DF0CF80E090E0DF9101
:1044C000CF911F910F9108950F931F93CF93DF9377
:1044D0008B01FC01C281D381209771F0E881F981C1
:1044E0000680F781E02DB801CE010995080F111D56
:1044F0000884D985C02DF0CFF8011082DF91CF91CB
:104500001F910F9108950F931F93CF93DF938B010A
:10451000FC01C281D381209771F0E881F98101907B
:10452000F081E02DB801CE010995811106C0088403
:10453000D985C02DF0CF80E001C081E0DF91CF911F
:104540001F910F9108958091D90481110DC082E0CF
:104550008093D50484E08093D6041092D8041092FE
:10456000D70481E08093D90485ED94E008955058F4
:10457000BB27AA270ED075C166D130F06BD120F0D1
:1045800031F49F3F11F41EF45BC10EF4E095E7FB9C
:1045900051C1E92F77D180F3BA17620773078407F7
:1045A000950718F071F49EF58FC10EF4E0950B2E6F
:1045B000BA2FA02D0B01B90190010C01CA01A00175
:1045C0001124FF27591B99F0593F50F4503E68F1D0
:1045D0001A16F040A22F232F342F4427585FF3CF11
:1045E000469537952795A795F0405395C9F77EF4E2
:1045F0001F16BA0B620B730B840BBAF09150A1F02B
:10460000FF0FBB1F661F771F881FC2F70EC0BA0FB0
:10461000621F731F841F48F4879577956795B79538
:10462000F7959E3F08F0B3CF9395880F08F0992730
:10463000EE0F979587950895D9D008F481E00895F5
:104640000CD00FC107D140F0FED030F021F45F3F15
:1046500019F0F0C0511139C1F3C014D198F3992366
:10466000C9F35523B1F3951B550BBB27AA27621736
:104670007307840738F09F5F5F4F220F331F441F7B
:10468000AA1FA9F333D00E2E3AF0E0E830D09150B3
:104690005040E695001CCAF729D0FE2F27D0660FA0
:1046A000771F881FBB1F261737074807AB07B0E8DF
:1046B00009F0BB0B802DBF01FF2793585F4F2AF0F5
:1046C0009E3F510568F0B6C000C15F3FECF3983ED5
:1046D000DCF3869577956795B795F7959F5FC9F752
:1046E000880F911D9695879597F90895E1E0660FDB
:1046F000771F881FBB1F621773078407BA0720F054
:10470000621B730B840BBA0BEE1F88F7E0950895BC
:1047100004D06894B111D9C00895BCD088F09F57D7
:1047200090F0B92F9927B751A0F0D1F0660F771FFD
:10473000881F991F1AF0BA95C9F712C0B13081F0DD
:10474000C3D0B1E00895C0C0672F782F8827B85F25
:1047500039F0B93FCCF3869577956795B395D9F73E
:104760003EF490958095709561957F4F8F4F9F4F48
:104770000895E89409C097FB3EF490958095709554
:1047800061957F4F8F4F9F4F9923A9F0F92F96E99D
:10479000BB279395F695879577956795B795F11112
:1047A000F8CFFAF4BB0F11F460FF1BC06F5F7F4FAF
:1047B0008F4F9F4F16C0882311F096E911C07723C1
:1047C00021F09EE8872F762F05C0662371F096E8CA
:1047D000862F70E060E02AF09A95660F771F881F99
:1047E000DAF7880F9695879597F90895990F00083D
:1047F000550FAA0BE0E8FEEF16161706E807F907B3
:10480000C0F012161306E407F50798F0621B730B4D
:10481000840B950B39F40A2661F0232B242B252BCE
:1048200021F408950A2609F4A140A6958FEF811D71
:10483000811D089597F99F6780E870E060E0089512
:104840009FEF80EC089500240A94161617061806A8
:104850000906089500240A94121613061406050684
:104860000895092E0394000C11F4882352F0BB0F15
:1048700040F4BF2B11F460FF04C06F5F7F4F8F4F78
:104880009F4F089557FD9058440F551F59F05F3FB3
:1048900071F04795880F97FB991F61F09F3F79F062
:1048A00087950895121613061406551FF2CF4695E4
:1048B000F1DF08C0161617061806991FF1CF869566
:1048C0007105610508940895E894BB27662777274A
:1048D000CB0197F908958ADF08F48FEF08950BD084
:1048E000C0CFB1DF28F0B6DF18F0952309F0A2CFD2
:1048F000A7CF1124EACFC6DFA0F3959FD1F3950F80
:1049000050E0551F629FF001729FBB27F00DB11D53
:10491000639FAA27F00DB11DAA1F649F6627B00DE3
:10492000A11D661F829F2227B00DA11D621F739FCC
:10493000B00DA11D621F839FA00D611D221F749FDA
:104940003327A00D611D231F849F600D211D822F21
:10495000762F6A2F11249F5750408AF0E1F0882368
:104960004AF0EE0FFF1FBB1F661F771F881F915075
:104970005040A9F79E3F510570F05CCFA6CF5F3F36
:10498000ECF3983EDCF3869577956795B795F795A8
:10499000E7959F5FC1F7FE2B880F911D9695879530
:1049A00097F9089523DF880B990B089597FB072E3D
:1049B00016F4009407D077FD09D00E94122507FC59
:1049C00005D03EF4909581959F4F0895709561951F
:1049D0007F4F0895A1E21A2EAA1BBB1BFD010DC03B
:1049E000AA1FBB1FEE1FFF1FA217B307E407F5079F
:1049F00020F0A21BB30BE40BF50B661F771F881F7B
:104A0000991F1A9469F760957095809590959B0110
:104A1000AC01BD01CF010895EE0FFF1F0590F49189
:104A2000E02D0994AA1BBB1B51E107C0AA1FBB1FA5
:104A3000A617B70710F0A61BB70B881F991F5A952A
:104A4000A9F780959095BC01CD010895EF920F9341
:104A50001F93CF93DF93E80147FF02C034E101C009
:104A600034E0E42FFF27E7FDF095F7FF03C0F19551
:104A7000E195F109E32E022F2E2FAE010E948E2721
:104A8000CE01DF91CF911F910F91EF900895CF93B9
:104A9000DF938230910510F482E090E0E091E3042E
:104AA000F091E40420E030E0A0E0B0E0309739F18C
:104AB0004081518148175907B8F04817590771F4D8
:104AC00082819381109729F013969C938E9312976D
:104AD0002CC09093E4048093E30427C02115310592
:104AE00031F04217530718F0A901DB0101C0EF01B3
:104AF0009A01BD01DF010280F381E02DD7CF21159E
:104B00003105F9F0281B390B2430310580F48A81F6
:104B10009B816115710521F0FB019383828304C0A1
:104B20009093E4048093E304FE01329644C0FE01B6
:104B3000E20FF31F81939193225031093983288327
:104B40003AC02091E1043091E204232B41F42091FA
:104B50000201309103013093E2042093E10420919B
:104B60000001309101012115310541F42DB73EB707
:104B70004091040150910501241B350BE091E104A3
:104B8000F091E204E217F307A0F42E1B3F0B281765
:104B9000390778F0AC014E5F5F4F2417350748F0B6
:104BA0004E0F5F1F5093E2044093E1048193919371
:104BB00002C0E0E0F0E0CF01DF91CF910895CF9304
:104BC000DF93009709F487C0FC01329713821282A9
:104BD000C091E304D091E404209781F420813181D5
:104BE000280F391F8091E1049091E2048217930706
:104BF00079F5F093E204E093E1046DC0DE0120E07A
:104C000030E0AE17BF0750F412964D915C911397A8
:104C10009D014115510509F1DA01F3CFB383A28358
:104C200040815181840F951F8A179B0771F48D91E4
:104C30009C911197840F951F029691838083129601
:104C40008D919C911397938382832115310529F4CB
:104C5000F093E404E093E3043EC0D9011396FC937F
:104C6000EE9312974D915D91A40FB51FEA17FB07C4
:104C700079F480819181840F951F0296D901119654
:104C80009C938E938281938113969C938E9312971B
:104C9000E0E0F0E08A819B81009719F0FE01EC01D1
:104CA000F9CFCE01029628813981820F931F20917E
:104CB000E1043091E2042817390769F4309729F4A8
:104CC0001092E4041092E30402C013821282D09383
:104CD000E204C093E104DF91CF910895A0E0B0E039
:104CE000E4E7F6E20C94F829EC01CB01209719F4E3
:104CF0000E944725B8C0FE01E60FF71F9E01225013
:104D00003109E217F30708F4ACC0D9010D911C91E9
:104D1000119706171707B8F00530110508F49FC062
:104D2000A801445051094617570708F498C002508B
:104D30001109061B170B019311936D937C93CF01FF
:104D40000E94DF258CC05B01A01AB10A4E01800EC3
:104D5000911EA091E304B091E404612C712C60E0F9
:104D600070E0109709F449C0A815B905C9F5ED9090
:104D7000FC901197670142E0C40ED11CCA14DB04F9
:104D800078F147018A189B08640142E0C40ED11CE7
:104D90001296BC9012971396AC91B5E0CB16D10445
:104DA00040F0B282A38391828082D9018D939C933B
:104DB00009C00E5F1F4F0E0D1F1DF90111830083E7
:104DC000EB2DFA2F6115710531F0DB011396FC9381
:104DD000EE93129744C0F093E404E093E3043FC0E1
:104DE0006D917C9111976616770608F43B01BD0121
:104DF00012960D90BC91A02DB4CF6091E1047091FA
:104E0000E20468157905E9F468167906D0F4409152
:104E10000001509101014115510541F44DB75EB7B4
:104E20006091040170910501461B570BE417F507CB
:104E3000C0F4F093E204E093E104F90191838083EC
:104E40000EC00E9447257C01009759F0A801BE01C1
:104E50000E943827CE010E94DF25C70104C0CE0181
:104E600002C080E090E0CDB7DEB7EEE00C94142AEB
:104E7000FB01DC0102C001900D9241505040D8F777
:104E80000895FB01DC0101900D920020E1F70895E7
:104E90004532510520F4423010F00C945327FB01A9
:104EA0001082CB010895BB274A3031F4992322F4B4
:104EB000BDE2909581959F4F0C945F27BB27FB0126
:104EC0005527AA27880F991FAA1FA41710F0A41B03
:104ED00083955051B9F7A05DAA3308F0A95DA1935D
:104EE000009779F7B111B1931192CB010C94E42999
:104EF000F999FECF92BD81BDF89A992780B50895A2
:104F0000262FF999FECF1FBA92BD81BD20BD0FB6E5
:104F1000F894FA9AF99A0FBE019608956F927F92CB
:104F20009F92AF92BF92CF92DF92EF92FF920F9338
:104F30001F93CF93DF93CDB7DEB729970FB6F894C1
:104F4000DEBF0FBECDBF6A01B22E102F0C3320F48E
:104F5000FF24F394F00E02C04CE3F42E0F2D27E053
:104F6000AE014F5F5F4F0E940C297981272F297076
:104F7000213031F0E1FC06C0E0FC06C060E005C075
:104F80006DE203C06BE201C060E2AE2DA07173FF61
:104F900036C0662311F084E001C083E08B1510F465
:104FA000B81A01C0B12CA1110BC0F6018B2D90E2F3
:104FB000882319F091938150FBCFCB0CD11CB12CDD
:104FC000662331F0F601608396012F5F3F4F690140
:104FD000C6010396E2FE05C02EE4F601208331E40B
:104FE00004C02EE6F601208331E631832283FC01E2
:104FF0002B2D30E22223F1F131932150FBCF72FFB0
:1050000040C0662311F084E001C083E08B1510F4EA
:10501000B81A01C0B12CA1110BC0F6018B2D90E282
:10502000882319F091938150FBCFCB0CD11CB12C6C
:10503000662331F0F601608396012F5F3F4F6901CF
:10504000C6010396E2FE07C029E4F60120832EE4A0
:10505000218326E406C029E6F60120832EE621837B
:1050600026E62283FC012B2D30E2222319F0319316
:105070002150FBCFFC01EB0DF11D10828EEF9FEF55
:10508000B7C0B1E0611101C0B0E04B2F50E018167D
:10509000190624F49C012F5F3F4F02C021E030E04D
:1050A000240F351F112329F0412F50E04F5F5F4F30
:1050B00002C040E050E0420F531F2B2D30E042175A
:1050C000530714F4B41A01C0B12C2E2D287159F4D1
:1050D000F6012B2D30E2222319F031932150FBCF22
:1050E000CB0CD11CB12CBB2331F0F60160839601AF
:1050F0002F5F3F4F6901A1110BC0F6012B2D30E34B
:10510000222319F031932150FBCFCB0CD11CB12CB1
:10511000F80E0A81372F3071A32E74FF03C00133BC
:1051200009F4FA941F142CF42F2D293018F028E0DC
:1051300001C021E0682F392F97FF02C060E030E006
:10514000462F532F612C712C3EE2932EBC01621B23
:1051500071099B01DC01A41BB50BE1E0F0E0EC0F51
:10516000FD1FAE0FBF1FE12EF12CF194E194F10869
:105170004F3FFFEF5F0731F4F6019082B6016F5F9A
:105180007F4F6B01841795074CF02417350734F4D3
:10519000BD01660D771DFB01118101C010E3415077
:1051A0005109FFEF6F1A7F0AB6016F5F7F4F4E15EF
:1051B0005F0524F0F60110836B01DACF4817590719
:1051C00039F4063320F4053319F4A11001C011E3BA
:1051D000F6011083FB018B2D90E2882319F0919347
:1051E0008150FBCFFB01EB0DF11D108280E090E0C0
:1051F00029960FB6F894DEBF0FBECDBFDF91CF91D9
:105200001F910F91FF90EF90DF90CF90BF90AF90E4
:105210009F907F906F900895283008F027E0332703
:10522000DA01990F311D87FD9160009661057105C6
:1052300039F432602E5F3D9330E32A95E1F708950B
:105240009F3F30F080387105610509F03C5F3C5F9D
:105250003D93913008F08068911DDF93CF931F93A9
:105260000F93FF92EF92192F987F9695E92F9695BD
:105270009695E90FFF27E95CFD4F99273327EE2428
:10528000FF24A701E70105900894079428F4360F3E
:10529000E71EF81E491F511D660F771F881F991FB3
:1052A0000694A1F70590079428F4E70EF81E491F0D
:1052B000561FC11D770F881F991F661F0694A1F7FF
:1052C0000590079428F4F80E491F561FC71FD11DDB
:1052D000880F991F661F771F0694A1F70590079402
:1052E00020F4490F561FC71FD81F990F661F771F3D
:1052F000881F0694A9F784911095177041F0D695F0
:10530000C79557954795F794E7941A95C1F7EDED32
:10531000F1E06894159015913591659195910590FE
:105320007FE27395E118F10A430B560BC90BD009C4
:10533000C0F7E10CF11E431F561FC91FD01D7EF49C
:10534000703311F48A95E6CFE894015030F0080FDD
:105350000AF40027021708F4202F2395022F7A332E
:1053600028F079E37D932A95E9F710C07D932A957B
:1053700089F6069497956795379517951794E118D0
:10538000F10A430B560BC90BD00998F023957E9177
:1053900073957A3308F070E37C932013B8F77E910D
:1053A00070617D9330F0839571E37D9370E32A956E
:1053B000E1F71124EF90FF900F911F91CF91DF91B2
:1053C000992787FD90950895DC01FC01672F719165
:1053D0007723E1F7329704C07C916D9370836291DB
:1053E000AE17BF07C8F308952F923F924F925F9276
:1053F0006F927F928F929F92AF92BF92CF92DF92E5
:10540000EF92FF920F931F93CF93DF93CDB7DEB749
:10541000CA1BDB0B0FB6F894DEBF0FBECDBF0994DD
:105420002A88398848885F846E847D848C849B8434
:10543000AA84B984C884DF80EE80FD800C811B8142
:10544000AA81B981CE0FD11D0FB6F894DEBF0FBE71
:0A545000CDBFED010895F894FFCFE1
:10545A000000E504800000080C0E0C08000004009F
:10546A000400040004000A040A040A040A000F00E3
:10547A0032000000900100000100121612161216E6
:10548A001216121601FFFFFFFF00E10000000000E4
:10549A000000C18081000000202020202020202040
:1054AA00200025002D4149522D005467742E204DAD
:1054BA0069783A002F303000546F6C6572616E6300
:1054CA006500207074732E00533120546172676531
:1054DA00740025204F32005332205461726765747C
:1054EA0000206D56005332204552524F5200202060
:1054FA004D697820002F00456E746572696E6700E9
:10550A0043616C6962726174696F6E204D6F646584
:10551A000043616C6962726174696F6E20464F3232
:10552A003A0025204F787967656E00436C69636B92
:10553A0020746F00636F6E6669726D004261642049
:10554A0043616C6962726174696F6E00446174616F
:10555A0000536176656400564D4450565F317C3184
:10556A005F564D4450560D0A004D69784D6F6E696D
:10557A00746F720076007620302E3200506C6561AE
:10558A00736500526563616C696272617465004F8C
:10559A007074696F6E73004D656E75005365742083
:1055AA004D6978004F322053656E736F72005461F3
:1055BA0072676574730044697361626C6500436164
:1055CA006C69627261746500457869740000000054
:1055DA00004511751A564D4450455F003A323A005B
:1055EA005F564D44504500564D4450435F005F5648
:1055FA004D4450430D0A004572726F723A2041744D
:10560A0074656D707420746F2073657420612072E4
:10561A006561642D6F6E6C79207661726961626C66
:10562A0065206F7220646174612074797065206EE0
:10563A006F7420737570706F727465640D0A000060
:10564A000000008A135D1332133A134D135C1300E2
:10565A000000003E19851968197819541965196EE0
:0C566A00616E00696E66006F76660000DD
:00000001FF
