:100000000C9470010C94D1150C94F8150C941F16D7
:100010000C9446160C9498010C9498010C946D164F
:100020000C9498010C9498010C94751F0C94FC1D71
:100030000C9498010C9498010C9498010C949801DC
:100040000C9498010C9498010C9498010C949801CC
:100050000C9498010C9498010C9498010C949416AB
:100060000C9498010C9498010C9498010C949801AC
:100070000C9498010C9498010C9498010C9498019C
:100080000C9498010C9498010C9498010C9498018C
:100090000C9453140C9498010C9498010C949801AE
:1000A0000C9498010C9498010C949801EF17F21796
:1000B000E117E517EB17131813181318F617FA17AB
:1000C000FE170418081813180E1807060504010077
:1000D000080A0B0C0D090000000200090F000003C4
:1000E0000401000C000000000000000000000000FF
:1000F0000000000000040802011040804010204071
:10010000804080080204018040201002011080100D
:1001100020404020040404040403040502020202F7
:100120000403020202020606060606060404020290
:10013000020404000000002300260029002C002FE8
:100140000000000000250028002B002E00310000D8
:10015000000000240027002A002D003000080B00BA
:10016000020202010009040000010202000005244D
:1001700000100105240101010424020605240600E3
:10018000010705810310004009040100020A000074
:10019000000705020240000007058302400000122C
:1001A000010002EF0201409A230C800001010203CA
:1001B0000112010002000000409A230C800001019E
:1001C0000203014164616672756974004665617479
:1001D0006865722033327534000403090400407AE4
:1001E00010F35A00A0724E18090010A5D4E80000C0
:1001F000E87648170000E40B54020000CA9A3B005E
:100200000000E1F505000080969800000040420FD4
:10021000000000A08601000000102700000000E898
:1002200003000000006400000000000A000000005D
:10023000000100000000002C76D888DC674F0823FE
:10024000DFC1DFAE59E1B1B796E5E3E453C63AE664
:1002500051997696E8E6C28426EB898C9B62ED4044
:100260007C6FFCEFBC9C9F40F2BAA56FA5F4900593
:100270005A2AF75C936B6CF9676DC11BFCE0E40DC7
:1002800047FEF520E6B500D0ED902E0300943577BB
:10029000050080841E080000204E0A000000C80CE3
:1002A000333333330F986E12831141EF8D2114894C
:1002B0003BE65516CFFEE6DB18D1844B381BF77CA6
:1002C0001D901DA4BBE424203284725E228100C9EB
:1002D000F124ECA1E53D2700DE057F127113B21970
:1002E00011241FBECFEFDAE0DEBFCDBF13E0A0E0E8
:1002F000B1E0E6E3F3E502C005900D92A630B10748
:10030000D9F724E0A6E0B3E001C01D92AD3CB207EE
:10031000E1F712E0C0EED2E004C02297FE010E9495
:100320007C24C83DD107C9F70E94D0190C949929A3
:100330000C94000080E00E94831821E0892B09F4CE
:1003400020E020931F0381E00E94831821E0892B85
:1003500009F420E020931E0380911D03882321F0DF
:1003600080911C03811109C080911D03811112C06D
:1003700080911C03811163C00DC080911F03811106
:1003800004C080911E03811150C080911F038823F7
:1003900019F11DC080911D03811105C080911C03BE
:1003A000882309F459C080911D038823A9F0809106
:1003B0001C03811111C080911F03882321F08091BB
:1003C0001E0381116EC080911F03811105C08091B1
:1003D0001E03882309F46FC08091180390911903BC
:1003E000049734F080911A0390911B0301960CC07E
:1003F00080911803909119038D3F9F4F6CF4809169
:100400001A0390911B03019790931B0380931A0387
:10041000109219031092180380911F0380931D03FB
:1004200080911E0380931C0308958091180390917E
:10043000190301969093190380931803A6CF809116
:100440001F03811104C080911E038823B1F08091A5
:100450001F03882309F20CC080911F03882321F019
:1004600080911E03882399F080911F038111B4CFDE
:1004700080911E0381111FC0AFCF8091180390910E
:10048000190301969093190380931803E0CF80918C
:100490001803909119030196909319038093180300
:1004A000E3CF80911803909119030196909319035B
:1004B0008093180388CF80911803909119030197B6
:1004C000909319038093180387CF80E00E948318CC
:1004D00021E0892B09F420E020931F0381E00E9492
:1004E000831821E0892B09F420E020931E038091DA
:1004F0001D03882321F080911C03811109C0809184
:100500001D03811112C080911C03811163C00DC0B5
:1005100080911F03811104C080911E03811150C07E
:1005200080911F03882319F11DC080911D03811143
:1005300005C080911C03882309F459C080911D03D4
:100540008823A9F080911C03811111C080911F03A1
:10055000882321F080911E0381116EC080911F03BA
:10056000811105C080911E03882309F46FC080911A
:10057000180390911903049734F080911A03909115
:100580001B0301960CC080911803909119038D3FB5
:100590009F4F6CF480911A0390911B0301979093E5
:1005A0001B0380931A031092190310921803809171
:1005B0001F0380931D0380911E0380931C030895E5
:1005C00080911803909119030196909319038093D9
:1005D0001803A6CF80911F03811104C080911E03D0
:1005E0008823B1F080911F03882309F20CC0809109
:1005F0001F03882321F080911E03882399F08091A6
:100600001F038111B4CF80911E0381111FC0AFCF92
:100610008091180390911903019690931903809388
:100620001803E0CF809118039091190301969093DD
:10063000190380931803E3CF809118039091190355
:100640000196909319038093180388CF8091180323
:10065000909119030197909319038093180387CF02
:10066000009729F483E393E00E941C1106C00197D0
:10067000C1F483E393E00E944111BC01882777FD18
:100680008095982F0E94292320E030E040E853E431
:100690000E94DD2320E03EEF4FEF56E40E948E22C1
:1006A000089560E070E0CB010895CF92DF92EF9261
:1006B000FF920F931F93CF93DF9300D000D01F9230
:1006C000CDB7DEB749835A836B837C838C01000FDF
:1006D000111F000F111FCE0101967C016E0195E0E4
:1006E000C90ED11CF70161917F01C8016D830E9481
:1006F000E6266D81681719F0C8010E94EE260F5F8B
:100700001F4FEC14FD0471F70F900F900F900F9096
:100710000F90DF91CF911F910F91FF90EF90DF909D
:10072000CF900895CF93FC01808191810E94300386
:10073000C1E020E030E0A9010E94D92318160CF096
:10074000C0E08C2FCF910895CF92DF92EF92FF926D
:100750000F931F93CF93DF93EC01E880F9808C8196
:10076000811135C0EE0CFF1CEE0CFF1C6E0185E004
:10077000C80ED11C87010C5F1F4FC7010E94E626DF
:10078000F60181936F01FFEFEF1AFF0AE016F10601
:10079000A1F781E08C83CD80DE80EF80F88422E5B4
:1007A00038EB4EEC5FE3C701B6010E948A2287FD59
:1007B0000AC020E030E048E250E4C701B6010E94E0
:1007C000D923181624F41D821E821F8218866D817B
:1007D0007E818F819885DF91CF911F910F91FF903E
:1007E000EF90DF90CF900895CF930E94A403C1E0D3
:1007F00020E030E0A9010E94D92318160CF0C0E0D7
:100800008C2FCF910895CF92DF92EF92FF92CF93EA
:10081000DF93EC010E94F403882301F1CE010E94D2
:1008200092038823D9F0888199810E94300320E0C7
:1008300030E0A9010E94D923181684F48881998197
:100840000E9430036B017C01CE010E94A4039B0136
:10085000AC01C701B6010E94DD2303C060E070E077
:10086000CB01DF91CF91FF90EF90DF90CF90089573
:100870008F929F92AF92BF92CF92DF92EF92FF92B0
:10088000CF93DF93EC010E94F403882309F46CC03A
:10089000CE010E949203882309F466C0CE010E9413
:1008A00003046B017C016A817B81882777FD809539
:1008B000982F0E94292320E030E040E251E40E947A
:1008C0008E224B015C0160911E0170911F018827EF
:1008D00077FD8095982F0E94292320E030E040E2A8
:1008E00051E40E948E229B01AC01C501B4010E941B
:1008F00026229B01AC01C701B6010E94D92318161C
:10090000ACF1CE010E9403046B017C016A817B8102
:10091000882777FD8095982F0E94292320E030E0DA
:1009200040E251E40E948E224B015C0160911E0165
:1009300070911F01882777FD8095982F0E942923A9
:1009400020E030E040E251E40E948E229B01AC01A5
:10095000C501B4010E9425229B01AC01C701B6016B
:100960000E948A2287FD02C081E001C080E0DF9101
:10097000CF91FF90EF90DF90CF90BF90AF909F907E
:100980008F9008950F931F930E94831890933203C2
:100990008093310320912801309129018217930718
:1009A000A1F0892B91F40E94DE16609325037093C9
:1009B000260380932703909328038091310390911D
:1009C000320390932901809328010E94DE16009142
:1009D0002503109126032091270330912803601BE3
:1009E000710B820B930B009120011091210120913A
:1009F000220130912301061717072807390758F4F9
:100A00008091310390913203209128013091290186
:100A10008217930711F480E00FC09093290180930F
:100A200028010E94DE1660932503709326038093AD
:100A300027039093280381E01F910F9108958BE184
:100A40000E94A617BC01882777FD8095982F0E94E9
:100A500029239B01AC010E94262223E333E343E5D3
:100A600050E40E94DD2320E030E040E85AE30E9499
:100A7000DD2308950F931F93CF93DF93CDB7DEB798
:100A80002C970FB6F894DEBF0FBECDBF142F022FE8
:100A900021E0AB01BC01CE0107960E9414218B8599
:100AA0009C850597B0F023E030E040E050E0BE01C7
:100AB000695F7F4FCE0101960E944421BE016F5FA6
:100AC0007F4FCE0107960E94C420CE0101960E945E
:100AD0000A20402F612F88E393E00E94A10F8B85AD
:100AE0009C85049731F060E571E088E393E00E9413
:100AF0002F1ABE01695F7F4F88E393E00E94211A9D
:100B0000CE0107960E940A202C960FB6F894DEBFFD
:100B10000FBECDBFDF91CF911F910F9108950F931D
:100B20001F93CF93DF9300D000D000D0CDB7DEB7B6
:100B3000162F042F4AE0BC01CE0101960E94E82046
:100B4000402F612F88E393E00E94A10F8D819E8149
:100B5000029731F060E671E088E393E00E942F1A7B
:100B6000BE016F5F7F4F88E393E00E94211ACE01A0
:100B700001960E940A2026960FB6F894DEBF0FBE9B
:100B8000CDBFDF91CF911F910F91089540E067E0B5
:100B900088E393E00E94A10F68E471E088E393E0AA
:100BA0000E942F1A41E067E088E393E00E94A10FC2
:100BB00068E471E088E393E00C942F1ACF92EF92EF
:100BC0000F9325E0C22E36E0E32E0AE02BE04CE046
:100BD0006DE088E393E00E94591068E483E393E0BA
:100BE0000E94B9100E94DE1660932D0370932E03AD
:100BF00080932F03909330030E94DE1660932903A5
:100C000070932A0380932B0390932C0381ED90E043
:100C10009093120380931103109213031092140304
:100C200010921503109216031092170310921003DE
:100C300010920F03909309038093080310920A0304
:100C400010920B0310920C0310920D0310920E03DE
:100C500081E090E090930703809306030F91EF905B
:100C6000CF9008950F931F930E94DE1600912D03DD
:100C700010912E0320912F0330913003601B710BD4
:100C8000820B930B009124011091250120912601E4
:100C900030912701061717072807390708F06BC09E
:100CA0008FE093E00E94030420E030E0A9010E945D
:100CB000D92318166CF48FE093E00E94030420E01F
:100CC00030E040E050E00E943A0562E571E008C083
:100CD00040E060E088E393E00E94A10F6CE471E0E3
:100CE00088E393E00E942F1A86E093E00E940304B9
:100CF00020E030E0A9010E94D92318166CF486E0A8
:100D000093E00E94030421E030E040E050E00E94C4
:100D10003A0562E571E008C041E060E088E393E0F5
:100D20000E94A10F6CE471E088E393E00E942F1A07
:100D300040E066E088E393E00E94A10F60E088E372
:100D400093E00E94B31041E066E088E393E00E94E4
:100D5000A10F60E088E393E00E94B3100E94DE16CA
:100D600060932D0370932E0380932F039093300391
:100D700081E0809322031F910F910895AF92BF925B
:100D8000CF92DF92EF92FF920F931F93CF93DF9357
:100D900081E090E0909324038093230340E067E098
:100DA00088E393E00E94A10F64E571E088E393E09B
:100DB0000E942F1A85E190E090931B0380931A0301
:100DC000C3E6D0E01AE085E190E00E94C204811100
:100DD00036C00E94320680911A0390911B0384361C
:100DE00091052CF0D0931B03C0931A030AC0809185
:100DF0001A0390911B0397FF04C010921B031092DB
:100E00001A0320911A0330911B03129FC001139FF4
:100E1000900D1124909309038093080380911A0385
:100E200090911B0341E050E067E070E00E948F0565
:100E30006EE571E088E393E00E942F1AC4CF109210
:100E40001B0310921A03CAE0D0E006EF1FEF85E102
:100E500090E00E94C20481116BC00E943206E091B2
:100E60001A03F0911B032091080330910903C90173
:100E7000BE010E944424E60FF71FE436F1055CF042
:100E8000C901B8010E9444246C597F4F70931B0321
:100E900060931A030AC080911A0390911B0397FF75
:100EA00004C010921B0310921A03A0901A03B09072
:100EB0001B03B901882777FD8095982F0E9429236D
:100EC00020E030E040E251E40E948E226B017C0180
:100ED000B501882777FD8095982F0E9429239B01D3
:100EE000AC0160E070E088EC92E40E9425229B0156
:100EF000AC01C701B6010E948E2220E030E04AE733
:100F000054E40E94DD230E94F62270931203609342
:100F1000110380911A0390911B03909321038093F6
:100F2000200341E050E06AE070E00E948F058FCF1F
:100F3000DF91CF911F910F91FF90EF90DF90CF90B5
:100F4000BF90AF900C94C605CF93DF938FE093E0F2
:100F50000E9492038823E9F18FE093E00E94F4035A
:100F60008111CFC036C00E94320680911A03909141
:100F70001B03893E93400CF4DBC0D0931B03C0934A
:100F80001A0360911A0370911B037093120360930C
:100F90001103882777FD8095982F0E94292320E050
:100FA00030E040E251E40E948E2221E030E047E050
:100FB00050E00E943A0562E671E088E393E00E9407
:100FC0002F1A85E190E00E94C204882361F20E94FA
:100FD000C60586E093E00E9492038823E9F186E04B
:100FE00093E00E94F4038111AEC036C00E94320625
:100FF00080911A0390911B03893E93400CF4BAC070
:10100000D0931B03C0931A0360911A0370911B03C2
:101010007093090360930803882777FD8095982FC4
:101020000E94292320E030E040E251E40E948E2219
:1010300021E030E047E050E00E943A0562E671E0CE
:1010400088E393E00E942F1A85E190E00E94C20499
:10105000882361F20E94C60540E067E088E393E0E0
:101060000E94A10F67E671E088E393E00E942F1AC7
:1010700080911E0190911F0190931B0380931A038E
:10108000C8EED3E085E190E00E94C20481117DC0EA
:101090000E94320680911A0390911B03893E93406F
:1010A0002CF0D0931B03C0931A030AC080911A033B
:1010B00090911B0397FF04C010921B0310921A0318
:1010C00060911A0370911B0370931F0160931E01BE
:1010D000882777FD8095982F0E94292320E030E013
:1010E00040E251E40E948E2221E030E047E050E0EF
:1010F0000E943A0561E771E088E393E00E942F1AAD
:10110000C1CF40E067E088E393E00E94A10F67E76A
:1011100071E088E393E00E942F1A8091110390916F
:10112000120390931B0380931A03C8EED3E049CFB8
:1011300080911A0390911B0397FF23CF10921B03FA
:1011400010921A031ECF40E067E088E393E00E940C
:10115000A10F61E871E088E393E00E942F1A80916B
:1011600008039091090390931B0380931A03C8EE20
:10117000D3E06ACF80911A0390911B0397FF44CF6D
:1011800010921B0310921A033FCF82E090E09093DD
:1011900024038093230340E067E088E393E00E9408
:1011A000A10F68E471E088E393E00E942F1A41E008
:1011B00067E088E393E00E94A10F68E471E088E3B0
:1011C00093E00E942F1A60E070E0CB01DF91CF9195
:1011D00008958F929F92AF92BF92CF92DF92EF923B
:1011E000FF9280912203882309F43DC1809123035B
:1011F00090912403892B09F03EC08FE093E00E9478
:1012000092038823A1F08FE093E00E94F4038823E7
:1012100071F080910F03909110030E94300320E041
:1012200030E0A9010E948A2218160CF427C140E080
:1012300067E088E393E00E94A10F68E471E088E32F
:1012400093E00E942F1A86E093E00E949203882385
:1012500031F086E093E00E94F403811129C141E05E
:1012600067E088E393E00E94A10F68E471E088E3FF
:1012700093E00E942F1A80912303909124030197F9
:1012800009F0A8C040E067E088E393E00E94A10F66
:101290008FE093E00E949203882309F431C18FE02C
:1012A00093E00E94F403882309F42AC162E088E3F2
:1012B00093E00E94B31080911103909112036AE0B1
:1012C00070E00E944424CB0140E050E068E070E010
:1012D0000E948F0540E06CE088E393E00E94A10F3C
:1012E00064E472E088E393E00E942F1A41E067E033
:1012F00088E393E00E94A10F86E093E00E949203AE
:10130000882309F404C186E093E00E94F403882353
:1013100009F4FDC062E088E393E00E94B31080917D
:101320000803909109036AE070E00E944424CB0115
:1013300041E050E068E070E00E948F0586E093E0B5
:101340000E94030420E030E040E05FE30E94262298
:101350000E94F622DC01CB0141E050E06BE070E03E
:101360000E948F056BE871E088E393E00E942F1ADA
:101370008FE093E00E9403046B017C0186E093E020
:101380000E9403044B015C018FE093E00E94030480
:101390009B01AC01C501B4010E948E229B01AC01EE
:1013A000C701B6010E94252220E030E048EC52E45B
:1013B0000E94DD2320E030E040E05FE30E9426222F
:1013C0000E94F622DC01CB0141E050E06EE070E0CB
:1013D0000E948F058091230390912403029709F0C6
:1013E00042C040E067E088E393E00E94A10F62E022
:1013F00088E393E00E94B31041E067E088E393E064
:101400000E94A10F62E088E393E00E94B3108FE096
:1014100093E00E949203882331F08FE093E00E94D2
:10142000F40381117BC086E093E00E94920388233D
:1014300031F086E093E00E94F403811186C08FE0D2
:1014400093E00E943804882331F086E093E00E9404
:101450003804811191C061E087E10E944D1861E07C
:1014600086E10E944D1810922203FF90EF90DF90CA
:10147000CF90BF90AF909F908F90089540E067E02D
:1014800088E393E00E94A10F62E088E393E00E946A
:10149000B31080910F03909110030E94300320E05D
:1014A00030E048E050E00E943A056DE871E0C7CEB8
:1014B00080910603909107030E94300320E030E002
:1014C000A9010E948A2218160CF0C9CE41E067E0FB
:1014D00088E393E00E94A10F62E088E393E00E941A
:1014E000B31080910603909107030E94300321E01E
:1014F00030E048E050E00E943A056DE871E0B7CE78
:101500006EE471E088E393E00E942F1AE3CE6EE46C
:1015100071E088E393E00E942F1A10CF60911103CD
:1015200070911203882777FD8095982F0E942923B8
:1015300020E030E040E251E40E948E2220E030E0E2
:1015400048E050E00E943A056ECF60910803709128
:101550000903882777FD8095982F0E94292320E092
:1015600030E040E251E40E948E2221E030E048E089
:1015700050E00E943A0563CF60E087E10E944D1879
:1015800060E06ECFCF92DF92EF92FF92CF93DF9326
:1015900088E393E00E949A0F40E064E088E393E0E0
:1015A0000E94A10F61E971E088E393E00E942F1A85
:1015B00041E060E088E393E00E94A10F6AE971E0F6
:1015C00088E393E00E942F1A66ED76E080E090E0D9
:1015D0000E940D1788E393E00E949A0F85E10E9414
:1015E0008318892BD9F36AEF70E080E090E00E94C5
:1015F0000D176BEA71E088E393E00E942F1A81EDEA
:1016000090E090931B0380931A03C8EED3E085E12A
:1016100090E00E94C204811135C080911A0390911C
:101620001B03893E93402CF0D0931B03C0931A03F5
:101630000AC080911A0390911B0397FF04C0109277
:101640001B0310921A0360911A0370911B038827E1
:1016500077FD8095982F0E94292320E030E040E21A
:1016600051E40E948E226B017C0121E030E040E0D9
:1016700050E00E943A056CEB71E088E393E00E9431
:101680002F1AC5CF88E393E00E949A0F40E067E0ED
:1016900088E393E00E94A10F60E088E393E00E945A
:1016A000B31065EC71E088E393E00E942F1A41E0EB
:1016B00067E088E393E00E94A10F60E088E393E095
:1016C0000E94B3106EEC71E088E393E00E942F1A41
:1016D00080910F03909110030E94300320E030E0CE
:1016E000A9010E948A2218166CF040E060E088E3AD
:1016F00093E00E94A10F6DE471E088E393E00E9403
:101700002F1A0CC080910F03909110030E94300398
:1017100020E030E040E050E00E943A056EE871E0E1
:1017200088E393E00E942F1A8091060390910703AB
:101730000E94300320E030E0A9010E948A2218169E
:101740006CF041E060E088E393E00E94A10F6DE45B
:1017500071E088E393E00E942F1A0CC08091060389
:10176000909107030E94300321E030E040E050E018
:101770000E943A056EE871E088E393E00E942F1A18
:1017800085E190E00E94C204882309F4A1CF8FE094
:1017900093E00E949203882309F47CC080910F0398
:1017A000909110030E9430039B01AC01C701B60168
:1017B0000E948E2222E538EB4EEC5FE30E94D92393
:1017C00018160CF067C080910F03909110030E94CF
:1017D00030039B01AC01C701B6010E948E2220E0BC
:1017E00030E048E250E40E948A2287FF53C0809193
:1017F0000F03909110030E9430039B01AC01C701BD
:10180000B6010E948E22AB01BC0180910F03909122
:1018100010030E94550386E093E00E949203882300
:1018200009F461C080910603909107030E94300380
:101830009B01AC01C701B6010E948E2222E538EB64
:101840004EEC5FE30E94D92318160CF04CC0809137
:101850000603909107030E9430039B01AC01C7016E
:10186000B6010E948E2220E030E048E250E40E945F
:101870008A2287FF38C080910603909107030E9457
:1018800030039B01AC01C701B6010E948E22AB015F
:10189000BC0132C08FE093E00E949203811104C02A
:1018A00040E050E0BA01B1CF88E393E00E949A0F84
:1018B00066ED71E088E393E00E942F1A41E060E05A
:1018C00088E393E00E94A10F66EE71E088E393E065
:1018D0000E942F1A68EB7BE080E090E00E940D17D9
:1018E0000E94C20A98CF86E093E00E949203811181
:1018F0002FC040E050E0BA018091060390910703A9
:101900000E94550388E393E00E949A0F6AED71E00C
:1019100088E393E00E942F1A41E060E088E393E0BF
:101920000E94A10F6BEE71E088E393E00E942F1AF2
:101930006CED75E080E090E00E940D1788E393E085
:10194000DF91CF91FF90EF90DF90CF900C949A0FA2
:1019500088E393E00E949A0F66ED71E088E393E0DC
:101960000E942F1A41E060E088E393E00E94A10FFB
:1019700066EE71E088E393E00E942F1A68EB7BE04B
:1019800080E090E00E940D170E94C20ABBCF48EB96
:101990005BE060E070E080E593E00E94D91120E018
:1019A00032EC41E050E061E674E080E593E00E94B3
:1019B000901161E080E593E00E946611882391F028
:1019C00061EF71E080919203909193030E942F1A2E
:1019D0006AE070E080E090E00E940D1780E593E0FF
:1019E0000E948F1141E060E080E593E00E94611267
:1019F00062E085E10E94141862E080E00E94141801
:101A000062E081E00E94141861E087E10E941418EE
:101A100061E086E10E94141841E050E06AE971E05B
:101A200082E00E94811541E050E065E672E083E0CB
:101A30000E94811520E042E060E188E393E00E948B
:101A4000BB0F46E151E060E088E393E00E9479102B
:101A50004EE051E061E088E393E00E94791046E0B7
:101A600051E062E088E393E00E94791083E393E021
:101A70000E94C11060E07AE083E393E00E94C51009
:101A800040E063E088E393E00E94A10F63E072E02E
:101A900088E393E00E942F1A41E060E088E393E03E
:101AA0000E94A10F0E941F05AB01BC0122E030E0A3
:101AB00088E393E00E94D01B6EE072E088E393E03D
:101AC0000E942F1A41E06BE088E393E00E94A10F8F
:101AD00060E172E088E393E00E942F1A60ED77E006
:101AE00080E090E00E940D1788E393E00E949A0F37
:101AF00085E10E948318892BD1F18FE093E00E9449
:101B00009203811107C086E093E00E94920388232C
:101B100071F007C08FE093E00E94F4038111F3CFCE
:101B20000AC086E093E00E94F403882321F088E352
:101B300093E00C949A0F88E393E00E949A0F66E179
:101B400072E088E393E00E942F1A41E060E088E3AE
:101B500093E00E94A10F6DE172E088E393E00E94A0
:101B60002F1A60ED77E080E090E00E940D170E9450
:101B7000C20ADDCF0F931F93CF93DF930E94DE162F
:101B80006093290370932A0380932B0390932C0373
:101B900010921B0310921A03C0911A03D0911B03D9
:101BA0000E94C60540E068E088E393E00E94A10F30
:101BB00069E272E088E393E00E942F1A41E06AE054
:101BC00088E393E00E94A10F61E372E088E393E071
:101BD0000E942F1A0E94DE160091290310912A03F9
:101BE00020912B0330912C03601B710B820B930B04
:101BF000663D76408105910538F480911A039091F5
:101C00001B03892B09F4F2C00E94C60510921B0326
:101C100010921A0304E010E00E94320680911A0329
:101C200090911B03059724F010921B0310921A0346
:101C300080911A0390911B0397FF04C010931B031C
:101C400000931A0380911A0390911B038C179D0730
:101C500031F00E94C605C0911A03D0911B038091F8
:101C60001A0390911B038230910509F44EC02CF4A5
:101C7000009759F0019711F1CFCF8330910509F406
:101C80006BC0049709F499C0C7CF40E067E088E3D0
:101C900093E00E94A10F66E372E088E393E00E9464
:101CA0002F1A85E190E00E94C204882309F4B4CF82
:101CB000DF91CF911F910F910C94C20A40E067E031
:101CC00088E393E00E94A10F60E472E088E393E070
:101CD0000E942F1A41E067E088E393E00E94A10F81
:101CE0006AE771E088E393E00E942F1A85E190E0B3
:101CF0000E94C204882309F48FCF0E94C605DF9199
:101D0000CF911F910F910C94BE0640E067E088E3ED
:101D100093E00E94A10F68E472E088E393E00E94E0
:101D20002F1A41E067E088E393E00E94A10F62E58B
:101D300072E088E393E00E942F1A85E190E00E9410
:101D4000C204882309F468CF0E94C605DF91CF91B1
:101D50001F910F910C94A40740E067E088E393E0A3
:101D60000E94A10F6AE572E088E393E00E942F1AB7
:101D700041E067E088E393E00E94A10F62E572E032
:101D800088E393E00E942F1A85E190E00E94C2044C
:101D9000882309F441CF0E94C605109224031092B3
:101DA000230360E087E10E944D1860E086E1DF9147
:101DB000CF911F910F910C944D1840E067E088E39C
:101DC00093E00E94A10F62E672E088E393E00E9434
:101DD0002F1A85E190E00E94C204882309F41CCFE9
:101DE000DF91CF911F910F910C94C6050E9432068E
:101DF000F1CE0E9432060E94E90885E190E00E943F
:101E0000C20481110C94BA0D0895CF93DF93EC01B5
:101E100060E08E810E944D1881E090E00E9447179B
:101E200061E08E810E944D1881E090E00E9447178A
:101E300060E08E810E944D1884E690E0DF91CF91A2
:101E40000C944717EF92FF920F931F93CF93DF935A
:101E50008C01C0E0D0E0E62EF12CB7010C2E02C0C0
:101E6000759567950A94E2F76170F801EC0FFD1F14
:101E700087810E944D182196C430D10571F7C801A1
:101E8000DF91CF911F910F91FF90EF900C94050F70
:101E9000EF92FF920F931F93CF93DF938C01C0E0DB
:101EA000D0E0E62EF12CB7010C2E02C07595679597
:101EB0000A94E2F76170F801EC0FFD1F87810E9420
:101EC0004D182196C830D10571F7C801DF91CF9127
:101ED0001F910F91FF90EF900C94050F1F93CF93DC
:101EE000DF93EC01162F642F8C810E944D188D8199
:101EF0008F3F19F060E00E944D188F85612F84FF9D
:101F000006C0CE01DF91CF911F910C94480F70E075
:101F100084E0759567958A95E1F7CE010E94220FBE
:101F2000612FCE01DF91CF911F910C94220F40E0E1
:101F30000C946E0F61E00E94970F80ED97E00C9477
:101F40004717443008F043E0FC012389421710F0A2
:101F50004FEF420FFC01E40FF11D2489260F20688A
:101F6000622F0C94970FFC016089262F2460208B30
:101F70006C600C94970F0F931F93CF93DF93EC013A
:101F8000423018F08F8588608F874B8B1C8A80E4E5
:101F90008D8B6E8B70E0605C7F4F6F8B222329F0FE
:101FA000413019F48F8584608F8761E08C810E94B5
:101FB00014188D818F3F19F061E00E94141861E0C0
:101FC0008E810E94141800E010E08F8584FF03C00A
:101FD00088E090E002C084E090E00817190754F40C
:101FE000FE01E00FF11F61E087810E9414180F5F6E
:101FF0001F4FEBCF80E593EC0E94471760E08C8188
:102000000E944D1860E08E810E944D188D818F3F97
:1020100019F060E00E944D186F8564FD1DC063E0FB
:10202000CE010E94220F84E991E10E94471763E0EC
:10203000CE010E94220F84E991E10E94471763E0DC
:10204000CE010E94220F86E990E00E94471762E0CD
:10205000CE010E94220F16C06062CE010E94970F2F
:1020600084E991E10E9447176F856062CE010E946A
:10207000970F86E990E00E9447176F856062CE0156
:102080000E94970F6F856062CE010E94970F84E0D7
:10209000888BCE010E94B30FCE010E949A0F82E07E
:1020A000898B66E0CE01DF91CF911F910F910C9447
:1020B000970FCF92EF920F93FC01138212828BE65F
:1020C00092E09183808364838FEF858346832783A7
:1020D0000087E186C28613861486158616861786C3
:1020E00020E041E060E1CF010F91EF90CF900C94A0
:1020F000BB0FCF92DF92EF92FF920F931F93CF937C
:10210000DF9300D0CDB7DEB78C01677088E0689FA1
:10211000B00111246064C80149835A830E94970F5B
:102120004981C42E5A81D52EE12CF12CD6016D9116
:102130006D01D801ED91FC910190F081E02DC80175
:102140000995BFEFEB1AFB0AE8E0EE16F10471F710
:102150000F900F90DF91CF911F910F91FF90EF9013
:10216000DF90CF90089541E00E946E0F81E090E0F3
:102170000895FC0114821382608388E081831282B7
:10218000089588E993E00C943713FC01748363830A
:1021900008951F93CF93DF9300D0CDB7DEB7162FEE
:1021A000682F88E993E04A8359830E945113612F75
:1021B00088E993E00E94F8125981652F88E993E03D
:1021C0000E94F8124A81642F88E993E00E94F81275
:1021D00088E993E00F900F90DF91CF911F910C94BD
:1021E0006E131F93CF93DF93182F682F88E993E026
:1021F0000E94511360E088E993E00E94F81288E998
:1022000093E00E946E1342E0612F88E993E00E9400
:102210004E1388E993E00E94A812182F88E993E0F2
:102220000E94A812D12F20E0C22F9E01282BC901A5
:10223000DF91CF911F910895CF93DF93EC014B81F4
:102240005C814368516861E088810E94C91069819E
:1022500070E080E090E00E940D1788810E94F110EC
:102260002A81022E02C0969587950A94E2F72223CE
:1022700029F0811528E0920708F0906FDF91CF9147
:102280000895CF93DF93EC014B815C814368516BE0
:1022900061E088810E94C910698170E080E090E06F
:1022A0000E940D1788810E94F1102A81022E02C01F
:1022B000969587950A94E2F7222329F0811528E064
:1022C000920708F0906FDF91CF9108950F931F93BD
:1022D000CF93DF93EC01611116C00E94DE160A81D4
:1022E0001B812C813D81601B710B820B930B613232
:1022F00071058105910538F463E070E080E090E0BD
:102300000E940D17EACF0E94DE166A837B838C83BE
:102310009D8381E0DF91CF911F910F9108950895E2
:10232000CF92DF92EF92FF920F931F93CF93DF93A1
:1023300000D000D0CDB7DEB77B018C010E5B1F4F04
:10234000F801718360838BE1C82ED12CC7012983EA
:102350003A834B835C830E94A31929813A814B8184
:102360005C81811113C0F1E0CF1AD10879F064E6E5
:1023700070E080E090E029833A834B835C830E9485
:102380000D175C814B813A812981E0CFBA01A90107
:10239000F801808191810F900F900F900F90DF9145
:1023A000CF911F910F91FF90EF90DF90CF900C9401
:1023B0009D19FC01EC5BFF4F108211821282138287
:1023C000FC011282138214821582411551056105A8
:1023D000710521F0CB01BA010C940D1708958E5BA5
:1023E0009F4FDC018D919C91DC01ED91FC91068069
:1023F000F781E02D099508958E5B9F4FDC018D914B
:102400009C91DC01ED91FC910480F581E02D099512
:1024100008951F93CF93DF93EC01162F0E94DE16D1
:102420006A837B838C839D83CE5BDF4F61E872E0A0
:10243000888199810E942F1A4AE050E0612F88819B
:1024400099810E94DE1A68E872E0888199810E9471
:102450002F1A62E370E080E090E0DF91CF911F914E
:102460000C940D171F93CF93DF93EC01162F8E89D9
:10247000882311F1CE010E94FC11811102C085E672
:102480001CC0CE010E94FC118823C9F3CE010E941A
:10249000EF11883689F048F4883569F0833689F77A
:1024A000612FCE010E94091207C0813729F08637BB
:1024B00041F786E702C01E8A83E6DF91CF911F9124
:1024C00008950F931F93CF93DF931F92CDB7DEB77D
:1024D0008C01611108C0F801468B0F90DF91CF91FC
:1024E0001F910F91089581E0F801868B60E0C8018B
:1024F00049830E94321249818336C1F7ECCF109292
:1025000056031092570310925803109259031092D9
:102510005A0310925B0310925C0310925D031092B9
:102520005E0310925F031092600310926103109299
:10253000620310926303109264031092650308957E
:102540008091C80390E02091C903821B91090895EE
:102550002091C9038091C803281750F4E22FF0E0BE
:10256000E653FC4F808190E02F5F2093C9030895CC
:102570008FEF9FEF0895E091C9038091C803E8179A
:1025800030F4F0E0E653FC4F808190E008958FEF47
:102590009FEF08950895CF92DF92EF92FF920F93ED
:1025A0001F93CF93DF937C01CB018A012091A40379
:1025B000222389F0EB016B01C40ED51ECC15DD057D
:1025C00069F06991D701ED91FC910190F081E02DC6
:1025D000C7010995F3CF642F0E942A14C801DF9127
:1025E000CF911F910F91FF90EF90DF90CF900895C2
:1025F000CF93DF931F92CDB7DEB769832091A403F9
:102600002223D1F02091A503203240F021E030E0D8
:10261000FC013383228380E090E015C08091A60303
:10262000E82FF0E0E955FC4F998190838F5F80930C
:10263000A6038093A50305C061E0CE0101960E9428
:102640002A1481E090E00F90DF91CF910895FC0172
:102650001382128248EE53E060E070E044835583B9
:10266000668377838DED92E0918380830895109245
:10267000C9031092C8031092A6031092A5030C94EC
:102680007513862F413208F040E26AEC73E00E9435
:1026900093131092C9038093C803089521E00C940A
:1026A000411381E08093A4036093C7031092A603B3
:1026B0001092A50308950F93062F21E04091A503E2
:1026C00067EA73E08091C7030E94D7131092A603B4
:1026D0001092A5031092A4030F91089561E00C9449
:1026E0005B1388E993E00C9427131092570481E060
:1026F000809355041092540461E082E00E944D18CA
:1027000061E083E00E944D18E9EBF0E080818E7F6C
:10271000808380818D7F808380E28093B80085E410
:102720008093BC000895413208F03FC09091570457
:102730009111FCCF91E090935704209355042FEF13
:102740002093EA0310922F04240F20932E049093D9
:10275000560490915604880F892B809356048091DB
:102760005404813041F410925404809156048093B3
:10277000BB0085EC01C085EE8093BC0080915704BE
:102780008130E1F380912F04841710F440912F04DD
:1027900020E334E0FB01D9018A2F821B841718F44F
:1027A0008D918193F9CF842F089580E008950F9340
:1027B000413208F046C0909157049111FCCF92E04D
:1027C00090935704009355049FEF9093EA0310925F
:1027D0002F0440932E04FB0160E374E0DB019A2F89
:1027E000961B941718F491919D93F9CF109256046B
:1027F00090915604880F892B80935604809154043D
:10280000813041F410925404809156048093BB00AF
:1028100085EC01C085EE8093BC00222321F08091DD
:1028200057048230E1F38091EA038F3F61F0809199
:10283000EA03803251F08091EA03803341F483E06F
:1028400007C081E005C080E003C082E001C084E0F1
:102850000F910895613298F420915704243089F43F
:1028600060930C04FC018EE094E0DC012A2F281B0D
:10287000261718F421912D93F9CF80E0089581E077
:10288000089582E0089585ED8093BC008091BC009E
:1028900084FDFCCF10925704089585EC8093BC0012
:1028A0001092570408951F920F920FB60F921124A1
:1028B0002F933F934F935F936F937F938F939F9348
:1028C000AF93BF93EF93FF938091B900887F8036D9
:1028D00009F49CC068F5883209F45BC090F480313B
:1028E00009F454C038F4882309F4F5C0883009F499
:1028F0004DC0F5C0883109F44CC0803209F45DC088
:10290000EEC0803409F468C048F4803309F455C03F
:10291000883309F0E4C08093EA03A8C0803509F445
:102920004FC0883509F45DC0883409F0D8C0D5C0DF
:10293000883909F4C6C0A8F4883709F467C038F4A8
:10294000883609F463C0803709F460C0C8C088388D
:1029500009F4B7C0803909F45FC0803809F0BFC0FE
:102960005BC0803B09F485C038F4803A09F466C046
:10297000883A09F47EC0B3C0803C09F4A6C0883C04
:1029800009F4A3C0883B09F489C0A9C0809156040A
:1029900010C090912F0480912E04981770F5E0914B
:1029A0002F0481E08E0F80932F04F0E0E05DFB4F59
:1029B00080818093BB0085EC85C08093EA038DC045
:1029C000E0912F0481E08E0F80932F048091BB0053
:1029D000F0E0E05DFB4F808390912F0480912E0406
:1029E0006DC0E0912F0481E08E0F80932F048091C1
:1029F000BB00F0E0E05DFB4F8083809155048111C6
:102A00006CC081E08093540484EA60C083E08093CA
:102A100057041092EB03CFCF8091EB03803208F084
:102A200050C0E091EB0381E08E0F8093EB03809127
:102A3000BB00F0E0E451FC4F8083BDCF8091EB03FD
:102A4000803230F4E091EB03F0E0E451FC4F10826F
:102A50000E9443146091EB0370E0E0915004F09108
:102A600051048CEE93E009951092EB030E944D14F3
:102A700036C084E08093570410920D0410920C0429
:102A8000E0915204F0915304099580910C04811156
:102A900005C081E080930C0410920E04E0910D04B7
:102AA00081E08E0F80930D04F0E0E25FFB4F8081A8
:102AB0008093BB0090910D0480910C04981708F44A
:102AC0007ACF85E88093BC000AC085EC8093BC0077
:102AD0001092570404C01092EA030E944314FF911D
:102AE000EF91BF91AF919F918F917F916F915F9186
:102AF0004F913F912F910F900FBE0F901F901895FF
:102B00000895853008F04CC0E82FF0E0EE0FFF1F6D
:102B1000E65DFE4F718360838230E1F018F481300E
:102B200069F004C0833019F1843071F1809169003B
:102B30008C7F842B80936900E89A089580916900C6
:102B4000440F551F440F551F837F842B80936900CA
:102B5000E99A08958091690034E0440F551F3A9531
:102B6000E1F78F7C842B80936900EA9A0895809125
:102B7000690026E0440F551F2A95E1F78F73842BD7
:102B800080936900EB9A089580916A0094E0440F65
:102B9000551F9A95E1F78F7C842B80936A00EE9AFB
:102BA00008951F920F920FB60F9211242F933F9307
:102BB0004F935F936F937F938F939F93AF93BF9345
:102BC000EF93FF93E0912A01F0912B010995FF917A
:102BD000EF91BF91AF919F918F917F916F915F9195
:102BE0004F913F912F910F900FBE0F901F9018950E
:102BF0001F920F920FB60F9211242F933F934F9372
:102C00005F936F937F938F939F93AF93BF93EF9354
:102C1000FF93E0912C01F0912D010995FF91EF9127
:102C2000BF91AF919F918F917F916F915F914F91E4
:102C30003F912F910F900FBE0F901F9018951F92EC
:102C40000F920FB60F9211242F933F934F935F93E0
:102C50006F937F938F939F93AF93BF93EF93FF9364
:102C6000E0912E01F0912F010995FF91EF91BF9115
:102C7000AF919F918F917F916F915F914F913F9114
:102C80002F910F900FBE0F901F9018951F920F92CB
:102C90000FB60F9211242F933F934F935F936F932F
:102CA0007F938F939F93AF93BF93EF93FF93E091A5
:102CB0003001F09131010995FF91EF91BF91AF91F2
:102CC0009F918F917F916F915F914F913F912F9144
:102CD0000F900FBE0F901F9018951F920F920FB676
:102CE0000F9211242F933F934F935F936F937F9392
:102CF0008F939F93AF93BF93EF93FF93E091320134
:102D0000F09133010995FF91EF91BF91AF919F91A0
:102D10008F917F916F915F914F913F912F910F9084
:102D20000FBE0F901F9018951F920F920FB60F9223
:102D300011242F933F938F939F93AF93BF938091D1
:102D4000590490915A04A0915B04B0915C043091B5
:102D5000580426E0230F2D3720F40296A11DB11D43
:102D600005C029E8230F0396A11DB11D2093580427
:102D70008093590490935A04A0935B04B0935C042D
:102D800080915D0490915E04A0915F04B091600415
:102D90000196A11DB11D80935D0490935E04A093E4
:102DA0005F04B0936004BF91AF919F918F913F9169
:102DB0002F910F900FBE0F901F9018952FB7F8947A
:102DC0006091590470915A0480915B0490915C0465
:102DD0002FBF08953FB7F89480915D0490915E04F1
:102DE000A0915F04B091600426B5A89B05C02F3F59
:102DF00019F00196A11DB11D3FBF6627782F892FBD
:102E00009A2F620F711D811D911D43E0660F771F80
:102E1000881F991F4A95D1F708958F929F92AF927C
:102E2000BF92CF92DF92EF92FF926B017C010E94E2
:102E3000EA164B015C01C114D104E104F104F1F084
:102E40000E9489210E94EA16681979098A099B095A
:102E5000683E73408105910570F321E0C21AD108E4
:102E6000E108F10888EE880E83E0981EA11CB11CD1
:102E7000C114D104E104F10429F7DDCFFF90EF90F4
:102E8000DF90CF90BF90AF909F908F900895833048
:102E9000910528F0880F991F04970197F1F708957D
:102EA000789484B5826084BD84B5816084BD85B525
:102EB000826085BD85B5816085BDEEE6F0E08081EC
:102EC00081608083E1E8F0E010828081826080830D
:102ED000808181608083E0E8F0E080818160808390
:102EE000E1E9F0E08081826080838081816080837D
:102EF000E0E9F0E0808181608083E1ECF0E08081B6
:102F0000846080838081826080838081816080830F
:102F1000E3ECF0E0808181608083E0ECF0E0808190
:102F200082608083E2ECF0E0808181608083EAE768
:102F3000F0E08081846080838081826080838081F2
:102F40008E7F80838081806880830895823108F03D
:102F50008251E82FF0E0E653FF4FE49180917B002F
:102F6000E3FB222720F930E095E0220F331F9A95EA
:102F7000E1F78F7D822B80937B00E7708091340195
:102F800020E4829FC0011124E82BE0937C00809113
:102F90007A00806480937A0080917A0086FDFCCF6D
:102FA000809178002091790090E0922B089590E034
:102FB000FC013197EF30F105B0F5EA5AFF4F0C9460
:102FC0007A24809180008F7703C0809180008F7D6C
:102FD00080938000089580918000877FF9CF84B529
:102FE0008F7702C084B58F7D84BD08958091900055
:102FF0008F7707C0809190008F7D03C080919000F3
:10300000877F8093900008958091C0008F7703C0E0
:103010008091C0008F7D8093C00008958091C20090
:10302000877F8093C2000895CF93DF9390E0FC01E7
:10303000EB50FF4F2491FC01EC5EFE4F84918823FE
:1030400049F190E0880F991FFC01E15BFE4FA591CB
:10305000B4918F5B9E4FFC01C591D4919FB76111D4
:1030600008C0F8948C91209582238C9388818223C8
:103070000AC0623051F4F8948C91322F309583233A
:103080008C938881822B888304C0F8948C91822B46
:103090008C939FBFDF91CF9108950F931F93CF9390
:1030A000DF931F92CDB7DEB7282F30E0F901EA5247
:1030B000FF4F8491F901EB50FF4F1491F901EC5E41
:1030C000FE4F04910023C9F0882321F069830E94F8
:1030D000D7176981E02FF0E0EE0FFF1FEF5BFE4F87
:1030E000A591B4919FB7F8948C91611103C010958C
:1030F000812301C0812B8C939FBF0F90DF91CF91D3
:103100001F910F910895CF93DF93282F30E0F9019D
:10311000EA52FF4F8491F901EB50FF4FD491F9012E
:10312000EC5EFE4FC491CC2391F081110E94D71721
:10313000EC2FF0E0EE0FFF1FED5CFE4FA591B49178
:103140002C912D2381E090E021F480E002C080E00A
:1031500090E0DF91CF910895CF93DF931F92CDB789
:10316000DEB76983DC01ED91FC910280F381E02DF3
:1031700041E050E0BE016F5F7F4F09950F90DF91F6
:10318000CF910895CF93DF93EC018C859D8597FFB8
:1031900005C082E00E94D51C9D878C878C859D850B
:1031A000DF91CF91089583E00C946B1FFC0184851F
:1031B000958597FD06C082E00E947E1C90E00196F6
:1031C000089582E00E947E1C90E00895FC018485B1
:1031D000958597FD05C02FEF3FEF3587248708952C
:1031E00082E00C94D51CCF93DF93EC0180914001D9
:1031F000882331F083E00E94061D1816190634F06A
:1032000081E090E09B838A8380E090E0DF91CF9122
:103210000895FC0120812E5F208342E450E06DE59B
:1032200071E080E80C94A01DFC0121818081813A2D
:1032300059F4213209F04BC047E050E069E371E0F6
:1032400080E00E94A01D5EC0813209F040C02332A0
:1032500089F4838190E0982F88273281832BA0E026
:10326000B0E08093350190933601A0933701B0937D
:1032700038010FC0203239F467E070E089E391E053
:103280000E94D11D09C0223221F482818093400125
:1032900003C02D7F2032B1F58091B104811103C0AC
:1032A000E0E0F8E002C0EEEFFAE0809139019091A1
:1032B0003A01A0913B01B0913C01803B9440A105B3
:1032C000B10511F58091400180FF03C01DC080E071
:1032D0000895EE3F2AE0F20731F0808191819093CA
:1032E000FF0A8093FE0A87E797E7918380832BE0AC
:1032F00088E190E00FB6F894A895809360000FBE27
:103300002093600081E0089588E10FB6F8948093DF
:103310006000109260000FBEA895EE3F8AE0F807AB
:1033200039F08091FE0A9091FF0A91838083EACF61
:103330001092FF0A1092FE0AE5CF2FEF3FEFFC013B
:10334000358724870895CF93C09140016AE070E0EB
:1033500080E090E00E940D1781E0C11101C080E083
:10336000CF910895109264041092630488EE93E064
:10337000A0E0B0E08093650490936604A093670496
:10338000B09368048DEE92E09093620480936104A0
:103390008FEF9FEF90936E0480936D0408950895CE
:1033A0000E9450170E94CF1982EB94E00E94EF1FF9
:1033B0000E94C70CC0E0D0E00E94F90E2097E1F314
:1033C0000E940000F9CFCF92DF92EF92FF920F930D
:1033D0001F93CF93DF937C016A01EB0100E010E0C3
:1033E0000C151D0571F06991D701ED91FC910190CB
:1033F000F081E02DC7010995892B19F00F5F1F4F50
:10340000EFCFC801DF91CF911F910F91FF90EF9007
:10341000DF90CF9008956115710581F0DB010D906B
:103420000020E9F7AD0141505109461B570BDC0163
:10343000ED91FC910280F381E02D099480E090E011
:103440000895DC01ED91FC91DB0114964D915C91A6
:1034500015976D917C910280F381E02D09940C9475
:103460000B1ADC01ED91FC910190F081E02D0994A3
:103470008F929F92AF92BF92DF92EF92FF920F9343
:103480001F93CF93DF93CDB7DEB7A1970FB6F89414
:10349000DEBF0FBECDBF7C01F42FD52ECB0119A20C
:1034A000223008F42AE08E010F5D1F4F822E912CEE
:1034B000A12CB12C6F2F7D2DA50194010E945824C1
:1034C000F22FD32ECA01015011096A3014F4E0E33F
:1034D00001C0E7E3E60FD801EC93232B242B252B27
:1034E00049F7B801C7010E940B1AA1960FB6F894CC
:1034F000DEBF0FBECDBFDF91CF911F910F91FF9027
:10350000EF90DF90BF90AF909F908F900895CF92F3
:10351000DF92EF92FF920F931F93CF93DF93EC0113
:103520006A017B012115310579F4E881F981019067
:10353000F081E02D642FDF91CF911F910F91FF90CB
:10354000EF90DF90CF9009942A303105E9F477FFAE
:103550001AC06DE20E94311A8C0144275527BA0126
:103560004C195D096E097F092AE0CE010E94381AC4
:10357000800F911FDF91CF911F910F91FF90EF90DE
:10358000DF90CF9008952AE0B701A601CE01DF9128
:10359000CF911F910F91FF90EF90DF90CF900C94FF
:1035A000381A2115310541F4DC01ED91FC910190AF
:1035B000F081E02D642F09940C94381A9A01462F5B
:1035C00050E060E070E00C94D11A4F925F926F92DD
:1035D0007F928F929F92AF92BF92CF92DF92EF92A3
:1035E000FF920F931F93CF93DF93EC016A017B014E
:1035F000B22E9A01AB01C701B6010E944024882374
:1036000019F069EF72E027C026013701E89477F8D6
:103610002FEF3FEF4FE75FE7C301B2010E94402465
:1036200081110DC02FEF3FEF4FE75FE7C301B201FC
:103630000E948A2218161CF46DEF72E00CC02FEF66
:103640003FEF4FE75FE4C701B6010E94D923181688
:10365000ACF461E073E0CE01DF91CF911F910F9147
:10366000FF90EF90DF90CF90BF90AF909F908F90A2
:103670007F906F905F904F900C940B1A2FEF3FEF5D
:103680004FE75FECC701B6010E948A2287FDE1CFB8
:1036900020E030E0A901C701B6010E948A2287FF1D
:1036A0000AC06DE2CE010E94311A8C01F7FAF09443
:1036B000F7F8F09402C000E010E0A12C60E070E0A8
:1036C00080E09FE3AB1441F020E030E040E251E4C1
:1036D0000E948E22A394F6CF9B01AC01C701B601D4
:1036E0000E9426226B017C010E94FB222B013C01DF
:1036F0000E9427239B01AC01C701B6010E9425222D
:103700006B017C012AE0B301A201CE010E94381AAC
:10371000080F191FBB2039F065E771E0CE010E9448
:103720000B1A080F191F7B2C772041F120E030E0A5
:1037300040E251E4C701B6010E94DD236B017C0128
:103740000E94F6224B01AA2497FCA094BA2C2AE0EE
:1037500030E0B501A401CE010E94871A080F191F9D
:10376000C501B4010E9429239B01AC01C701B60128
:103770000E9425226B017C017A94D6CFC801DF918B
:10378000CF911F910F91FF90EF90DF90CF90BF905E
:10379000AF909F908F907F906F905F904F90089523
:1037A0000C94E51A4091B6045091B7042091B404EA
:1037B0003091B50442175307B4F49091E800957026
:1037C000E1F39091E80092FD19C08093F10080919F
:1037D000B6049091B70401968F739927892B19F439
:1037E0008EEF8093E8008091B6049091B704019623
:1037F0009093B7048093B60481E0089580E0089523
:10380000CF92DF92EF92FF920F931F93CF93DF93AC
:103810001F92CDB7DEB7082F162FF42E862F880FF4
:103820008E5F99830E94D21B83E00E94D21BE02E00
:10383000C02E9981D92E8C2D8E19811798F4F601FE
:10384000F7FE02C0849101C080810E94D21B082F24
:1038500080E00E94D21B8023FFEFCF1ADF0A811184
:10386000EACF01C081E00F90DF91CF911F910F91BE
:10387000FF90EF90DF90CF9008958091D700816006
:103880008093D70080EA8093D80089B58F7E89BD68
:1038900089B5826089BD09B400FEFDCF61E070E0AA
:1038A00080E090E00E940D178091D8008F7C8061AD
:1038B0008093D8008091E000807F8093E00008959D
:1038C000CF93DF931F92CDB7DEB71982CE01019659
:1038D0000E9409190E941122BE016F5F7F4F0E9452
:1038E0008A2189810F90DF91CF9108952FB7FC0134
:1038F0002083F89467706093E9000895CF93DF9375
:103900001F92CDB7DEB7682FCE0101960E94761CBC
:103910008091F20099819FBF0F90DF91CF91089520
:10392000FF920F931F93CF93DF9300D0CDB7DEB7F5
:10393000F62E8A019091BA04992311F057FF03C023
:103940008FEF9FEF2AC0682FCE0101967A830E94E5
:10395000761C8091F20090E0A8017A81801791078F
:103960000CF4AC01EF2DF72FF40E84E6FE1631F0C7
:103970008093BB049091F1009193F8CF41155105CC
:1039800021F08091F200882321F089818FBFCA0144
:1039900004C08BE68093E800F8CF0F900F90DF9182
:1039A000CF911F910F91FF900895CF93DF931F92B6
:1039B000CDB7DEB741E050E0BE016F5F7F4F0E94A0
:1039C000901C019719F4898190E002C08FEF9FEF5E
:1039D0000F90DF91CF910895CF93DF931F92CDB7D2
:1039E000DEB7682FCE0101960E94761C9091E80008
:1039F000892F807295FF04C09091F20080E4891BAA
:103A000099819FBF0F90DF91CF9108956F927F9220
:103A10008F929F92AF92BF92CF92DF92EF92FF92DE
:103A20000F931F93CF93DF931F92CDB7DEB7782EFE
:103A30007B01C42EB52E8091BA04882369F0042F2F
:103A4000152F8AEFD82E872D8072982E9AE3A92EF3
:103A5000872D8074882E11C08FEF9FEF56C0872D61
:103A60000E94EC1C682E81110CC0DA94A9F361E06D
:103A700070E080E090E00E940D170115110579F7C4
:103A80003BC0282F30E0021713070CF4602E672D7F
:103A9000CE0101960E94761C8091E80085FF29C026
:103AA000262D30E0021B130B992039F06A948FEF1A
:103AB0006816B1F01092F100F9CFF701862D77FE6C
:103AC00007C0815058F094919093F1003196F9CF4E
:103AD000815020F091919093F100FACFE20EF31E05
:103AE0008091E80085FF0EC00115110511F48110C9
:103AF00009C089818FBFC1CF84E68093BC048C2D1F
:103B00009B2D03C0A092E800F4CF0F90DF91CF91DE
:103B10001F910F91FF90EF90DF90CF90BF90AF90EB
:103B20009F908F907F906F9008951092E90010926F
:103B3000B7041092B6049093B5048093B40408952A
:103B4000CF92DF92FF920F931F93CF93DF9300D01A
:103B5000CDB7DEB7F82E8A016B0101151105B1F062
:103B6000F601F7FE02C0849101C0808149835A8327
:103B70000E94D21B01501109FFEFCF1ADF0A4981C1
:103B80005A818111EACF8FEF9FEF01C0CA010F90D8
:103B90000F90DF91CF911F910F91FF90DF90CF9009
:103BA0000895CF93DF939B01A4E6BBEF2115310568
:103BB000F9F0A9012134310514F040E450E0E0911E
:103BC000E800E2FFFCCFFB01E21BF30BE80FF91F5B
:103BD000CE2FC40FCE1729F0D091F100D0833196AB
:103BE000F9CFA093BB04B093E800241B350BDECFC4
:103BF000CB01DF91CF9108951F920F920FB60F92D4
:103C00001124DF92EF92FF920F931F932F933F9314
:103C10004F935F936F937F938F939F93AF93BF93D4
:103C2000EF93FF93CF93DF93CDB7DEB76C97DEBFF3
:103C3000CDBF1092E9008091E80083FF2EC1FE0104
:103C400075968F01AE01435E5F4F9F012F5F3F4F1F
:103C50008091F10080832417350711F0F901F5CF29
:103C600084E68093BB0482EF8093E8005D8957FF70
:103C700005C08091E80080FFFCCF03C08EEF8093E9
:103C8000E800852F807609F0EFC04E898F89D88CA7
:103C900041110CC0503829F48091B9048093F1008F
:103CA00002C01092F1001092F100F0C0282F30E015
:103CB0003D29413051F45111E9C02130310509F05D
:103CC000E5C08091B9048D7F0BC0433061F4511180
:103CD000DDC02130310509F0D9C08091B90482607E
:103CE0008093B904D3C0453041F49091E80090FF2F
:103CF000FCCF80688093E300C9C0463009F08BC0D8
:103D0000EB8CFC8C22E0D2122CC080E090E00E9470
:103D1000951D0E94601C99E08E010F5F1F4FF801F6
:103D2000292F11922A95E9F79983DA8291E09E83EF
:103D300090EA98879AEF99872091B6043091B7045A
:103D4000275F3F4F3C832B838D83C7010E94951DC6
:103D500049E050E0B80180E00E94A01D0E94601C74
:103D600095C0C7010E94951D0E941122B8010E94B2
:103D7000B321009719F00CF089C08CC081E0D812F3
:103D80000EC08B8D9C8D089719F481E08093B3044D
:103D90008091B30481112FC061EB71E031C0E3E089
:103DA000DE1278C08F89882349F1823029F440E8F7
:103DB0006CE08CEC91E01CC0813029F440E868E0B4
:103DC00083EC91E015C0833009F064C00E94112299
:103DD0008E010F5F1F4FB8010E94D221F8010190A0
:103DE0000020E9F73197E01BF10B40E06E2FC8018E
:103DF0000E94001C49C06FE971E002C069ED71E0EA
:103E00006115710509F446C0FB01449150E080E85A
:103E10000E94A01D3BC04730E9F1483021F481E009
:103E20008093F10033C0493089F5537099F5E2E48D
:103E3000F1E081E021E036E39081992361F0809305
:103E4000E9002093EB0091919093EC003093ED000A
:103E50008F5F873089F78EE78093EA001092EA003F
:103E60008F898093BA0412C08B8D9C8D0E94951D02
:103E7000898D811104C0C8010E94141905C00E94D7
:103E80001122B8010E94F121882321F08EEF809346
:103E9000E80003C081E28093EB006C960FB6F894C3
:103EA000DEBF0FBECDBFDF91CF91FF91EF91BF91EC
:103EB000AF919F918F917F916F915F914F913F91C2
:103EC0002F911F910F91FF90EF90DF900F900FBEF9
:103ED0000F901F9018958093E9008091F20088233D
:103EE00019F08AE38093E80008951F920F920FB6AD
:103EF0000F9211242F933F934F935F936F937F9370
:103F00008F939F93AF93BF93CF93EF93FF93C09102
:103F1000E1008091E100837F8093E1008093E100E4
:103F2000C3FF0FC01092E90081E08093EB00109274
:103F3000EC0082E38093ED001092BA0488E0809355
:103F4000F000C2FF15C083E00E946B1F8091BC048B
:103F5000882329F08091BC0481508093BC04809117
:103F6000BB04882329F08091BB0481508093BB045B
:103F7000C4FF10C08091E2008E7E81608093E200D9
:103F80008091E1008F7E8093E1008091B8048E7E65
:103F9000806111C0C0FF11C08091E2008E7E8061FF
:103FA0008093E2008091E1008E7E8093E100809119
:103FB000B8048E7E81608093B804FF91EF91CF9119
:103FC000BF91AF919F918F917F916F915F914F9131
:103FD0003F912F910F900FBE0F901F901895109248
:103FE000BA041092B9041092B8040E943D1C80914A
:103FF000E1008E7E8093E1008DE08093E200EEEFA1
:10400000FFE7859194918B3F9C4D19F481E080935B
:10401000B1040895FC01808191810C944D25CF93CA
:10402000DF93EC0188819981009711F00E944D2562
:10403000198218821D821C821B821A82DF91CF9105
:1040400008950F931F93CF93DF93EC018B016F5F64
:104050007F4F888199810E94DC25009731F09983F8
:1040600088831B830A8381E001C080E0DF91CF91C8
:104070001F910F910895CF93DF93EC01888199816F
:10408000892B29F08A819B818617970760F4CE01DE
:104090000E942120882341F08C819D81892B19F475
:1040A000E881F981108281E0DF91CF910895EF924C
:1040B000FF920F931F93CF93DF93EC017B018A0153
:1040C000BA010E943B20811104C0CE010E940F2042
:1040D00007C01D830C83B701888199810E94AF2698
:1040E000CE01DF91CF911F910F91FF90EF90089536
:1040F000FC011182108213821282158214826115D2
:10410000710559F0FB0101900020E9F7AF01415022
:104110005109461B570B0C94572008950F931F937A
:10412000CF93DF938C01EB01FC018081918100979B
:1041300099F0428153812C813D814217530750F001
:10414000688179810E94AF268C819D81F8019583D9
:10415000848313C00E944D2588819981F801918341
:1041600080838A819B81938382838C819D819583C7
:104170008483198218821B821A821D821C82DF911D
:10418000CF911F910F910895CF93DF93EC01861784
:10419000970711F00E948E20CE01DF91CF910895F4
:1041A000CF93DF93EC016115710561F0FB01019084
:1041B0000020E9F7AF0141505109461B570B0E94FF
:1041C000572002C00E940F20CE01DF91CF910895A9
:1041D0000F931F93CF93DF93CDB7DEB762970FB6E0
:1041E000F894DEBF0FBECDBF8C01CB01F801118268
:1041F0001082138212821582148250E0BE016F5F1A
:104200007F4F0E94B626BE016F5F7F4FC8010E949C
:10421000D02062960FB6F894DEBF0FBECDBFDF91FF
:10422000CF911F910F910895EF92FF920F931F93DB
:10423000CF93DF93CDB7DEB7A1970FB6F894DEBF6B
:104240000FBECDBF7C01CB01BA01F70111821082F4
:10425000138212821582148242E0420F8E010F5F98
:104260001F4F0E949424BC01C7010E94D020A19638
:104270000FB6F894DEBF0FBECDBFDF91CF911F9177
:104280000F91FF90EF900895BF92CF92DF92EF923F
:10429000FF920F931F93CF93DF936C017B01EA0191
:1042A00089012417350720F48D2FE901042F182FD9
:1042B00060E972E0C6010E947820D70114968D91C2
:1042C0009C911597C817D907C8F48017910708F46F
:1042D0008C01D701ED91FC911197E00FF11FB08097
:1042E00010826D917C916C0F7D1FC6010E94D020C1
:1042F000D701ED91FC91E00FF11FB082C601DF9173
:10430000CF911F910F91FF90EF90DF90CF90BF90D2
:1043100008950895EF92FF920F931F93CF93DF9329
:104320007B01FC01C281D38100E010E0209781F085
:10433000E881F9810280F381E02DB701CE01099572
:1043400097FD08C0080F191F0884D985C02DEECF2E
:10435000C80102C08FEF9FEFDF91CF911F910F91A6
:10436000FF90EF9008950F931F93CF93DF938B01EE
:10437000FC01C281D381209771F0E881F98104802A
:10438000F581E02DB801CE010995009731F408843C
:10439000D985C02DF0CF80E090E0DF91CF911F91C3
:1043A0000F9108950F931F93CF93DF938B01FC011F
:1043B000C281D381209771F0E881F9810680F7816D
:1043C000E02DB801CE010995080F111D0884D9858B
:1043D000C02DF0CFF8011082DF91CF911F910F9186
:1043E00008950F931F93CF93DF938B01FC01C2813C
:1043F000D381209771F0E881F9810190F081E02D5F
:10440000B801CE010995811106C00884D985C02D57
:10441000F0CF80E001C081E0DF91CF911F910F913B
:1044200008958091C10481110DC082E08093BD0484
:1044300084E08093BE041092C0041092BF0481E017
:104440008093C1048DEB94E008955058BB27AA27B0
:104450000ED075C166D130F06BD120F031F49F3FA2
:1044600011F41EF45BC10EF4E095E7FB51C1E92F96
:1044700077D180F3BA17620773078407950718F09E
:1044800071F49EF58FC10EF4E0950B2EBA2FA02D7E
:104490000B01B90190010C01CA01A0011124FF27F1
:1044A000591B99F0593F50F4503E68F11A16F040EC
:1044B000A22F232F342F4427585FF3CF46953795EB
:1044C0002795A795F0405395C9F77EF41F16BA0BB0
:1044D000620B730B840BBAF09150A1F0FF0FBB1F5E
:1044E000661F771F881FC2F70EC0BA0F621F731FA7
:1044F000841F48F4879577956795B795F7959E3F04
:1045000008F0B3CF9395880F08F09927EE0F979591
:1045100087950895D9D008F481E008950CD00FC193
:1045200007D140F0FED030F021F45F3F19F0F0C029
:10453000511139C1F3C014D198F39923C9F355230C
:10454000B1F3951B550BBB27AA2762177307840786
:1045500038F09F5F5F4F220F331F441FAA1FA9F33C
:1045600033D00E2E3AF0E0E830D091505040E6952E
:10457000001CCAF729D0FE2F27D0660F771F881F8F
:10458000BB1F261737074807AB07B0E809F0BB0B7E
:10459000802DBF01FF2793585F4F2AF09E3F5105A2
:1045A00068F0B6C000C15F3FECF3983EDCF386953F
:1045B00077956795B795F7959F5FC9F7880F911D18
:1045C0009695879597F90895E1E0660F771F881F04
:1045D000BB1F621773078407BA0720F0621B730BB7
:1045E000840BBA0BEE1F88F7E095089504D0689409
:1045F000B111D9C00895BCD088F09F5790F0B92F61
:104600009927B751A0F0D1F0660F771F881F991F27
:104610001AF0BA95C9F712C0B13081F0C3D0B1E039
:104620000895C0C0672F782F8827B85F39F0B93F49
:10463000CCF3869577956795B395D9F73EF4909529
:104640008095709561957F4F8F4F9F4F0895E894A7
:1046500009C097FB3EF490958095709561957F4FCA
:104660008F4F9F4F9923A9F0F92F96E9BB27939578
:10467000F695879577956795B795F111F8CFFAF488
:10468000BB0F11F460FF1BC06F5F7F4F8F4F9F4FB9
:1046900016C0882311F096E911C0772321F09EE817
:1046A000872F762F05C0662371F096E8862F70E07D
:1046B00060E02AF09A95660F771F881FDAF7880F57
:1046C0009695879597F90895990F0008550FAA0BAD
:1046D000E0E8FEEF16161706E807F907C0F0121615
:1046E0001306E407F50798F0621B730B840B950B18
:1046F00039F40A2661F0232B242B252B21F408956D
:104700000A2609F4A140A6958FEF811D811D089509
:1047100097F99F6780E870E060E008959FEF80EC74
:10472000089500240A941616170618060906089517
:1047300000240A9412161306140605060895092E7D
:104740000394000C11F4882352F0BB0F40F4BF2BEC
:1047500011F460FF04C06F5F7F4F8F4F9F4F08952C
:1047600057FD9058440F551F59F05F3F71F0479522
:10477000880F97FB991F61F09F3F79F08795089507
:10478000121613061406551FF2CF4695F1DF08C026
:10479000161617061806991FF1CF86957105610543
:1047A00008940895E894BB2766277727CB0197F9EB
:1047B00008958ADF08F48FEF08950BD0C0CFB1DFE2
:1047C00028F0B6DF18F0952309F0A2CFA7CF112467
:1047D000EACFC6DFA0F3959FD1F3950F50E0551FA8
:1047E000629FF001729FBB27F00DB11D639FAA2746
:1047F000F00DB11DAA1F649F6627B00DA11D661F95
:10480000829F2227B00DA11D621F739FB00DA11DB5
:10481000621F839FA00D611D221F749F3327A00D6F
:10482000611D231F849F600D211D822F762F6A2F0B
:1048300011249F5750408AF0E1F088234AF0EE0F90
:10484000FF1FBB1F661F771F881F91505040A9F79D
:104850009E3F510570F05CCFA6CF5F3FECF3983ED2
:10486000DCF3869577956795B795F795E7959F5F04
:10487000C1F7FE2B880F911D9695879597F908959E
:1048800023DF880B990B089597FB072E16F40094ED
:1048900007D077FD09D00E94802407FC05D03EF4A4
:1048A000909581959F4F0895709561957F4F0895DC
:1048B000A1E21A2EAA1BBB1BFD010DC0AA1FBB1F24
:1048C000EE1FFF1FA217B307E407F50720F0A21B96
:1048D000B30BE40BF50B661F771F881F991F1A9403
:1048E00069F760957095809590959B01AC01BD012D
:1048F000CF010895EE0FFF1F0590F491E02D09946C
:10490000AA1BBB1B51E107C0AA1FBB1FA617B707F5
:1049100010F0A61BB70B881F991F5A95A9F7809511
:104920009095BC01CD010895EF920F931F93CF9303
:10493000DF93E80147FF02C034E101C034E0E42F17
:10494000FF27E7FDF095F7FF03C0F195E195F10929
:10495000E32E022F2E2FAE010E94FC26CE01DF9106
:10496000CF911F910F91EF900895CF93DF938230F5
:10497000910510F482E090E0E091CB04F091CC043A
:1049800020E030E0A0E0B0E0309739F14081518183
:1049900048175907B8F04817590771F48281938175
:1049A000109729F013969C938E9312972CC0909396
:1049B000CC048093CB0427C02115310531F0421778
:1049C000530718F0A901DB0101C0EF019A01BD01F5
:1049D000DF010280F381E02DD7CF21153105F9F0F9
:1049E000281B390B2430310580F48A819B816115A5
:1049F000710521F0FB019383828304C09093CC0462
:104A00008093CB04FE01329644C0FE01E20FF31FF7
:104A10008193919322503109398328833AC02091A0
:104A2000C9043091CA04232B41F420910201309132
:104A300003013093CA042093C904209100013091EE
:104A400001012115310541F42DB73EB74091040114
:104A500050910501241B350BE091C904F091CA0463
:104A6000E217F307A0F42E1B3F0B2817390778F045
:104A7000AC014E5F5F4F2417350748F04E0F5F1FA4
:104A80005093CA044093C9048193919302C0E0E01B
:104A9000F0E0CF01DF91CF910895CF93DF9300979E
:104AA00009F487C0FC01329713821282C091CB04B3
:104AB000D091CC04209781F420813181280F391FB7
:104AC0008091C9049091CA048217930779F5F093F5
:104AD000CA04E093C9046DC0DE0120E030E0AE17E7
:104AE000BF0750F412964D915C9113979D014115AB
:104AF000510509F1DA01F3CFB383A28340815181DB
:104B0000840F951F8A179B0771F48D919C911197C3
:104B1000840F951F02969183808312968D919C91AC
:104B20001397938382832115310529F4F093CC04E4
:104B3000E093CB043EC0D9011396FC93EE931297F9
:104B40004D915D91A40FB51FEA17FB0779F48081A1
:104B50009181840F951F0296D90111969C938E9393
:104B60008281938113969C938E931297E0E0F0E0FC
:104B70008A819B81009719F0FE01EC01F9CFCE01EB
:104B8000029628813981820F931F2091C9043091A8
:104B9000CA042817390769F4309729F41092CC0415
:104BA0001092CB0402C013821282D093CA04C09325
:104BB000C904DF91CF910895A0E0B0E0E2EEF5E204
:104BC0000C946629EC01CB01209719F40E94B524BE
:104BD000B8C0FE01E60FF71F9E0122503109E2170F
:104BE000F30708F4ACC0D9010D911C911197061779
:104BF0001707B8F00530110508F49FC0A80144500C
:104C000051094617570708F498C002501109061BAE
:104C1000170B019311936D937C93CF010E944D2547
:104C20008CC05B01A01AB10A4E01800E911EA091AA
:104C3000CB04B091CC04612C712C60E070E0109733
:104C400009F449C0A815B905C9F5ED90FC90119774
:104C5000670142E0C40ED11CCA14DB0478F147019D
:104C60008A189B08640142E0C40ED11C1296BC90C5
:104C700012971396AC91B5E0CB16D10440F0B282F6
:104C8000A38391828082D9018D939C9309C00E5F8A
:104C90001F4F0E0D1F1DF90111830083EB2DFA2FFD
:104CA0006115710531F0DB011396FC93EE931297B9
:104CB00044C0F093CC04E093CB043FC06D917C9151
:104CC00011976616770608F43B01BD0112960D9008
:104CD000BC91A02DB4CF6091C9047091CA0468152D
:104CE0007905E9F468167906D0F4409100015091F5
:104CF00001014115510541F44DB75EB760910401C2
:104D000070910501461B570BE417F507C0F4F093AB
:104D1000CA04E093C904F901918380830EC00E9404
:104D2000B5247C01009759F0A801BE010E94A62677
:104D3000CE010E944D25C70104C0CE0102C080E013
:104D400090E0CDB7DEB7EEE00C948229FB01DC01E8
:104D500002C001900D9241505040D8F70895FB01D8
:104D6000DC0101900D920020E1F7089545325105D4
:104D700020F4423010F00C94C126FB011082CB01CC
:104D80000895BB274A3031F4992322F4BDE290956F
:104D900081959F4F0C94CD26BB27FB015527AA2751
:104DA000880F991FAA1FA41710F0A41B83955051B8
:104DB000B9F7A05DAA3308F0A95DA193009779F730
:104DC000B111B1931192CB010C945229F999FECFF4
:104DD00092BD81BDF89A992780B50895262FF9993B
:104DE000FECF1FBA92BD81BD20BD0FB6F894FA9ACE
:104DF000F99A0FBE019608956F927F929F92AF929B
:104E0000BF92CF92DF92EF92FF920F931F93CF93B7
:104E1000DF93CDB7DEB729970FB6F894DEBF0FBE8C
:104E2000CDBF6A01B22E102F0C3320F4FF24F3946F
:104E3000F00E02C04CE3F42E0F2D27E0AE014F5FC1
:104E40005F4F0E947A287981272F2970213031F015
:104E5000E1FC06C0E0FC06C060E005C06DE203C0F6
:104E60006BE201C060E2AE2DA07173FF36C0662315
:104E700011F084E001C083E08B1510F4B81A01C072
:104E8000B12CA1110BC0F6018B2D90E2882319F0F3
:104E900091938150FBCFCB0CD11CB12C662331F008
:104EA000F601608396012F5F3F4F6901C6010396AB
:104EB000E2FE05C02EE4F601208331E404C02EE6B4
:104EC000F601208331E631832283FC012B2D30E271
:104ED0002223F1F131932150FBCF72FF40C06623B2
:104EE00011F084E001C083E08B1510F4B81A01C002
:104EF000B12CA1110BC0F6018B2D90E2882319F083
:104F000091938150FBCFCB0CD11CB12C662331F097
:104F1000F601608396012F5F3F4F6901C60103963A
:104F2000E2FE07C029E4F60120832EE4218326E473
:104F300006C029E6F60120832EE6218326E6228399
:104F4000FC012B2D30E2222319F031932150FBCFAD
:104F5000FC01EB0DF11D10828EEF9FEFB7C0B1E0A9
:104F6000611101C0B0E04B2F50E01816190624F46F
:104F70009C012F5F3F4F02C021E030E0240F351F1E
:104F8000112329F0412F50E04F5F5F4F02C040E0F6
:104F900050E0420F531F2B2D30E04217530714F4FB
:104FA000B41A01C0B12C2E2D287159F4F6012B2D05
:104FB00030E2222319F031932150FBCFCB0CD11CCE
:104FC000B12CBB2331F0F601608396012F5F3F4F78
:104FD0006901A1110BC0F6012B2D30E3222319F03A
:104FE00031932150FBCFCB0CD11CB12CF80E0A8190
:104FF000372F3071A32E74FF03C0013309F4FA94E4
:105000001F142CF42F2D293018F028E001C021E0C6
:10501000682F392F97FF02C060E030E0462F532FF2
:10502000612C712C3EE2932EBC01621B71099B0125
:10503000DC01A41BB50BE1E0F0E0EC0FFD1FAE0FAF
:10504000BF1FE12EF12CF194E194F1084F3FFFEFE7
:105050005F0731F4F6019082B6016F5F7F4F6B01FD
:10506000841795074CF02417350734F4BD01660DFD
:10507000771DFB01118101C010E341505109FFEF81
:105080006F1A7F0AB6016F5F7F4F4E155F0524F0E0
:10509000F60110836B01DACF4817590739F406334C
:1050A00020F4053319F4A11001C011E3F6011083B7
:1050B000FB018B2D90E2882319F091938150FBCF57
:1050C000FB01EB0DF11D108280E090E029960FB6F8
:1050D000F894DEBF0FBECDBFDF91CF911F910F912E
:1050E000FF90EF90DF90CF90BF90AF909F907F9018
:1050F0006F900895283008F027E03327DA01990FE0
:10510000311D87FD916000966105710539F43260AB
:105110002E5F3D9330E32A95E1F708959F3F30F0ED
:1051200080387105610509F03C5F3C5F3D9391302B
:1051300008F08068911DDF93CF931F930F93FF9228
:10514000EF92192F987F9695E92F96959695E90FEE
:10515000FF27E95CFD4F99273327EE24FF24A701A1
:10516000E70105900894079428F4360FE71EF81E0F
:10517000491F511D660F771F881F991F0694A1F7BD
:105180000590079428F4E70EF81E491F561FC11D0D
:10519000770F881F991F661F0694A1F70590079443
:1051A00028F4F80E491F561FC71FD11D880F991FDD
:1051B000661F771F0694A1F70590079420F4490F06
:1051C000561FC71FD81F990F661F771F881F069489
:1051D000A9F784911095177041F0D695C79557950A
:1051E0004795F794E7941A95C1F7EDEDF1E06894CF
:1051F0001590159135916591959105907FE2739584
:10520000E118F10A430B560BC90BD009C0F7E10CAA
:10521000F11E431F561FC91FD01D7EF4703311F4B9
:105220008A95E6CFE894015030F0080F0AF4002781
:10523000021708F4202F2395022F7A3328F079E300
:105240007D932A95E9F710C07D932A9589F60694F7
:1052500097956795379517951794E118F10A430BC1
:10526000560BC90BD00998F023957E9173957A332C
:1052700008F070E37C932013B8F77E9170617D9302
:1052800030F0839571E37D9370E32A95E1F7112463
:10529000EF90FF900F911F91CF91DF91992787FD9C
:1052A00090950895DC01FC01672F71917723E1F758
:1052B000329704C07C916D9370836291AE17BF07E3
:1052C000C8F308952F923F924F925F926F927F9210
:1052D0008F929F92AF92BF92CF92DF92EF92FF9206
:1052E0000F931F93CF93DF93CDB7DEB7CA1BDB0BB2
:1052F0000FB6F894DEBF0FBECDBF09942A88398857
:1053000048885F846E847D848C849B84AA84B9845D
:10531000C884DF80EE80FD800C811B81AA81B98169
:10532000CE0FD11D0FB6F894DEBF0FBECDBFED017D
:065330000895F894FFCF80
:105336000000CD04800000080C0E0C0800000400DC
:105346000400040004000A040A040A040A000F0008
:1053560032000000900100000100801580158015C4
:105366008015801501FFFFFFFF00E100000000002F
:105376000000C18081000000202020202020202065
:10538600200025005467742E204D69783A002F308E
:10539600300025204F3200546F6C6572616E636574
:1053A60000207074732E0053312054617267657447
:1053B60000533220546172676574002F00206D56C9
:1053C60000456E746572696E670043616C6962724E
:1053D6006174696F6E204D6F64650043616C69622C
:1053E600726174696F6E20464F323A0025204F78FD
:1053F6007967656E00436C69636B20746F00636F39
:105406006E6669726D004261642043616C69627206
:105416006174696F6E0044617461005361766564FE
:1054260000564D4450565F317C315F564D445056C0
:105436000D0A004D69784D6F6E69746F72007600C3
:105446007620302E3200506C6561736500526563BC
:10545600616C696272617465004F7074696F6E7316
:10546600004D656E750043616C696272617465001A
:10547600536574204D6978004F322053656E736F03
:105486007200546172676574730044697361626C7B
:105496006500457869740000000000B310E31956F2
:1054A6004D4450455F003A323A005F564D445045F0
:1054B60000564D4450435F005F564D4450430D0A1D
:1054C600004572726F723A20417474656D70742073
:1054D600746F20736574206120726561642D6F6E30
:1054E6006C79207661726961626C65206F722064E6
:1054F6006174612074797065206E6F7420737570A5
:10550600706F727465640D0A0000000000F812CB1B
:1055160012A012A812BB12CA1200000000AC18F3A7
:1055260018D618E618C218D3186E616E00696E6632
:06553600006F7666000024
:1070000055C000006EC000006CC000006AC00000E7
:1070100068C0000066C0000064C0000062C00000DC
:1070200060C000005EC00000DAC400005AC000006A
:1070300058C0000056C0000054C0000052C00000FC
:1070400050C0000076C000004CC000004AC00000E4
:1070500048C0000046C0000044C0000042C000001C
:1070600040C000003EC000003CC000003AC000002C
:1070700038C0000036C0000034C0000032C000003C
:1070800030C000002EC000002CC000002AC000004C
:1070900028C0000026C0000024C0000022C000005C
:1070A00020C000001EC000001CC0000011241FBE34
:1070B000CFEFDAE0DEBFCDBF11E0A0E0B1E0EEEF50
:1070C000FEE702C005900D92AA3CB107D9F711E086
:1070D000AAECB1E001C01D92A03EB107E1F781D357
:1070E0000CC78ECFF89410926F001092810010920E
:1070F00085001092840081E085BF15BE47980C94EE
:10710000000008952091D4013091D5012F5F3F4FA9
:107110003093D5012093D401932F37FF03C08EEF16
:10712000831B982F990F921710F447980895479A48
:1071300008951F920F920FB60F9211242F938F93E1
:107140009F93EF93FF93109285001092840080919B
:10715000CA019091CB01009729F001979093CB0140
:107160008093CA018091CC019091CD01009729F0C4
:1071700001979093CD018093CC01E0E0F0E0859100
:1071800094918F5F9F4F49F08091CE019091CF01F4
:1071900001969093CF018093CE01FF91EF919F9143
:1071A0008F912F910F900FBE0F901F90189584E034
:1071B0008093E9000DC08091E8008B778093E80010
:1071C00003C08EB3882351F08091E80082FFF9CF8D
:1071D0008091E80085FFEFCF8091F1000895982F0E
:1071E00083E08093E9008091E80085FD0DC08091E7
:1071F000E8008E778093E80003C08EB3882361F0A7
:107200008091E80080FFF9CF9093F10084E690E050
:107210009093CB018093CA0108954F925F926F9231
:107220007F928F929F92AF92BF92CF92DF92EF9216
:10723000FF920F931F93CF93DF9384E08093E90035
:107240008091E80082FF56C284E690E09093CD01E1
:107250008093CC01ACDF182F853481F48CE195E26A
:107260009093CF018093CE0107B600FCFDCFF99932
:10727000FECF81E180935700E89503C0843519F46F
:1072800096DF8DE00DC28C34E1F38035D1F3843785
:1072900021F484E4A4DF80E003C2813611F489E59F
:1072A000FFC18134B1F483DF182F81DF90E0880FB4
:1072B000991FAA2797FDA095BA2F312F330F20E0F1
:1072C000442737FD4095542F822B932BA42BB52BAD
:1072D000B8C1803711F483E5E3C1833549F4C0E0D8
:1072E000D1E089917CDF21E0C730D207D1F7D9C145
:1072F000863521F481E373DF80E3D2C1833731F433
:1073000087E86DDF85E96BDF8EE1CAC18536B9F4A8
:10731000E0E0F0E093E085E090935700E89507B651
:1073200000FCFDCF80935700E89507B600FCFDCF29
:10733000E058FF4FA0E7E030FA0771F7A2CF82379D
:1073400039F4E1E0F0E089E0809357008491A8C12E
:10735000863439F4E0E0F0E089E0809357008491CE
:107360009FC18E3439F4E3E0F0E089E08093570068
:10737000849196C1813539F4E2E0F0E089E08093B0
:10738000570084918DC1823631F489E528DF80E091
:1073900026DF80E885C1823419F0873609F0E5C020
:1073A0001092CF011092CE0102DF082F00DFF82EDD
:1073B000FEDE682E8554823008F071C1902F80E087
:1073C000CF2DD0E0C82BD92B10926F00173609F0C3
:1073D0004BC081E180935700E895DD24CC24C39411
:1073E0003FC0E090D001F090D1010091D201109106
:1073F000D301B6E46B16D9F4ED2DF0E0EE29FF29A8
:10740000E4918E2FECDEDD2081F082E090E0A0E0C0
:10741000B0E0E80EF91E0A1F1B1FE092D001F092A7
:10742000D1010093D2011093D301DC2418C0D801FC
:10743000C701B695A7959795879549D5D0DE82E087
:1074400090E0A0E0B0E0E80EF91E0A1F1B1FE092DA
:10745000D001F092D1010093D2011093D301219772
:10746000209709F0BECF7DC08090D0019090D101CF
:10747000A090D201B090D30196E4691609F05DC0E6
:1074800083E0F40180935700E89507B600FCFDCF38
:1074900054C0F6E46F1661F5772031F1E090D00129
:1074A000F090D1010091D2011091D30180DED82E4D
:1074B000CC24852D90E08C299D29F7010C01409268
:1074C0005700E895112482E090E0A0E0B0E0E80EDB
:1074D000F91E0A1F1B1FE092D001F092D101009308
:1074E000D2011093D30102C062DE582E742423C04F
:1074F000E090D001F090D1010091D2011091D30120
:1075000016950795F794E79452DE682FC701E7D4E4
:107510008091D0019091D101A091D201B091D3017D
:107520000296A11DB11D8093D0019093D101A0932B
:10753000D201B093D301219704C055247724442469
:107540004394209709F0A5CF96E4691641F485E0AD
:10755000F40180935700E89507B600FCFDCF8DE05D
:107560003EDE82E080936F009CC0833471F4009112
:10757000D0011091D1011BDE90E021E0F8010C0157
:1075800020935700E89511247CCE833619F5E090BE
:10759000D001F090D1010091D2011091D30107DE0A
